:020000040800F2
:10000000D01800109D010008A5010008A7010008F4
:10001000A9010008AB010008AD01000800000000C4
:10002000000000000000000000000000AF01000818
:10003000B101000800000000B3010008B50100088C
:10004000B7010008B7010008B7010008B7010008B0
:10005000B7010008B7010008B7010008B7010008A0
:10006000B7010008B7010008F9190008B701000836
:10007000B7010008B7010008B7010008B701000880
:10008000B7010008B7010008B7010008B701000870
:10009000B7010008B7010008B7010008B701000860
:1000A000BD560008DD560008B7010008B70100087A
:1000B0000957000891570008BD570008B70100080C
:1000C000B7010008B7010008B7010008B701000830
:1000D000B7010008555F0008B15F0008B7010008CC
:1000E000B7010008B7010008B7010008B701000810
:1000F000B701000879580008B7010008B7010008E7
:10010000B7010008B7010008E9570008B701000867
:10011000455F0008B70100082D580008595800082D
:10012000B7010008B7010008B7010008B7010008CF
:10013000B7010008B7010008B7010008B7010008BF
:10014000B7010008B7010008B7010008B7010008AF
:10015000B7010008B7010008B7010008DD6000081A
:10016000B7010008B7010008B7010008B70100088F
:10017000B7010008B7010008B7010008B70100087F
:10018000B7010008B7010008DFF80CD000F0B4F99F
:1001900000480047896F0008D018001006488047C3
:1001A00006480047FEE7FEE7FEE7FEE7FEE7FEE75C
:1001B000FEE7FEE7FEE7FEE7555600088901000866
:1001C000202A04DB203A00FA02F100207047914017
:1001D000C2F1200320FA03F3194390407047202A0C
:1001E00004DB203A21FA02F00021704721FA02F3E1
:1001F000D040C2F12002914008431946704740EABE
:1002000001039B0703D009E008C9121F08C0042A94
:10021000FAD203E011F8013B00F8013B521EF9D27B
:100220007047D2B201E000F8012B491EFBD27047A3
:100230000022F6E710B513460A4604461946FFF7B2
:10024000F0FF204610BD2DE9F04D81EA030404F0D3
:10025000004B21F0004514464FF0000A23F0004106
:1002600050EA050220D054EA01021DD0C5F30A5716
:100270000246C5F31303C1F31300C1F30A5640F459
:10028000801543F48013A7EB0608101BD64608F22E
:10029000FD3873EB050002D308F1010801E0921864
:1002A0005B41B8F1000F03DA00200146BDE8F08D94
:1002B00000204FF48011064684460EE0171B73EBB6
:1002C000050705D3121B63EB050306434CEA010C3B
:1002D00049084FEA300092185B4150EA0107EDD11E
:1002E00052EA030012D082EA040083EA05010843BF
:1002F00005D0101BAB4106D20122002306E00022EC
:100300004FF0004302E06FF0010253101AEB0600B9
:100310004CEB085110EB0A0041EB0B01BDE8F04D2E
:1003200000F08DB80EB5C10F80EAE0700844CA072E
:10033000002140F233438DE80E000A460B4600F0E0
:100340008DF803B000BD00F0004230F000400AD04C
:10035000C10D01F56071C0F3160042EA0151C208F7
:1003600040071143704700200146704701F00043E9
:1003700030B421F0004150EA010206D00A0DA2F586
:100380006072C1F31301002A02DC30BC0020704708
:10039000440F44EAC104C100E01830BC00EBC25075
:1003A00000F016B830B50B4601460020202201248B
:1003B00009E021FA02F59D4205D303FA02F5491B33
:1003C00004FA02F52844151EA2F10102F1DC30BD49
:1003D0000029A8BF7047401C490008BF20F0010059
:1003E000704710B4B0FA80FC00FA0CF050EA010437
:1003F00004BF10BC704749B1CCF1200421FA04F4C9
:1004000011FA0CF118BF012121430843A3EB0C01A1
:10041000CB1D4FEA00614FEA102042BF002010BC04
:10042000704700EBC35010440029A4BF10BC7047B4
:10043000401C490008BF20F0010010BC704710B5F7
:10044000141E73F1000408DA401C41F100019218F7
:100450005B411A4301D120F0010010BD2DE9F04DA0
:1004600092469B4611B1B1FA81F202E0B0FA80F2F5
:1004700020329046FFF7A4FE04460F4640EA0A00E9
:1004800041EA0B0153465A46084313D0114653EA3A
:10049000010019D0C8F140025046FFF7A0FE054602
:1004A0000E46504659464246FFF78AFE084305D09D
:1004B000012004E020463946BDE8F08D00200543C8
:1004C00046EAE0762C4337430A986305E40AA0EB3A
:1004D00008000022FD0A44EA47540A3002D50020F1
:1004E0000146E9E7010510196941DDE908450019F0
:1004F0006941BDE8F04DA2E7064C074D06E0E06813
:1005000040F0010394E8070098471034AC42F6D35A
:10051000FFF73EFE307800086078000870B58D184F
:1005200010F8014B14F0030201D110F8012B231134
:1005300006D110F8013B03E010F8016B01F8016BE4
:10054000521EF9D1ABB110F8012B04F00C048A1A39
:100550000C2C03D0A2EB84129B1C08E010F8014B7A
:10056000A2EB0422F8E712F8014B01F8014B5B1EE5
:10057000F9D5A942D4D3002070BDCA4302607047A8
:1005800021B1826842F00102826003E0826822F0B9
:1005900001028260704700000021084A1168084A81
:1005A0001140D0E900231A4383681A43C3681A43F1
:1005B0001143044AC2F804137047000004230140A9
:1005C000E030FCFF0020014000B58DB0012108465D
:1005D00004F050FA0121080204F07CFA4020019056
:1005E00003208DF8080000208DF80B0001A91748A2
:1005F00001F03FFB0020039004900690059003A8B3
:10060000FFF7CAFF0121080204F074FA00214FF439
:10061000807004F06FFA00208DF8200007908DF8AC
:10062000210009900B9001208DF8300007A908489F
:1006300000F01EF8062301221946054800F042F892
:1006400001210348FFF79CFF0DB000BD00000240F0
:10065000002001400146C86C80B27047024600206D
:1006600013680B400BB1012000E000207047000030
:1006700030B50246002000235068104C20400D7910
:100680000C6844EA05242043506090680C4C2040DC
:10069000D1E903542C438D682C434D7944EA450439
:1006A00020439060D06A20F470000C7D641EE4B298
:1006B000234340EA0350D06230BD0000FFFEFFFC40
:1006C000FDF7FFC0F0B504460D4600200021092DBE
:1006D00011DDE068A5F10A0606EB4607072606FAD3
:1006E00007F18843A5F10A0606EB460603FA06F170
:1006F0000843E0600CE0206905EB4507072606FA91
:1007000007F1884305EB450603FA06F1084320612B
:10071000072A0FDA606B561E06EB86071F2606FABD
:1007200007F18843561E06EB860605FA06F10843D4
:10073000606322E00D2A0FDA206BD61F06EB8607D6
:100740001F2606FA07F18843D61F06EB860605FA30
:1007500006F10843206310E0E06AA2F10D0606EB03
:1007600086071F2606FA07F18843A2F10D0606EB5D
:10077000860605FA06F10843E062F0BD816841F0A3
:1007800080418160704770B504460D46012C03D14D
:100790000621284605F042F9022C03D108212846FB
:1007A00004F0FAFD70BD000010B500F009F801205A
:1007B00004F0A6FE00200149086010BDBC024342BF
:1007C00010B50121422004F055F910BD10B504F018
:1007D000E1FC012008490860022006F075FA07488C
:1007E000D0F81C02C4B2002003490860022006F0C1
:1007F0006BFA204610BD00009882404200804042C3
:1008000070B5002404F0C6FC0120104908600025E2
:1008100017E06006040E01200C49091F0860022041
:1008200006F052FA0A48D0F81C0208B1601CC4B2A3
:1008300000200649091F0860022006F045FA681CDE
:10084000C5B2082DE5DB204670BD00009C82404209
:100850000080404210B5044604F0AAFC1CB10120FF
:100860000A49086002E000200849086001200749A1
:10087000091F0860022006F027FA00200449C1F889
:100880009802022006F020FA10BD00009C8240422F
:100890000080404270B5044604F08AFC00251BE04D
:1008A00004F080061EB101200E49086002E000201D
:1008B0000C4908606006040E01200A49091F0860FF
:1008C000022006F001FA00200749C1F89802022030
:1008D00006F0FAF9681CC5B2082DE1DBFFF776FFD8
:1008E00070BD00009C8240420080404210B504F080
:1008F0005FFC0120094908600949C1F898020420F9
:1009000006F0E2F9002005490860042006F0DCF951
:1009100000200349C1F8980210BD00009C824042AB
:100920000080404210B504F043FC002007490860F5
:1009300001200749C1F89802042006F0C5F90120FA
:1009400002490860042006F0BFF910BD9C824042B5
:10095000008040422DE9F04105460E460024002764
:1009600038E000201D4908701D49087005211D4808
:1009700005F028FC1DB9002002F02EFC02E02846FC
:1009800002F02AFC23E01648007870B1164800787F
:10099000552807D114484078022803D1124880789E
:1009A000BDE8F08100200E490870642006F066F969
:1009B000641C3C2C01D900240AE00A20B4FBF0F1AD
:1009C00000FB114018B90521064805F0FBFBDAE7EA
:1009D00000BF7F1CB742C4DB0020E1E7DA00001053
:1009E000DB000010D5000010BF00001010B505F0AE
:1009F0001DFB10BD10B50648006806F091F930B92E
:100A000006F088F9C8300249086003F033FF10BDD2
:100A1000F803001010B504460B48844209D10121A7
:100A2000480604F047F800214FF0007004F042F847
:100A300008E00121880604F03DF800214FF08060B5
:100A400004F038F810BD00000064004010B500212B
:100A5000837A012202FA03F13D4A126842F0010250
:100A60003B4B1A603A4A1C3212688A43384B1C339B
:100A70001A60027BCAB9364A0C3212688A43344B78
:100A80000C331A604288C38842EA0343304A40323A
:100A9000847A42F834300288838842EA03432C4A3D
:100AA0004032847A02EBC4025360027B012A19D1DE
:100AB000274A0C3212680A43254B0C331A604288CD
:100AC000038842EA0343224A4032847A42F83430AF
:100AD000C288838842EA03431D4A4032847A02EB8B
:100AE000C4025360C27A3AB9194A121D12688A4385
:100AF000174B1B1D1A6006E0154A121D12680A43A7
:100B0000134B1B1D1A60028932B9114A1432126844
:100B10008A430F4B14331A600289012A06D10C4A0A
:100B2000143212680A430A4B14331A60427B012ABA
:100B300006D1074A1C3212680A43054B1C331A605F
:100B4000034A126822F00102014B1A6010BD000036
:100B5000006600401AB143690B43436102E04369F8
:100B60008B434361704730B5024600200023146870
:100B700024F002041460146844F00104146000E0DE
:100B80005B1C546804F001041CB94FF6FF74A342C7
:100B9000F6D1546804F001040CB900206CE08C79A3
:100BA000012C04D1146844F08004146003E014683C
:100BB00024F080041460CC79012C04D1146844F032
:100BC0004004146003E0146824F0400414600C7ABC
:100BD000012C04D1146844F02004146003E014686C
:100BE00024F0200414604C7A012C04D1146844F0E1
:100BF0001004146003E0146824F0100414608C7A6C
:100C0000012C04D1146844F00804146003E0146853
:100C100024F008041460CC7A012C04D1146844F048
:100C20000404146003E0146824F0040414608C7855
:100C3000A407CD7844EA05640D7944EA05444D796A
:100C400044EA05540D886D1E2C43D461146824F0C9
:100C500001041460002300E05B1C546804F00104EC
:100C60001CB14FF6FF74A342F6D1546804F001049E
:100C70000CB1002000E0012030BD0246002019B96F
:100C8000D36803F0030006E0012903D1136903F0E0
:100C9000030000E00020704710B500F5D87303EBA7
:100CA00001131B6803F004031372137A53B900F5A0
:100CB000D87303EB01131B6840F2FF7404EA53532B
:100CC000136009E000F5D87303EB01131B686FF0A4
:100CD000604404EAD303536000F5D87303EB0113B7
:100CE0001B6803F00203537200F5D87303EB011382
:100CF0005B6803F00F03937200F5D87303EB0113E5
:100D00005B681B0AD37400F5D87303EB01139B686F
:100D1000D37200F5D87303EB01139B681C0A14739C
:100D200000F5D87303EB01139B681C0C547300F59A
:100D3000D87303EB01139B681B0E937300F5D873F4
:100D400003EB0113DB68D37300F5D87303EB0113D6
:100D5000DB681C0A147400F5D87303EB0113DB681D
:100D60001C0C547400F5D87303EB0113DB681B0EE5
:100D7000937421B9C36843F02003C36003E003699F
:100D800043F02003036110BD10B5024600209368B4
:100D900003F08063B3F1806F00D110E0936803F03B
:100DA0000063B3F1006F01D1012008E0936803F004
:100DB0008053B3F1805F01D1022000E004200428B9
:100DC00074D002F5C07303EB00131B6803F0010439
:100DD00002F5C07303EB00131C600B7A7BB94B7AEE
:100DE0000C8843EA445302F5C07404EB00142468F1
:100DF000234302F5C07404EB0014236010E00B7A67
:100E00004C6843EAC4034C7A234302F5C07404EBF4
:100E100000142468234302F5C07404EB001423601B
:100E20008B7A03F00F038B7202F5C07303EB001390
:100E30005B6823F00F0402F5C07303EB00135C60E2
:100E400002F5C07303EB00135B688C7A234302F551
:100E5000C07404EB001463608B7B1C064B7B44EA7C
:100E600003440B7B44EA0323CC7A234302F5C0748A
:100E700004EB0014A3608B7C1C064B7C44EA034407
:100E80000B7C44EA0323CC7B234302F5C07404EBC0
:100E90000014E36002F5C07303EB00131B6843F01A
:100EA000010402F5C07303EB00131C6010BD0000C9
:100EB00010B50246002321B1012907D002290FD124
:100EC00009E090681D4C00EA04030BE090681C4C9C
:100ED00000EA040306E090681A4C00EA040301E00B
:100EE000002300BF00BF184C181BA34216D007DC1C
:100EF00083B16FF08060184470B1022818D111E0FE
:100F0000B0F5007F10D0114C204448B1B0F5003F3F
:100F10000ED10BE002230DE000230BE0002309E0DB
:100F2000002307E0012305E0012303E0012301E0A2
:100F3000002300BF00BFD8B210BD000003000004B2
:100F40000003000800000310000100080001FFF783
:100F500070B504460D4600200B49086018208860D3
:100F600040F25B60C86009480861012048618861FF
:100F70000020C861086208460246294603692046E7
:100F800005F0DAFE70BD00008C9B00205555550021
:100F90002DE9F0410746884615460421052000F05A
:100FA000EDFC0021012005F03BFC80210A2004F02B
:100FB0001BFA002405E0395D092005F031FC601CB6
:100FC000C4B24445F7DB0321012005F029FCFF24CE
:100FD00000BF052004F00FF80646601EC4B21CB125
:100FE00006F004000028F4D0222004F004F8287051
:100FF000212004F000F868700020BDE8F0810000B6
:101000002DE9FF4705460E464FF0000A06B10DB91F
:101010004FF0010A9448007800F00F00032801DD2A
:101020004FF0010A90480078C0F30019BAF1000FA0
:1010300019D000208DF80A008DF80B0001208DF8E2
:101040000C000020ADF80000ADF80200ADF804007F
:10105000ADF80600ADF8080001208DF80D006846D7
:10106000FFF7F4FCFEE00020ADF8080001208DF849
:101070000D004FF000080024F2E07B48007800F0FB
:101080000F0030B101283BD002287BD0032874D157
:101090009CE000208DF80B008DF80C0035F8240042
:1010A0004B460022114600F0E1F8ADF8020005EBD6
:1010B000840148884B460022114600F0D7F8ADF86D
:1010C0000600601CC0B20446B04213DA35F82400B2
:1010D0004B460022114600F0C9F8ADF8000005EBC0
:1010E000840148884B460022114600F0BFF8ADF855
:1010F000040004E00020ADF80600ADF804009CE018
:1011000001208DF80B0000208DF80C0035F824002C
:101110004B460022114600F0A9F8ADF80200601C11
:10112000C0B20446B04207DA35F824004B4600222C
:10113000114600F09BF800E00020ADF80600601CAE
:10114000C0B20446B04207DA35F824004B4600220C
:10115000114600F08BF800E00020ADF80000601CA4
:10116000C0B20446B04209DA35F824004B460022EA
:10117000114600F07BF802E004E051E00020ADF8F9
:1011800004005AE000208DF80B0001208DF80C00BF
:1011900035F824004B460022114600F081F807463E
:1011A000B8B2ADF80200380CADF8000005EB8401D0
:1011B00048884B460022114600F072F80746B8B244
:1011C000ADF80600380CADF8040036E001208DF8CB
:1011D0000B008DF80C0035F824004B460022114618
:1011E00000F05EF80746B8B2ADF80200380CADF872
:1011F0000000601CC0B20446B04208DA05EB84016E
:1012000048884B460022114600F04AF800E00020D2
:101210000746B8B2ADF80600380CADF804000CE093
:101220000020ADF80200ADF80000ADF80600ADF802
:10123000040034464FF0010A00BF00BF8DF80A8059
:101240006846FFF703FCB44202DA601CC4B200E057
:1012500007E008F10100C0B280460D2800DB00E085
:101260000BE700BFBDE8FF872001001010B5044662
:10127000C4F309040AB1102000E0002002460BB1BB
:10128000082000E00020034613B1C1F3C13000E0A4
:101290000020014642EA44101843084380B210BDC2
:1012A00010B50446C4F309040AB1022000E000208E
:1012B00002460BB1042000E00020034613B188036E
:1012C000C00A00E00020014642EA443018430843C7
:1012D00010BD000010B500210148FFF7CEFC10BD85
:1012E0000064004070B50446002554B10021064852
:1012F000FFF7C3FC054625B1224600210248FFF74F
:10130000CBFC284670BD0000006400402DE9F0478A
:1013100006460C4617469846DDF820904FF0000A26
:1013200015480760C0F8048000201349087248720D
:1013300008468472224631460B30FEF760FF0E49A4
:101340000E48FFF721FD0546042D09D04FF0010A94
:1013500029460A48FFF7ACFD012801D14FF0020AE7
:10136000BAF1010F04DBB9F1000F01D089F8005088
:101370005046BDE8F08700004808001000640040B7
:101380000448006800F0E05008B1012070470020D8
:10139000FCE700000864004010B501E000F006F82A
:1013A000FFF798FF0028F9D110BD000010B52448C0
:1013B000FFF798FF2248C07C20B101280AD00228FC
:1013C00018D10FE01E48827A00F10B011D4800F091
:1013D000C4FB24E01A48827A00F10B011A4800F09D
:1013E000BCFB1CE01648827A00F10B01174800F0A4
:1013F000B4FB14E01248C07C03280FDB1048C07C0B
:1014000006280BDC0E48C07CC01E114901EBC00051
:101410000B490B310A6802604968416000BF00BF98
:101420000748C07C062809DC0548C07C094951F8FA
:1014300020000949096808430749086010BD0000F9
:10144000BC0900107008001080080010A0080010EF
:10145000D0090010187700082401001000B5034AD5
:101460005178107800F0C0FE00BD0000D0090010D7
:10147000F8B5FFF785FF00285FD00026002559E06A
:101480002E4890F9000030B101280ED002281ED05D
:10149000032840D12DE000F05DF80746002F03DB64
:1014A0000126F8B200F07AF839E0082224492548EC
:1014B00000F03EFBC4B24CB10126234800234FF498
:1014C0002072214600901E48FFF720FF27E00822E7
:1014D0001B491E4800F02CFBC4B24CB101261A482F
:1014E00000234FF42872214600901548FFF70EFFA5
:1014F00015E008221249164800F01AFBC4B24CB19C
:101500000126114800234FF47072214600900C48C8
:10151000FFF7FCFE03E0FF200849087000BF00BF92
:1015200006480078401C40B20449087006B103E048
:10153000681CC5B2042DA3DD00BFF8BD5801001022
:10154000280100109008001059010010B008001088
:10155000700800104FF0FF30002109E001EB81021C
:10156000054B13F822200AB148B203E04A1CD1B25D
:101570000729F3DB00BF7047F0090010002007E0E7
:10158000002100EB8002044B03F82210411CC8B27A
:101590000728F5DB70470000F0090010F8B5044695
:1015A000002004EB84050E4E06EB850500902B69A8
:1015B00004EB840506EB8505EA6804EB840516F860
:1015C000251004EB840506EB8505681CFFF79EFEDD
:1015D000002004EB8401324602F82100F8BD00002F
:1015E000F00900102DE9F04104460F4615461E464D
:1015F000DDF81880072C1ADA04EB84000D4901F895
:10160000205004EB84010B4A02EB8101481C2A465E
:101610003946FEF7F4FD04EB8400064901EB800037
:10162000C66004EB840001EB8000C0F81080BDE8C8
:10163000F0810000F009001010B50D4A32210D486C
:1016400000F02AF80C4A32210C4800F025F80C4A28
:1016500032210C4800F020F80B4A32210B4800F0F0
:101660001BF80B4A32210B4800F016F810BD0000A1
:10167000C008001070080010F20800108008001068
:10168000240900109008001056090010A00800104E
:1016900088090010B008001070B504460E461546C3
:1016A0002660E5600021204600F091FA70BD000040
:1016B00038B5FFF771FE68E0FFF76EFE002462E0C8
:1016C000344850F82400344909680840002858D0AC
:1016D000072C4DD2DFE804F0040C1824273946000B
:1016E00000BF69462D4800F084FA0028F9D13FE098
:1016F00003E09DF8000000F075F86946284800F006
:1017000078FA0028F5D133E003E09DF8000000F0FE
:1017100093F86946234800F06CFA0028F5D127E0D9
:10172000FFF79CFE24E0204804F004FC1F490880D9
:1017300005E01E480088A0F561601C4908801B4830
:101740000088B0F5616FF4DA12E017480838007CC1
:10175000022806D11448093004F0E4FB00B2144911
:10176000088005E010480838007E012800D100BF3D
:1017700000BF104850F8240007490968084006498E
:101780000860601CC4B2062C9ADD0348006800287B
:1017900092D138BD1877000824010010700800109D
:1017A00080080010A0080010D809001034010010B3
:1017B000320100109877000810B500200649086033
:1017C0000649087007210648FFF71AFCFFF734FFA7
:1017D000FFF7D4FE10BD000024010010200100100E
:1017E0003601001010B504460F48007870B905F0B6
:1017F00091FA0A300D49086000200D4908700D4823
:10180000097844540120084908700BE00848007822
:10181000C82807DA06480078401CC0B2044908709E
:1018200004490C5410BD00007F0200108802001013
:101830007E020010A40A001010B504460F4800787C
:1018400070B905F067FA0A300D49086000200D49AB
:1018500008700D48097844540120084908700BE0CD
:1018600008480078C82807DA06480078401CC0B24B
:101870000449087004490C5410BD00008102001096
:101880008C020010800200106C0B00107FB5054622
:101890000C460121202003F0FDF80295ADF804402C
:1018A0000020ADF80600ADF80C008DF80E0001A97F
:1018B0000D4804F02DF837208DF8000000208DF839
:1018C000010004208DF8020001208DF80300684615
:1018D00001F06CF901221146034804F00FF80121D0
:1018E000014803F0EEFF7FBD0014004010B5FFF784
:1018F000DFFEFFF7BDFD10BD1CB501214FF4C07028
:1019000003F0B8F8F020009000208DF804000120CA
:101910008DF807006946144800F0ABF94FF47040A9
:10192000009001208DF8040000208DF806000120B1
:101930008DF8070003208DF8050069460B4800F07C
:1019400098F92020009001208DF8040000208DF8E7
:10195000060001208DF8070003208DF80500694678
:10196000024800F086F91CBD00200240001C024025
:1019700000200149087070479C05001070B50546AD
:101980000C460026284603F036FB064626EA0401EC
:10199000284604F045FF002070BD70B505460C4692
:1019A000002D06DB642D00DD6425052D0BDA0525F1
:1019B00009E015F1640F01DA6FF0630515F1050F09
:1019C00001DD6FF00405002C06DB642C00DD6424CF
:1019D000052C0BDA052409E014F1640F01DA6FF02D
:1019E000630414F1050F01DD6FF00404214628465D
:1019F00003F09CFC70BD000010B5102000F03CF816
:101A0000012825D11021134800F09EF9E8B90021E2
:101A1000114803F056FF114890ED000AB8EE400A55
:101A20000F4880ED000AD0ED000A9FED0E1AB3EECC
:101A3000040A10EE810A80ED000A90ED000ABCEE67
:101A4000C00A10EE100A08490880102000F00EF8B5
:101A500010BD00000004024000100040040000100F
:101A600000000010F628DC3F080000100149086063
:101A700070470000143C014001460020034A1268F0
:101A80000A400AB1012000E000207047143C0140E8
:101A9000002123498279002A3AD00A461268036855
:101AA0009A430B461A600A1D126803689A430B1D7D
:101AB0001A60027911440A6803681A430A60184AD6
:101AC0000832126803689A43154B08331A601A1DCE
:101AD000126803689A43124B0C331A604279102A39
:101AE0000ED11A1F126803681A430D4B08331A608F
:101AF0001A1D126803681A43094B0C331A600DE073
:101B00000749427911440A6803681A430A6005E0EC
:101B1000027911440A6803689A430A60704700001A
:101B2000003C014010B502F09BFCFEF74DFD10BDDE
:101B3000F0B507460C461646002564B106E061196B
:101B4000384600F056F800B904E06D1C301EA6F1CE
:101B50000106F4D100BF2846F0BDF0B507460D469A
:101B60001646002406E0295D384600F06CF800B9FE
:101B700004E0641C301EA6F10106F4D100BF20462B
:101B8000F0BD30B504460025204600F04AF870B19B
:101B9000D4E90001401E814203D1A06838B101257B
:101BA00005E0D4E90101401C814200D0012528460E
:101BB00030BD30B504460025204600F032F820B193
:101BC000D4E90110884200D00125284630BD70B507
:101BD00004460D4664B12068012809D90020A060A0
:101BE0002068401E60602A462168E068FEF719FB05
:101BF00070BD70B504460D46002685B12046FFF73E
:101C0000C0FF60B16068401C60602168884201D3F9
:101C1000002060606168E068405C28700126304602
:101C200070BD0146002069B10A68012A0AD9CA6854
:101C300042B10B688A689A4204D2D1E900329A42D2
:101C400000D20120704770B504460D46002620469C
:101C5000FFF7AFFF58B1A168481CA060E068455489
:101C60002168A068884201D30020A0600126304688
:101C700070BDF0B50A4600210023002400BF3DE0FE
:101C8000012505FA01F3156805EA03049C4234D1E5
:101C900005684F000326BE40B543056015794E0028
:101CA000B5400668354305601579012D02D01579D8
:101CB000022D16D185684F000326BE40B5438560CE
:101CC00055794E00B54086683543856045680126E4
:101CD0008E40B5434560456896798E40B6B235432F
:101CE0004560C5684F000326BE40B543C560D57941
:101CF0004E00B540C6683543C560491C1029BFD3A6
:101D0000F0BDF0B5002300244D07ED0E02FA05F3F7
:101D1000CE1000F1200555F826504E07F70E0F267D
:101D2000BE40B543CF1000F1200646F82750CE1034
:101D300000F1200555F8265045EA0304CE1000F1C5
:101D4000200545F82640F0BD0246002013690B40EF
:101D50000BB1012000E000207047418370472DE95E
:101D6000F0470C46DDE90867002100258C4600BFDE
:101D700060E04FF0010808FA01F504EA050CAC45F3
:101D800057D1D0F800804FEA410A4FF0030909FA11
:101D90000AF928EA0908C0F80080D0F800804FEA64
:101DA000410902FA09F948EA0908C0F80080012A45
:101DB00001D0022A27D1D0F808804FEA410A4FF01B
:101DC000030909FA0AF928EA0908C0F80880D0F8D6
:101DD00008804FEA410906FA09F948EA0908C0F8FB
:101DE0000880D0F804904FF0010808FA01F829EAB9
:101DF0000809C0F80490D0F8048003FA01F948EA11
:101E00000908C0F80480D0F80C804FEA410A4FF06E
:101E1000030909FA0AF928EA0908C0F80C80D0F881
:101E20000C804FEA410907FA09F948EA0908C0F8A5
:101E30000C80491C10299CD3BDE8F08701837047B2
:101E400010B502210848FEF798FB0748FEF796FCFC
:101E500000BF02210448FEF701FC0028F9D0024827
:101E6000FEF7F8FB10BD00000020014010B52DED7D
:101E7000068B00201749087048708870C870164992
:101E80000880012003F03CFB102003F039FB00F038
:101E90006FFE10480478407800EB04242046FEF7DB
:101EA00041FA41EC1A0B9FED0D0B53EC102BFEF792
:101EB000CAF941EC190BFEF759FA08EE100ABDEE0B
:101EC000C80A10EE100A0449088008460088BDECD4
:101ED000068B10BD0E000010120000103333333398
:101EE0003333F33F70B504460025002607E0FFF7C3
:101EF000A7FF0544052004F0C1FE701CC6B2A6422F
:101F0000F5DBB5FBF4F080B270BD000070B50246A1
:101F100000210020002522B1072A0BD0082A11D168
:101F20000CE0114B5B78104C247803EB042399B23E
:101F30000F2507E00C4B5978072503E00A4B197869
:101F4000082500BF00BF00230AE00C4601EBD47651
:101F50007610A1EB46060EB9441CE0B249105B1C9A
:101F6000AB42F2DB70BD00003001001001460020E2
:101F700021B107290AD008290ED10AE0074A527870
:101F8000064B1B7802EB032290B205E0034A50781F
:101F900002E0024A107800BF00BF70473001001015
:101FA00010B515480078012810D103F073F81349D3
:101FB000098888421EDB00200F4908700320104961
:101FC00008700021084603F0B1F913E00D480078CD
:101FD00001280FD103F05EF808490988884209DB1F
:101FE00000200849087003200549087000210846B0
:101FF00003F09CF910BD0000FB0000101001001060
:1020000002010010FC00001010B54FF4E06000F079
:1020100009FE04F090FBA82004F012FEFFF76CFC10
:1020200000F024F8FFF77EFD04F0C6F953210720E5
:10203000FFF72CFCA72140F2E73003F0B7FD02F0D8
:10204000EFFFFEF7D3FC40F24731012003F07EFDA5
:1020500042F2CF01142003F01BFD42F2CF01012018
:1020600003F046FD03F0CAFC10BD000000B589B0C6
:102070000121212002F0FEFC09220B214248FFF73A
:1020800040FE09220C214048FFF73BFE4FF4C050B0
:10209000079002208DF820008DF8210000208DF897
:1020A000220001208DF8230007A93748FFF7E1FD42
:1020B0004FF48060079001208DF8200002208DF8F9
:1020C000210000208DF8220001208DF8230007A9AF
:1020D0002E48FFF7CEFD002000F05EF801214806F3
:1020E00002F0D8FC2A48FEF795FC00208DF8160077
:1020F00001208DF8170000208DF8180001208DF8C0
:10210000190000208DF81A0001208DF81B00002016
:102110008DF812008DF8130001208DF814000220B4
:102120008DF815000720ADF8100004A91848FEF737
:102130001AFD00208DF80A008DF80B0001208DF8A3
:102140000C000020ADF80000ADF80200ADF804006E
:10215000ADF80600ADF8080001208DF80D006846C6
:10216000FEF774FC12200B4908604860002048729A
:10217000087201208872002202210548FEF7EAFC5D
:10218000FFF71AFB09B000BD000002400014024036
:10219000006400407C0A001010B504462CB94FF4CE
:1021A00080610548FFF7D9FD04E04FF480610248E3
:1021B000FFF744FE10BD00000014024010B5FFF709
:1021C00095FB10BD10B504462CB14FF48071054845
:1021D000FFF734FE04E04FF480710248FFF7BDFDC5
:1021E00010BD000000200240014A1070517070477D
:1021F000300100102DE9F0410746884600202849AB
:102200000860092004F03AFD01202649C1F8AC021B
:10221000042004F033FD4FF40C7004F055FD00244D
:102220002EE0002528E0385D284100F0010676B94F
:1022300000201B4908604FF4FA7004F045FD0120AE
:102240001849C1F8AC024FF4FA7004F03DFD012EBC
:1022500010D10020124908604FF4FA7004F034FDE8
:1022600001201049C1F8AC0204F008FD4FF4487099
:1022700004F02AFD681CC5B2082DD4DB601CC4B272
:102280004445CEDB0020064908604FF40C7004F092
:102290001BFD01200349C1F8AC02BDE8F08100003C
:1022A000AC8242420080424210B502F086FA08B188
:1022B000FE2010BD02F012F9022004F0DFFC02F053
:1022C00013F9412000F00AF808B1FE20F1E70120DF
:1022D000014908700020ECE74800001010B50446E2
:1022E000412C25D108210846FFF748FB3D2111204C
:1022F00004F096FA8621172004F092FA7F21262016
:1023000004F08EFA1E212D2004F08AFA00212C20E0
:1023100004F086FA8D212A2004F082FA3E212B2037
:1023200004F07EFA0A2004F0A9FC02F0DDF801E0D6
:10233000FF2010BD0020FCE702468A4201D9501A56
:102340007047881AFCE7000010B504469FED111A8B
:10235000DFED110AB3EE090A01F05CFB4FF4617185
:102360000E48006800F0E8FA4FF461710B4800680D
:1023700000F016F84FF4FA710848006800F0DCFA33
:1023800021460648006800F00BF800F00BFB01F056
:1023900069FB10BD0000964300000000A00500107E
:1023A00070B504460D462E46642004F067FC02F02A
:1023B00095FE02F06FFE0644642C00D96424052CBF
:1023C00000D205246142604202F0B0FF02E0012029
:1023D00004F054FC02F05EFEB042F8DD0021084635
:1023E00002F0A4FF642004F049FC70BD10B512484F
:1023F000007801281ED10021084602F097FF0FA0A7
:1024000002F064FF11E00F48006870B9142004F076
:1024100035FC0C48006840B901200B49086000BF3A
:10242000084800680028FBD000E0ECE700BF07A0E8
:1024300002F04CFF10BD0000A80500107332207799
:102440006169740014024442B482434273322072C0
:10245000756E000010B50446642C00D96424052C68
:1024600000D205242146204602F060FF962004F0A9
:1024700005FC10BD70B504460D462E46642004F0E0
:10248000FDFB02F02BFE02F005FE0644642C00D991
:102490006424052C00D205242146204602F046FF84
:1024A00002E0012004F0EAFB02F0F4FDB042F8DBA8
:1024B0000021084602F03AFF642004F0DFFB70BD03
:1024C0002DE9F04106460F464FF00108642004F064
:1024D000D5FB02F003FE02F0DDFD054631467042F9
:1024E00002F024FF062F70D2DFE807F00304AC0FE0
:1024F0004375A8E000BF02F0CDFDB0F54D7FFADBDB
:102500000021084602F012FF9DE02EE002F0C2FD1D
:10251000054640F2A46085421BDD40F29A60854288
:1025200017DA0820FFF722FD0446EF2C01D0F72C24
:1025300006D10021084602F0F9FE4FF0000814E031
:10254000E72C11D10021084602F0F0FE4FF0000800
:102550000BE040F29A60854206DD0021084602F059
:10256000E5FE4FF0000800E000BFB8F1000FCDD14C
:1025700069E02CE002F08EFD0546B5F5C87F1ADD56
:10258000B5F5E67F17DA0820FFF7F0FC0446EF2CDC
:1025900001D0F72C06D10021084602F0C7FE4FF00B
:1025A000000814E0E72C11D10021084602F0BEFE1D
:1025B0004FF000080BE0B5F5E67F07DD0021084687
:1025C00002F0B4FE4FF0000801E03BE000BFB8F1BC
:1025D000000FCFD137E031E002F05CFD0546B5F5E4
:1025E0002F7F1FDD40F2663085421BDA0820FFF79F
:1025F000BDFC0446EF2C01D0F72C0AD10F21304648
:1026000000F02BF80021084602F090FE4FF0000881
:1026100014E0E72C11D10021084602F087FE4FF0AC
:1026200000080BE040F26630854206DD00210846D6
:1026300002F07CFE4FF0000800E000BFB8F1000F90
:10264000CAD100E000BF00BF0021084602F06EFEC4
:10265000642004F013FBBDE8F08170B504460D461C
:102660000026642004F00AFB02F038FD02F012FD9F
:1026700006462146604202F059FE02E002F00AFDE1
:102680000646AE42FAD90021084602F04FFE642009
:1026900004F0F4FA70BD2DE9F04180460E460127A2
:1026A000642004F0EBFA02F019FD02F0F3FC054699
:1026B000C8F10001404602F039FE062E6ED2DFE876
:1026C00006F00304A00F3F6C9CE000BF02F0E2FCA8
:1026D000B0F5617FFADB0021084602F027FE91E0A9
:1026E0002BE002F0D7FC054640F2A460854219DDDC
:1026F00040F23A70854215DA0820FFF737FC0446AD
:10270000EF2C01D0F72C05D10021084602F00EFE77
:10271000002712E0E72C0FD10021084602F006FE48
:1027200000270AE040F23A70854205DD00210846A4
:1027300002F0FCFD002700E000BF002FD1D161E0D6
:1027400028E002F0A7FC0546B5F5C87F18DDB5F511
:10275000FA7F15DA0820FFF709FC0446EF2C01D0B8
:10276000F72C05D10021084602F0E0FD002711E01A
:10277000E72C0ED10021084602F0D8FD002709E021
:10278000B5F5FA7F05DD0021084602F0CFFD0027F0
:1027900000E000BF002FD4D134E02FE031E002F0A0
:1027A00079FC0546B5F52F7F1DDD40F2B630854238
:1027B00019DA0820FFF7DAFB0446EF2C01D0F72CDA
:1027C00009D10F21404600F027F80021084602F009
:1027D000ADFD002712E0E72C0FD10021084602F0E2
:1027E000A5FD00270AE040F2B630854205DD002154
:1027F000084602F09BFD002700E000BF002FCED16D
:1028000000E000BF00BF0021084602F08FFD6420F9
:1028100004F034FABDE8F08170B504460D46002698
:10282000642004F02BFA02F059FC02F033FC064657
:102830006142204602F07AFD02E002F02BFC0646DF
:10284000AE42FAD90021084602F070FD642004F07F
:1028500015FA70BD70B504460B480578046001F0A8
:10286000D1FD02E0012004F009FA204601F01AF936
:10287000DFED060AB4EE600AF1EE10FAF2D102487A
:10288000056001F0EFF870BDA00500100000C64221
:1028900070B504460B480578046001F0B3FD02E012
:1028A000012004F0EBF9204601F04AFBDFED060AB7
:1028B000B4EE600AF1EE10FAF2D10248056001F0C0
:1028C000D1F870BDA00500100000C6422DE9F0410E
:1028D00005460C460026642004F0D0F902F0FEFB09
:1028E00002F0D8FB06461348077805602846FFF734
:1028F000B1FD01F087FD0FE002F0CCFB0646284653
:1029000001F0F8FBA64204D30021084602F00EFDB8
:1029100004E0012004F0B2F9A642EDD900BF002185
:10292000084602F003FD03480760642004F0A6F99E
:10293000BDE8F081A00500102DE9F04105460C46E8
:102940000026642004F09AF902F0C8FB02F0A2FB12
:1029500006461348077805602846FFF77BFD01F01F
:1029600051FD0FE002F096FB0646284601F08AFC76
:10297000A64204D30021084602F0D8FC04E001205E
:1029800004F07CF9A642EDD900BF0021084602F010
:10299000CDFC03480760642004F070F9BDE8F081C5
:1029A000A005001010B50021084602F0BFFCFEF79C
:1029B000DFFF642004F062F910BD000010B5254867
:1029C000007848B103F050F830B900202149087070
:1029D00003F042F804F0E2FD1F48007848B100F02F
:1029E00041FE012802D01D4800F018FF00201A49BE
:1029F00008701B48007858B31A4800F028FC1128CA
:102A00001ED2DFE800F01D091D0F1D0E1C1D1D1D2F
:102A10001D1D120D10111B00124802F07FFD13E066
:102A200012E011E010E00FE00EE00F48007820B156
:102A300004F0E6FA00200C49087005E004E003E029
:102A40000AA002F025FC00BF00BF00200449087066
:102A500010BD00000E0600107F020010A40A001036
:102A6000810200106C0B00100F060010756E64657B
:102A700066696E650A00000010B518480478FF20EA
:102A8000164908700A2C21D2DFE804F02005080B53
:102A90000C1011131C1F04F0EFFB1BE004F0B4FA40
:102AA00018E017E00A2000F0D1FA13E012E004F079
:102AB00075FD0B48007820B104F0A2FA0020084907
:102AC000087007E004F0B4FD04E003E0FF200349D0
:102AD000087000BF00BFFF2410BD00009C0500105F
:102AE0000F0600102DE9F04705460E461446002754
:102AF000B846B94602F0F2FA02F0CCFA814600215B
:102B0000184802F0DEFE01F07DFC9FED171ADFEDA4
:102B1000170AB7EE000A00F07DFF18E0314628469C
:102B200002F01CFA804602F0B5FA81461A2001F044
:102B3000E1FAA14501D301270CE0962004F09EF8AC
:102B40000021084602F0F2FB322004F097F8B8F1B9
:102B5000000FE3D000BF00F085FFFFF723FF3846EA
:102B6000BDE8F087000C004000000000CDCCCC3D5B
:102B700010B5FDF7BBFE4720FDF78CFE00240EE0EC
:102B8000FDF73EFE08490855032C03D10120FDF74F
:102B900061FE02E00020FDF75DFE601CC4B2032C64
:102BA000EEDBFDF7BFFE10BD0E00001070B500217A
:102BB00000230F22C4781CB3174C246804F4E0648B
:102BC000C4F5E064C4F30721C1F10404E3B20A418F
:102BD00044789C40E1B28478144021430C07210ED4
:102BE0000E4C05786155047804F01F050124AC40B3
:102BF00005786D11AD0005F1E025C5F8004109E04B
:102C0000047804F01F050124AC40054D06787611C8
:102C100045F8264070BD00000CED00E000E400E047
:102C200080E100E002490143024A11607047000060
:102C30000000FA050CED00E02DE9FC4104460D46CC
:102C400016461F46DDF82080154800788DF80000F4
:102C5000012C02D11248407801E0124840788DF8EA
:102C600001008DF802508DF803608DF804708DF826
:102C700005809DF805309DF804209DF803109DF80F
:102C8000020003F0CFFF8DF806000548C0798DF8EB
:102C9000070069460220FDF776FDBDE8FC810000D3
:102CA000760600107E06001038B504460D46412C0D
:102CB00000D10124422C00D10024002003462A46E2
:102CC000012100902046FFF7B7FF38BD30B503461D
:102CD000012902D11948407801E01948407804469A
:102CE0001878164D2D78A84226D15878A04223D1C5
:102CF000D879124DED79A8421ED1987803281BD1BE
:102D0000D878012802D10AB9187930BDD8780228BC
:102D100012D1012A01D11879F7E7022A01D1587995
:102D2000F3E7032A08D11879012803D1587901283B
:102D300000D1EAE70220E8E70020E6E77606001087
:102D40007E060010014608780B4A1278904211D195
:102D50004878094A527890420CD1C879064AD2790B
:102D6000904207D18878102804D1C878012801D171
:102D7000087970470020FCE78E0600102DE9FC4121
:102D800004460D4616461F46124800788DF800008E
:102D9000104840788DF801008DF802408DF80350FE
:102DA0008DF804608DF805709DF805309DF80420BD
:102DB0009DF803109DF8020003F034FF8DF8060023
:102DC0000448C0798DF8070069460220FDF7DBFC56
:102DD000BDE8FC813E06001010B50446207830B9ED
:102DE00000231A4601210846FFF7C8FF02E02046EB
:102DF00000F001F810BD10B50446A3786278217880
:102E00001020FFF7BBFF4FF4C87003F037FF637962
:102E10002279E1781120FFF7B1FF642003F02EFF43
:102E200010BD01468878012806D1C87820B90879F4
:102E3000052801D1012070470020FCE77CB504463D
:102E40000D460DA103C9CDE9000100231A46012159
:102E5000202003F0E7FE8DF806002846FFF7BCFFB0
:102E6000C82003F00BFF2846FFF7B6FF22460449AF
:102E7000684600F0B7FA7CBD55032001000000BB96
:102E80000806001001200149087070470F06001065
:102E90000146887870470146C8787047014608792E
:102EA00070470146487970472DE9FC4104460D46BC
:102EB00016461F46DDF82080154800788DF8000082
:102EC000012C02D11248407801E0124840788DF878
:102ED00001008DF802508DF803608DF804708DF8B4
:102EE00005809DF805309DF804209DF803109DF89D
:102EF000020003F097FE8DF806000548C0798DF8B2
:102F0000070069460220FDF73EFCBDE8FC81000099
:102F1000660600106E06001038B505460C4644B132
:102F2000002003462246022100902846FFF7BCFFFE
:102F300007E0002003460246012100902846FFF7E3
:102F4000B3FF38BD2DE9FC4104460D4616461F4629
:102F5000124800788DF80000104840788DF8010084
:102F60008DF802408DF803508DF804608DF80570DF
:102F70009DF805309DF804209DF803109DF802008F
:102F800003F050FE8DF806000448C0798DF8070064
:102F900069460220FDF7F7FBBDE8FC81360600100C
:102FA00070B504460A20B4FBF0F100FB1141B4FBFC
:102FB000F0F00A22B0FBF2F302FB130001EB001069
:102FC000C5B2642094FBF0F0C6B22B463246002115
:102FD0000420FFF7B7FF70BD2DE9F04104460D4610
:102FE00016461F463B46324629462046FFF7AAFFB3
:102FF000BDE8F08110B5044600231A46214603209F
:10300000FFF7A0FF10BD08B50020034602460146A9
:103010000090022000F0F1F84FF4967003F02EFEBD
:1030200000200346024601460090022000F0E5F829
:103030004FF4967003F022FE00200346024601463C
:103040000090022000F0D9F808BD000010B5044639
:10305000204602F0EDFC01200149087010BD00007F
:103060000E060010F8B504460D4616461F463346B8
:103070002A4621460220009700F0BFF8F8BD000064
:103080002DE9FC4104460D4616461F46DDF820801A
:10309000164800788DF80000012C01D0412C02D197
:1030A0001248407801E0124840788DF801008DF810
:1030B00002508DF803608DF804708DF805809DF83E
:1030C00005309DF804209DF803109DF8020003F0E0
:1030D000A9FD8DF806000548C0798DF807006946FE
:1030E0000220FDF750FBBDE8FC81000056060010F1
:1030F0005E0600102DE9F84F80460C4616461D4628
:10310000DDE90B7ADDF828900AEB0710C0B20090D9
:1031100009EB0510C3B206EB0410C2B240214046D1
:10312000FFF7AEFFBDE8F88F1CB5134800788DF8A7
:103130000000114840788DF8010001208DF8020050
:103140008DF8030000208DF804008DF805009DF82F
:1031500005309DF804209DF803109DF8020003F04F
:1031600061FD8DF806000448C0798DF807006946B6
:103170000220FDF708FB1CBD460600102DE9FC41AE
:1031800004460D4616461F46124800788DF800008A
:10319000104840788DF801008DF802408DF80350FA
:1031A0008DF804608DF805709DF805309DF80420B9
:1031B0009DF803109DF8020003F034FD8DF8060021
:1031C0000448C0798DF8070069460220FDF7DBFA54
:1031D000BDE8FC814E06001010B5044634B900234A
:1031E0001A4601212020FFF7C9FF05E000231A46F7
:1031F00021461020FFF7C2FF10BD2DE9FC41044617
:103200000D4616461F46DDF8208055208DF800003B
:103210008DF801408DF802508DF803608DF8047030
:103220008DF805809DF805309DF804209DF8031069
:103230009DF8020003F0F6FC8DF80600BB208DF827
:10324000070069460220FDF79EFABDE8FC810146B1
:103250000878552806D1C879BB2803D1487808B129
:10326000487870470020FCE72DE9FF5F06464FF0E5
:1032700000090024A2464FF01E08002702F08AFB36
:1032800002F088FBC82003F0F9FC002546E035B9C0
:1032900002F080FB07468146012003F0EFFC4DF869
:1032A000257004214C48FEF7A5FF4FF4FA7003F097
:1032B000E5FC4FF4FA7003F0E1FC4FF4FA7003F010
:1032C000DDFC4FF0000B24E002F064FB0746012018
:1032D00003F0D4FC5DF82500A0EB0800B84215DC33
:1032E0005DF825004044B84210DB04213A48FEF75F
:1032F00081FF4FF4FA7003F0C1FC4FF4FA7003F051
:10330000BDFC4FF4FA7003F0B9FC00E004E00BF1EF
:10331000010BBBF1060FD7DB00BF6D1C042DB6DB24
:103320000421684603F05BFC002006E05DF82010F5
:10333000494501D1441C02E0401C0428F6DB00BFD3
:10334000B44202D8A6EB040A23E0012E04D0022ED8
:1033500011D0032E1BD117E0042C02D14FF0010A2B
:1033600008E0032C02D14FF0020A03E0022C01D145
:103370004FF0030A0CE0042C02D14FF0020A02E0E5
:10338000032C00D1A24603E04FF0030A00E000BF87
:1033900000BFBAF1000F09D0BAF1010F07D0BAF19E
:1033A000020F09D0BAF1030F10D10AE00FE0042197
:1033B0000948FEF71FFF0AE004210848FEF71AFF3C
:1033C00005E004210648FEF715FF00E000BF00BF3E
:1033D000204604B0BDE8F09F10060010140600104F
:1033E000180600102DE9F04105460C4616464FF030
:1033F00001080027002020700121144802F061FA22
:1034000029460220FDF7BFF915E0781CC7B2B74284
:1034100002DB4FF0000811E0207800B10EE04FF41D
:10342000FA7003F02BFC4FF4FA7003F027FC2946E6
:103430000220FDF7A8F920780028E6D000BF00217F
:10344000024802F03EFA4046BDE8F0810008004024
:1034500010B50446412C39D100210120FFF75CFD55
:10346000C82003F00BFC00210120FFF755FDC82008
:1034700003F004FC00210120FFF74EFD0F21B220D4
:1034800000F0AAF8B0B12F4801780120FFF744FD01
:10349000C82003F0F3FB2B4801780120FFF73CFD27
:1034A000C82003F0EBFB274801780120FFF734FD2B
:1034B000012010BD01210846FFF72EFD642003F016
:1034C000DDFB01210846FFF727FD38E00021084613
:1034D000FFF722FDC82003F0D1FB00210846FFF7CB
:1034E0001BFDC82003F0CAFB00210846FFF714FDAE
:1034F0000F21B32000F070F8B0B11248017800201D
:10350000FFF70AFDC82003F0B9FB0E480178002040
:10351000FFF702FDC82003F0B1FB0A480178002044
:10352000FFF7FAFC0120C4E701210020FFF7F4FCBB
:10353000642003F0A3FB01210020FFF7EDFC002035
:10354000B7E70000CE06001010B504462146B420AF
:1035500000F042F810BD00002DE9FC4107460C4682
:1035600015461E4613A103C9CDE900018DF802706E
:103570008DF803408DF804508DF805609DF8030028
:103580009DF8041008449DF8051008449DF80210A9
:103590000844FF2190FBF1F201FB1200C0B28DF84C
:1035A00006000821684601F0EBFEC82003F066FB28
:1035B000BDE8FC8155110000000000BB70B5044659
:1035C0000D46412C01D1B02100E0B1210846294629
:1035D00000F002F870BD00002DE9F04106460D46EE
:1035E0000127002401201C49087000201B490860A5
:1035F00001211B4802F065F900231A46194630469E
:10360000FFF7AAFF1CE0601CC4B2AC4201D3002744
:103610001AE01148007800B916E04FF4FA7003F090
:103620002DFB4FF4FA7003F029FB0C48006838B901
:10363000022C05DD00231A4619463046FFF78CFFA1
:10364000054800780128DED000BF0021044802F0C0
:1036500038F93846BDE8F081C6060010D0060010E3
:10366000000C004010B50C480078552811D10A48CC
:10367000407801280DD008484078AA2809D006488B
:10368000C079BB2805D104490220FDF77CF8012050
:1036900010BD0020FCE70000A40A001010B5564839
:1036A0000078552877D15448C079BB28FAD15248C0
:1036B0004078AA2870D150488078A22821D00CDC0C
:1036C00045284AD004DC402831D0412870D139E067
:1036D00046284DD0A1287CD108E0A3281CD0A528DD
:1036E00068D0AE284CD0AF2873D156E001204349B2
:1036F00008604148C078012802D100204049087084
:1037000068E03D48C0783F4908703B480079487000
:103710003948407988705DE03748C0783949C870C9
:1037200035480079087134484079487152E0324890
:10373000C078354908703048007948702E48407983
:10374000887047E02C48C0782F49C8702A48007913
:1037500008712948407948713CE02748C0782B49D6
:10376000087025480079487023484079887031E016
:103770002148C0782549C8701F480079087129E0A0
:103780001D48C078224908701B48007948701A48C3
:10379000407988701EE02AE01DE01748C0781C4977
:1037A000C87015480079087113484079487111E0D4
:1037B0000FE0FFE71048C078164908700846007807
:1037C000022805DA08460078072801DD0220087083
:1037D00000E000BF0EE0084840780E2808D10648F7
:1037E0008078022806D10448C0780B49087001E0AF
:1037F000FFF7E4F810BD0000A40A0010D006001086
:10380000C6060010AB060010B2060010B906001084
:10381000A4060010C5060010CE06001010B5044620
:103820002078552861D16078AA285ED1E079BB283C
:103830005BD1A07805282FD008DC01280FD0022802
:1038400010D0032816D004284ED11BE006282DD016
:10385000A0282FD0AA2831D0AB2845D139E0FFF7D6
:10386000A1F841E02379627903EB0221E078FFF7C8
:103870002DF839E02379627903EB0221E078FEF735
:103880008FFD31E0E07830B12379627903EB0221DA
:10389000E078FEF7E2FE27E0E07830B12379627944
:1038A00003EB0221E078FEF7B7FF1DE0E078FEF7BA
:1038B000D1FF19E0082001F01DFE15E00B48C0788B
:1038C0000B490870094800794870084840798870A9
:1038D0000AE00648C0780649C870044800790871B3
:1038E00002484079487100BF00BF10BDA40A001013
:1038F000BE06001000B52048FFF7A9FC062828D016
:1039000006DC012830D0032807D005282DD112E08D
:103910000D2808D0102828D115E01748FFF781FAA4
:103920001649087022E0002201211348FFF7CEF962
:10393000134908701AE0002211460F48FFF7C6F934
:103940000F49087012E00C48FFF7FCF90D490870A8
:103950000CE00948C0780C490870074800794870A5
:1039600005484079887001E000E000BF00BF0020FA
:103970000649087000BD00006C0B0010080600101E
:10398000090600100A0600100B0600108102001044
:10399000184880ED000A1848D0ED000A70EE800A41
:1039A000C0ED000A1548D0ED000A70EE600A144818
:1039B000C0ED000A1348D0ED000A0E4890ED001A41
:1039C00060EE810A104890ED001A0B48D0ED001A05
:1039D00041EE210A0D4890ED001A0948D0ED001A79
:1039E00041EE210A0A48C0ED000A044880ED000AB1
:1039F00070470000F0050010F405001000060010EC
:103A0000F8050010D8050010DC050010E0050010D6
:103A1000FC0500100D48D0ED001A0D48C0ED001A4D
:103A20000C48D0ED001A0C48C0ED001A0B48D0ED40
:103A3000001A0B48C0ED001A084880ED000A05483E
:103A4000C0ED000A014880ED001A7047E005001043
:103A5000EC050010DC050010E8050010D80500108A
:103A6000E4050010094890ED000A094880ED000ABD
:103A7000084890ED000A084880ED000A074890EDDC
:103A8000000A074880ED000A70470000E4050010B6
:103A9000D8050010E8050010DC050010EC0500104A
:103AA000E005001010B52DED028B04469FED5A0A7B
:103AB000B0EE408A0820FEF759FAEF2824D00FDC38
:103AC0009F284ED005DCB0B13F284FD07F2861D170
:103AD0002EE0BF2827D0CF283ED0DF285AD11DE0C6
:103AE000F3380C2856D2DFE800F0465555551455EA
:103AF0004B5528502D329FED490AB0EE408A9FED7C
:103B0000470ABDEC028B10BDBFEE000AB0EE408A42
:103B100045E0B7EE000AB0EE408A40E0B8EE000A99
:103B2000B0EE408A3BE0B8EE080AB0EE408A36E0DC
:103B30009FED3B0AB0EE408A31E0B0EE000AB0EEF5
:103B4000408A2CE0B0EE080AB0EE408A27E09FEDF4
:103B5000350AB0EE408A22E0B8EE000AB0EE408AA4
:103B60001DE0B8EE080AB0EE408A18E09FED2C0A7E
:103B7000B0EE408A13E0B0EE000AB0EE408A0EE0EC
:103B8000B0EE080AB0EE408A09E09FED260AB0EEDA
:103B9000408A04E09FED200AB0EE408A00BF00BFDB
:103BA000B5EEC08AF1EE10FA08D100F02BFC2146E8
:103BB000204601F0BBFB9FED180AA2E79FED170A14
:103BC000B4EE408AF1EE10FA22D0B0EE480AFFF7C8
:103BD000DFFE00EE104AB8EE400A134AD2ED000AAA
:103BE00030EE600ABDEEC00A10EE101A00EE104A68
:103BF000B8EE400AD2ED000A30EE200ABDEEC00A4F
:103C000010EE100A01F092FB074890ED000A78E7E9
:103C10009FED020A75E70000000000000000C642A8
:103C2000CDCC4CC0CDCC4C40FC05001010B52DEDDA
:103C3000028B04469FED5A0AB0EE408A0820FEF738
:103C400095F9F3285BD010DCBF2830D006DC3F2884
:103C500050D07F2830D09F2860D146E0CF283FD079
:103C6000DF281FD0EF2859D112E0F738092855D2A4
:103C7000DFE800F013544A54274F2C3105009FED24
:103C8000490AB0EE408A9FED470ABDEC028B10BD99
:103C9000BFEE000AB0EE408A45E0B7EE000AB0EE93
:103CA000408A40E0B8EE000AB0EE408A3BE0B8EE51
:103CB000080AB0EE408A36E09FED3B0AB0EE408A3B
:103CC00031E0B0EE000AB0EE408A2CE0B0EE080A17
:103CD000B0EE408A27E09FED350AB0EE408A22E040
:103CE000B8EE000AB0EE408A1DE0B8EE080AB0EE69
:103CF000408A18E09FED2C0AB0EE408A13E0B0EE47
:103D0000000AB0EE408A0EE0B0EE080AB0EE408A3B
:103D100009E09FED260AB0EE408A04E09FED200AFC
:103D2000B0EE408A00BF00BFB5EEC08AF1EE10FAD7
:103D300008D100F067FB2146204601F0F7FA9FED1D
:103D4000180AA2E79FED170AB4EE408AF1EE10FAC6
:103D500022D0B0EE480AFFF71BFE00EE104AB8EE84
:103D6000400A134AD2ED000A30EE600ABDEEC00AE6
:103D700010EE101A00EE104AB8EE400AD2ED000A1A
:103D800030EE200ABDEEC00A10EE100A01F0CEFAA5
:103D9000074890ED000A78E79FED020A75E70000FA
:103DA000000000000000C642CDCC4CC0CDCC4C4041
:103DB000FC05001010B52DED028B04469FED5B0A4B
:103DC000B0EE408A0820FEF7D1F8F3285DD010DC71
:103DD000BF2832D006DC3F2852D07F2832D09F281F
:103DE00062D148E0CF2841D0DF2821D0EF285BD135
:103DF00014E0F738092857D2DFE800F015564C5682
:103E000029512E33050000F0FDFA2146204601F02D
:103E10008DFA9FED470ABDEC028B10BDBFEE000A84
:103E2000B0EE408A45E0B7EE000AB0EE408A40E0CE
:103E3000B8EE000AB0EE408A3BE0B8EE080AB0EEF9
:103E4000408A36E09FED3B0AB0EE408A31E0B0EEAA
:103E5000000AB0EE408A2CE0B0EE080AB0EE408ACC
:103E600027E09FED350AB0EE408A22E0B8EE000A66
:103E7000B0EE408A1DE0B8EE080AB0EE408A18E0C5
:103E80009FED2C0AB0EE408A13E0B0EE000AB0EECF
:103E9000408A0EE0B0EE080AB0EE408A09E09FEDDD
:103EA000260AB0EE408A04E09FED200AB0EE408A78
:103EB00000BF00BFB5EEC08AF1EE10FA08D100F0E5
:103EC000A1FA2146204601F031FA9FED180AA2E737
:103ED0009FED170AB4EE408AF1EE10FA22D0B0EE50
:103EE000480AFFF755FD00EE104AB8EE400A134AA3
:103EF000D2ED000A30EE600ABDEEC00A10EE101AD4
:103F000000EE104AB8EE400AD2ED000A30EE200A68
:103F1000BDEEC00A10EE100A01F008FA074890ED55
:103F2000000A78E79FED020A75E700000000000034
:103F30000000C642CDCC4CC0CDCC4C40FC0500109E
:103F400010B52DED028B04469FED610AB0EE408A5C
:103F50000820FEF70BF8F3285ED012DCBF2833D020
:103F600008DC3F2853D07E281AD07F2831D09F28E4
:103F700061D147E0CF2840D0DF2820D0EF285AD1A8
:103F800013E0F738092856D2DFE800F014554B55F6
:103F900028502D3205009FED4F0AB0EE408A59E0BF
:103FA0009FED4C0AB0EE408A54E09FED4B0AB0EE14
:103FB000408A4FE09FED490AB0EE408A4AE09FED0B
:103FC000480AB0EE408A45E0B8EE080AB0EE408AF2
:103FD00040E09FED440AB0EE408A3BE09FED420A8C
:103FE000B0EE408A36E0B0EE080AB0EE408A31E02A
:103FF0009FED3E0AB0EE408A2CE09FED390AB0EE0C
:10400000408A27E0B8EE080AB0EE408A22E09FED31
:10401000350AB0EE408A1DE09FED330AB0EE408ACB
:1040200018E0B0EE080AB0EE408A13E09FED2F0AC8
:10403000B0EE408A0EE00820FDF768FF032804DD9B
:104040009FED240AB0EE408A03E09FED210AB0EE16
:10405000408A00BF00BFB5EEC08AF1EE10FA0AD167
:1040600000F0D0F92146204601F060F99FED180AD2
:10407000BDEC028B10BD9FED170AB4EE408AF1EE45
:1040800010FA22D0B0EE480AFFF782FC00EE104A88
:10409000B8EE400A164AD2ED000A30EE600ABDEED4
:1040A000C00A10EE101A00EE104AB8EE400AD2ED27
:1040B000000A30EE200ABDEEC00A10EE100A01F030
:1040C00035F90B4890ED000AD2E79FED020ACFE7E1
:1040D000000000000000C6429A9999BF9A99993F42
:1040E0009A9919C0CDCC4CC09A991940CDCC4C406E
:1040F000FC05001010B52DED028B04469FED560A0D
:10410000B0EE408A0820FDF731FFF32851D010DCD3
:10411000BF2826D006DC3F2846D07F2826D09F28FF
:1041200056D13CE0CF2835D0DF2815D0EF284FD12D
:1041300008E0F73808284BD2DFE800F0094A404A87
:104140001D4522279FED450AB0EE408A45E09FEDD0
:10415000440AB0EE408A40E0B8EE000AB0EE408A71
:104160003BE0B8EE080AB0EE408A36E09FED3D0A2B
:10417000B0EE408A31E0B0EE000AB0EE408A2CE0AA
:10418000B0EE080AB0EE408A27E09FED370AB0EEA5
:10419000408A22E09FED350AB0EE408A1DE09FED97
:1041A000340AB0EE408A18E09FED2E0AB0EE408A45
:1041B00013E09FED300AB0EE408A0EE09FED2E0A2C
:1041C000B0EE408A09E09FED280AB0EE408A04E094
:1041D0009FED210AB0EE408A00BF00BFB5EEC08A55
:1041E000F1EE10FA0AD100F00DF92146204601F057
:1041F0009DF89FED190ABDEC028B10BD9FED1F0AC3
:10420000B4EE408AF1EE10FA22D0B0EE480AFFF781
:10421000BFFB00EE104AB8EE400A194AD2ED000A80
:1042200030EE600ABDEEC00A10EE101A00EE104A21
:10423000B8EE400AD2ED000A30EE200ABDEEC00A08
:1042400010EE100A01F072F80D4890ED000AD2E766
:104250009FED0A0ACFE7000000000000CDCC8CBF24
:10426000CDCC8C3FCDCC4CC0CDCC4C40CDCCCCBFFC
:10427000666626C0CDCCCC3F666626400000C642AE
:10428000FC05001010B52DED028B04469FED560A7B
:10429000B0EE408A0820FDF769FEF32851D010DC0B
:1042A000BF2826D006DC3F2846D07F2826D09F286E
:1042B00056D13CE0CF2835D0DF2815D0EF284FD19C
:1042C00008E0F73808284BD2DFE800F0094A404AF6
:1042D0001D452227B8EE000AB0EE408A45E0B0EE58
:1042E000000AB0EE408A40E0B8EE040AB0EE408A20
:1042F0003BE0B8EE080AB0EE408A36E09FED3B0A9C
:10430000B0EE408A31E0B0EE040AB0EE408A2CE014
:10431000B0EE080AB0EE408A27E09FED350AB0EE15
:10432000408A22E0B8EE000AB0EE408A1DE09FED20
:10433000310AB0EE408A18E09FED2C0AB0EE408AB8
:1043400013E0B0EE000AB0EE408A0EE09FED2A0ABC
:10435000B0EE408A09E09FED260AB0EE408A04E004
:104360009FED210AB0EE408A00BF00BFB5EEC08AC3
:10437000F1EE10FA0AD100F045F82146204600F08F
:10438000D5FF9FED190ABDEC028B10BD9FED1B0AF6
:10439000B4EE408AF1EE10FA22D0B0EE480AFFF7F0
:1043A000F7FA00EE104AB8EE400A154AD2ED000ABC
:1043B00030EE600ABDEEC00A10EE101A00EE104A90
:1043C000B8EE400AD2ED000A30EE200ABDEEC00A77
:1043D00010EE100A00F0AAFF094890ED000AD2E79B
:1043E0009FED060ACFE7000000000000CDCC4CC0D6
:1043F000CDCC4C40666626C0666626400000C642AC
:10440000FC0500109FED0F0A0F4880ED000A9FED9C
:104410000D0A0E4880ED000A9FED0A0A0C4880ED57
:10442000000A9FED080A0B4880ED000A9FED050A7F
:10443000094880ED000A9FED030A084880ED000A54
:104440007047000000000000F0050010F4050010A7
:10445000F8050010FC05001000060010040600100E
:1044600010B52DED048BB0EE080A164880ED000A59
:1044700090ED000ADFED140A20EE200A80ED000A1C
:104480009FED120A124880ED000A90ED000ADFED60
:104490000E0A20EE200A10EE101A0846FBF753FF12
:1044A00041EC190B9FED0B0B53EC102BFBF7CBFEE4
:1044B00041EC180BFBF75AFF05490860BDEC048B73
:1044C00010BD00001C0000100000C84200CC0D41CF
:1044D00018000010000000000070A74010B5032174
:1044E0001420FDF74BFA10BD10B5142000F083FD29
:1044F000044604F0030018B90321142000F074FFEF
:1045000010BDF0B587B00546002708210846FDF725
:1045100035FA00210D2002F083F980210E20FDF7ED
:104520002DFA93208DF8040020208DF8050006A8B0
:1045300001AB022201A900900C2000F051F80646C0
:1045400086B9002407E001A8005D285501A8005D98
:104550004740601CC4B2042CF5DB01A8005DB842E2
:1045600000D0FE2680210E2000F03EFF304607B02E
:10457000F0BD2DE9F04387B006460F4690469946B8
:104580008DF804608DF80570002406E018F804101A
:1045900001AAA01C1154601CC4B2062CF6DB002436
:1045A00007E019F8041001AA04F108001154601C76
:1045B000C4B2062CF5DB06A801AB0C2201A90090C1
:1045C0000E2000F00DF805462DB9082000F013FD6F
:1045D00000F0080000B9FE25284607B0BDE8F083CA
:1045E0002DE9FE4F0646884691469A46DDF830B0E2
:1045F000FE2002900020019000900C2E06D00E2E7E
:1046000009D1122001901020009005E07720019040
:104610003020009000E000BF00BF019840F0800112
:10462000022002F0FDF880210420FDF7A7F9002107
:10463000012002F0F5F880210A2000F0D5FE0025C7
:1046400005E018F80510092002F0EAF86D1C4D4548
:10465000F7D33146012002F0E3F80C2E03D180217C
:104660000D2000F0C1FE4FF4167500BF042000F0CD
:10467000C2FC04466D1E35B104F0010018B9009863
:1046800020400028F2D080210D20FDF777F995B366
:10469000062000F0B0FC00F01B0068BB0020029078
:1046A0000198204000F0010008B1FF2002900C2E7C
:1046B00024D10A2000F09FFC04460C2000F09BFC53
:1046C00000F007072FB1601E07EBC000CBF8000019
:1046D00002E0E000CBF8000004B90124122C00DD58
:1046E0001224002505E0092000F085FC0AF80500E9
:1046F0006D1CA542F7D301E0FE20029080210C2022
:1047000000F072FE0021012002F08AF80298BDE854
:10471000FE8FF0B587B005460E4630208DF80400B8
:104720008DF805500DF10602022101A8FCF730FCBE
:1047300006A801AB042201A900900C20FFF750FF4E
:10474000074667B90698902809D1002404E001A81B
:10475000005D3055601CC4B2102CF8DB00E0FE2771
:10476000384607B0F0BD70B588B005460C46082144
:104770000846FDF703F907210D2002F051F8032147
:10478000142000F031FE8DF8085007A802AB01227A
:1047900002A900900C20FFF723FF06464EB90798A8
:1047A000102806D19DF8080020709DF8090060705F
:1047B00000E0FE26304608B070BD10B500F0FCFBEE
:1047C00008B1FE2010BD0F21012002F029F83D2183
:1047D000112002F025F81E212D2002F021F80021E1
:1047E0002C2002F01DF88D212A2002F019F83E211C
:1047F0002B2002F015F84021152002F011F80020BE
:10480000E0E770B588B0054693208DF80800702069
:104810008DF8090000208DF80E0000240BE0295DC2
:1048200002AAA01C11549DF80E00295D48408DF885
:104830000E00601CC4B2042CF1DB0DF10F02072145
:1048400002A8FCF7A5FB08210846FDF797F807A882
:1048500002AB092202A900900C20FFF7C1FE064618
:1048600026B90798182801D1002600E0FE26304618
:1048700008B070BD10B50320FDF734FB5149088026
:104880000846008800F0B6FE4E4908804E48018870
:104890004C480088FDF750FD4C4908704A48008894
:1048A000F0BB4B48D0ED000A4648008800EE100AE5
:1048B000B8EE400A20EE800ABCEEC00A10EE100AE4
:1048C000404908800846008800EE100AB8EE400A09
:1048D0004048D0ED000AB4EEE00AF1EE10FA03D23F
:1048E00000203D49087016E03648008800EE100AA6
:1048F000B8EE400A3748D0ED000A30EE600ABCEE50
:10490000C00A10EE100A344908700846007864287E
:1049100001DD64200870304800783049087000E0FC
:1049200004E008460178012000F0DCFC25480088FE
:1049300025490880254800780A2842DD2448D0ED22
:10494000000A2048008800EE100AB8EE400A20EE67
:10495000800ABCEEC00A10EE100A1A490880084608
:10496000008800EE100AB8EE400A1A48D0ED000A9E
:10497000B4EEE00AF1EE10FA03D2002016490870F6
:1049800016E01048008800EE100AB8EE400A114800
:10499000D0ED000A30EE600ABCEEC00A10EE100A3C
:1049A0000D49087008460078642801DD642008700D
:1049B000094800780949087008460178012000F08C
:1049C00091FC10BD220000102400001026000010F1
:1049D000180000101C00001020000010140000102F
:1049E00010B586B004460121084600F043F80121C5
:1049F000102000F06FF8072209211B48FDF781F90C
:104A000007220A211848FDF77CF94FF4C060049092
:104A100002208DF8140000208DF8160001208DF87A
:104A2000170003208DF8150004A90F48FDF721F9A0
:104A300000940020ADF80C000C20ADF80A00002016
:104A4000ADF80800ADF80600ADF804006946074867
:104A500001F03EFC0121054801F0D1FB0020044992
:104A6000087006B010BD00000000024000100140B8
:104A70004800001029B1064A12680243044B1A602C
:104A800004E0034A12688243014B1A607047000039
:104A90003038024029B1064A12680243044B1A60BA
:104AA00004E0034A12688243014B1A607047000019
:104AB0004038024029B1064A12680243044B1A608A
:104AC00004E0034A12688243014B1A6070470000F9
:104AD0002038024029B1064A12680243044B1A608A
:104AE00004E0034A12688243014B1A6070470000D9
:104AF0004438024029B1064A12680243044B1A6046
:104B000004E0034A12688243014B1A6070470000B8
:104B100024380240F0B5002100220024022500269E
:104B20000223324F3F6807F00C0121B1042905D060
:104B3000082937D105E02E4F076036E02D4F07607A
:104B400033E02A4F3F1F3F68C7F38056274F3F1F70
:104B50003F6807F03F036EB1264FB7FBF3F7DFF86E
:104B60008CC0ACF1040CDCF800C0CCF3881C07FB53
:104B70000CF40CE01E4FB7FBF3F7DFF870C0ACF19C
:104B8000040CDCF800C0CCF3881C07FB0CF4174FB6
:104B90003F1F3F68C7F301477F1C7D00B4FBF5F75B
:104BA000076002E0124F076000BF00BF0F4F3F6871
:104BB00007F0F0010909104F7A5C0768D740476099
:104BC0000A4F3F6807F4E051890A0B4F7A5C476847
:104BD000D7408760054F3F6807F46041490B064F97
:104BE0007A5C4768D740C760F0BD000008380240D3
:104BF0000024F40040787D01E80000102DE9F04F1A
:104C00008FB081460F4616469846DDF860A03446C0
:104C100000200E9083468DF805008DF8040000F00A
:104C200079F95248B0F90000C01B04449FED501AB6
:104C3000DFED500AB3EE090AFEF7ECFE47E0242050
:104C4000FFF7B8F8BDEEC00A10EE10BABBF1630F63
:104C500034D19DF80410199881422FDAFA212420CA
:104C6000FDF734FE502251464046FDF73BFFF8B9B0
:104C700000F066F940A188421AD000F061F90546BB
:104C80009DF8041001EB411101EB41013B4A8818EA
:104C90002A463BA101F09EFE01219DF804200DF162
:104CA000060081549DF80400401CC0B28DF8040039
:104CB0009DF80500401CC0B28DF805002B48B0F9E6
:104CC0000000844200DC07E0012001F0D7FF274804
:104CD000B0F90000A042B2DB00BF2448B0F90000E8
:104CE000A04208DD2148B0F90000011B25480068FA
:104CF000FDF756FB0CE01D48B0F90000A04207DAB2
:104D00001A48B0F90000211A1E480068FDF7DEFDC0
:104D1000FEF7A8FEFDF746FE9DF80400002819DD09
:104D2000002512E018A000F0B3FA284600F06EFA51
:104D30000DF10600405D012803D115A000F0C6FA70
:104D400002E014A000F0C2FA6D1C9DF80400A84215
:104D5000E8DC02E011A000F09BFA342201A94846E9
:104D6000FBF74DFA0FB0BDE8F08F000032010010E4
:104D7000000096430000000000000000130D00102A
:104D800025730000A0050010636172642E0000000E
:104D9000206F6B00206572726F7200006361726435
:104DA0002E414C4C206572726F7200002DE9F05F4D
:104DB00006460C46904699464FF0000A002700250B
:104DC00004EB4400C11700EB5171464AB2F90020D0
:104DD00002EBE101A1EB060B9FED431ADFED430A65
:104DE000B3EE090AFEF716FE204604EBD0713D4AE9
:104DF000B2F9002002EB6101891B8A443948B0F9FD
:104E000000002044871B1CE02420FEF70FFFDFED8D
:104E1000380AB4EE600AF1EE10FA08D13148B0F960
:104E20000000584501DC012500E002250AE02D487C
:104E3000B0F90000504501DB002503E0012001F03E
:104E40001DFFE1E700BF012D06D140F214512948B2
:104E50000068FDF70FFB12E0022D10D1FA2124208B
:104E6000FDF734FD502249464046FDF73BFE30B980
:104E700000F066F820A1884200D000E00025FEF78F
:104E8000F1FD1848B0F90000B84208DD1548B0F946
:104E90000000C11B17480068FDF782FA0CE01148BA
:104EA000B0F90000B84207DA0E48B0F90000391A2C
:104EB00010480068FDF70AFDFEF7D4FDFDF772FD0E
:104EC000012D03D10DA000F001FA08E0022D03D15D
:104ED0000BA000F0FBF902E00CA000F0F7F9E8B23B
:104EE000BDE8F09F32010010000096430000000072
:104EF0000000C642A0050010000000004458000059
:104F0000436172642E30206F6B0000006572726F17
:104F10007200000010B500240AE004EB441101EB1C
:104F20004101054A8818002204A101F053FD641CC8
:104F3000142CF2DB10BD0000130D001025730000CF
:104F400000487047B00C0010014601EB411000EB27
:104F50004000014A10447047130D001070B504461C
:104F60000D4612495220FFF7FEFBE0B91048FFF74B
:104F7000C8FAC0B90E48FFF744FCA0B9E01704EB2B
:104F800090708010032202EB8000C1B2084B2A46C9
:104F90006020FFF7EEFA30B906492046FFF7B9FB6B
:104FA00008B9012070BD0020FCE700004900001096
:104FB0004B000010B00C001038B5FE25002000900A
:104FC000002400BF12E0552000F0F4F942F2107105
:104FD000684600F031F838B9552000F0EBF964204C
:104FE00001F04CFE002503E0601C84B2642CEADB77
:104FF00000BF68B238BD38B5044604F03F0040F049
:105000008004204600F0D6F942F21071684600F0A4
:1050100013F805460DB1FF2038BD9DF80000FBE7F1
:1050200010B54FF41650FFF7DBFC4FF4FA7001F0A7
:1050300025FEFDF739F910BD70B504460D4601F0A7
:1050400069FE4FF4FA61B5FBF1F146180AE00A482F
:10505000008800F0200028B1074801F0A3F9207073
:10506000002070BD304601F05BFE0028EFD10349FF
:1050700008700120F5E70000001001404800001012
:1050800010B5FCF78DFF02F0F5FA02F0D5FA00F04A
:10509000BDFD10BD0F48B0F900000F4AB2F9002065
:1050A000904207DD0B48B0F900000B4AB2F900202E
:1050B000811A06E00848B0F90000064AB2F900205B
:1050C000811AB1F5004F02D94FF6FF70411A88B22C
:1050D0007047000032010010180100100248B0F9BA
:1050E00000000249088070473201001018010010CA
:1050F00010B52448006801F013FE002840D101F0EB
:1051000009FE32301F4908601F48007848B9002066
:105110001E49086001201E49C1F8B0021A490870F2
:105120002EE01948007801280BD1002017490C39CE
:10513000086001201649C1F8B40202201249087023
:105140001EE01148007802280BD100200F490839D1
:10515000086001200E49C1F8B80203200A4908700E
:105160000EE00948007803280AD100200749091FEA
:10517000086001200649C1F8BC02002002490870FD
:1051800010BD0000FC030010F7030010BC82434276
:10519000008043421CB50120032100231A46CDE9BB
:1051A000001080210148FCF7DAFD1CBD000402401C
:1051B0001CB50020032103460122CDE90010802107
:1051C0000148FCF7CCFD1CBD0004024030B50022B4
:1051D0008B071C0F0F2303FA04F20B4B8C1053F8B0
:1051E00024309343084C8D1044F8253023468C100E
:1051F00053F824308C07240F00FA04F42343024CA4
:105200008D1044F8253030BD083801402DE9F041BB
:1052100086B0054601262F4600E0761C0A2097FB43
:10522000F0F0071EF9D1344600BF12E021460A20F3
:1052300001F0DCFEB5FBF0F100FB1158611E0A2005
:1052400001F0D4FEB8FBF0F0303002A9C855641E5E
:105250007F1C012CEADA0020F1B203464FF4707291
:10526000009002A8FCF752F84FF4C87001F02CFD32
:1052700006B0BDE8F081000010B504462046FFF7F7
:10528000C5FF02A000F004F810BD00000A000000F5
:1052900070B504460025207860B1264601E0681C00
:1052A000C5B214F8011B0029F9D12946304600F097
:1052B0002FF803E0022104A000F02AF84FF47A70DE
:1052C00001F002FD70BD00000A00000010B50446A8
:1052D0002046FFF7DDFF022101A000F019F810BD04
:1052E0000A0000007CB505460C4603208DF804003A
:1052F00001208DF805008DF8064000204FF4F07372
:10530000032201A900901046FCF76CF97CBD000057
:1053100070B504460D462A4621460348FCF71DFC9D
:10532000642001F0D1FC70BD700800107CB504460B
:105330000D46E0B28DF80400E0B28DF80500E8B249
:105340008DF80600E8B28DF80700FCF719F878B17F
:105350000020034620220421009001A8FBF7D6FF7D
:1053600000202023024601A90090FCF73BF906E04B
:1053700000202023042201A90090FCF733F97CBD12
:1053800070B504460D462A4621460248FCF7E5FB67
:1053900070BD00009008001070B504460D462A4606
:1053A00021460348FCF7D9FB642001F08DFC70BD59
:1053B000B008001010B504460A48008800BF09482C
:1053C000008800F080000128F9D02146054800F04F
:1053D000EEFF00BF4021034800F01DFF0128F9D176
:1053E00010BD00000010014070B505460C460026B7
:1053F0002846FFF700FE064646EA0401284601F06B
:105400000FFA002070BD00000CB500200190009044
:105410003448006840F480303249086000BF3148A9
:10542000006800F4003000900198401C0190009842
:1054300018B90198B0F5A04FF1D12A48006800F4DE
:10544000003010B10120009001E000200090009891
:10545000012846D123484030006840F0805021495F
:10546000403108602048006840F440401E49086010
:105470001C48083000681B4908310860084600686D
:1054800040F4004008600846006840F4A0500860FE
:105490001648091F0860081F006840F08070091F47
:1054A000086000BF0F48006800F000700028F9D0C5
:1054B00040F205700E4908600A480830006820F084
:1054C00003000849083108600846006840F00200FF
:1054D000086000BF03480830006800F00C0008288E
:1054E000F8D10CBD0038024000700040195440074C
:1054F000003C0240014A1070704700009C050010FB
:1055000010B50446FBF7F2F94620FBF7C3F9204635
:10551000FBF7C0F9FBF706FA10BD000010B5044612
:105520002046FDF7B5FC0B2828D006DC01280BD05F
:1055300003280FD00A2852D110E00C282ED00D28B5
:105540003CD0B0284BD149E02648007808B102F0A1
:1055500025F845E024A0FDF73FFC41E02046FDF79B
:105560009AFC224908602046FDF798FC1F494860D4
:105570002046FDF796FC1D49886031E02046FDF786
:105580008AFC1A49C8602046FDF788FC1749086163
:105590002046FDF786FC1549486121E02046FDF7CD
:1055A0007AFC134908702046FDF778FC10494870D2
:1055B0002046FDF776FC0E49887011E02046FDF785
:1055C0006AFC0B49C8702046FDF768FC0849087161
:1055D0002046FDF766FC0649487101E000E000BF87
:1055E00000BF10BD0E06001000000000980C001057
:1055F000A905001010B5024600230B488282002145
:105600000BE0094C481C34F8100024F81100204627
:1056100030F81100184483B2491C0A29F1DB0A2032
:1056200093FBF0F080B210BD08080010042808D1E8
:105630004FF0E021096941F004014FF0E0221161CF
:1056400007E04FF0E021096921F004014FF0E0226A
:105650001161704710B51548006840F47000134997
:1056600008601348006840F00100114908600020FC
:105670000F49083108600E4800680E4908400C497F
:1056800008600D48091D0860081F006820F480208C
:10569000091F0860002006490C310860FFF7B4FEBE
:1056A0004FF0006001498039086010BD88ED00E0CE
:1056B00000380240FFFFF6FE1030002410B5012133
:1056C000054800F00AF9012801D1FFF7D9FC0121B2
:1056D000014800F0F3F810BD0040014010B5012171
:1056E000074800F0FAF8012804D106480068401C79
:1056F000044908600121024800F0E0F810BD0000F4
:1057000000440140E000001010B50121880700F0BE
:10571000E4F801282DD11948007868B118480178BB
:10572000002000F083F9012001F0A8FA1548017863
:10573000012000F07BF907E06321002000F076F9FA
:105740006321012000F072F90F48006860B10F4832
:105750000068B0F5FA7F07DB00200C4908600A48B2
:105760000068401E0849086008480068401C074956
:1057700008600121880700F0A1F810BDD4060010D0
:10578000D5060010D6060010D8060010E00600105E
:1057900010B50121074800F0A0F8012804D10648FF
:1057A0000088401C044908800121024800F086F866
:1057B00010BD000000040040EC03001010B50121F2
:1057C000074800F08AF8012804D10648007808B19B
:1057D000FEF790F80121024800F070F810BD0000BB
:1057E000000800408102001010B501210C4800F0B3
:1057F00074F801280FD10B48007860B1FDF74EFF17
:1058000000200849087000BF03E00021064A115437
:10581000401C0A28F9DB0121014800F04FF810BDB7
:10582000000C00407F020010A40A001010B50121F6
:10583000074800F052F8012804D106480068401CCF
:10584000044908600121024800F038F810BD00004A
:10585000001000400400001010B50121054800F0C0
:105860003CF8012801D1FCF7A9FC0121014800F016
:1058700025F810BD0014004010B501210C4800F0BF
:105880002CF801280ED10B480078401C09490870FB
:1058900008460078142805DD01200749087000201B
:1058A000044908700121024800F008F810BD00000A
:1058B000002000407A00001079000010CA430282E4
:1058C000704721B1028842F00102028004E00288A0
:1058D0004FF6FE731A400280704730B50246002032
:1058E00000230024158A05EA0103958905EA0104CD
:1058F00013B10CB1012000E0002030BD1AB1838942
:105900000B43838102E083898B43838170470000CE
:1059100000220288184B98420ED0184B98420BD0A8
:10592000B0F1804F08D0164B984205D0154B9842E5
:1059300002D0154B984204D14FF68F731A404B8812
:105940001A43124B984207D0114B984204D04FF69D
:10595000FF431A400B891A4302804B68C3620B88CD
:105960000385054B984202D0044B984201D18B7AB3
:105970000386012383827047000001400004014038
:105980000004004000080040000C004000100040EF
:105990000014004070B58AB0002507E0FCF766FAF5
:1059A0004DF825000A2001F069F96D1C0A2DF5DB80
:1059B000002518E0002411E05DF82410601C5DF85B
:1059C0002000814209DD5DF82460601C5DF8200044
:1059D0004DF82400601C4DF82060641CC5F10900DE
:1059E000A042E9DC6D1C0A2DE4DBDDE9050281182B
:1059F00001EBD170C0F34F000AB070BD10B500F0DC
:105A00006DFF00F037FF00F0BDFF00F051FF00F028
:105A10008DFF00F0B5FF00F049FF10BD70B50446E2
:105A20000D4629462046FCF7E5FB70BD7047000097
:105A300010B504460020054908600549086005487E
:105A4000046001218807FFF73CFF10BDE00600104D
:105A5000DC060010D806001010B500214FF0804081
:105A6000FFF72FFF10BD00000548006808B10220B5
:105A700070470448006808B10120F9E70020F7E703
:105A8000DC060010D806001010B500F021FE10BD95
:105A90007FB505460C4601210846FEF7FBFF02953F
:105AA000ADF804400020ADF80600ADF80C008DF80C
:105AB0000E0001A94FF08040FFF72AFF1C208DF84F
:105AC000000000208DF801000A208DF8020001205E
:105AD0008DF803006846FDF769F80122114690072A
