:020000040800F2
:10000000A01000109D010008A5010008A70100082C
:10001000A9010008AB010008AD01000800000000C4
:10002000000000000000000000000000AF01000818
:10003000B101000800000000B3010008B50100088C
:10004000B7010008B7010008B7010008B7010008B0
:10005000B7010008B7010008B7010008B7010008A0
:10006000B7010008B7010008A9180008B701000887
:10007000B7010008B7010008B7010008B701000880
:10008000B7010008B7010008B7010008B701000870
:10009000B7010008B7010008B7010008B701000860
:1000A0005948000879480008B7010008B70100085E
:1000B000A54800082D49000859490008B701000863
:1000C000B7010008B7010008B7010008B701000830
:1000D000B701000889500008E5500008B701000882
:1000E000B7010008B7010008B7010008B701000810
:1000F000B7010008154A0008B7010008B701000859
:10010000B7010008B701000885490008B7010008D9
:1001100079500008B7010008C9490008F5490008EE
:10012000B7010008B7010008B7010008B7010008CF
:10013000B7010008B7010008B7010008B7010008BF
:10014000B7010008B7010008B7010008B7010008AF
:10015000B7010008B7010008B701000811520008F4
:10016000B7010008B7010008B7010008B70100088F
:10017000B7010008B7010008B7010008B70100087F
:10018000B7010008B7010008DFF80CD000F08EF9C5
:10019000004800478D5E0008A01000100648804708
:1001A00006480047FEE7FEE7FEE7FEE7FEE7FEE75C
:1001B000FEE7FEE7FEE7FEE7F147000889010008D9
:1001C000202A04DB203A00FA02F100207047914017
:1001D000C2F1200320FA03F3194390407047202A0C
:1001E00004DB203A21FA02F00021704721FA02F3E1
:1001F000D040C2F12002914008431946704740EABE
:1002000001039B0703D009E008C9121F08C0042A94
:10021000FAD203E011F8013B00F8013B521EF9D27B
:100220007047D2B201E000F8012B491EFBD27047A3
:100230000022F6E710B513460A4604461946FFF7B2
:10024000F0FF204610BD2DE9F04D81EA030404F0D3
:10025000004B21F0004514464FF0000A23F0004106
:1002600050EA050220D054EA01021DD0C5F30A5716
:100270000246C5F31303C1F31300C1F30A5640F459
:10028000801543F48013A7EB0608101BD64608F22E
:10029000FD3873EB050002D308F1010801E0921864
:1002A0005B41B8F1000F03DA00200146BDE8F08D94
:1002B00000204FF48011064684460EE0171B73EBB6
:1002C000050705D3121B63EB050306434CEA010C3B
:1002D00049084FEA300092185B4150EA0107EDD11E
:1002E00052EA030012D082EA040083EA05010843BF
:1002F00005D0101BAB4106D20122002306E00022EC
:100300004FF0004302E06FF0010253101AEB0600B9
:100310004CEB085110EB0A0041EB0B01BDE8F04D2E
:1003200000F066B800F0004230F000400AD0C10D85
:1003300001F56071C0F3160042EA0151C20840079E
:100340001143704700200146704701F0004330B46C
:1003500021F0004150EA010206D00A0DA2F56072B8
:10036000C1F31301002A02DC30BC00207047440FA7
:1003700044EAC104C100E01830BC00EBC250AFF346
:1003800000800029A8BF7047401C490008BF20F02A
:100390000100704710B4B0FA80FC00FA0CF050EA8B
:1003A000010404BF10BC704749B1CCF1200421FA0C
:1003B00004F411FA0CF118BF012121430843A3EB07
:1003C0000C01CB1D4FEA00614FEA102042BF002014
:1003D00010BC704700EBC35010440029A4BF10BCF0
:1003E0007047401C490008BF20F0010010BC704756
:1003F00010B5141E73F1000408DA401C41F100012D
:1004000092185B411A4301D120F0010010BD2DE983
:10041000F04D92469B4611B1B1FA81F202E0B0FA7A
:1004200080F220329046FFF7CBFE04460F4640EAAA
:100430000A0041EA0B0153465A46084313D01146BD
:1004400053EA010019D0C8F140025046FFF7C7FE39
:1004500005460E46504659464246FFF7B1FE084350
:1004600005D0012004E020463946BDE8F08D00208B
:10047000054346EAE0762C4337430A986305E40ACD
:10048000A0EB08000022FD0A44EA47540A3002D5D6
:1004900000200146E9E7010510196941DDE9084539
:1004A00000196941BDE8F04DA2E70000064C074D78
:1004B00006E0E06840F0010394E807009847103434
:1004C000AC42F6D3FFF764FE1864000848640008E5
:1004D00070B58D1810F8014B14F0030201D110F81B
:1004E000012B231106D110F8013B03E010F8016B3A
:1004F00001F8016B521EF9D1ABB110F8012B04F0D9
:100500000C048A1A0C2C03D0A2EB84129B1C08E06A
:1005100010F8014BA2EB0422F8E712F8014B01F8A6
:10052000014B5B1EF9D5A942D4D3002070BDCA434C
:100530000260704721B1826842F00102826003E0EC
:10054000826822F001028260704700000021084AA0
:100550001168084A1140D0E900231A4383681A43FE
:10056000C3681A431143044AC2F8041370470000D9
:1005700004230140E030FCFF0020014000B58DB0B5
:100580000121084603F022FD0121080203F04EFD7F
:100590004020019003208DF8080000208DF80B000A
:1005A00001A9174801F0BDFA0020039004900690BD
:1005B000059003A8FFF7CAFF0121080203F046FDDA
:1005C00000214FF4807003F041FD00208DF82000E1
:1005D00007908DF8210009900B9001208DF83000D4
:1005E00007A9084800F01EF806230122194605480D
:1005F00000F042F801210348FFF79CFF0DB000BD59
:1006000000000240002001400146C86C80B27047E3
:100610000246002013680B400BB1012000E00020CF
:100620007047000030B50246002000235068104C8F
:1006300020400D790C6844EA0524204350609068FE
:100640000C4C2040D1E903542C438D682C434D7948
:1006500044EA450420439060D06A20F470000C7D89
:10066000641EE4B2234340EA0350D06230BD000070
:10067000FFFEFFFCFDF7FFC0F0B504460D4600206D
:100680000021092D11DDE068A5F10A0606EB4607F9
:10069000072606FA07F18843A5F10A0606EB460687
:1006A00003FA06F10843E0600CE0206905EB45071A
:1006B000072606FA07F1884305EB450603FA06F11B
:1006C00008432061072A0FDA606B561E06EB860787
:1006D0001F2606FA07F18843561E06EB860605FA22
:1006E00006F10843606322E00D2A0FDA206BD61F63
:1006F00006EB86071F2606FA07F18843D61F06EB8E
:10070000860605FA06F10843206310E0E06AA2F1CC
:100710000D0606EB86071F2606FA07F18843A2F1AD
:100720000D0606EB860605FA06F10843E062F0BD09
:10073000816841F080418160704770B504460D4684
:10074000012C03D10621284604F002FA022C03D121
:100750000821284603F0EEFE70BD000010B500F041
:1007600009F8012003F09AFF00200149086010BD3C
:10077000BC02434210B50121422003F027FC10BD0A
:1007800010B503F0D5FD012008490860022005F0EE
:100790001DFA0748D0F81C02C4B2002003490860C3
:1007A000022005F013FA204610BD00009882404256
:1007B0000080404270B5044603F0C8FD00251BE0F0
:1007C00004F080061EB101200E49086002E00020FE
:1007D0000C4908606006040E01200A49091F0860E0
:1007E000022005F0F3F900200749C1F89802022021
:1007F00005F0ECF9681CC5B2082DE1DBFFF7C0FF7E
:1008000070BD00009C8240420080404210B503F061
:100810009DFD0120094908600949C1F8980204209A
:1008200005F0D4F9002005490860042005F0CEF950
:1008300000200349C1F8980210BD00009C8240428C
:100840000080404210B503F081FD00200749086098
:1008500001200749C1F89802042005F0B7F90120EA
:1008600002490860042005F0B1F910BD9C824042A5
:10087000008040422DE9F04105460E460024002745
:1008800038E000201D4908701D49087005211D48E9
:1008900004F032FD1DB9002002F0B4FA02E028464F
:1008A00002F0B0FA23E01648007870B116480078DC
:1008B000552807D114484078022803D1124880787F
:1008C000BDE8F08100200E490870642005F058F959
:1008D000641C3C2C01D900240AE00A20B4FBF0F18E
:1008E00000FB114018B90521064804F005FDDAE7C0
:1008F00000BF7F1CB742C4DB0020E1E7D600001038
:10090000D7000010D1000010BB00001010B504F09B
:1009100027FC10BD10B50648006805F083F930B912
:1009200005F07AF9C8300249086003F04FFA10BDAB
:10093000F403001010B504460B48844209D101218C
:10094000480603F063FB00214FF0007003F05EFBEC
:1009500008E00121880603F059FB00214FF0806078
:1009600003F054FB10BD00000064004010B50021EE
:10097000837A012202FA03F13D4A126842F0010231
:100980003B4B1A603A4A1C3212688A43384B1C337C
:100990001A60027BCAB9364A0C3212688A43344B59
:1009A0000C331A604288C38842EA0343304A40321B
:1009B000847A42F834300288838842EA03432C4A1E
:1009C0004032847A02EBC4025360027B012A19D1BF
:1009D000274A0C3212680A43254B0C331A604288AE
:1009E000038842EA0343224A4032847A42F8343090
:1009F000C288838842EA03431D4A4032847A02EB6C
:100A0000C4025360C27A3AB9194A121D12688A4365
:100A1000174B1B1D1A6006E0154A121D12680A4387
:100A2000134B1B1D1A60028932B9114A1432126825
:100A30008A430F4B14331A600289012A06D10C4AEB
:100A4000143212680A430A4B14331A60427B012A9B
:100A500006D1074A1C3212680A43054B1C331A6040
:100A6000034A126822F00102014B1A6010BD000017
:100A7000006600401AB143690B43436102E04369D9
:100A80008B434361704730B5024600200023146851
:100A900024F002041460146844F00104146000E0BF
:100AA0005B1C546804F001041CB94FF6FF74A342A8
:100AB000F6D1546804F001040CB900206CE08C7984
:100AC000012C04D1146844F08004146003E014681D
:100AD00024F080041460CC79012C04D1146844F013
:100AE0004004146003E0146824F0400414600C7A9D
:100AF000012C04D1146844F02004146003E014684D
:100B000024F0200414604C7A012C04D1146844F0C1
:100B10001004146003E0146824F0100414608C7A4C
:100B2000012C04D1146844F00804146003E0146834
:100B300024F008041460CC7A012C04D1146844F029
:100B40000404146003E0146824F0040414608C7836
:100B5000A407CD7844EA05640D7944EA05444D794B
:100B600044EA05540D886D1E2C43D461146824F0AA
:100B700001041460002300E05B1C546804F00104CD
:100B80001CB14FF6FF74A342F6D1546804F001047F
:100B90000CB1002000E0012030BD0246002019B950
:100BA000D36803F0030006E0012903D1136903F0C1
:100BB000030000E00020704710B500F5D87303EB88
:100BC00001131B6803F004031372137A53B900F581
:100BD000D87303EB01131B6840F2FF7404EA53530C
:100BE000136009E000F5D87303EB01131B686FF085
:100BF000604404EAD303536000F5D87303EB011398
:100C00001B6803F00203537200F5D87303EB011362
:100C10005B6803F00F03937200F5D87303EB0113C5
:100C20005B681B0AD37400F5D87303EB01139B6850
:100C3000D37200F5D87303EB01139B681C0A14737D
:100C400000F5D87303EB01139B681C0C547300F57B
:100C5000D87303EB01139B681B0E937300F5D873D5
:100C600003EB0113DB68D37300F5D87303EB0113B7
:100C7000DB681C0A147400F5D87303EB0113DB68FE
:100C80001C0C547400F5D87303EB0113DB681B0EC6
:100C9000937421B9C36843F02003C36003E0036980
:100CA00043F02003036110BD10B502460020936895
:100CB00003F08063B3F1806F00D110E0936803F01C
:100CC0000063B3F1006F01D1012008E0936803F0E5
:100CD0008053B3F1805F01D1022000E0042004289A
:100CE00074D002F5C07303EB00131B6803F001041A
:100CF00002F5C07303EB00131C600B7A7BB94B7ACF
:100D00000C8843EA445302F5C07404EB00142468D1
:100D1000234302F5C07404EB0014236010E00B7A47
:100D20004C6843EAC4034C7A234302F5C07404EBD5
:100D300000142468234302F5C07404EB00142360FC
:100D40008B7A03F00F038B7202F5C07303EB001371
:100D50005B6823F00F0402F5C07303EB00135C60C3
:100D600002F5C07303EB00135B688C7A234302F532
:100D7000C07404EB001463608B7B1C064B7B44EA5D
:100D800003440B7B44EA0323CC7A234302F5C0746B
:100D900004EB0014A3608B7C1C064B7C44EA0344E8
:100DA0000B7C44EA0323CC7B234302F5C07404EBA1
:100DB0000014E36002F5C07303EB00131B6843F0FB
:100DC000010402F5C07303EB00131C6010BD0000AA
:100DD00010B50246002321B1012907D002290FD105
:100DE00009E090681D4C00EA04030BE090681C4C7D
:100DF00000EA040306E090681A4C00EA040301E0EC
:100E0000002300BF00BF184C181BA34216D007DCFC
:100E100083B16FF08060184470B1022818D111E0DE
:100E2000B0F5007F10D0114C204448B1B0F5003F20
:100E30000ED10BE002230DE000230BE0002309E0BC
:100E4000002307E0012305E0012303E0012301E083
:100E5000002300BF00BFD8B210BD00000300000493
:100E60000003000800000310000100080001FFF764
:100E700070B504460D4600200B49086018208860B4
:100E800040F25B60C86009480861012048618861E0
:100E90000020C861086208460246294603692046C8
:100EA00004F0CCFE70BD00008C9B00205555550011
:100EB0002DE9FF4705460E464FF0000A06B10DB971
:100EC0004FF0010A9448007800F00F00032801DD7C
:100ED0004FF0010A90480078C0F30019BAF1000FF2
:100EE00019D000208DF80A008DF80B0001208DF834
:100EF0000C000020ADF80000ADF80200ADF80400D1
:100F0000ADF80600ADF8080001208DF80D00684628
:100F1000FFF72CFDFEE00020ADF8080001208DF861
:100F20000D004FF000080024F2E07B48007800F04C
:100F30000F0030B101283BD002287BD0032874D1A8
:100F40009CE000208DF80B008DF80C0035F8240093
:100F50004B460022114600F0E1F8ADF8020005EB27
:100F6000840148884B460022114600F0D7F8ADF8BE
:100F70000600601CC0B20446B04213DA35F8240003
:100F80004B460022114600F0C9F8ADF8000005EB11
:100F9000840148884B460022114600F0BFF8ADF8A6
:100FA000040004E00020ADF80600ADF804009CE069
:100FB00001208DF80B0000208DF80C0035F824007E
:100FC0004B460022114600F0A9F8ADF80200601C63
:100FD000C0B20446B04207DA35F824004B4600227E
:100FE000114600F09BF800E00020ADF80600601C00
:100FF000C0B20446B04207DA35F824004B4600225E
:10100000114600F08BF800E00020ADF80000601CF5
:10101000C0B20446B04209DA35F824004B4600223B
:10102000114600F07BF802E004E051E00020ADF84A
:1010300004005AE000208DF80B0001208DF80C0010
:1010400035F824004B460022114600F081F807468F
:10105000B8B2ADF80200380CADF8000005EB840121
:1010600048884B460022114600F072F80746B8B295
:10107000ADF80600380CADF8040036E001208DF81C
:101080000B008DF80C0035F824004B460022114669
:1010900000F05EF80746B8B2ADF80200380CADF8C3
:1010A0000000601CC0B20446B04208DA05EB8401BF
:1010B00048884B460022114600F04AF800E0002024
:1010C0000746B8B2ADF80600380CADF804000CE0E5
:1010D0000020ADF80200ADF80000ADF80600ADF854
:1010E000040034464FF0010A00BF00BF8DF80A80AB
:1010F0006846FFF73BFCB44202DA601CC4B200E071
:1011000007E008F10100C0B280460D2800DB00E0D6
:101110000BE700BFBDE8FF871C01001010B50446B7
:10112000C4F309040AB1102000E0002002460BB10C
:10113000082000E00020034613B1C1F3C13000E0F5
:101140000020014642EA44101843084380B210BD13
:1011500010B50446C4F309040AB1022000E00020DF
:1011600002460BB1042000E00020034613B18803BF
:10117000C00A00E00020014642EA44301843084318
:1011800010BD000010B500210148FFF706FD10BD9D
:101190000064004070B50446002554B100210648A3
:1011A000FFF7FBFC054625B1224600210248FFF768
:1011B00003FD284670BD0000006400402DE9F047A3
:1011C00006460C4617469846DDF820904FF0000A78
:1011D00015480760C0F8048000201349087248725F
:1011E00008468472224631460B30FFF708F80E4954
:1011F0000E48FFF759FD0546042D09D04FF0010AAE
:1012000029460A48FFF7E4FD012801D14FF0020A00
:10121000BAF1010F04DBB9F1000F01D089F80050D9
:101220005046BDE8F0870000380800100064004018
:101230000448006800F0E05008B101207047002029
:10124000FCE700000864004010B501E000F006F87B
:10125000FFF798FF0028F9D110BD000010B5244811
:10126000FFF798FF2248C07C20B101280AD002284D
:1012700018D10FE01E48827A00F10B011D4800F0E2
:10128000C4FB24E01A48827A00F10B011A4800F0EE
:10129000BCFB1CE01648827A00F10B01174800F0F5
:1012A000B4FB14E01248C07C03280FDB1048C07C5C
:1012B00006280BDC0E48C07CC01E114901EBC000A3
:1012C0000B490B310A6802604968416000BF00BFEA
:1012D0000748C07C062809DC0548C07C094951F84C
:1012E00020000949096808430749086010BD00004B
:1012F000AC09001060080010700800109008001081
:10130000C0090010006300082001001000B5034A66
:101310005178107800F084FE00BD0000C009001074
:10132000F8B5FFF785FF00285FD00026002559E0BB
:101330002E4890F9000030B101280ED002281ED0AE
:10134000032840D12DE000F05DF80746002F03DBB5
:101350000126F8B200F07AF839E00822244925483D
:1013600000F03EFBC4B24CB10126234800234FF4E9
:101370002072214600901E48FFF720FF27E0082238
:101380001B491E4800F02CFBC4B24CB101261A4880
:1013900000234FF42872214600901548FFF70EFFF6
:1013A00015E008221249164800F01AFBC4B24CB1ED
:1013B0000126114800234FF47072214600900C481A
:1013C000FFF7FCFE03E0FF200849087000BF00BFE4
:1013D00006480078401C40B20449087006B103E09A
:1013E000681CC5B2042DA3DD00BFF8BD5401001078
:1013F000240100108008001055010010A008001002
:10140000600800104FF0FF30002109E001EB81027D
:10141000054B13F822200AB148B203E04A1CD1B2AE
:101420000729F3DB00BF7047E0090010002007E048
:10143000002100EB8002044B03F82210411CC8B2CB
:101440000728F5DB70470000E0090010F8B50446F6
:10145000002004EB84050E4E06EB850500902B69F9
:1014600004EB840506EB8505EA6804EB840516F8B1
:10147000251004EB840506EB8505681CFFF79EFE2E
:10148000002004EB8401324602F82100F8BD000080
:10149000E00900102DE9F04104460F4615461E46AE
:1014A000DDF81880072C1ADA04EB84000D4901F8E6
:1014B000205004EB84010B4A02EB8101481C2A46B0
:1014C0003946FEF79CFE04EB8400064901EB8000E0
:1014D000C66004EB840001EB8000C0F81080BDE81A
:1014E000F0810000E009001010B50D4A32210D48CE
:1014F00000F02AF80C4A32210C4800F025F80C4A7A
:1015000032210C4800F020F80B4A32210B4800F041
:101510001BF80B4A32210B4800F016F810BD0000F2
:10152000B008001060080010E208001070080010F9
:1015300014090010800800104609001090080010DF
:1015400078090010A008001070B504460E46154634
:101550002660E5600021204600F091FA70BD000091
:1015600038B5FFF771FE68E0FFF76EFE002462E019
:10157000344850F82400344909680840002858D0FD
:10158000072C4DD2DFE804F0040C1824273946005C
:1015900000BF69462D4800F084FA0028F9D13FE0E9
:1015A00003E09DF8000000F075F86946284800F057
:1015B00078FA0028F5D133E003E09DF8000000F050
:1015C00093F86946234800F06CFA0028F5D127E02B
:1015D000FFF79CFE24E0204803F046FD1F490880E9
:1015E00005E01E480088A0F561601C4908801B4882
:1015F0000088B0F5616FF4DA12E017480838007C13
:10160000022806D11448093003F026FD00B214491F
:10161000088005E010480838007E012800D100BF8E
:1016200000BF104850F824000749096808400649DF
:101630000860601CC4B2062C9ADD034800680028CC
:1016400092D138BD0063000820010010600800102E
:101650007008001090080010C80900103001001038
:101660002E0100108063000810B5002006490860B4
:101670000649087007210648FFF71AFCFFF734FFF8
:10168000FFF7D4FE10BD0000200100101C01001067
:101690003201001010B504460F48007870B904F00C
:1016A000BBFA0A300D49086000200D4908700D484A
:1016B000097844540120084908700BE00848007874
:1016C000C82807DA06480078401CC0B204490870F0
:1016D00004490C5410BD00007B020010840200106D
:1016E0007A020010940A001010B504460F480078E2
:1016F00070B904F091FA0A300D49086000200D49D4
:1017000008700D48097844540120084908700BE01E
:1017100008480078C82807DA06480078401CC0B29C
:101720000449087004490C5410BD00007D020010EB
:10173000880200107C0200105C0B00107FB505468B
:101740000C460121202002F051FC0295ADF8044026
:101750000020ADF80600ADF80C008DF80E0001A9D0
:101760000D4803F0A3F937208DF8000000208DF814
:10177000010004208DF8020001208DF80300684666
:1017800001F0E0F801221146034803F085F9012138
:10179000014803F064F97FBD0014004010B5FFF765
:1017A000DFFEFFF7BDFD10BD1CB501214FF4C07079
:1017B00002F00CFCF020009000208DF804000120C5
:1017C0008DF807006946144800F0ABF94FF47040FB
:1017D000009001208DF8040000208DF80600012003
:1017E0008DF8070003208DF8050069460B4800F0CE
:1017F00098F92020009001208DF8040000208DF839
:10180000060001208DF8070003208DF805006946C9
:10181000024800F086F91CBD00200240001C024076
:1018200000200149087070479805001070B5054602
:101830000C460026284602F0ACFC064626EA0401C7
:10184000284604F087F8002070BD70B505460C46A8
:10185000002D06DB642D00DD6425052D0BDA052542
:1018600009E015F1640F01DA6FF0630515F1050F5A
:1018700001DD6FF00405002C06DB642C00DD642420
:10188000052C0BDA052409E014F1640F01DA6FF07E
:10189000630414F1050F01DD6FF0040421462846AE
:1018A00002F012FE70BD000010B5102000F03CF8F0
:1018B000012825D11021134800F09EF9E8B9002134
:1018C000114803F0CCF8114890ED000AB8EE400A38
:1018D0000F4880ED000AD0ED000A9FED0E1AB3EE1E
:1018E000040A10EE810A80ED000A90ED000ABCEEB9
:1018F000C00A10EE100A08490880102000F00EF807
:1019000010BD000000040240001000400400001060
:1019100000000010F628DC3F0800001001490860B4
:1019200070470000143C014001460020034A126841
:101930000A400AB1012000E000207047143C014039
:10194000002123498279002A3AD00A4612680368A6
:101950009A430B461A600A1D126803689A430B1DCE
:101960001A60027911440A6803681A430A60184A27
:101970000832126803689A43154B08331A601A1D1F
:10198000126803689A43124B0C331A604279102A8A
:101990000ED11A1F126803681A430D4B08331A60E0
:1019A0001A1D126803681A43094B0C331A600DE0C4
:1019B0000749427911440A6803681A430A6005E03E
:1019C000027911440A6803689A430A60704700006C
:1019D000003C014010B502F083F9FEF7CFFD10BDC9
:1019E000F0B507460C461646002564B106E06119BD
:1019F000384600F056F800B904E06D1C301EA6F120
:101A00000106F4D100BF2846F0BDF0B507460D46EB
:101A10001646002406E0295D384600F06CF800B94F
:101A200004E0641C301EA6F10106F4D100BF20467C
:101A3000F0BD30B504460025204600F04AF870B1EC
:101A4000D4E90001401E814203D1A06838B10125CC
:101A500005E0D4E90101401C814200D0012528465F
:101A600030BD30B504460025204600F032F820B1E4
:101A7000D4E90110884200D00125284630BD70B558
:101A800004460D4664B12068012809D90020A060F1
:101A90002068401E60602A462168E068FEF7C1FBAE
:101AA00070BD70B504460D46002685B12046FFF78F
:101AB000C0FF60B16068401C60602168884201D34B
:101AC000002060606168E068405C28700126304654
:101AD00070BD0146002069B10A68012A0AD9CA68A6
:101AE00042B10B688A689A4204D2D1E900329A4224
:101AF00000D20120704770B504460D4600262046EE
:101B0000FFF7AFFF58B1A168481CA060E0684554DA
:101B10002168A068884201D30020A06001263046D9
:101B200070BDF0B50A4600210023002400BF3DE04F
:101B3000012505FA01F3156805EA03049C4234D136
:101B400005684F000326BE40B543056015794E0079
:101B5000B5400668354305601579012D02D0157929
:101B6000022D16D185684F000326BE40B54385601F
:101B700055794E00B5408668354385604568012635
:101B80008E40B5434560456896798E40B6B2354380
:101B90004560C5684F000326BE40B543C560D57992
:101BA0004E00B540C6683543C560491C1029BFD3F7
:101BB000F0BDF0B5002300244D07ED0E02FA05F349
:101BC000CE1000F1200555F826504E07F70E0F26CF
:101BD000BE40B543CF1000F1200646F82750CE1086
:101BE00000F1200555F8265045EA0304CE1000F117
:101BF000200545F82640F0BD0246002013690B4041
:101C00000BB1012000E000207047418370472DE9AF
:101C1000F0470C46DDE90867002100258C4600BF2F
:101C200060E04FF0010808FA01F504EA050CAC4544
:101C300057D1D0F800804FEA410A4FF0030909FA62
:101C40000AF928EA0908C0F80080D0F800804FEAB5
:101C5000410902FA09F948EA0908C0F80080012A96
:101C600001D0022A27D1D0F808804FEA410A4FF06C
:101C7000030909FA0AF928EA0908C0F80880D0F827
:101C800008804FEA410906FA09F948EA0908C0F84C
:101C90000880D0F804904FF0010808FA01F829EA0A
:101CA0000809C0F80490D0F8048003FA01F948EA62
:101CB0000908C0F80480D0F80C804FEA410A4FF0C0
:101CC000030909FA0AF928EA0908C0F80C80D0F8D3
:101CD0000C804FEA410907FA09F948EA0908C0F8F7
:101CE0000C80491C10299CD3BDE8F0870183704704
:101CF00010B502210848FEF71AFC0748FEF718FD48
:101D000000BF02210448FEF783FC0028F9D00248F6
:101D1000FEF77AFC10BD00000020014070B50446BB
:101D20000025002607E0FFF7E3FF0544052003F048
:101D300027FF701CC6B2A642F5DBB5FBF4F080B2FB
:101D400070BD000070B5024600210020002522B1C0
:101D5000072A0BD0082A11D10CE0114B5B78104CEC
:101D6000247803EB042399B20F2507E00C4B597834
:101D7000072503E00A4B1978082500BF00BF0023A0
:101D80000AE00C4601EBD4767610A1EB46060EB9BC
:101D9000441CE0B249105B1CAB42F2DB70BD00009A
:101DA0002C0100100146002021B107290AD0082982
:101DB0000ED10AE0074A5278064B1B7802EB032249
:101DC00090B205E0034A507802E0024A107800BF62
:101DD00000BF70472C01001010B51548007801288D
:101DE00010D102F025FA1349098888421EDB002031
:101DF0000F4908700320104908700021084602F0BE
:101E000063FB13E00D48007801280FD102F010FAAF
:101E100008490988884209DB002008490870032026
:101E2000054908700021084602F04EFB10BD000075
:101E3000F70000100C010010FE000010F800001068
:101E400010B54FF4E06000F0B9FD03F00EFDA820DE
:101E500003F078FEFFF7A8FC00F024F8FFF7BAFDC6
:101E600003F044FB53210720FFF768FCA72140F251
:101E7000E73002F035FF02F0A1F9FEF747FD40F22E
:101E80004731012002F0FCFE42F2CF01142002F0A3
:101E900099FE42F2CF01012002F0C4FE02F048FE9A
:101EA00010BD000000B589B00121212002F08EF89C
:101EB00009220B214248FFF77CFE09220C214048F1
:101EC000FFF777FE4FF4C050079002208DF82000F6
:101ED0008DF8210000208DF8220001208DF82300CC
:101EE00007A93748FFF71DFE4FF4806007900120D7
:101EF0008DF8200002208DF8210000208DF82200AE
:101F000001208DF8230007A92E48FFF70AFE0020C4
:101F100000F05EF80121480602F068F82A48FEF752
:101F200009FD00208DF8160001208DF81700002013
:101F30008DF8180001208DF8190000208DF81A0086
:101F400001208DF81B0000208DF812008DF8130081
:101F500001208DF8140002208DF815000720ADF83F
:101F6000100004A91848FEF78EFD00208DF80A0025
:101F70008DF80B0001208DF80C000020ADF800005A
:101F8000ADF80200ADF80400ADF80600ADF80800A9
:101F900001208DF80D006846FEF7E8FC12200B4981
:101FA0000860486000204872087201208872002290
:101FB00002210548FEF75EFDFFF756FB09B000BDA4
:101FC0000000024000140240006400406C0A00104F
:101FD00010B504462CB94FF480610548FFF715FE93
:101FE00004E04FF480610248FFF780FE10BD00005E
:101FF0000014024010B5FFF7D1FB10BD10B5044628
:102000002CB14FF480710548FFF770FE04E04FF4E7
:1020100080710248FFF7F9FD10BD0000002002406A
:10202000014A1070517070472C0100102DE9F041E9
:1020300007468846002028490860092003F0A0FDD3
:1020400001202649C1F8AC02042003F099FD4FF4A9
:102050000C7003F0BBFD00242EE0002528E0385D65
:10206000284100F0010676B900201B4908604FF4B2
:10207000FA7003F0ABFD01201849C1F8AC024FF42F
:10208000FA7003F0A3FD012E10D100201249086060
:102090004FF4FA7003F09AFD01201049C1F8AC0228
:1020A00003F06EFD4FF4487003F090FD681CC5B25C
:1020B000082DD4DB601CC4B24445CEDB00200649A9
:1020C00008604FF40C7003F081FD01200349C1F852
:1020D000AC02BDE8F0810000AC8242420080424286
:1020E00010B501F04EFE08B1FE2010BD01F036FE25
:1020F000022003F045FD01F037FE412000F00AF810
:1021000008B1FE20F1E70120014908700020ECE74A
:102110004400001010B50446412C25D10821084682
:10212000FFF784FB3D21112003F014FC86211720CA
:1021300003F010FC7F21262003F00CFC1E212D2033
:1021400003F008FC00212C2003F004FC8D212A2040
:1021500003F000FC3E212B2003F0FCFB0A2003F0DF
:102160000FFD01F001FE01E0FF2010BD0020FCE7A3
:1021700002468A4201D9501A7047881AFCE70000CB
:1021800010B504469FED111ADFED110AB3EE090AEE
:1021900001F01CF94FF461710E48006800F0E4FA98
:1021A0004FF461710B48006800F016F84FF4FA71B3
:1021B0000848006800F0D8FA21460648006800F098
:1021C0000BF800F007FB01F029F910BD0000964361
:1021D000000000009C05001070B504460D462E4618
:1021E000642003F0CDFC02F047F802F021F8064429
:1021F000642C00D96424052C00D20524614260427D
:1022000002F062F902E0012003F0BAFC02F010F8DB
:10221000B042F8DD0021084602F056F9642003F0D0
:10222000AFFC70BD10B51248007801281ED1002106
:10223000084602F049F90FA002F016F911E00F4824
:10224000006870B9142003F09BFC0C48006840B98A
:1022500001200B49086000BF084800680028FBD037
:1022600000E0ECE700BF07A002F0FEF810BD0000A0
:10227000A40500107332207761697400140244428F
:10228000B482434273322072756E000010B504466A
:10229000642C00D96424052C00D205242146204654
:1022A00002F012F9962003F06BFC10BD2DE9F0410D
:1022B00006460F464FF00108642003F061FC01F070
:1022C000DBFF01F0B5FF05463146704202F0FCF835
:1022D000062F70D2DFE807F00304AC0F4375A8E0C7
:1022E00000BF01F0A5FFB0F54D7FFADB00210846E5
:1022F00002F0EAF89DE02EE001F09AFF054640F278
:10230000A46085421BDD40F29A60854217DA0820FE
:10231000FFF748FD0446EF2C01D0F72C06D1002131
:10232000084602F0D1F84FF0000814E0E72C11D174
:102330000021084602F0C8F84FF000080BE040F218
:102340009A60854206DD0021084602F0BDF84FF094
:10235000000800E000BFB8F1000FCDD169E02CE02B
:1023600001F066FF0546B5F5C87F1ADDB5F5E67FD5
:1023700017DA0820FFF716FD0446EF2C01D0F72CE2
:1023800006D10021084602F09FF84FF0000814E043
:10239000E72C11D10021084602F096F84FF0000812
:1023A0000BE0B5F5E67F07DD0021084602F08CF86A
:1023B0004FF0000801E03BE000BFB8F1000FCFD1C3
:1023C00037E031E001F034FF0546B5F52F7F1FDD22
:1023D00040F2663085421BDA0820FFF7E3FC044632
:1023E000EF2C01D0F72C0AD10F21304600F02BF84A
:1023F0000021084602F068F84FF0000814E0E72CCE
:1024000011D10021084602F05FF84FF000080BE000
:1024100040F26630854206DD0021084602F054F89D
:102420004FF0000800E000BFB8F1000FCAD100E093
:1024300000BF00BF0021084602F046F8642003F008
:102440009FFBBDE8F08170B504460D460026642070
:1024500003F096FB01F010FF01F0EAFE064621466C
:10246000604202F031F802E001F0E2FE0646AE42C0
:10247000FAD90021084602F027F8642003F080FB17
:1024800070BD2DE9F04180460E460127642003F01F
:1024900077FB01F0F1FE01F0CBFE0546C8F100012B
:1024A000404602F011F8062E6ED2DFE806F0030473
:1024B000A00F3F6C9CE000BF01F0BAFEB0F5617F59
:1024C000FADB0021084601F0FFFF91E02BE001F06C
:1024D000AFFE054640F2A460854219DD40F23A7035
:1024E000854215DA0820FFF75DFC0446EF2C01D089
:1024F000F72C05D10021084601F0E6FF002712E085
:10250000E72C0FD10021084601F0DEFF00270AE08A
:1025100040F23A70854205DD0021084601F0D4FF03
:10252000002700E000BF002FD1D161E028E001F0DA
:102530007FFE0546B5F5C87F18DDB5F5FA7F15DADB
:102540000820FFF72FFC0446EF2C01D0F72C05D113
:102550000021084601F0B8FF002711E0E72C0ED15A
:102560000021084601F0B0FF002709E0B5F5FA7F29
:1025700005DD0021084601F0A7FF002700E000BFAD
:10258000002FD4D134E02FE031E001F051FE0546B8
:10259000B5F52F7F1DDD40F2B630854219DA0820EF
:1025A000FFF700FC0446EF2C01D0F72C09D10F21D6
:1025B000404600F027F80021084601F085FF00277B
:1025C00012E0E72C0FD10021084601F07DFF002723
:1025D0000AE040F2B630854205DD0021084601F0F0
:1025E00073FF002700E000BF002FCED100E000BF46
:1025F00000BF0021084601F067FF642003F0C0FA25
:10260000BDE8F08170B504460D460026642003F055
:10261000B7FA01F031FE01F00BFE0646614220469A
:1026200001F052FF02E001F003FE0646AE42FAD985
:102630000021084601F048FF642003F0A1FA70BDB4
:1026400070B504460B480578046001F01BFB02E0FE
:10265000012003F095FA204600F0E0FFDFED060AC6
:10266000B4EE600AF1EE10FAF2D10248056000F013
:10267000D5FE70BD9C0500100000C64270B5044632
:102680002046FFF703FE0C480578046001F0FAFAD3
:1026900002E0012003F074FA204600F0DFFEDFEDD7
:1026A000070AB4EE600AF1EE10FAF2D102480560B2
:1026B00000F0B4FE70BD00009C0500100000C64292
:1026C00070B504460B480578046001F0DBFA02E0BF
:1026D000012003F055FA204601F064F8DFED060A08
:1026E000B4EE600AF1EE10FAF2D10248056000F093
:1026F00095FE70BD9C0500100000C6422DE9F0411A
:1027000005460C460026642003F03AFA01F0B4FDB9
:1027100001F08EFD06461348077805602846FFF74E
:10272000B5FD01F0AFFA0FE001F082FD0646284644
:1027300001F020F9A64204D30021084601F0C4FEAE
:1027400004E0012003F01CFAA642EDD900BF0021ED
:10275000084601F0B9FE03480760642003F010FA50
:10276000BDE8F0819C0500102DE9F04105460C46BE
:102770000026642003F004FA01F07EFD01F058FD0C
:1027800006461348077805602846FFF77FFD01F0ED
:1027900079FA0FE001F04CFD0646284601F0B2F947
:1027A000A64204D30021084601F08EFE04E0012079
:1027B00003F0E6F9A642EDD900BF0021084601F07A
:1027C00083FE03480760642003F0DAF9BDE8F08176
:1027D0009C05001010B50021084601F075FEFFF7BA
:1027E0001FF8642003F0CCF910BD000010B5254897
:1027F000007848B102F0D2F930B9002021490870C0
:1028000002F0C4F903F0BEFC1F48007848B100F0A4
:1028100005FC012802D01D4800F0DCFC00201A490C
:1028200008701B48007858B31A4800F026FB11289E
:102830001ED2DFE800F01D091D0F1D0E1C1D1D1D01
:102840001D1D120D10111B00124801F035FF13E081
:1028500012E011E010E00FE00EE00F48007820B128
:1028600003F050FB00200C49087005E004E003E091
:102870000AA001F0DBFD00BF00BF00200449087082
:1028800010BD00000A0600107B020010940A001020
:102890007D0200105C0B00100B060010756E646565
:1028A00066696E650A00000070B522480478FF2052
:1028B000204908700A2C35D2DFE804F034050813EB
:1028C00020242527303303F02BFB2FE09FED1A1A2D
:1028D000DFED1A0AB3EE090A00F078FD03F016FBEB
:1028E00024E00820FFF72EFA054601F093FD0820AA
:1028F000FFF758FA054601F08DFD17E0142000F0AF
:102900000FFA13E012E003F03DFC0D48007820B10F
:1029100003F0F8FA00200A49087007E003F07CFC95
:1029200004E003E0FF200349087000BF00BFFF245C
:1029300070BD0000980500100000964300000000E4
:102940000B06001070B5002100230F22C4781CB3C1
:10295000174C246804F4E064C4F5E064C4F3072170
:10296000C1F10404E3B20A4144789C40E1B28478A6
:10297000144021430C07210E0E4C05786155047854
:1029800004F01F050124AC4005786D11AD0005F180
:10299000E025C5F8004109E0047804F01F05012492
:1029A000AC40054D0678761145F8264070BD000014
:1029B0000CED00E000E400E080E100E002490143AA
:1029C000024A1160704700000000FA050CED00E0BB
:1029D0002DE9FC4104460D4616461F46DDF82080D1
:1029E000154800788DF80000012C02D1124840787B
:1029F00001E0124840788DF801008DF802508DF802
:102A000003608DF804708DF805809DF805309DF801
:102A100004209DF803109DF8020003F084F88DF85F
:102A200006000548C0798DF8070069460220FDF7C9
:102A300084FEBDE8FC810000720600107A060010DA
:102A400038B504460D46412C00D10124422C00D15A
:102A50000024002003462A46012100902046FFF76B
:102A6000B7FF38BD30B50346012902D11948407877
:102A700001E01948407804461878164D2D78A84290
:102A800026D15878A04223D1D879124DED79A842A9
:102A90001ED1987803281BD1D878012802D10AB911
:102AA000187930BDD878022812D1012A01D11879BD
:102AB000F7E7022A01D15879F3E7032A08D11879F8
:102AC000012803D15879012800D1EAE70220E8E77C
:102AD0000020E6E7720600107A060010014608782A
:102AE0000B4A1278904211D14878094A52789042A4
:102AF0000CD1C879064AD279904207D1887810283B
:102B000004D1C878012801D1087970470020FCE77A
:102B10008A0600102DE9FC4104460D4616461F4664
:102B2000124800788DF80000104840788DF80100B8
:102B30008DF802408DF803508DF804608DF8057013
:102B40009DF805309DF804209DF803109DF80200C3
:102B500002F0E9FF8DF806000448C0798DF80700FF
:102B600069460220FDF7E9FDBDE8FC813A06001048
:102B700010B50446207830B900231A4601210846D2
:102B8000FFF7C8FF02E0204600F001F810BD10B5C5
:102B90000446A378627821781020FFF7BBFF4FF43A
:102BA000C87002F0EDFF63792279E1781120FFF718
:102BB000B1FF642002F0E4FF10BD014688780128CF
:102BC00006D1C87820B90879052801D101207047BD
:102BD0000020FCE77CB504460D460DA103C9CDE9F4
:102BE000000100231A460121202002F09CFF8DF8ED
:102BF00006002846FFF7BCFFC82002F0C1FF2846A8
:102C0000FFF7B6FF22460449684600F043F97CBD51
:102C100055032001000000BB04060010014688781F
:102C200070470146C87870470146087970470146E9
:102C3000487970472DE9FC4104460D4616461F466B
:102C4000124800788DF80000104840788DF8010097
:102C50008DF802408DF803508DF804608DF80570F2
:102C60009DF805309DF804209DF803109DF80200A2
:102C700002F059FF8DF806000448C0798DF807006E
:102C800069460220FDF759FDBDE8FC8132060010BF
:102C900070B504460A20B4FBF0F100FB1141B4FB0F
:102CA000F0F00A22B0FBF2F302FB130001EB00107C
:102CB000C5B2642094FBF0F0C6B22B463246002128
:102CC0000420FFF7B7FF70BD10B5044600231A4675
:102CD00021460320FFF7AEFF10BD08B500200346D4
:102CE000024601460090022000F09DF84FF49670D5
:102CF00002F046FF002003460246014600900220F3
:102D000000F091F84FF4967002F03AFF002003466D
:102D1000024601460090022000F085F808BD000040
:102D200010B50446204601F01DFF0120014908703E
:102D300010BD00000A060010F8B504460D46164600
:102D40001F4633462A4621460220009700F06BF8C2
:102D5000F8BD00001CB5134800788DF8000011483C
:102D600040788DF8010001208DF802008DF80300F5
:102D700000208DF804008DF805009DF805309DF8C1
:102D800004209DF803109DF8020002F0CCFE8DF89F
:102D900006000448C0798DF8070069460220FDF757
:102DA000CCFC1CBD420600102DE9FC4104460D463A
:102DB00016461F46124800788DF8000010484078EB
:102DC0008DF801008DF802408DF803508DF80460F5
:102DD0008DF805709DF805309DF804209DF80310CE
:102DE0009DF8020002F09FFE8DF806000448C079AD
:102DF0008DF8070069460220FDF79FFCBDE8FC81C5
:102E00004A06001010B5044634B900231A460121C1
:102E10002020FFF7C9FF05E000231A4621461020B5
:102E2000FFF7C2FF10BD2DE9FC4104460D461646D2
:102E30001F46DDF8208055208DF800008DF80140F8
:102E40008DF802508DF803608DF804708DF80580C0
:102E50009DF805309DF804209DF803109DF80200B0
:102E600002F061FE8DF80600BB208DF80700694670
:102E70000220FDF762FCBDE8FC8101460878552878
:102E800006D1C879BB2803D1487808B14878704783
:102E90000020FCE72DE9F04105460C4616464FF0B0
:102EA00001080027002020700121144801F0D7FDFF
:102EB00029460220FDF741FC15E0781CC7B2B74255
:102EC00002DB4FF0000811E0207800B10EE04FF473
:102ED000FA7002F055FE4FF4FA7002F051FE2946E6
:102EE0000220FDF72AFC20780028E6D000BF002150
:102EF000024801F0B4FD4046BDE8F0810008004002
:102F000010B504462146B42000F042F810BD000080
:102F10002DE9FC4107460C4615461E4613A103C980
:102F2000CDE900018DF802708DF803408DF8045052
:102F30008DF805609DF803009DF8041008449DF885
:102F4000051008449DF802100844FF2190FBF1F29F
:102F500001FB1200C0B28DF806000821684601F09E
:102F6000DDFAC82002F00CFEBDE8FC81551100001E
:102F7000000000BB70B504460D46412C01D1B021C4
:102F800000E0B1210846294600F002F870BD0000BB
:102F90002DE9F04106460D460127002401201C4979
:102FA000087000201B49086001211B4801F057FDF3
:102FB00000231A4619463046FFF7AAFF1CE0601CA2
:102FC000C4B2AC4201D300271AE01148007800B91E
:102FD00016E04FF4FA7002F0D3FD4FF4FA7002F0ED
:102FE000CFFD0C48006838B9022C05DD00231A46D5
:102FF00019463046FFF78CFF054800780128DED0DF
:1030000000BF0021044801F02AFD3846BDE8F081E8
:10301000B6060010C0060010000C004010B50C48A9
:103020000078552811D10A48407801280DD0084869
:103030004078AA2809D00648C079BB2805D10449A0
:103040000220FDF77AFB012010BD0020FCE7000004
:10305000940A001010B556480078552877D1544886
:10306000C079BB28FAD152484078AA2870D150487C
:103070008078A22821D00CDC45284AD004DC4028E6
:1030800031D0412870D139E046284DD0A1287CD1DB
:1030900008E0A3281CD0A52868D0AE284CD0AF28C3
:1030A00073D156E00120434908604148C0780128A7
:1030B00002D100204049087068E03D48C0783F498F
:1030C00008703B48007948703948407988705DE065
:1030D0003748C0783949C870354800790871344894
:1030E0004079487152E03248C0783549087030481C
:1030F000007948702E484079887047E02C48C078A5
:103100002F49C8702A4800790871294840794871C8
:103110003CE02748C0782B49087025480079487062
:1031200023484079887031E02148C0782549C8702B
:103130001F480079087129E01D48C07822490870AD
:103140001B48007948701A48407988701EE02AE0D0
:103150001DE01748C0781C49C870154800790871EF
:1031600013484079487111E00FE0FFE71048C0783C
:103170001649087008460078022805DA08460078E3
:10318000072801DD0220087000E000BF0EE00848BB
:1031900040780E2808D106488078022806D10448D5
:1031A000C0780B49087001E0FFF720FB10BD00005C
:1031B000940A0010C0060010B60600109B0600100E
:1031C000A2060010A906001094060010B506001013
:1031D000BE06001010B504462078552861D16078ED
:1031E000AA285ED1E079BB285BD1A07805282FD032
:1031F00008DC01280FD0022810D0032816D004289C
:103200004ED11BE006282DD0A0282FD0AA2831D0DF
:10321000AB2845D139E0FFF7DDFA41E02379627947
:1032200003EB0221E078FFF769FA39E0237962794C
:1032300003EB0221E078FEF7CFFF31E0E07830B118
:103240002379627903EB0221E078FFF7FCF827E0AD
:10325000E07830B12379627903EB0221E078FFF75F
:10326000D1F91DE0E078FFF7EBF919E0082001F053
:103270000FFA15E00B48C0780B490870094800792F
:1032800048700848407988700AE00648C0780649C6
:10329000C87004480079087102484079487100BF3D
:1032A00000BF10BD940A0010AE06001000B5204803
:1032B000FFF7E3FD062828D006DC012830D00328DC
:1032C00007D005282DD112E00D2808D0102828D1CC
:1032D00015E01748FFF771FC1649087022E000223C
:1032E00001211348FFF7BEFB134908701AE00022C2
:1032F00011460F48FFF7B6FB0F49087012E00C4863
:10330000FFF7ECFB0D4908700CE00948C0780C4948
:10331000087007480079487005484079887001E0D6
:1033200000E000BF00BF00200649087000BD00009B
:103330005C0B0010040600100506001006060010C5
:10334000070600107D020010184880ED000A18489A
:10335000D0ED000A70EE800AC0ED000A1548D0EDED
:10336000000A70EE600A1448C0ED000A1348D0ED60
:10337000000A0E4890ED001A60EE810A104890EDA8
:10338000001A0B48D0ED001A41EE210A0D4890EDCD
:10339000001A0948D0ED001A41EE210A0A48C0ED92
:1033A000000A044880ED000A70470000EC05001098
:1033B000F0050010FC050010F4050010D405001005
:1033C000D8050010DC050010F80500100D48D0ED00
:1033D000001A0D48C0ED001A0C48D0ED001A0C4838
:1033E000C0ED001A0B48D0ED001A0B48C0ED001AD2
:1033F000084880ED000A0548C0ED000A014880ED4C
:10340000001A7047DC050010E8050010D805001010
:10341000E4050010D4050010E0050010094890ED07
:10342000000A094880ED000A084890ED000A0848A3
:1034300080ED000A074890ED000A074880ED000A79
:1034400070470000E0050010D4050010E4050010EE
:10345000D8050010E8050010DC05001070B52DED52
:10346000028B04469FED640AB0EE408A0820FEF706
:1034700099FC05462846EF2D2BD011DCBF2837D00C
:1034800007DCC0B13F2856D07F2836D09F2866D1B0
:103490004CE0CF2845D0DF2825D0E7285FD113E0C6
:1034A000F3380C285BD2DFE800F04B5A5A5A195A0D
:1034B000505A2D5532379FED510AB0EE408A9FED9C
:1034C0004F0ABDEC028B70BD9FED4B0AB0EE408AF7
:1034D00056E0BFEE000AB0EE408A51E0B7EE000AB7
:1034E000B0EE408A4CE0B8EE000AB0EE408A47E009
:1034F000B8EE080AB0EE408A42E09FED410AB0EE15
:10350000408A3DE0B0EE000AB0EE408A38E0B0EE0E
:10351000080AB0EE408A33E09FED3A0AB0EE408AE6
:103520002EE09FED390AB0EE408A29E09FED370A80
:10353000B0EE408A24E09FED320AB0EE408A1FE0F0
:103540009FED330AB0EE408A1AE09FED320AB0EEEA
:10355000408A15E09FED2B0AB0EE408A10E008206B
:10356000FEF7F0FB032806DD9FED240AB0EE408A4B
:103570009FED220AA5E79FED200AB0EE408A00BF2A
:1035800000BFB5EEC08AF1EE10FA08D100F07AFB68
:103590002146204600F098FF9FED170A91E79FED26
:1035A000170AB4EE408AF1EE10FA22D0B0EE480AC3
:1035B000FFF7CAFE00EE104AB8EE400A164AD2EDF6
:1035C000000A30EE600ABDEEC00A10EE101A00EEDE
:1035D000104AB8EE400AD2ED000A30EE200ABDEEE5
:1035E000C00A10EE100A00F06FFF0B4890ED000AC1
:1035F00067E79FED020A64E7000000000000C64292
:10360000CDCC4CC0CDCC4C40CDCCCCBF666626C01A
:10361000CDCCCC3F66662640F805001010B52DEDE8
:10362000028B04469FED5A0AB0EE408A0820FEF74E
:10363000B9FBEF2824D00FDC9F284ED005DCB0B1B9
:103640003F284FD07F2861D12EE0BF2827D0CF2838
:103650003ED0DF285AD11DE0F3380C2856D2DFE8DF
:1036600000F04655555514554B5528502D329FEDB9
:10367000490AB0EE408A9FED470ABDEC028B10BDAF
:10368000BFEE000AB0EE408A45E0B7EE000AB0EEA9
:10369000408A40E0B8EE000AB0EE408A3BE0B8EE67
:1036A000080AB0EE408A36E09FED3B0AB0EE408A51
:1036B00031E0B0EE000AB0EE408A2CE0B0EE080A2D
:1036C000B0EE408A27E09FED350AB0EE408A22E056
:1036D000B8EE000AB0EE408A1DE0B8EE080AB0EE7F
:1036E000408A18E09FED2C0AB0EE408A13E0B0EE5D
:1036F000000AB0EE408A0EE0B0EE080AB0EE408A52
:1037000009E09FED260AB0EE408A04E09FED200A12
:10371000B0EE408A00BF00BFB5EEC08AF1EE10FAED
:1037200008D100F0AFFA2146204600F0CDFE9FED13
:10373000180AA2E79FED170AB4EE408AF1EE10FADC
:1037400022D0B0EE480AFFF7FFFD00EE104AB8EEB7
:10375000400A134AD2ED000A30EE600ABDEEC00AFC
:1037600010EE101A00EE104AB8EE400AD2ED000A30
:1037700030EE200ABDEEC00A10EE100A00F0A4FEE2
:10378000074890ED000A78E79FED020A75E7000010
:10379000000000000000C642CDCC4CC0CDCC4C4057
:1037A000F805001070B52DED028B04469FED680AF8
:1037B000B0EE408A0820FEF7F5FA06460720FEF72D
:1037C000F1FA05463046F32E65D012DCBF283AD018
:1037D00008DC3F285AD07E2821D07F2838D09F2867
:1037E00068D14EE0CF2847D0DF2827D0EF2861D11D
:1037F0001AE0F73809285DD2DFE800F01B5C525C64
:103800002F57343905007F2D04D19FED520AB0EEB9
:10381000408A03E09FED4E0AB0EE408A59E09FEDEA
:103820004D0AB0EE408A54E09FED4B0AB0EE408A5C
:103830004FE09FED4A0AB0EE408A4AE09FED480A09
:10384000B0EE408A45E0B8EE080AB0EE408A40E0AB
:103850009FED440AB0EE408A3BE09FED430AB0EE94
:10386000408A36E0B0EE080AB0EE408A31E09FEDC3
:103870003F0AB0EE408A2CE09FED390AB0EE408A54
:1038800027E0B8EE080AB0EE408A22E09FED350A44
:10389000B0EE408A1DE09FED340AB0EE408A18E099
:1038A000B0EE080AB0EE408A13E09FED300AB0EEA9
:1038B000408A0EE00820FEF745FA032804DD9FED5C
:1038C000250AB0EE408A03E09FED210AB0EE408A5F
:1038D00000BF00BFB5EEC08AF1EE10FA0AD100F0C9
:1038E000D1F92146204600F0EFFD9FED190ABDEC0D
:1038F000028B70BD9FED170AB4EE408AF1EE10FA0C
:1039000022D0B0EE480AFFF71FFD00EE104AB8EED5
:10391000400A174AD2ED000A30EE600ABDEEC00A36
:1039200010EE101A00EE104AB8EE400AD2ED000A6E
:1039300030EE200ABDEEC00A10EE100A00F0C4FD01
:103940000B4890ED000AD2E79FED020ACFE7000096
:10395000000000000000C6429A9999BF9A99993FC9
:103960009A9919C0CDCC4CC09A991940CDCC4C40F5
:10397000F805001010B52DED028B04469FED560A98
:10398000B0EE408A0820FEF70DFAF32851D010DC83
:10399000BF2826D006DC3F2846D07F2826D09F2887
:1039A00056D13CE0CF2835D0DF2815D0EF284FD1B5
:1039B00008E0F73808284BD2DFE800F0094A404A0F
:1039C0001D4522279FED450AB0EE408A45E09FED58
:1039D000440AB0EE408A40E0B8EE000AB0EE408AF9
:1039E0003BE0B8EE080AB0EE408A36E09FED3D0AB3
:1039F000B0EE408A31E0B0EE000AB0EE408A2CE032
:103A0000B0EE080AB0EE408A27E09FED370AB0EE2C
:103A1000408A22E09FED350AB0EE408A1DE09FED1E
:103A2000340AB0EE408A18E09FED2E0AB0EE408ACC
:103A300013E09FED300AB0EE408A0EE09FED2E0AB3
:103A4000B0EE408A09E09FED280AB0EE408A04E01B
:103A50009FED210AB0EE408A00BF00BFB5EEC08ADC
:103A6000F1EE10FA0AD100F00DF92146204600F0DF
:103A70002BFD9FED190ABDEC028B10BD9FED1F0AB7
:103A8000B4EE408AF1EE10FA22D0B0EE480AFFF709
:103A90005BFC00EE104AB8EE400A194AD2ED000A6B
:103AA00030EE600ABDEEC00A10EE101A00EE104AA9
:103AB000B8EE400AD2ED000A30EE200ABDEEC00A90
:103AC00010EE100A00F000FD0D4890ED000AD2E75C
:103AD0009FED0A0ACFE7000000000000CDCC8CBFAC
:103AE000CDCC8C3FCDCC4CC0CDCC4C40CDCCCCBF84
:103AF000666626C0CDCCCC3F666626400000C64236
:103B0000F805001010B52DED028B04469FED560A06
:103B1000B0EE408A0820FEF745F9F32851D010DCBA
:103B2000BF2826D006DC3F2846D07F2826D09F28F5
:103B300056D13CE0CF2835D0DF2815D0EF284FD123
:103B400008E0F73808284BD2DFE800F0094A404A7D
:103B50001D452227B8EE000AB0EE408A45E0B0EEDF
:103B6000000AB0EE408A40E0B8EE040AB0EE408AA7
:103B70003BE0B8EE080AB0EE408A36E09FED3B0A23
:103B8000B0EE408A31E0B0EE040AB0EE408A2CE09C
:103B9000B0EE080AB0EE408A27E09FED350AB0EE9D
:103BA000408A22E0B8EE000AB0EE408A1DE09FEDA8
:103BB000310AB0EE408A18E09FED2C0AB0EE408A40
:103BC00013E0B0EE000AB0EE408A0EE09FED2A0A44
:103BD000B0EE408A09E09FED260AB0EE408A04E08C
:103BE0009FED210AB0EE408A00BF00BFB5EEC08A4B
:103BF000F1EE10FA0AD100F045F82146204600F017
:103C000063FC9FED190ABDEC028B10BD9FED1B0AF2
:103C1000B4EE408AF1EE10FA22D0B0EE480AFFF777
:103C200093FB00EE104AB8EE400A154AD2ED000AA6
:103C300030EE600ABDEEC00A10EE101A00EE104A17
:103C4000B8EE400AD2ED000A30EE200ABDEEC00AFE
:103C500010EE100A00F038FC094890ED000AD2E797
:103C60009FED060ACFE7000000000000CDCC4CC05D
:103C7000CDCC4C40666626C0666626400000C64233
:103C8000F80500109FED0F0A0F4880ED000A9FED28
:103C90000D0A0E4880ED000A9FED0A0A0C4880EDDF
:103CA000000A9FED080A0B4880ED000A9FED050A07
:103CB000094880ED000A9FED030A084880ED000ADC
:103CC0007047000000000000EC050010F005001037
:103CD000F4050010F8050010FC05001000060010A7
:103CE00010B52DED048BB0EE080A164880ED000AE1
:103CF00090ED000ADFED140A20EE200A80ED000AA4
:103D00009FED120A124880ED000A90ED000ADFEDE7
:103D10000E0A20EE200A10EE101A0846FCF702FBED
:103D200041EC190B9FED0B0B53EC102BFCF78BFAAE
:103D300041EC180BFCF709FB05490860BDEC048B4E
:103D400010BD0000180000100000C84200CC0D415A
:103D500014000010000000000070A74010B50321FF
:103D60001420FDF763FD10BD10B5142000F011FA0A
:103D7000044604F0030018B90321142000F002FCEB
:103D800010BD10B500F0E6F908B1FE2010BD0F21FE
:103D9000012001F0DFFD3D21112001F0DBFD1E219E
:103DA0002D2001F0D7FD00212C2001F0D3FD8D2125
:103DB0002A2001F0CFFD3E212B2001F0CBFD402138
:103DC000152001F0C7FD0020E0E7000010B503203A
:103DD000FDF7A4FF514908800846008800F0D8FC90
:103DE0004E4908804E4801884C480088FEF7C0F9CB
:103DF0004C4908704A480088F0BB4B48D0ED000A97
:103E00004648008800EE100AB8EE400A20EE800A0C
:103E1000BCEEC00A10EE100A40490880084600882F
:103E200000EE100AB8EE400A4048D0ED000AB4EEA9
:103E3000E00AF1EE10FA03D200203D49087016E0C6
:103E40003648008800EE100AB8EE400A3748D0ED38
:103E5000000A30EE600ABCEEC00A10EE100A3449C7
:103E6000087008460078642801DD64200870304836
:103E700000783049087000E004E00846017801202D
:103E800000F0FEFA2548008825490880254800787A
:103E90000A2842DD2448D0ED000A2048008800EEC0
:103EA000100AB8EE400A20EE800ABCEEC00A10EEFE
:103EB000100A1A4908800846008800EE100AB8EE79
:103EC000400A1A48D0ED000AB4EEE00AF1EE10FA0A
:103ED00003D200201649087016E01048008800EE52
:103EE000100AB8EE400A1148D0ED000A30EE600A20
:103EF000BCEEC00A10EE100A0D49087008460078A2
:103F0000642801DD642008700948007809490870B8
:103F100008460178012000F0B3FA10BD1E00001021
:103F200020000010220000101400001018000010E3
:103F30001C0000101000001010B586B004460121CE
:103F4000084600F043F80121102000F06FF8072226
:103F500009211B48FDF72DFE07220A211848FDF70D
:103F600028FE4FF4C060049002208DF81400002059
:103F70008DF8160001208DF8170003208DF815002C
:103F800004A90F48FDF7CDFD00940020ADF80C000A
:103F90000C20ADF80A000020ADF80800ADF80600CE
:103FA000ADF804006946074801F02CFA01210548E4
:103FB00001F0BFF900200449087006B010BD0000F0
:103FC00000000240001001404400001029B1064AE0
:103FD00012680243044B1A6004E0034A12688243E9
:103FE000014B1A60704700003038024029B1064A80
:103FF00012680243044B1A6004E0034A12688243C9
:10400000014B1A60704700004038024029B1064A4F
:1040100012680243044B1A6004E0034A12688243A8
:10402000014B1A60704700002038024029B1064A4F
:1040300012680243044B1A6004E0034A1268824388
:10404000014B1A60704700004438024029B1064A0B
:1040500012680243044B1A6004E0034A1268824368
:10406000014B1A607047000024380240F0B500216F
:1040700000220024022500260223324F3F6807F069
:104080000C0121B1042905D0082937D105E02E4FB4
:10409000076036E02D4F076033E02A4F3F1F3F682F
:1040A000C7F38056274F3F1F3F6807F03F036EB1AD
:1040B000264FB7FBF3F7DFF88CC0ACF1040CDCF84B
:1040C00000C0CCF3881C07FB0CF40CE01E4FB7FBC0
:1040D000F3F7DFF870C0ACF1040CDCF800C0CCF3EF
:1040E000881C07FB0CF4174F3F1F3F68C7F30147BD
:1040F0007F1C7D00B4FBF5F7076002E0124F0760FC
:1041000000BF00BF0F4F3F6807F0F0010909104FD3
:104110007A5C0768D74047600A4F3F6807F4E05170
:10412000890A0B4F7A5C4768D7408760054F3F6824
:1041300007F46041490B064F7A5C4768D740C76077
:10414000F0BD0000083802400024F40040787D01F2
:10415000E400001038B5FE2500200090002400BFC8
:1041600012E0552000F0F4F942F21071684600F0B8
:1041700031F838B9552000F0EBF9642001F000FD6A
:10418000002503E0601C84B2642CEADB00BF68B247
:1041900038BD38B5044604F03F0040F080042046A6
:1041A00000F0D6F942F21071684600F013F80546A7
:1041B0000DB1FF2038BD9DF80000FBE710B54FF4AE
:1041C0001650FFF7B9FE4FF4FA7001F0D9FCFDF775
:1041D00087FF10BD70B504460D4601F01DFD4FF47C
:1041E000FA61B5FBF1F146180AE00A48008800F0D0
:1041F000200028B1074801F06FF92070002070BD41
:10420000304601F00FFD0028EFD10349087001206E
:10421000F5E70000001001404400001010B5FDF764
:10422000DBFD02F01BF801F0FBFF00F089FD10BD83
:104230000F48B0F900000F4AB2F90020904207DDA4
:104240000B48B0F900000B4AB2F90020811A06E0D1
:104250000848B0F90000064AB2F90020811AB1F509
:10426000004F02D94FF6FF70411A88B27047000024
:104270002E010010140100100248B0F9000002499C
:10428000088070472E0100101401001010B524485A
:10429000006801F0C7FC002840D101F0BDFC3230BD
:1042A0001F4908601F48007848B900201E4908606F
:1042B00001201E49C1F8B0021A4908702EE01948C1
:1042C000007801280BD1002017490C390860012023
:1042D0001649C1F8B4020220124908701EE01148C4
:1042E000007802280BD100200F490839086001200E
:1042F0000E49C1F8B80203200A4908700EE00948C7
:10430000007803280AD100200749091F086001200E
:104310000649C1F8BC0200200249087010BD000027
:10432000F8030010F3030010BC82434200804342B4
:104330001CB50120032100231A46CDE9001080217D
:104340000148FDF764FC1CBD000402401CB50020C0
:10435000032103460122CDE9001080210148FDF729
:1043600056FC1CBD0004024030B500228B071C0F18
:104370000F2303FA04F20B4B8C1053F824309343B1
:10438000084C8D1044F8253023468C1053F8243007
:104390008C07240F00FA04F42343024C8D1044F8D8
:1043A000253030BD083801402DE9F04186B0054682
:1043B00001262F4600E0761C0A2097FBF0F0071E2E
:1043C000F9D1344600BF12E021460A2001F090FDE9
:1043D000B5FBF0F100FB1158611E0A2001F088FDC9
:1043E000B8FBF0F0303002A9C855641E7F1C012CC8
:1043F000EADA0020F1B203464FF47072009002A88E
:10440000FCF7DCFE4FF4C87001F0E0FB06B0BDE83D
:10441000F081000010B504462046FFF7C5FF02A05A
:1044200000F004F810BD00000A00000070B504465A
:104430000025207860B1264601E0681CC5B214F85A
:10444000011B0029F9D12946304600F02FF803E07E
:10445000022104A000F02AF84FF47A7001F0B6FBB4
:1044600070BD00000A00000010B504462046FFF7AA
:10447000DDFF022101A000F019F810BD0A000000C4
:104480007CB505460C4603208DF8040001208DF80C
:1044900005008DF8064000204FF4F073032201A9B7
:1044A00000901046FCF7F6FF7CBD000070B5044696
:1044B0000D462A4621460348FDF7A7FA642001F07D
:1044C00085FB70BD600800107CB504460D46E0B267
:1044D0008DF80400E0B28DF80500E8B28DF8060012
:1044E000E8B28DF80700FCF7A3FE78B10020034680
:1044F00020220421009001A8FCF760FE0020202368
:10450000024601A90090FCF7C5FF06E00020202329
:10451000042201A90090FCF7BDFF7CBD70B50446E4
:104520000D462A4621460248FDF76FFA70BD00008D
:104530008008001070B504460D462A4621460348FF
:10454000FDF763FA642001F041FB70BDA008001084
:1045500010B504460A48008800BF0948008800F0EA
:1045600080000128F9D02146054800F0BAFF00BFBD
:104570004021034800F0E9FE0128F9D110BD0000F8
:104580000010014070B505460C4600262846FFF78E
:1045900000FE064646EA0401284601F0DBF9002049
:1045A00070BD00000CB500200190009034480068F8
:1045B00040F480303249086000BF3148006800F4A0
:1045C000003000900198401C0190009818B90198A3
:1045D000B0F5A04FF1D12A48006800F4003010B1C6
:1045E0000120009001E0002000900098012846D1B1
:1045F00023484030006840F0805021494031086035
:104600002048006840F440401E4908601C480830BB
:1046100000681B49083108600846006840F4004003
:1046200008600846006840F4A05008601648091F5A
:104630000860081F006840F08070091F086000BF14
:104640000F48006800F000700028F9D040F20570B3
:104650000E4908600A480830006820F00300084945
:10466000083108600846006840F00200086000BF9A
:1046700003480830006800F00C000828F8D10CBD91
:10468000003802400070004019544007003C0240CE
:10469000014A1070704700009805001010B50446DC
:1046A000FCF7B4F84620FCF785F82046FCF782F8C2
:1046B000FCF7C8F810BD000010B504462046FEF710
:1046C000ADFA0B2828D006DC01280BD003280FD028
:1046D0000A2852D110E00C282ED00D283CD0B0284A
:1046E0004BD149E02648007808B101F04BFD45E088
:1046F00024A0FEF73DFA41E02046FEF792FA224957
:1047000008602046FEF790FA1F4948602046FEF7F1
:104710008EFA1D49886031E02046FEF782FA1A4978
:10472000C8602046FEF780FA174908612046FEF768
:104730007EFA1549486121E02046FEF772FA1349D6
:1047400008702046FEF770FA104948702046FEF7C0
:104750006EFA0E49887011E02046FEF762FA0B49A6
:10476000C8702046FEF760FA084908712046FEF737
:104770005EFA0649487101E000E000BF00BF10BDCD
:104780000A06001000000000880C0010A5050010AB
:1047900010B5024600230B48828200210BE0094C31
:1047A000481C34F8100024F81100204630F811009D
:1047B000184483B2491C0A29F1DB0A2093FBF0F06C
:1047C00080B210BDF8070010042808D14FF0E02196
:1047D000096941F004014FF0E022116107E04FF058
:1047E000E021096921F004014FF0E02211617047D6
:1047F00010B51548006840F470001349086013486C
:10480000006840F001001149086000200F4908319C
:1048100008600E4800680E4908400C4908600D48C1
:10482000091D0860081F006820F48020091F086027
:10483000002006490C310860FFF7B4FE4FF000601D
:1048400001498039086010BD88ED00E00038024061
:10485000FFFFF6FE1030002410B50121054800F0DE
:104860000AF9012801D1FFF7D9FC0121014800F024
:10487000F3F810BD0040014010B50121074800F0D9
:10488000FAF8012804D106480068401C0449086071
:104890000121024800F0E0F810BD00000044014092
:1048A000DC00001010B50121880700F0E4F80128B1
:1048B0002DD11948007868B118480178002000F01F
:1048C0004FF9012001F05CF915480178012000F052
:1048D00047F907E06321002000F042F9632101203D
:1048E00000F03EF90F48006860B10F480068B0F56D
:1048F000FA7F07DB00200C4908600A480068401E68
:104900000849086008480068401C07490860012100
:10491000880700F0A1F810BDC4060010C5060010FD
:10492000C6060010C8060010D006001010B5012100
:10493000074800F0A0F8012804D106480088401C70
:10494000044908800121024800F086F810BD0000EB
:1049500000040040E803001010B50121074800F0F2
:104960008AF8012804D10648007808B1FEF79EFCB9
:104970000121024800F070F810BD0000000800405E
:104980007D02001010B501210C4800F074F80128D8
:104990000FD10B48007860B1FEF75CFB002008499E
:1049A000087000BF03E00021064A1154401C0A2889
:1049B000F9DB0121014800F04FF810BD000C004068
:1049C0007B020010940A001010B50121074800F086
:1049D00052F8012804D106480068401C04490860C8
:1049E0000121024800F038F810BD0000001000401E
:1049F0000400001010B50121054800F03CF8012822
:104A000001D1FDF7F7FA0121014800F025F810BDAA
:104A10000014004010B501210C4800F02CF80128CA
:104A20000ED10B480078401C0949087008460078F0
:104A3000142805DD0120074908700020044908708A
:104A40000121024800F008F810BD000000200040DD
:104A50007600001075000010CA430282704721B131
:104A6000028842F00102028004E002884FF6FE73E1
:104A70001A400280704730B502460020002300240F
:104A8000158A05EA0103958905EA010413B10CB101
:104A9000012000E0002030BD1AB183890B438381DF
:104AA00002E083898B4383817047000000220288E3
:104AB000184B98420ED0184B98420BD0B0F1804F53
:104AC00008D0164B984205D0154B984202D0154B92
:104AD000984204D14FF68F731A404B881A43124BF9
:104AE000984207D0114B984204D04FF6FF431A402A
:104AF0000B891A4302804B68C3620B880385054B00
:104B0000984202D0044B984201D18B7A038601234C
:104B1000838270470000014000040140000400400F
:104B200000080040000C004000100040001400404D
:104B300010B500F06DFF00F037FF00F0BDFF00F092
:104B400051FF00F08DFF00F0B5FF00F049FF10BDF0
:104B500070B504460D4629462046FDF767FA70BD3C
:104B60007047000010B5044600200549086005495B
:104B700008600548046001218807FFF770FF10BD39
:104B8000D0060010CC060010C806001010B5002199
:104B90004FF08040FFF763FF10BD0000054800683C
:104BA00008B1022070470448006808B10120F9E705
:104BB0000020F7E7CC060010C806001010B500F082
:104BC00021FE10BD7FB505460C4601210846FFF7C2
:104BD0000DFA0295ADF804400020ADF80600ADF8DE
:104BE0000C008DF80E0001A94FF08040FFF75EFF2A
:104BF0001C208DF8000000208DF801000A208DF89F
:104C0000020001208DF803006846FDF79BFE01229B
:104C100011469007FFF740FF00214FF08040FFF75B
:104C20001EFF7FBD7FB505460C4601210420FFF71E
:104C3000DDF90020ADF80C00ADF806000295ADF8E6
:104C4000044001A90D48FFF731FF012211460B482E
:104C5000FFF722FF1E208DF8000001208DF80300D1
:104C600000208DF8010002208DF802006846FDF753
:104C700069FE00210148FFF7F2FE7FBD00080040F9
:104C80007FB505460C4601210820FFF7AFF90295D4
:104C9000ADF804400020ADF80600ADF80C008DF82A
:104CA0000E0001A90D48FFF701FF32208DF800002A
:104CB00000208DF8010002208DF8020001208DF8FF
:104CC00003006846FDF73EFE012211460348FFF748
:104CD000E3FE00210148FFF7C2FE7FBD000C00404B
:104CE0007FB505460C4601214804FFF79FF9029560
:104CF000ADF804400020ADF80600ADF80C008DF8CA
:104D00000E0001A90D48FFF7D1FE19208DF8000013
:104D100000208DF8010006208DF8020001208DF89A
:104D200003006846FDF70EFE012211460348FFF717
:104D3000B3FE01210148FFF792FE7FBD0044014010
:104D400010B506480078012806D10820FDF72AF89A
:104D5000C4B2204600F004F810BD0000F9000010B5
:104D600010B5044654B90020B34908700120B34976
:104D7000087000210846FFF7A7FB2DE1E72C08D1BA
:104D8000AF480068AF490860AD480068AE490860A8
:104D900022E1F72C01D0F32C0AD1A9480068143085
:104DA000A8490860A64800682838A749086013E1A8
:104DB000FB2C01D0F92C0AD1A14800682830A14968
:104DC00008609F4800683C389F49086004E1FD2C5A
:104DD00001D0FC2C0AD19A4800683C3099490860FF
:104DE000974800685A3898490860F5E0FE2C0AD1C7
:104DF00093480068503093490860914800687838BB
:104E000091490860E8E0EF2C01D0CF2C0AD18C4802
:104E1000006814308C49086089480068283889493E
:104E20000860D9E0DF2C01D09F2C0AD184480068AB
:104E3000283085490860824800683C38814908600C
:104E4000CAE0BF2C01D03F2C0AD17D4800683C301D
:104E50007D4908607A4800685A387A490860BBE0A2
:104E60007F2C0AD176480068503077490860744832
:104E70000068783873490860AEE07448007801280B
:104E800015D104F01800182891D104F0800018B151
:104E900004F0010000288AD1002067490870012031
:104EA0006649087000210846FFF70EFB94E0684849
:104EB0000078012871D1182C08D161480068614937
:104EC00008605F4800686049086085E0082C01D0F0
:104ED0000C2C0AD15A48006814305A4908605848C6
:104EE000006828385849086076E0042C01D0062C68
:104EF0000AD1534800682830524908605048006879
:104F00003C385149086067E0022C01D0032C0AD1DB
:104F10004B4800683C304B490860494800685A38A3
:104F20004949086058E0012C0AD1454800685030D2
:104F300044490860424800687838434908604BE0BB
:104F4000102C01D0302C0AD13D48006814303E4965
:104F500008603B48006828383A4908603CE0202C4B
:104F600001D0602C0AD136480068283036490860E4
:104F7000334800683C38334908602DE0402C01D0AC
:104F8000C02C0BD12E4800683C302F4908602C48BB
:104F900000685A382B4908601EE015E0802C0AD1C1
:104FA000274800685030284908602548006878384C
:104FB0002449086010E0224800682249086020481F
:104FC00000682149086007E01D4800681D49086025
:104FD0001B4800681C490860FF2C20D11848006855
:104FE0001849086016480068174908601948008881
:104FF000B0F5966F0DDD00201649088000210846A7
:10500000FFF762FA00200C49087004200B49087071
:1050100008E010480088401C0E49088002E000208B
:105020000C4908800448007828B107480168054801
:105030000068FCF70AFC10BDF9000010FE0000102B
:1050400008010010000100100401001050050010BC
:1050500051050010FC000010024600215178107824
:1050600040EA012108467047024600211178507835
:1050700040EA01210846704710B5024800F0FEFAE8
:1050800010BD0000CC07001010B51248007800BB1E
:1050900040F22551104800F065F9012819D10E4859
:1050A00000F01AFA0D490E4A127888540C4800781C
:1050B000401C0B49087008460078022804DB0020D9
:1050C000087001200349087040F22551024800F0A1
:1050D00021F910BD0A000010001001400C00001062
:1050E0000B00001010B540F22551184800F03AF9B5
:1050F00001282AD11648007890B900F08DFD0A30B9
:1051000014490860002014490870104800F0E4F9C0
:105110001249114A1278885401200D4908700FE095
:105120000D480078C8280BDA084800F0D5F9C1B25C
:1051300009480078401CC0B2074A1070074A115451
:1051400040F22551014800F0E5F810BD0044004050
:105150007B020010840200107A020010940A0010F2
:1051600000B587B001210420FEF730FF0121202087
:10517000FEF75CFF082206212348FCF71AFD0822EF
:1051800007212148FCF715FDC020059002208DF86D
:10519000180000208DF81A0003208DF81900012056
:1051A0008DF81B0005A91848FCF7BBFC4FF4E13053
:1051B00001900020ADF810000C20ADF80E0000208A
:1051C000ADF80C00ADF80A00ADF8080001A90F48D1
:1051D00000F018F9012240F225510C4800F0ECF8DB
:1051E00047208DF8000000208DF801008DF80200A6
:1051F00001208DF803006846FDF7A4FB0121034858
:1052000000F097F807B000BD00080240001401400C
:1052100010B540F225512A4800F0A4F8002848D0E3
:10522000274800F059F9274908702748007878B9CD
:105230000846007855283CD10120234908702148B0
:10524000007822490870002048708870C87030E0EB
:105250001D48007801280AD102201B49087019480E
:1052600000781A49487001201949087021E0164851
:105270000078022807D103201349087011480078EC
:105280001249887015E01048007803280AD10020E0
:105290000D4908700B4800780C49C87001200D4971
:1052A000087006E00020084908700A49087007499C
:1052B000087040F22551024800F02CF810BD0000A3
:1052C00000140140B9000010BA000010BB0000102B
:1052D000D7000010C300001010B504462146054851
:1052E00000F0FFF800BF8021024800F02EF80028EF
:1052F000F9D010BD0014014070B505460E460024DB
:1053000000BF04E0285DFFF7E7FF601CC4B2B442B1
:10531000F8DB70BD10B50022002340F66A14A142EC
:1053200000D100BF0A1201249440A3B2DC430480E0
:1053300010BD21B1828942F40052828104E0828949
:105340004DF6FF731A408281704702460020B1F586
:10535000007F00D100BF13880B400BB1012000E09B
:105360000020704770B5024600240023002500206D
:1053700040F66A16B14200D100BFC1F3421501F0F8
:105380001F03012606FA03F3012D02D1968933404B
:1053900006E0022D02D1168A334001E0968A33409E
:1053A0000C12012606FA04F41688344013B10CB12D
:1053B000012000E0002070BDF0B503460024002667
:1053C0000025002040F66A17B94200D100BF1846F8
:1053D000C1F3421401F01F06012707FA06F5012C5C
:1053E00001D10C3004E0022C01D1103000E0143067
:1053F0001AB107682F43076002E00768AF430760F0
:10540000F0BD00002DE9FF4705460E460024A146E9
:1054100000BFA046B08900B100BF2C8A24F44054DC
:10542000F08804432C82AC8941F20C608443B0883C
:1054300031890843718908430443AC81AC8A24F460
:105440004074B0890443AC826846FEF70FFE2048E2
:10545000854202D01F48854202D1DDF80C9001E060
:10546000DDF80890A88900F4004040B109EBC900BC
:1054700000EB091031684900B0FBF1F707E009EBD8
:10548000C90000EB091031688900B0FBF1F7642016
:10549000B7FBF0F004012009642101FB1078A88912
:1054A00000F4004040B1322000EBC800B0FBF1F046
:1054B00000F00700044308E0322000EB08106421EC
:1054C000B0FBF1F000F00F0004432C81BDE8FF8732
:1054D000001001400014014001468888C0F3080014
:1054E0007047C1F3080282807047000010B512486F
:1054F0001249C1F8B00032211048C0F8B4100021A0
:10550000C0F8B810C0F8BC10C0F8C0100C49C0F802
:10551000C4100221C0F8C8100021C0F8CC10C0F897
:10552000D010C0F8D410042180F8D810002005490C
:10553000087000F009F810BDE80600101C07001004
:10554000240000102300001000B587B0012140F2B4
:105550000910FEF73BFD01214FF42020FEF746FD28
:10556000082200214048FCF724FB072206213F487F
:10557000FCF71FFB00208DF81A0001208DF81B009E
:1055800002208DF818000120059002208DF81900E6
:1055900005A93548FCF7C5FA02208DF8180040200F
:1055A000059005A93148FCF7BCFA00208DF81A00D7
:1055B00001208DF81B008DF81800000205900220D4
:1055C0008DF8190005A92A48FCF7ABFA0020FCF772
:1055D00015FD4FF4E13001900020ADF80800ADF862
:1055E0000A00ADF80C00ADF810000820ADF80E0070
:1055F00001A92048FFF706FF01211E48FFF799FE89
:1056000034208DF8000000208DF8010002208DF874
:10561000020001208DF803006846FDF793F94FF46E
:10562000E13001900420ADF80E0001A91248FFF707
:10563000E9FE26208DF8000000208DF801008DF88D
:10564000020001208DF803006846FDF77BF9012276
:1056500040F225510848FFF7AFFE01210648FFF749
:1056600068FE07B000BD000000000240000C0240D0
:1056700000200240004C00400044004010B50446A9
:1056800094F82810374A52F8210040F22771FFF7AA
:1056900069FE18B3E068401CE060D4E9021088425B
:1056A00009D2E1682068405C94F828102D4A52F82D
:1056B0002110888009E094F828102A4A52F8210025
:1056C000002240F22771FFF777FE94F82810254A50
:1056D00052F8210040F22771FFF71CFE94F82810C1
:1056E000204A52F8210040F22551FFF73BFE30B32B
:1056F00000F092FA606294F828001A4951F82000EC
:1057000080881949087094F82810164A52F8210028
:1057100040F22551FFF7FEFDD4E90610884207D27A
:1057200011480178E269501CE0616069815406E02B
:105730000E49206A884202D2206A401C206294F8F6
:105740002810084A52F821000821FFF7FEFD38B161
:1057500094F82800034951F8200080880449087013
:1057600010BD00002C00001028000010F0FFFF7F8B
:10577000290000100EB54FF4C060FDF71FF901219C
:105780008803FEF753FC04210120FEF7EDFD1020F5
:10579000019000208DF808000C208DF809000120F0
:1057A0008DF80A0001A8FCF7CBF80A208DF800005C
:1057B00000208DF8010007208DF8020001208DF8EF
:1057C00003006846FDF7BEF80EBD000070B5002569
:1057D00000F068F807E0641CB4F5FA6F00DD06E03D
:1057E000012000F0CDF9064800880028F3D000BF62
:1057F00003480588002002490880284670BD000043
:105800000800001070B58AB0002507E0FFF7DEFF42
:105810004DF82500C82000F0B3F96D1C0A2DF5DB0A
:10582000002518E0002411E05DF82410601C5DF8EC
:105830002000814209DD5DF82460601C5DF82000D5
:105840004DF82400601C4DF82060641CC5F109006F
:10585000A042E9DC6D1C0A2DE4DBDDE905028118BC
:1058600001EBD17040100AB070BD10B500F008F81F
:105870005321092000F042F8FFF77CFF10BD000023
:1058800010B501210320FEF7A1FB00220E210448E0
:10589000FCF78FF900220D210148FCF78AF910BDB1
:1058A0000000024010B5012010490860032000F0FC
:1058B0008DF900200E49C1F8BC0201210D48FFF707
:1058C000CEF801210B48FFF7C7F800200A4908600D
:1058D0001E2000F055F9012004490860052000F061
:1058E0004FF900210348FFF7BAF810BDBC0240424F
:1058F0000000404200100040040000107FB5054643
:105900000C4601211020FEF771FB0295ADF8044012
:105910000020ADF8060001A90D48FFF7C7F83620B2
:105920008DF8000000208DF801008DF802000120A4
:105930008DF803006846FDF705F80122114604487A
:10594000FFF7AAF800210248FFF789F87FBD0000A1
:105950000010004070B504460D462946204600F070
:1059600001F870BDF8B504460D46032704F03F0466
:10597000002714E02046FEF7EBFD42F21071684666
:10598000FEF728FC064646B99DF80000844203D184
:105990002846FEF7DDFD04E00226781CC7B2032F7F
:1059A000E8DB00BF3046F8BD1CB50A48006840F08F
:1059B0000400084908600120032100230246CDE9C4
:1059C000001041030448FCF722F901200349086054
:1059D0001CBD00003038024000080240B4024142C1
:1059E000704700001CB50848006840F020000649D8
:1059F00008600120032100230246CDE90010C10206
:105A00000248FCF704F91CBD303802400014024083
:105A10001CB50F48006840F080000D490860012067
:105A2000009000230246810201900A48FCF7EFF83B
:105A30000120009000230246C10201900548FCF7B6
:105A4000E6F80120044908600449C1F8AC021CBD15
:105A500030380240001C0240A8824342008043428A
:105A60001CB51148006840F040000F490860084626
:105A7000006840F002000860012003210023024674
:105A8000CDE90010C1030948FCF7C1F8012003214A
:105A900000230246CDE9001040210548FCF7B7F885
:105AA000FAF75CFE1CBD00003038024000180240CE
:105AB00000040240704700001CB51048006840F028
:105AC00002000E4908600846006840F001000860C6
:105AD0000120032100231A46CDE9001010210848B7
