:020000040800F2
:10000000181700209D010008A5010008A70100089D
:10001000A9010008AB010008AD01000800000000C4
:10002000000000000000000000000000AF01000818
:10003000B101000800000000B3010008B50100088C
:10004000B7010008B7010008B7010008B7010008B0
:10005000B7010008B7010008B7010008B7010008A0
:10006000B7010008B70100085D190008B7010008D2
:10007000B7010008B7010008B7010008B701000880
:10008000B7010008B7010008B7010008B701000870
:10009000B7010008B7010008B7010008B701000860
:1000A0004D4B00086D4B0008B7010008B701000870
:1000B000994B0008214C00084D4C0008B70100087E
:1000C000B7010008B7010008B7010008B701000830
:1000D000B701000881540008DD540008B70100088A
:1000E000B7010008B7010008B7010008B701000810
:1000F0004D4D0008094D0008B7010008B701000880
:10010000B7010008B7010008794C0008B7010008E2
:1001100071540008B7010008BD4C0008E94C000804
:10012000B7010008B7010008B7010008B7010008CF
:10013000B7010008B7010008B7010008B7010008BF
:10014000B7010008B7010008B7010008B7010008AF
:10015000B7010008B7010008B701000809560008F8
:10016000B7010008B7010008B7010008B70100088F
:10017000B7010008B7010008B7010008B70100087F
:10018000B7010008B7010008DFF80CD000F09EF9B5
:10019000004800479961000818170020064880476A
:1001A00006480047FEE7FEE7FEE7FEE7FEE7FEE75C
:1001B000FEE7FEE7FEE7FEE7E54A000889010008E2
:1001C000202A04DB203A00FA02F100207047914017
:1001D000C2F1200320FA03F3194390407047202A0C
:1001E00004DB203A21FA02F00021704721FA02F3E1
:1001F000D040C2F12002914008431946704740EABE
:1002000001039B0703D009E008C9121F08C0042A94
:10021000FAD203E011F8013B00F8013B521EF9D27B
:100220007047D2B201E000F8012B491EFBD27047A3
:100230000022F6E710B513460A4604461946FFF7B2
:10024000F0FF204610BD2DE9F04D81EA030404F0D3
:10025000004B21F0004514464FF0000A23F0004106
:1002600050EA050220D054EA01021DD0C5F30A5716
:100270000246C5F31303C1F31300C1F30A5640F459
:10028000801543F48013A7EB0608101BD64608F22E
:10029000FD3873EB050002D308F1010801E0921864
:1002A0005B41B8F1000F03DA00200146BDE8F08D94
:1002B00000204FF48011064684460EE0171B73EBB6
:1002C000050705D3121B63EB050306434CEA010C3B
:1002D00049084FEA300092185B4150EA0107EDD11E
:1002E00052EA030012D082EA040083EA05010843BF
:1002F00005D0101BAB4106D20122002306E00022EC
:100300004FF0004302E06FF0010253101AEB0600B9
:100310004CEB085110EB0A0041EB0B01BDE8F04D2E
:1003200000F077B80EB5C10F80EAE0700844CA0744
:10033000002140F233438DE80E000A460B4600F0E0
:1003400077F803B000BD00F0004230F000400AD062
:10035000C10D01F56071C0F3160042EA0151C208F7
:1003600040071143704700200146704701F00043E9
:1003700030B421F0004150EA010206D00A0DA2F586
:100380006072C1F31301002A02DC30BC0020704708
:10039000440F44EAC104C100E01830BC00EBC25075
:1003A000AFF300800029A8BF7047401C490008BF78
:1003B00020F00100704710B4B0FA80FC00FA0CF095
:1003C00050EA010404BF10BC704749B1CCF12004CD
:1003D00021FA04F411FA0CF118BF0121214308435A
:1003E000A3EB0C01CB1D4FEA00614FEA102042BF86
:1003F000002010BC704700EBC35010440029A4BF7C
:1004000010BC7047401C490008BF20F0010010BC20
:10041000704710B5141E73F1000408DA401C41F156
:10042000000192185B411A4301D120F0010010BD78
:100430002DE9F04D92469B4611B1B1FA81F202E0EE
:10044000B0FA80F220329046FFF7BAFE04460F461B
:1004500040EA0A0041EA0B0153465A46084313D0CA
:10046000114653EA010019D0C8F140025046FFF787
:10047000B6FE05460E46504659464246FFF7A0FED8
:10048000084305D0012004E020463946BDE8F08D40
:100490000020054346EAE0762C4337430A9863057B
:1004A000E40AA0EB08000022FD0A44EA47540A309F
:1004B00002D500200146E9E7010510196941DDE98F
:1004C000084500196941BDE8F04DA2E7064C074D0B
:1004D00006E0E06840F0010394E807009847103414
:1004E000AC42F6D3FFF754FE38680008586800089D
:1004F00070B58D1810F8014B14F0030201D110F8FB
:10050000012B231106D110F8013B03E010F8016B19
:1005100001F8016B521EF9D1ABB110F8012B04F0B8
:100520000C048A1A0C2C03D0A2EB84129B1C08E04A
:1005300010F8014BA2EB0422F8E712F8014B01F886
:10054000014B5B1EF9D5A942D4D3002070BDCA432C
:100550000260704721B1826842F00102826003E0CC
:10056000826822F001028260704700000021084A80
:100570001168084A1140D0E900231A4383681A43DE
:10058000C3681A431143044AC2F8041370470000B9
:1005900004230140E030FCFF0020014000B58DB095
:1005A0000121084603F03EFE0121080203F06AFE25
:1005B0004020019003208DF8080000208DF80B00EA
:1005C00001A9174801F007FB002003900490069052
:1005D000059003A8FFF7CAFF0121080203F062FE9D
:1005E00000214FF4807003F05DFE00208DF82000A4
:1005F00007908DF8210009900B9001208DF83000B4
:1006000007A9084800F01EF80623012219460548EC
:1006100000F042F801210348FFF79CFF0DB000BD38
:1006200000000240002001400146C86C80B27047C3
:100630000246002013680B400BB1012000E00020AF
:100640007047000030B50246002000235068104C6F
:1006500020400D790C6844EA0524204350609068DE
:100660000C4C2040D1E903542C438D682C434D7928
:1006700044EA450420439060D06A20F470000C7D69
:10068000641EE4B2234340EA0350D06230BD000050
:10069000FFFEFFFCFDF7FFC0F0B504460D4600204D
:1006A0000021092D11DDE068A5F10A0606EB4607D9
:1006B000072606FA07F18843A5F10A0606EB460667
:1006C00003FA06F10843E0600CE0206905EB4507FA
:1006D000072606FA07F1884305EB450603FA06F1FB
:1006E00008432061072A0FDA606B561E06EB860767
:1006F0001F2606FA07F18843561E06EB860605FA02
:1007000006F10843606322E00D2A0FDA206BD61F42
:1007100006EB86071F2606FA07F18843D61F06EB6D
:10072000860605FA06F10843206310E0E06AA2F1AC
:100730000D0606EB86071F2606FA07F18843A2F18D
:100740000D0606EB860605FA06F10843E062F0BDE9
:10075000816841F080418160704770B504460D4664
:10076000012C03D10621284604F0C2FB022C03D140
:100770000821284603F0F4FF70BD000010B500F01A
:1007800009F8012004F09AF800200149086010BD22
:10079000BC02434210B50121422003F043FD10BDCD
:1007A00010B503F0F1FE012008490860022005F0B1
:1007B00039FC0748D0F81C02C4B200200349086085
:1007C000022005F02FFC204610BD00009882404218
:1007D0000080404270B5002403F0D6FE012010498D
:1007E0000860002517E06006040E01200C49091F6F
:1007F0000860022005F016FC0A48D0F81C0208B177
:10080000601CC4B200200649091F0860022005F0E0
:1008100009FC681CC5B2082DE5DB204670BD000050
:100820009C8240420080404210B5044603F0BAFE6C
:100830001CB101200A49086002E000200849086054
:1008400001200749091F0860022005F0EBFB00208A
:100850000449C1F89802022005F0E4FB10BD000035
:100860009C8240420080404270B5044603F09AFEEC
:1008700000251BE004F080061EB101200E4908602F
:1008800002E000200C4908606006040E01200A49BD
:10089000091F0860022005F0C5FB00200749C1F8C8
:1008A0009802022005F0BEFB681CC5B2082DE1DBF2
:1008B000FFF776FF70BD00009C82404200804042FE
:1008C00010B503F06FFE0120094908600949C1F81D
:1008D0009802042005F0A6FB0020054908600420CA
:1008E00005F0A0FB00200349C1F8980210BD0000EC
:1008F0009C8240420080404210B503F053FE00202D
:100900000749086001200749C1F89802042005F052
:1009100089FB012002490860042005F083FB10BD1B
:100920009C824042008040422DE9F04104460D4641
:100930000027002657E000202D4908702D49087037
:1009400005212D4804F0D4FE4FF4FA7005F044FB65
:100950002848007870B129480078552807D12748E1
:100960004078022803D125488078BDE8F081002036
:10097000204908704FF4FA7005F02EFB4FF4FA701E
:1009800005F02AFB4FF4FA7005F026FB34B900207D
:1009900002F0C6FA002002F0C3FA05E0204602F099
:1009A000BFFA204602F0BCFA1AE01248007868B19B
:1009B00012480078552806D110484078022802D104
:1009C0000E488078D1E700200A490870012005F020
:1009D00003FB7F1C41F27070874201D9002700E0C1
:1009E000E3E700BF761CAE42A5DB0020BDE70000B8
:1009F000DA000020DB000020D5000020BF0000202E
:100A000010B504F0A9FD10BD10B50648006805F04A
:100A100035FB30B905F02CFBC8300249086003F003
:100A200001FB10BDF803002010B504460B488442BA
:100A300009D10121480603F015FC00214FF0007098
:100A400003F010FC08E00121880603F00BFC0021F4
:100A50004FF0806003F006FC10BD00000064004011
:100A600010B50021837A012202FA03F13D4A12688F
:100A700042F001023B4B1A603A4A1C3212688A4328
:100A8000384B1C331A60027BCAB9364A0C321268E2
:100A90008A43344B0C331A604288C38842EA0343CA
:100AA000304A4032847A42F834300288838842EAFD
:100AB00003432C4A4032847A02EBC4025360027B27
:100AC000012A19D1274A0C3212680A43254B0C33EC
:100AD0001A604288038842EA0343224A4032847AF9
:100AE00042F83430C288838842EA03431D4A4032C8
:100AF000847A02EBC4025360C27A3AB9194A121DD1
:100B000012688A43174B1B1D1A6006E0154A121D16
:100B100012680A43134B1B1D1A60028932B9114A2D
:100B2000143212688A430F4B14331A600289012A67
:100B300006D10C4A143212680A430A4B14331A6065
:100B4000427B012A06D1074A1C3212680A43054B30
:100B50001C331A60034A126822F00102014B1A602A
:100B600010BD0000006600401AB143690B434361A9
:100B700002E043698B434361704730B50246002071
:100B80000023146824F002041460146844F0010483
:100B9000146000E05B1C546804F001041CB94FF6BB
:100BA000FF74A342F6D1546804F001040CB900208C
:100BB0006CE08C79012C04D1146844F0800414603A
:100BC00003E0146824F080041460CC79012C04D173
:100BD000146844F04004146003E0146824F04004F6
:100BE00014600C7A012C04D1146844F020041460C1
:100BF00003E0146824F0200414604C7A012C04D122
:100C0000146844F01004146003E0146824F0100425
:100C100014608C7A012C04D1146844F00804146028
:100C200003E0146824F008041460CC7A012C04D189
:100C3000146844F00404146003E0146824F004040D
:100C400014608C78A407CD7844EA05640D7944EAF1
:100C500005444D7944EA05540D886D1E2C43D4613A
:100C6000146824F001041460002300E05B1C546845
:100C700004F001041CB14FF6FF74A342F6D154688E
:100C800004F001040CB1002000E0012030BD024658
:100C9000002019B9D36803F0030006E0012903D14D
:100CA000136903F0030000E00020704710B500F561
:100CB000D87303EB01131B6803F004031372137A58
:100CC00053B900F5D87303EB01131B6840F2FF74AE
:100CD00004EA5353136009E000F5D87303EB0113E2
:100CE0001B686FF0604404EAD303536000F5D873C7
:100CF00003EB01131B6803F00203537200F5D87372
:100D000003EB01135B6803F00F03937200F5D873D4
:100D100003EB01135B681B0AD37400F5D87303EB74
:100D200001139B68D37200F5D87303EB01139B6822
:100D30001C0A147300F5D87303EB01139B681C0C99
:100D4000547300F5D87303EB01139B681B0E937368
:100D500000F5D87303EB0113DB68D37300F5D87388
:100D600003EB0113DB681C0A147400F5D87303EB62
:100D70000113DB681C0C547400F5D87303EB0113EA
:100D8000DB681B0E937421B9C36843F02003C36072
:100D900003E0036943F02003036110BD10B5024670
:100DA0000020936803F08063B3F1806F00D110E0FE
:100DB000936803F00063B3F1006F01D1012008E0F4
:100DC000936803F08053B3F1805F01D1022000E00B
:100DD0000420042874D002F5C07303EB00131B68D1
:100DE00003F0010402F5C07303EB00131C600B7ADF
:100DF0007BB94B7A0C8843EA445302F5C07404EB88
:100E000000142468234302F5C07404EB001423602B
:100E100010E00B7A4C6843EAC4034C7A234302F592
:100E2000C07404EB00142468234302F5C07404EB7F
:100E3000001423608B7A03F00F038B7202F5C073EA
:100E400003EB00135B6823F00F0402F5C07303EBA0
:100E500000135C6002F5C07303EB00135B688C7ACF
:100E6000234302F5C07404EB001463608B7B1C0603
:100E70004B7B44EA03440B7B44EA0323CC7A2343B1
:100E800002F5C07404EB0014A3608B7C1C064B7C41
:100E900044EA03440B7C44EA0323CC7B234302F55E
:100EA000C07404EB0014E36002F5C07303EB00139D
:100EB0001B6843F0010402F5C07303EB00131C60D0
:100EC00010BD000010B50246002321B1012907D052
:100ED00002290FD109E090681D4C00EA04030BE0E1
:100EE00090681C4C00EA040306E090681A4C00EA83
:100EF000040301E0002300BF00BF184C181BA342ED
:100F000016D007DC83B16FF08060184470B10228FE
:100F100018D111E0B0F5007F10D0114C204448B139
:100F2000B0F5003F0ED10BE002230DE000230BE0F3
:100F3000002309E0002307E0012305E0012303E08B
:100F4000012301E0002300BF00BFD8B210BD0000A4
:100F50000300000400030008000003100001000863
:100F60000001FFF72DE9FF4705460E464FF0000A46
:100F700006B10DB94FF0010A9448007800F00F0057
:100F8000032801DD4FF0010A90480078C0F30019F2
:100F9000BAF1000F19D000208DF80A008DF80B006F
:100FA00001208DF80C000020ADF80000ADF8020023
:100FB000ADF80400ADF80600ADF8080001208DF88A
:100FC0000D006846FFF74CFDFEE00020ADF808007C
:100FD00001208DF80D004FF000080024F2E07B485E
:100FE000007800F00F0030B101283BD002287BD000
:100FF000032874D19CE000208DF80B008DF80C00C4
:1010000035F824004B460022114600F0E1F8ADF817
:10101000020005EB840148884B460022114600F08F
:10102000D7F8ADF80600601CC0B20446B04213DA2F
:1010300035F824004B460022114600F0C9F8ADF8FF
:10104000000005EB840148884B460022114600F061
:10105000BFF8ADF8040004E00020ADF80600ADF8DC
:1010600004009CE001208DF80B0000208DF80C009E
:1010700035F824004B460022114600F0A9F8ADF8DF
:101080000200601CC0B20446B04207DA35F8240002
:101090004B460022114600F09BF800E00020ADF81E
:1010A0000600601CC0B20446B04207DA35F82400DE
:1010B0004B460022114600F08BF800E00020ADF80E
:1010C0000000601CC0B20446B04209DA35F82400C2
:1010D0004B460022114600F07BF802E004E051E0AC
:1010E0000020ADF804005AE000208DF80B0001202C
:1010F0008DF80C0035F824004B460022114600F014
:1011000081F80746B8B2ADF80200380CADF800001F
:1011100005EB840148884B460022114600F072F826
:101120000746B8B2ADF80600380CADF8040036E05A
:1011300001208DF80B008DF80C0035F824004B468B
:101140000022114600F05EF80746B8B2ADF8020082
:10115000380CADF80000601CC0B20446B04208DA9A
:1011600005EB840148884B460022114600F04AF8FE
:1011700000E000200746B8B2ADF80600380CADF824
:1011800004000CE00020ADF80200ADF80000ADF85E
:101190000600ADF8040034464FF0010A00BF00BF5E
:1011A0008DF80A806846FFF75BFCB44202DA601CE7
:1011B000C4B200E007E008F10100C0B280460D288B
:1011C00000DB00E00BE700BFBDE8FF872001002047
:1011D00010B50446C4F309040AB1102000E0002051
:1011E00002460BB1082000E00020034613B1C1F312
:1011F000C13000E00020014642EA44101843084391
:1012000080B210BD10B50446C4F309040AB102202F
:1012100000E0002002460BB1042000E0002003465D
:1012200013B18803C00A00E00020014642EA4430BE
:101230001843084310BD000010B500210148FFF716
:1012400026FD10BD0064004070B50446002554B171
:1012500000210648FFF71BFD054625B12246002167
:101260000248FFF723FD284670BD000000640040DF
:101270002DE9F04706460C4617469846DDF82090C3
:101280004FF0000A15480760C0F804800020134999
:101290000872487208468472224631460B30FEF7C7
:1012A000AEFF0E490E48FFF779FD0546042D09D023
:1012B0004FF0010A29460A48FFF704FE012801D130
:1012C0004FF0020ABAF1010F04DBB9F1000F01D0AF
:1012D00089F800505046BDE8F087000074080020EF
:1012E000006400400448006800F0E05008B10120AC
:1012F00070470020FCE700000864004000B500BF14
:10130000FFF7F0FF0028FBD000BD10B501E000F0B2
:1013100005F8FFF791FF0028F9D110BD10B524485A
:10132000FFF792FF2248C07C20B101280AD0022892
:1013300018D10FE01E48827A00F10B011D4800F021
:10134000BEFB24E01A48827A00F10B011A4800F033
:10135000B6FB1CE01648827A00F10B01174800F03A
:10136000AEFB14E01248C07C03280FDB1048C07CA1
:1013700006280BDC0E48C07CC01E114901EBC000E2
:101380000B490B310A6802604968416000BF00BF29
:101390000748C07C062809DC0548C07C094951F88B
:1013A00020000949096808430749086010BD00008A
:1013B000E80900209C080020AC080020CC08002090
:1013C000FC090020286700082401002000B5034A1A
:1013D0005178107800F0BEFE00BD0000FC0900202E
:1013E000F8B5FFF77FFF00285FD00026002559E001
:1013F0002E4890F9000030B101280ED002281ED0EE
:10140000032840D12DE000F05DF80746002F03DBF4
:101410000126F8B200F07AF839E00822244925487C
:1014200000F038FBC4B24CB10126234800234FF42E
:101430002072214600901E48FFF71AFF27E008227D
:101440001B491E4800F026FBC4B24CB101261A48C5
:1014500000234FF42872214600901548FFF708FF3B
:1014600015E008221249164800F014FBC4B24CB132
:101470000126114800234FF47072214600900C4859
:10148000FFF7F6FE03E0FF200849087000BF00BF29
:1014900006480078401C40B20449087006B103E0D9
:1014A000681CC5B2042DA3DD00BFF8BD58010020A3
:1014B00028010020BC08002059010020DC08002081
:1014C0009C0800204FF0FF30002109E001EB810271
:1014D000054B13F822200AB148B203E04A1CD1B2EE
:1014E0000729F3DB00BF70471C0A0020002007E03B
:1014F000002100EB8002044B03F82210411CC8B20B
:101500000728F5DB704700001C0A0020F8B50446E8
:10151000002004EB84050E4E06EB850500902B6938
:1015200004EB840506EB8505EA6804EB840516F8F0
:10153000251004EB840506EB8505681CFFF798FE73
:10154000002004EB8401324602F82100F8BD0000BF
:101550001C0A00202DE9F04104460F4615461E46A0
:10156000DDF81880072C1ADA04EB84000D4901F825
:10157000205004EB84010B4A02EB8101481C2A46EF
:101580003946FEF73CFE04EB8400064901EB80007F
:10159000C66004EB840001EB8000C0F81080BDE859
:1015A000F08100001C0A002010B50D4A32210D48C0
:1015B00000F02AF80C4A32210C4800F025F80C4AB9
:1015C00032210C4800F020F80B4A32210B4800F081
:1015D0001BF80B4A32210B4800F016F810BD000032
:1015E000EC0800209C0800201E090020AC08002008
:1015F00050090020BC08002082090020CC080020EF
:10160000B4090020DC08002070B504460E461546DB
:101610002660E5600021204600F08BFA70BD0000D6
:1016200038B5FFF772FE68E0FFF76FFE002462E056
:10163000344850F82400344909680840002858D03C
:10164000072C4DD2DFE804F0040C1824273946009B
:1016500000BF69462D4800F07EFA0028F9D13FE02E
:1016600003E09DF8000000F075F86946284800F096
:1016700072FA0028F5D133E003E09DF8000000F095
:1016800093F86946234800F066FA0028F5D127E070
:10169000FFF79CFE24E0204803F0E2FE1F4908808B
:1016A00005E01E480088A0F561601C4908801B48C1
:1016B0000088B0F5616FF4DA12E017480838007C52
:1016C000022806D11448093003F0C2FE00B21449C2
:1016D000088005E010480838007E012800D100BFCE
:1016E00000BF104850F8240007490968084006491F
:1016F0000860601CC4B2062C9ADD0348006800280C
:1017000092D138BD28670008240100209C080020E1
:10171000AC080020CC080020040A0020340100207E
:1017200032010020A867000810B5002006490860B3
:101730000649087007210648FFF714FCFFF734FF3D
:10174000FFF7D4FE10BD000024010020200100207E
:101750003601002010B504460F48007870B904F037
:1017600087FC0A300D49086000200D4908700D48BB
:10177000097844540120084908700BE008480078B3
:10178000C82807DA06480078401CC0B2044908702F
:1017900004490C5410BD00007F0200208802002084
:1017A0007E020020D00A002010B504460F480078C1
:1017B00070B904F05DFC0A300D49086000200D4945
:1017C00008700D48097844540120084908700BE05E
:1017D00008480078C82807DA06480078401CC0B2DC
:1017E0000449087004490C5410BD00008102002017
:1017F0008C02002080020020980B00207FB5054657
:101800000C460121202002F01DFD0295ADF8044098
:101810000020ADF80600ADF80C008DF80E0001A90F
:101820000D4803F0DFFA37208DF8000000208DF816
:10183000010004208DF8020001208DF803006846A5
:1018400001F00AF901221146034803F0C1FA01210F
:10185000014803F0A0FA7FBD0014004010B5FFF767
:10186000DFFEFFF7BDFD10BD1CB501214FF4C070B8
:1018700002F0D8FCF020009000208DF80400012038
:101880008DF807006946144800F0A5F94FF4704040
:10189000009001208DF8040000208DF80600012042
:1018A0008DF8070003208DF8050069460B4800F00D
:1018B00092F92020009001208DF8040000208DF87E
:1018C000060001208DF8070003208DF80500694609
:1018D000024800F080F91CBD00200240001C0240BC
:1018E00070B505460C460026284602F07EFD0646E9
:1018F00026EA0401284604F029FA002070BD70B5DC
:1019000005460C46002D06DB642D00DD6425052D03
:101910000BDA052509E015F1640F01DA6FF06305B4
:1019200015F1050F01DD6FF00405002C06DB642CBA
:1019300000DD6424052C0BDA052409E014F1640FA2
:1019400001DA6FF0630414F1050F01DD6FF0040498
:101950002146284602F0DAFE70BD000010B51020C6
:1019600000F03CF8012825D11021134800F09EF921
:10197000E8B90021114803F00EFA114890ED000A71
:10198000B8EE400A0F4880ED000AD0ED000A9FED46
:101990000E1AB3EE040A10EE810A80ED000A90EDF3
:1019A000000ABCEEC00A10EE100A08490880102098
:1019B00000F00EF810BD00000004024000100040CE
:1019C0000400002000000020F628DC3F0800002072
:1019D0000149086070470000143C014001460020A6
:1019E000034A12680A400AB1012000E00020704753
:1019F000143C0140002123498279002A3AD00A464A
:101A0000126803689A430B461A600A1D126803683D
:101A10009A430B1D1A60027911440A6803681A433D
:101A20000A60184A0832126803689A43154B083353
:101A30001A601A1D126803689A43124B0C331A601D
:101A40004279102A0ED11A1F126803681A430D4BEF
:101A500008331A601A1D126803681A43094B0C33C5
:101A60001A600DE00749427911440A6803681A4375
:101A70000A6005E0027911440A6803689A430A6023
:101A800070470000003C014010B502F055FAFEF727
:101A900085FD10BDF0B507460C461646002564B11D
:101AA00006E06119384600F056F800B904E06D1CF4
:101AB000301EA6F10106F4D100BF2846F0BDF0B5F6
:101AC00007460D461646002406E0295D384600F01C
:101AD0006CF800B904E0641C301EA6F10106F4D1D4
:101AE00000BF2046F0BD30B504460025204600F07A
:101AF0004AF870B1D4E90001401E814203D1A068C8
:101B000038B1012505E0D4E90101401C814200D033
:101B10000125284630BD30B504460025204600F09A
:101B200032F820B1D4E90110884200D001252846BE
:101B300030BD70B504460D4664B12068012809D94E
:101B40000020A0602068401E60602A462168E0688E
:101B5000FEF767FB70BD70B504460D46002685B1E3
:101B60002046FFF7C0FF60B16068401C60602168DC
:101B7000884201D3002060606168E068405C2870A2
:101B80000126304670BD0146002069B10A68012A6D
:101B90000AD9CA6842B10B688A689A4204D2D1E96C
:101BA00000329A4200D20120704770B504460D46BB
:101BB00000262046FFF7AFFF58B1A168481CA0607F
:101BC000E06845542168A068884201D30020A060E5
:101BD0000126304670BDF0B50A46002100230024DE
:101BE00000BF3DE0012505FA01F3156805EA03048D
:101BF0009C4234D105684F000326BE40B5430560C2
:101C000015794E00B5400668354305601579012DFC
:101C100002D01579022D16D185684F000326BE40EB
:101C2000B543856055794E00B5408668354385607B
:101C3000456801268E40B5434560456896798E40DB
:101C4000B6B235434560C5684F000326BE40B54374
:101C5000C560D5794E00B540C6683543C560491C9E
:101C60001029BFD3F0BDF0B5002300244D07ED0EC1
:101C700002FA05F3CE1000F1200555F826504E0764
:101C8000F70E0F26BE40B543CF1000F1200646F8F0
:101C90002750CE1000F1200555F8265045EA0304E0
:101CA000CE1000F1200545F82640F0BD0246002088
:101CB00013690B400BB1012000E000207047418305
:101CC00070472DE9F0470C46DDE908670021002543
:101CD0008C4600BF60E04FF0010808FA01F504EA05
:101CE000050CAC4557D1D0F800804FEA410A4FF0BF
:101CF000030909FA0AF928EA0908C0F80080D0F8AF
:101D000000804FEA410902FA09F948EA0908C0F8D7
:101D10000080012A01D0022A27D1D0F808804FEA9A
:101D2000410A4FF0030909FA0AF928EA0908C0F83C
:101D30000880D0F808804FEA410906FA09F948EA14
:101D40000908C0F80880D0F804904FF0010808FA9C
:101D500001F829EA0809C0F80490D0F8048003FAD1
:101D600001F948EA0908C0F80480D0F80C804FEA6D
:101D7000410A4FF0030909FA0AF928EA0908C0F8EC
:101D80000C80D0F80C804FEA410907FA09F948EABB
:101D90000908C0F80C80491C10299CD3BDE8F087C5
:101DA0000183704710B502210848FEF7D0FB0748B1
:101DB000FEF7CEFC00BF02210448FEF739FC0028E4
:101DC000F9D00248FEF730FC10BD000000200140B1
:101DD00010B52DED068B00201749087048708870EB
:101DE000C87016490880012002F068FD102002F03A
:101DF00065FD00F013FE10480478407800EB0424E1
:101E00002046FEF78FFA41EC1A0B9FED0D0B53ECB9
:101E1000102BFEF718FA41EC190BFEF7A7FA08EEA3
:101E2000100ABDEEC80A10EE100A044908800846E0
:101E30000088BDEC068B10BD0E00002012000020B3
:101E4000333333333333F33F70B504460025002674
:101E500007E0FFF7A7FF0544052004F0BDF8701C5C
:101E6000C6B2A642F5DBB5FBF4F080B270BD00004F
:101E700070B5024600210020002522B1072A0BD0B0
:101E8000082A11D10CE0114B5B78104C247803EB3D
:101E9000042399B20F2507E00C4B5978072503E07E
:101EA0000A4B1978082500BF00BF00230AE00C4642
:101EB00001EBD4767610A1EB46060EB9441CE0B2D5
:101EC00049105B1CAB42F2DB70BD0000300100200A
:101ED0000146002021B107290AD008290ED10AE0C5
:101EE000074A5278064B1B7802EB032290B205E0BA
:101EF000034A507802E0024A107800BF00BF7047E2
:101F00003001002010B515480078012810D102F0EA
:101F1000BBFA1349098888421EDB00200F4908706C
:101F20000320104908700021084602F0EFFB13E07F
:101F30000D48007801280FD102F0A6FA0849098857
:101F4000884209DB00200849087003200549087011
:101F50000021084602F0DAFB10BD0000FB00002063
:101F60001001002002010020FC00002010B54FF4F9
:101F7000E06000F0ADFD03F074FEA82004F00EF860
:101F8000FFF772FC00F028F8FFF77EFD03F0AAFCD3
:101F900053210720FFF732FCA72140F2E73003F07E
:101FA0009BF802F037FAFEF72BFD40F24731012093
:101FB00003F036F842F2CF01142002F0D3FF42F2D0
:101FC000CF01012002F0FEFF42F2CF010A2003F010
:101FD00057F802F07DFF10BD00B589B00121212026
:101FE00002F020F909220B214248FFF73CFE0922AA
:101FF0000C214048FFF737FE4FF4C05007900220F5
:102000008DF820008DF8210000208DF8220001209D
:102010008DF8230007A93748FFF7DDFD4FF48060F6
:10202000079001208DF8200002208DF8210000206B
:102030008DF8220001208DF8230007A92E48FFF714
:10204000CAFD002000F05EF80121480602F0FAF80F
:102050002A48FEF7E9FC00208DF8160001208DF8D3
:10206000170000208DF8180001208DF819000020BD
:102070008DF81A0001208DF81B0000208DF8120049
:102080008DF8130001208DF8140002208DF8150042
:102090000720ADF8100004A91848FEF76EFD0020D7
:1020A0008DF80A008DF80B0001208DF80C0000203F
:1020B000ADF80000ADF80200ADF80400ADF8060080
:1020C000ADF8080001208DF80D006846FEF7C8FC49
:1020D00012200B49086048600020487208720120F5
:1020E0008872002202210548FEF73EFDFFF71CFB27
:1020F00009B000BD0000024000140240006400402E
:10210000A80A002010B504462CB94FF48061054898
:10211000FFF7D5FD04E04FF480610248FFF740FE71
:1021200010BD00000014024010B5FFF797FB10BD72
:1021300010B504462CB14FF480710548FFF730FE0E
:1021400004E04FF480710248FFF7B9FD10BD0000B4
:1021500000200240014A1070517070473001002089
:102160002DE9F041074688460020284908600920EB
:1021700003F032FF01202649C1F8AC02042003F02D
:102180002BFF4FF40C7003F04DFF00242EE00025D0
:1021900028E0385D284100F0010676B900201B498F
:1021A00008604FF4FA7003F03DFF01201849C1F8B0
:1021B000AC024FF4FA7003F035FF012E10D100206D
:1021C000124908604FF4FA7003F02CFF0120104907
:1021D000C1F8AC0203F000FF4FF4487003F022FF97
:1021E000681CC5B2082DD4DB601CC4B24445CEDBEC
:1021F0000020064908604FF40C7003F013FF012023
:102200000349C1F8AC02BDE8F0810000AC82424253
:102210000080424210B501F0E0FE08B1FE2010BD82
:1022200001F0C8FE022003F0D7FE01F0C9FE4120F4
:1022300000F00AF808B1FE20F1E70120014908701A
:102240000020ECE74800002010B50446412C25D1C1
:1022500008210846FFF744FB3D21112003F076FDDD
:102260008621172003F072FD7F21262003F06EFDEA
:102270001E212D2003F06AFD00212C2003F066FDB5
:102280008D212A2003F062FD3E212B2003F05EFD0C
:102290000A2003F0A1FE01F093FE01E0FF2010BD33
:1022A0000020FCE702468A4201D9501A7047881A7A
:1022B000FCE7000010B504469FED111ADFED110A8E
:1022C000B3EE090A01F0A2F94FF461710E480068FB
:1022D00000F0ACFA4FF461710B48006800F016F89A
:1022E0004FF4FA710848006800F0A0FA2146064849
:1022F000006800F00BF800F0CFFA01F0AFF910BD64
:102300000000964300000000A005002070B50446C0
:102310000D462E46642003F05FFE02F0D9F8642CCF
:1023200000D96424052C00D205246142604202F0E9
:10233000EDF902E0012003F04FFE02F0A5F8B042F3
:10234000F8DD0021084602F0E1F9642003F044FEC4
:1023500070BD10B50446642C00D96424052C00D24D
:1023600005242146204602F0D1F910BD70B504467F
:102370000D462E46642003F02FFE02F0A9F8642CCF
:1023800000D96424052C00D205242146204602F001
:10239000BDF902E0012003F01FFE02F075F8B04223
:1023A000F8DB0021084602F0B1F9642003F014FEC6
:1023B00070BD2DE9F04106460F464FF0010864203C
:1023C00003F00AFE02F084F802F05EF8054631469A
:1023D000704202F09BF9062F70D2DFE807F0030489
:1023E000AC0F4375A8E000BF02F04EF8B0F54D7F8A
:1023F000FADB0021084602F089F99DE02EE002F0A8
:1024000043F8054640F2A46085421BDD40F29A6025
:10241000854217DA0820FFF75BFD0446EF2C01D058
:10242000F72C06D10021084602F070F94FF00008A1
:1024300014E0E72C11D10021084602F067F94FF0B3
:1024400000080BE040F29A60854206DD0021084654
:1024500002F05CF94FF0000800E000BFB8F1000F97
:10246000CDD169E02CE002F00FF80546B5F5C87F44
:102470001ADDB5F5E67F17DA0820FFF729FD0446D7
:10248000EF2C01D0F72C06D10021084602F03EF9CE
:102490004FF0000814E0E72C11D10021084602F0AB
:1024A00035F94FF000080BE0B5F5E67F07DD0021B8
:1024B000084602F02BF94FF0000801E03BE000BFB6
:1024C000B8F1000FCFD137E031E001F0DDFF054674
:1024D000B5F52F7F1FDD40F2663085421BDA0820FC
:1024E000FFF7F6FC0446EF2C01D0F72C0AD10F21A0
:1024F000304600F02BF80021084602F007F94FF0B3
:10250000000814E0E72C11D10021084602F0FEF883
:102510004FF000080BE040F26630854206DD0021F6
:10252000084602F0F3F84FF0000800E000BFB8F1F1
:10253000000FCAD100E000BF00BF0021084602F032
:10254000E5F8642003F048FDBDE8F08170B504466D
:102550000D460026642003F03FFD01F0B9FF01F0B5
:1025600093FF06462146604202F0D0F802E001F0F7
:102570008BFF0646AE42FAD90021084602F0C6F8A3
:10258000642003F029FD70BD2DE9F04180460E4620
:102590000127642003F020FD01F09AFF01F074FF91
:1025A0000546C8F10001404602F0B0F8062E6ED292
:1025B000DFE806F00304A00F3F6C9CE000BF01F0D1
:1025C00063FFB0F5617FFADB0021084602F09EF858
:1025D00091E02BE001F058FF054640F2A4608542EF
:1025E00019DD40F23A70854215DA0820FFF770FCD9
:1025F0000446EF2C01D0F72C05D10021084602F04B
:1026000085F8002712E0E72C0FD10021084602F0E0
:102610007DF800270AE040F23A70854205DD00218E
:10262000084602F073F8002700E000BF002FD1D168
:1026300061E028E001F028FF0546B5F5C87F18DD08
:10264000B5F5FA7F15DA0820FFF742FC0446EF2CB7
:1026500001D0F72C05D10021084602F057F80027D9
:1026600011E0E72C0ED10021084602F04FF80027B8
:1026700009E0B5F5FA7F05DD0021084602F046F8CD
:10268000002700E000BF002FD4D134E02FE031E07C
:1026900001F0FAFE0546B5F52F7F1DDD40F2B6309C
:1026A000854219DA0820FFF713FC0446EF2C01D00D
:1026B000F72C09D10F21404600F027F800210846E9
:1026C00002F024F8002712E0E72C0FD10021084681
:1026D00002F01CF800270AE040F2B630854205DD22
:1026E0000021084602F012F8002700E000BF002F8A
:1026F000CED100E000BF00BF0021084602F006F87E
:10270000642003F069FCBDE8F08170B504460D4615
:102710000026642003F060FC01F0DAFE01F0B4FE54
:1027200006466142204601F0F1FF02E001F0ACFEF6
:102730000646AE42FAD90021084601F0E7FF6420C0
:1027400003F04AFC70BD000070B504460B480578E4
:10275000046001F0C3FB02E0012003F03DFC2046D1
:1027600000F09CFFDFED060AB4EE600AF1EE10FA0D
:10277000F2D10248056000F071FF70BDA005002095
:102780000000C64270B504460B480578046001F0AD
:10279000A5FB02E0012003F01FFC204601F014F924
:1027A000DFED060AB4EE600AF1EE10FAF2D102484B
:1027B000056000F053FF70BDA00500200000C64278
:1027C0002DE9F04105460C460026642003F004FC88
:1027D00001F07EFE01F058FE0646134807780560BA
:1027E0002846FFF7B6FD01F079FB0FE001F04CFE43
:1027F0000646284601F0DEF9A64204D30021084629
:1028000001F084FF04E0012003F0E6FBA642EDD9CD
:1028100000BF0021084601F079FF034807606420EB
:1028200003F0DAFBBDE8F081A00500202DE9F041BE
:1028300005460C460026642003F0CEFB01F048FE5E
:1028400001F022FE06461348077805602846FFF788
:1028500080FD01F043FB0FE001F016FE064628461E
:1028600001F07CFAA64204D30021084601F04EFF95
:1028700004E0012003F0B0FBA642EDD900BF002127
:10288000084601F043FF03480760642003F0A4FBFF
:10289000BDE8F081A005002010B50021084601F038
:1028A00035FF642003F098FB10BD000010B53148DF
:1028B0000078D8B102F042FBC0B92FA001F0F6FEBB
:1028C0002C4800782F49086000202A49087002F03F
:1028D0002DFB2C480068012802D0022804D101E019
:1028E00003F088FD03F02EFE00BF00BF26480078ED
:1028F00048B100F03FFC012802D0244800F092FDCE
:102900000020214908702248007890B321480088AF
:1029100000F0010068BB204800F057FB112820D2CE
:10292000DFE800F0090A1F101F0F1E1F1F1F1F1FC7
:10293000130E11121D0018E0174801F0CDFF14E02E
:1029400013E012E011E010E00FE014480078F128E5
:1029500004D100201149087003F04EFC05E004E0AA
:1029600003E00FA001F084FE00BF00BF0020084973
:10297000087010BD3806002074696D65206F75748D
:1029800000000000C00500207F020020D00A0020C7
:102990008102002000080040980B0020390600202A
:1029A000756E646566696E650A00000010B50446C0
:1029B0000A2C29D2DFE804F0280508111A21222365
:1029C000242703F0B1FC20E0012011490870012107
:1029D00010480068FFF7EDFC17E001200C49087073
:1029E00001210C480068FFF7CFFD0EE001200849E7
:1029F000087009A000F054FA07E006E005E004E0E2
:102A000003F01EFE01E000E000BF00BF10BD0000AB
:102A10009C050020A40500203135390010B5FDF7D4
:102A20004FFF4720FDF720FF00240EE0FDF7D2FE08
:102A300008490855032C03D10120FDF7F5FE02E0FB
:102A40000020FDF7F1FE601CC4B2032CEEDBFDF7A5
:102A500053FF10BD0E00002070B5002100230F228F
:102A6000C4781CB3174C246804F4E064C4F5E06433
:102A7000C4F30721C1F10404E3B20A4144789C4045
:102A8000E1B28478144021430C07210E0E4C0578E6
:102A90006155047804F01F050124AC4005786D11E0
:102AA000AD0005F1E025C5F8004109E0047804F027
:102AB0001F050124AC40054D0678761145F82640E7
:102AC00070BD00000CED00E000E400E080E100E0FB
:102AD00002490143024A1160704700000000FA05F4
:102AE0000CED00E030B50346012902D119484078C9
:102AF00001E01948407804461878164D2D78A84210
:102B000026D15878A04223D1D879124DED79A84228
:102B10001ED1987803281BD1D878012802D10AB990
:102B2000187930BDD878022812D1012A01D118793C
:102B3000F7E7022A01D15879F3E7032A08D1187977
:102B4000012803D15879012800D1EAE70220E8E7FB
:102B50000020E6E7910600209906002070B50446A3
:102B60000D469FED101ADFED100AB3EE090A00F0D2
:102B70004DFD02E0012003F02FFA204600F05EFE3A
:102B8000DFED0A0AB4EE600AF1EE10FAF2D1FFF7B7
:102B900083FE294606480068FFF7E8FB00F05EFD6B
:102BA00070BD000000009643000000000000C64217
:102BB000A0050020014608780B4A1278904211D1F6
:102BC0004878094A527890420CD1C879064AD2799D
:102BD000904207D18878102804D1C878012801D103
:102BE000087970470020FCE7A90600202DE9FC4188
:102BF00004460D4616461F46124800788DF8000020
:102C0000104840788DF801008DF802408DF803508F
:102C10008DF804608DF805709DF805309DF804204E
:102C20009DF803109DF8020003F09CF98DF8060052
:102C30000448C0798DF8070069460220FDF78DFD34
:102C4000BDE8FC816906002010B50446207830B943
:102C500000231A4601210846FFF7C8FF02E020467C
:102C600000F001F810BD10B50446A3786278217811
:102C70001020FFF7BBFF4FF4C87003F0ADF9637984
:102C80002279E1781120FFF7B1FF642003F0A4F965
:102C900010BD01468878012806D1C87820B9087986
:102CA000052801D1012070470020FCE710B508A0DD
:102CB00001F0FCFC0948007810B1002007490870B9
:102CC000F120074908704FF4967003F085F910BDA4
:102CD00077616974204554430000000081020020A0
:102CE000390600200146887870470146C878704749
:102CF0000146087970470146487970472DE9FC4143
:102D000004460D4616461F46124800788DF800000E
:102D1000104840788DF801008DF802408DF803507E
:102D20008DF804608DF805709DF805309DF804203D
:102D30009DF803109DF8020003F014F98DF80600C9
:102D40000448C0798DF8070069460220FDF705FDAB
:102D5000BDE8FC816106002070B504460A20B4FB82
:102D6000F0F100FB1141B4FBF0F00A22B0FBF2F3EA
:102D700002FB130001EB0010C5B2642094FBF0F0DD
:102D8000C6B22B46324600210420FFF7B7FF70BDC4
:102D900010B5044600231A4621460320FFF7AEFF74
:102DA00010BD08B5002003460246014600900220EF
:102DB00000F0DAF84FF4967003F00EF900200346A5
:102DC000024601460090022000F0CEF84FF49670C3
:102DD00003F002F90020034602460146009002205B
:102DE00000F0C2F808BD000010B5044609A001F0CB
:102DF0005DFC0B48007810B10020094908700120E3
:102E0000084908704FF4967003F0E6F8204602F087
:102E100079F810BD7761697420736C617665000084
:102E20008102002038060020F8B504460D461646FB
:102E30001F4633462A4621460220009700F094F8A8
:102E4000F8BD00002DE9FC4104460D4616461F461C
:102E5000124800788DF80000104840788DF8010085
:102E60008DF802408DF803508DF804608DF80570E0
:102E70009DF805309DF804209DF803109DF8020090
:102E800003F070F88DF806000448C0798DF807004B
:102E900069460220FDF761FCBDE8FC817106002057
:102EA00010B50446207830B1A378627821780120EB
:102EB000FFF7C8FF05E0B4232322A1210120FFF77B
:102EC000C1FF10BD2DE9FC4104460D4616461F46C4
:102ED000124800788DF80000104840788DF8010005
:102EE0008DF802408DF803508DF804608DF8057060
:102EF0009DF805309DF804209DF803109DF8020010
:102F000003F030F88DF806000448C0798DF807000A
:102F100069460220FDF721FCBDE8FC81790600200E
:102F200010B5044634B900231A4601212020FFF7CA
:102F3000C9FF05E000231A4621461020FFF7C2FF13
:102F400010BD00001CB5044605A103C9CDE9000170
:102F50008DF8024069460220FDF7FFFB1CBD000012
:102F6000AF060002000001BB2DE9FC4104460D46FE
:102F700016461F46DDF8208055208DF800008DF89C
:102F800001408DF802508DF803608DF804708DF8C3
:102F900005809DF805309DF804209DF803109DF8EC
:102FA000020002F0DFFF8DF80600BB208DF807005D
:102FB00069460220FDF7D1FBBDE8FC8110B504464F
:102FC00021460120FDF7C9FB10BD30B5044620782D
:102FD00055280FD1E079BB280CD163792279E178AB
:102FE000A07802F0BFFFA179884203D1607808B1D0
:102FF000607830BD0020FCE72DE9FF5F06464FF00A
:1030000000090024A2464FF01E08002701F02CFF03
:1030100001F02AFFC82002F0DFFF002546E035B9A5
:1030200001F022FF07468146012002F0D5FF4DF84E
:10303000257004214C48FFF793F84FF4FA7002F022
:10304000CBFF4FF4FA7002F0C7FF4FF4FA7002F0B2
:10305000C3FF4FF0000B24E001F006FF07460120FC
:1030600002F0BAFF5DF82500A0EB0800B84215DCBD
:103070005DF825004044B84210DB04213A48FFF7D0
:103080006FF84FF4FA7002F0A7FF4FF4FA7002F0F5
:10309000A3FF4FF4FA7002F09FFF00E004E00BF191
:1030A000010BBBF1060FD7DB00BF6D1C042DB6DB97
:1030B0000421684602F033FF002006E05DF820108E
:1030C000494501D1441C02E0401C0428F6DB00BF46
:1030D000B44202D8A6EB040A23E0012E04D0022E4B
:1030E00011D0032E1BD117E0042C02D14FF0010A9E
:1030F00008E0032C02D14FF0020A03E0022C01D1B8
:103100004FF0030A0CE0042C02D14FF0020A02E057
:10311000032C00D1A24603E04FF0030A00E000BFF9
:1031200000BFBAF1000F09D0BAF1010F07D0BAF110
:10313000020F09D0BAF1030F10D10AE00FE0042109
:103140000948FFF70DF80AE004210848FFF708F8DE
:1031500005E004210648FFF703F800E000BF00BFC8
:10316000204604B0BDE8F09F3B0600203F0600204B
:103170004306002010B50C480078552811D10A48A4
:10318000407801280DD008484078AA2809D0064880
:10319000C079BB2805D104490220FDF7DEFA0120E1
:1031A00010BD0020FCE70000D00A002010B58E48BA
:1031B0000078552876D18C48C079BB28FAD18A4846
:1031C0004078AA286FD188488078A9286CD012DC72
:1031D000A12821D008DC40284ED0412857D04528CE
:1031E00063D0462877D16BE0A2282FD0A32838D00F
:1031F000A528F7D18BE0AD286ED006DCAA286CD0CC
:10320000AB286BD0AC28EDD1A5E0AE2868D0AF28B4
:1032100072D0CC28E6D184E001207449086072485D
:10322000C078012810D17048007901280CD16E486F
:103230004079012808D16EA001F01AFA00206D49EA
:1032400008706D49087000E000BFC8E06648C078AB
:103250006A4908706448007948706348407988700A
:10326000BDE06148C0786549C8705F480079087161
:103270005D4840794871B2E05B48C07860490870A9
:10328000594800794870584840798870A7E05648F6
:10329000C0785B49C8705448007908715248407939
:1032A00048719CE09EE09BE036E04F48C07855496D
:1032B00008704D48007948704B48407988708EE01E
:1032C0004948C0784F49C870474800790871464856
:1032D0004079487183E081E05EE069E073E0FFE7F8
:1032E0004148C078484908703F48007948703E48D6
:1032F0004079887073E0FFE73B48C0784249C87066
:1033000039480079087138484079487167E0364893
:10331000C0783E49087062E03348C0783C49087084
:1033200000BF3148C078401C0A2813DA2E49C978FA
:10333000384A117000200AE00021364A127802EB68
:10334000421202EB4202344B1A441154401C6328CF
:10335000F2DB00BF43E02448C078401C63281ADA3F
:10336000214800792B49097801EB411101EB41011A
:10337000294A11441C4AD27888541B48417925486F
:10338000007800EB401000EB4000234A024416484E
:10339000C078401C115422E01348C078B0F5807FFB
:1033A00005DA114800791049C9781C4A505416E0D2
:1033B0000D48C0781A4908700B48007948700A48CF
:1033C000407988700BE00848C0781549C8700648F5
:1033D0000079087104484079487100E000BF01E0BD
:1033E000FFF764FA10BD0000D00A0020F8060020A4
:1033F0002A0000007F020020EC060020D0060020FA
:10340000D7060020DE060020C9060020EB060020BB
:10341000F6060020C8060020370F0020370E0020D7
:10342000E406002010B504462078552847D160787E
:10343000AA2844D1E079BB2841D1A078042821D022
:1034400006DC01280BD002280CD0032836D111E06D
:10345000052821D0062829D0A0282FD12AE0FFF75F
:103460001BFA2BE02379627903EB0221E078FFF766
:10347000A7F923E02379627903EB0221E078FEF7D4
:1034800045FF1BE0E07830B12379627903EB02213C
:10349000E078FFF75BF811E0E07830B123796279EA
:1034A00003EB0221E078FFF730F907E0E078FFF75F
:1034B0004BF903E00820FFF779FA00BF00BF10BD09
:1034C00000B52848FFF781FD07283AD008DC01281D
:1034D00040D003280BD0052817D006283BD122E086
:1034E0000C2833D00D2808D0102834D115E01D4801
:1034F000FFF7CFFB1C4908702EE00022012119487C
:10350000FFF7F0FA1949087026E000221146154825
:10351000FFF7E8FA154908701EE01248FFF74AFB6A
:103520001349087018E00F48C078124908700D4818
:10353000007948700B484079887001200E49087066
:103540000AE00848C0780D49087005E001200C49E0
:10355000087000BF00E000BF00BF002009490870EC
:1035600000BD0000980B002032060020330600202A
:103570003406002035060020300600203A060020E0
:103580003106002081020020184880ED000A18480A
:10359000D0ED000A70EE800AC0ED000A1548D0EDAB
:1035A000000A70EE600A1448C0ED000A1348D0ED1E
:1035B000000A0E4890ED001A60EE810A104890ED66
:1035C000001A0B48D0ED001A41EE210A0D4890ED8B
:1035D000001A0948D0ED001A41EE210A0A48C0ED50
:1035E000000A044880ED000A704700001806002019
:1035F0001C060020280600202006002000060020CF
:103600000406002008060020240600200D48D0ED06
:10361000001A0D48C0ED001A0C48D0ED001A0C48F5
:10362000C0ED001A0B48D0ED001A0B48C0ED001A8F
:10363000084880ED000A0548C0ED000A014880ED09
:10364000001A704708060020140600200406002017
:1036500010060020000600200C060020094890ED0E
:10366000000A094880ED000A084890ED000A084861
:1036700080ED000A074890ED000A074880ED000A37
:10368000704700000C0600200006002010060020F5
:1036900004060020140600200806002010B52DEDB9
:1036A000028B04469FED600AB0EE408A0820FEF7C8
:1036B0000FFCEF2824D00FDC9F284ED005DCB0B1E2
:1036C0003F284FD07F2861D12EE0BF2827D0CF28B8
:1036D0003ED0DF285AD11DE0F3380C2856D2DFE85F
:1036E00000F04655555514554B5528502D329FED39
:1036F0004F0AB0EE408A9FED4D0ABDEC028B10BD23
:10370000BFEE000AB0EE408A51E0B7EE000AB0EE1C
:10371000408A4CE0B8EE000AB0EE408A47E0B8EECE
:10372000080AB0EE408A42E09FED410AB0EE408ABE
:103730003DE0B0EE000AB0EE408A38E0B0EE080A94
:10374000B0EE408A33E09FED3B0AB0EE408A2EE0B7
:10375000B8EE000AB0EE408A29E0B8EE080AB0EEF2
:10376000408A24E09FED320AB0EE408A1FE0B0EEBE
:10377000000AB0EE408A1AE0B0EE080AB0EE408AC5
:1037800015E09FED2C0AB0EE408A10E00820FEF70D
:103790006FFB052806DD9FED250AB0EE408A9FED00
:1037A000230AAAE79FED200AB0EE408A00BF00BFBF
:1037B000B5EEC08AF1EE10FA08D100F08FFB214679
:1037C000204600F0A3FF9FED180A96E79FED170A29
:1037D000B4EE408AF1EE10FA22D0B0EE480AFFF7BC
:1037E000D3FE00EE104AB8EE400A134AD2ED000AAA
:1037F00030EE600ABDEEC00A10EE101A00EE104A5C
:10380000B8EE400AD2ED000A30EE200ABDEEC00A42
:1038100010EE100A00F07AFF074890ED000A6CE7FE
:103820009FED020A69E70000000000000000C642A8
:10383000CDCC4CC0CDCC4C402406002010B52DED95
:10384000028B04469FED5B0AB0EE408A0820FEF72B
:103850003FFBF3285DD010DCBF2832D006DC3F28C8
:1038600052D07F2832D09F2862D148E0CF2841D063
:10387000DF2821D0EF285BD114E0F738092857D290
:10388000DFE800F015564C5629512E33050000F0A4
:1038900025FB2146204600F039FF9FED470ABDEC8D
:1038A000028B10BDBFEE000AB0EE408A45E0B7EED5
:1038B000000AB0EE408A40E0B8EE000AB0EE408A5E
:1038C0003BE0B8EE080AB0EE408A36E09FED3B0AD6
:1038D000B0EE408A31E0B0EE000AB0EE408A2CE053
:1038E000B0EE080AB0EE408A27E09FED350AB0EE50
:1038F000408A22E0B8EE000AB0EE408A1DE0B8EE41
:10390000080AB0EE408A18E09FED2C0AB0EE408A1B
:1039100013E0B0EE000AB0EE408A0EE0B0EE080A06
:10392000B0EE408A09E09FED260AB0EE408A04E03E
:103930009FED200AB0EE408A00BF00BFB5EEC08AFE
:10394000F1EE10FA08D100F0C9FA2146204600F045
:10395000DDFE9FED180AA2E79FED170AB4EE408A3C
:10396000F1EE10FA22D0B0EE480AFFF70DFE00EE9D
:10397000104AB8EE400A134AD2ED000A30EE600A4F
:10398000BDEEC00A10EE101A00EE104AB8EE400A62
:10399000D2ED000A30EE200ABDEEC00A10EE100A89
:1039A00000F0B4FE074890ED000A78E79FED020AA8
:1039B00075E70000000000000000C642CDCC4CC0FE
:1039C000CDCC4C402406002070B52DED028B044672
:1039D0009FED6F0AB0EE408A0820FEF779FA06469E
:1039E0000720FEF775FA0546DF2E3FD012DC7F2E4A
:1039F00046D008DC3E2E25D03F2E5FD07C2E26D030
:103A00007E2E70D119E09F2E53D0BF2E33D0CF2EF3
:103A100069D149E0FB2E38D008DCEF2E1CD0F32E04
:103A200051D0F72E1DD0F92E5DD151E0FC2E54D08F
:103A3000FD2E2FD0FE2E56D131E09FED560AB0EE6E
:103A4000408A66E09FED530AB0EE408A61E09FED48
:103A5000510AB0EE408A5CE09FED4F0AB0EE408A1A
:103A600057E09FED4E0AB0EE408A52E09FED4C0ABF
:103A7000B0EE408A4DE0B8EE080AB0EE408A48E069
:103A80009FED480AB0EE408A43E09FED470AB0EE52
:103A9000408A3EE0B0EE080AB0EE408A39E09FED81
:103AA000430AB0EE408A34E09FED3D0AB0EE408A12
:103AB0002FE0B8EE080AB0EE408A2AE09FED390AFE
:103AC000B0EE408A25E09FED380AB0EE408A20E053
:103AD000B0EE080AB0EE408A1BE09FED340AB0EE6B
:103AE000408A16E0FFE70820FEF7C2F9032804DD4C
:103AF0009FED280AB0EE408A0AE03E2D04D19FEDEA
:103B0000250AB0EE408A03E09FED210AB0EE408A1C
:103B100000BF00BFB5EEC08AF1EE10FA0AD100F086
:103B2000DDF92146204600F0F1FD9FED190ABDECBC
:103B3000028B70BD9FED170AB4EE408AF1EE10FAC9
:103B400022D0B0EE480AFFF71FFD00EE104AB8EE93
:103B5000400A174AD2ED000A30EE600ABDEEC00AF4
:103B600010EE101A00EE104AB8EE400AD2ED000A2C
:103B700030EE200ABDEEC00A10EE100A00F0C6FDBD
:103B80000B4890ED000AD2E79FED020ACFE7000054
:103B9000000000000000C6429A9999BF9A99993F87
:103BA0009A9919C0CDCC4CC09A991940CDCC4C40B3
:103BB0002406002010B52DED028B04469FED5C0A13
:103BC000B0EE408A0820FEF783F9F32853D012DCC8
:103BD000BF2828D008DC1F2861D03F2846D07F2886
:103BE00026D09F2860D13CE0CF2835D0DF2815D0E3
:103BF000EF2859D108E0F738082855D2DFE800F05F
:103C0000094A40541D4522279FED4A0AB0EE408ADA
:103C10004FE09FED490AB0EE408A4AE0B8EE000A54
:103C2000B0EE408A45E0B8EE080AB0EE408A40E0C7
:103C30009FED420AB0EE408A3BE0B0EE000AB0EEE3
:103C4000408A36E0B0EE080AB0EE408A31E09FEDDF
:103C50003C0AB0EE408A2CE09FED3A0AB0EE408A72
:103C600027E09FED390AB0EE408A22E09FED330A4B
:103C7000B0EE408A1DE09FED350AB0EE408A18E0B4
:103C80009FED330AB0EE408A13E09FED2D0AB0EEAF
:103C9000408A0EE09FED2A0AB0EE408A09E09FEDCF
:103CA000270AB0EE408A04E09FED210AB0EE408A78
:103CB00000BF00BFB5EEC08AF1EE10FA0AD100F0E5
:103CC0000DF92146204600F021FD9FED190ABDECBB
:103CD000028B10BD9FED1F0AB4EE408AF1EE10FA80
:103CE00022D0B0EE480AFFF74FFC00EE104AB8EEC3
:103CF000400A194AD2ED000A30EE600ABDEEC00A51
:103D000010EE101A00EE104AB8EE400AD2ED000A8A
:103D100030EE200ABDEEC00A10EE100A00F0F6FCEC
:103D20000D4890ED000AD2E79FED0A0ACFE70000A8
:103D300000000000CDCC8CBFCDCC8C3FCDCC4CC096
:103D4000CDCC4C40CDCCCCBF666626C0CDCCCC3FD4
:103D5000666626400000C6422406002010B52DED00
:103D6000028B04469FED560AB0EE408A0820FEF70B
:103D7000AFF8F32851D010DCBF2826D006DC3F284E
:103D800046D07F2826D09F2856D13CE0CF2835D07A
:103D9000DF2815D0EF284FD108E0F73808284BD29C
:103DA000DFE800F0094A404A1D452227B8EE000A24
:103DB000B0EE408A45E0B0EE000AB0EE408A40E046
:103DC000B8EE040AB0EE408A3BE0B8EE080AB0EE66
:103DD000408A36E09FED3B0AB0EE408A31E0B0EE1B
:103DE000040AB0EE408A2CE0B0EE080AB0EE408A39
:103DF00027E09FED350AB0EE408A22E0B8EE000AD7
:103E0000B0EE408A1DE09FED310AB0EE408A18E026
:103E10009FED2C0AB0EE408A13E0B0EE000AB0EE3F
:103E2000408A0EE09FED2A0AB0EE408A09E09FED3D
:103E3000260AB0EE408A04E09FED210AB0EE408AE7
:103E400000BF00BFB5EEC08AF1EE10FA0AD100F053
:103E500045F82146204600F059FC9FED190ABDECBB
:103E6000028B10BD9FED1B0AB4EE408AF1EE10FAF2
:103E700022D0B0EE480AFFF787FB00EE104AB8EEFA
:103E8000400A154AD2ED000A30EE600ABDEEC00AC3
:103E900010EE101A00EE104AB8EE400AD2ED000AF9
:103EA00030EE200ABDEEC00A10EE100A00F02EFC23
:103EB000094890ED000AD2E79FED060ACFE700001F
:103EC00000000000CDCC4CC0CDCC4C40666626C076
:103ED000666626400000C642240600209FED0F0AB9
:103EE0000F4880ED000A9FED0D0A0E4880ED000A94
:103EF0009FED0A0A0C4880ED000A9FED080A0B4866
:103F000080ED000A9FED050A094880ED000A9FED4B
:103F1000030A084880ED000A704700000000000016
:103F2000180600201C060020200600202406002081
:103F3000280600202C06002010B52DED048BB0EED5
:103F4000080A164880ED000A90ED000ADFED140A19
:103F500020EE200A80ED000A9FED120A124880ED43
:103F6000000A90ED000ADFED0E0A20EE200A10EEA6
:103F7000101A0846FCF7E7F941EC190B9FED0B0B03
:103F800053EC102BFCF75FF941EC180BFCF7EEF942
:103F900005490860BDEC048B10BD00001C0000202A
:103FA0000000C84200CC0D411800002000000000B5
:103FB0000070A74010B503211420FDF791FC10BD3F
:103FC00010B5142000F011FA044604F0030018B9EB
:103FD0000321142000F0ECFB10BD10B500F0E6F951
:103FE00008B1FE2010BD0F21012001F0AFFE3D21E0
:103FF000112001F0ABFE1E212D2001F0A7FE0021B3
:104000002C2001F0A3FE8D212A2001F09FFE3E21ED
:104010002B2001F09BFE4021152001F097FE00208F
:10402000E0E7000010B50320FDF70EFF51490880BE
:104030000846008800F026FD4E4908804E48018859
:104040004C480088FEF72EF94C4908704A48008811
:10405000F0BB4B48D0ED000A4648008800EE100A3D
:10406000B8EE400A20EE800ABCEEC00A10EE100A3C
:10407000404908800846008800EE100AB8EE400A61
:104080004048D0ED000AB4EEE00AF1EE10FA03D297
:1040900000203D49087016E03648008800EE100AFE
:1040A000B8EE400A3748D0ED000A30EE600ABCEEA8
:1040B000C00A10EE100A34490870084600786428D7
:1040C00001DD64200870304800783049087000E055
:1040D00004E008460178012000F0F4FA2548008841
:1040E00025490880254800780A2842DD2448D0ED7B
:1040F000000A2048008800EE100AB8EE400A20EEC0
:10410000800ABCEEC00A10EE100A1A490880084660
:10411000008800EE100AB8EE400A1A48D0ED000AF6
:10412000B4EEE00AF1EE10FA03D20020164908704E
:1041300016E01048008800EE100AB8EE400A114858
:10414000D0ED000A30EE600ABCEEC00A10EE100A94
:104150000D49087008460078642801DD6420087065
:10416000094800780949087008460178012000F0E4
:10417000A9FA10BD22000020240000202600002003
:10418000180000201C000020200000201400002047
:1041900010B586B004460121084600F043F801211D
:1041A000102000F06FF8072209211B48FDF75BFD86
:1041B00007220A211848FDF756FD4FF4C06004900D
:1041C00002208DF8140000208DF8160001208DF8D3
:1041D000170003208DF8150004A90F48FDF7FBFC1C
:1041E00000940020ADF80C000C20ADF80A0000206F
:1041F000ADF80800ADF80600ADF8040069460748C0
:1042000001F0FCFA0121054801F08FFA0020044971
:10421000087006B010BD0000000002400010014010
:104220004800002029B1064A12680243044B1A6074
:1042300004E0034A12688243014B1A607047000091
:104240003038024029B1064A12680243044B1A6012
:1042500004E0034A12688243014B1A607047000071
:104260004038024029B1064A12680243044B1A60E2
:1042700004E0034A12688243014B1A607047000051
:104280002038024029B1064A12680243044B1A60E2
:1042900004E0034A12688243014B1A607047000031
:1042A0004438024029B1064A12680243044B1A609E
:1042B00004E0034A12688243014B1A607047000011
:1042C00024380240F0B500210022002402250026F7
:1042D0000223324F3F6807F00C0121B1042905D0B9
:1042E000082937D105E02E4F076036E02D4F0760D3
:1042F00033E02A4F3F1F3F68C7F38056274F3F1FC9
:104300003F6807F03F036EB1264FB7FBF3F7DFF8C6
:104310008CC0ACF1040CDCF800C0CCF3881C07FBAB
:104320000CF40CE01E4FB7FBF3F7DFF870C0ACF1F4
:10433000040CDCF800C0CCF3881C07FB0CF4174F0E
:104340003F1F3F68C7F301477F1C7D00B4FBF5F7B3
:10435000076002E0124F076000BF00BF0F4F3F68C9
:1043600007F0F0010909104F7A5C0768D7404760F1
:104370000A4F3F6807F4E051890A0B4F7A5C47689F
:10438000D7408760054F3F6807F46041490B064FEF
:104390007A5C4768D740C760F0BD0000083802402B
:1043A0000024F40040787D01E800002038B5FE25A7
:1043B00000200090002400BF12E0552000F0DEF93C
:1043C00042F21071684600F031F838B9552000F01B
:1043D000D5F9642001F000FE002503E0601C84B2E2
:1043E000642CEADB00BF68B238BD38B5044604F07F
:1043F0003F0040F08004204600F0C0F942F2107106
:10440000684600F013F805460DB1FF2038BD9DF851
:104410000000FBE710B54FF41650FFF7B9FE4FF45C
:10442000FA7001F0D9FDFDF7F5FE10BD70B5044638
:104430000D4601F01DFE4FF4FA61B5FBF1F146188F
:104440000AE00A48008800F0200028B1074801F07F
:104450003FFA2070002070BD304601F00FFE0028AA
:10446000EFD1034908700120F5E70000001001407A
:104470004800002010B5FDF745FD02F003F902F0F9
:10448000E3F800F059FE10BD0F48B0F900000F4AE4
:10449000B2F90020904207DD0B48B0F900000B4A4A
:1044A000B2F90020811A06E00848B0F90000064A77
:1044B000B2F90020811AB1F5004F02D94FF6FF7012
:1044C000411A88B270470000320100201801002014
:1044D0000248B0F90000024908807047320100200C
:1044E0001801002010B52448006801F0C7FD00281D
:1044F00040D101F0BDFD32301F4908601F480078EF
:1045000048B900201E49086001201E49C1F8B002C8
:104510001A4908702EE01948007801280BD10020B4
:1045200017490C39086001201649C1F8B40202206D
:10453000124908701EE01148007802280BD10020B3
:104540000F490839086001200E49C1F8B80203205C
:104550000A4908700EE00948007803280AD10020B3
:104560000749091F086001200649C1F8BC02002064
:104570000249087010BD0000FC030020F703002072
:10458000BC824342008043421CB50120032100232A
:104590001A46CDE9001080210148FDF792FB1CBDB1
:1045A000000402401CB50020032103460122CDE98E
:1045B000001080210148FDF784FB1CBD000402406F
:1045C00030B500228B071C0F0F2303FA04F20B4BAC
:1045D0008C1053F824309343084C8D1044F8253048
:1045E00023468C1053F824308C07240F00FA04F46F
:1045F0002343024C8D1044F8253030BD083801406B
:104600003EB50446FCF77AFE002016E0A4F1100146
:10461000002910D5092801DD373000E03030092CA1
:1046200001D9373400E03034C1B28DF80610E1B260
:104630008DF8071003E0103C401C1928E6DB00BF92
:1046400030208DF8040078208DF8050020208DF8AA
:104650000800002003464FF470720521009001A865
:10466000FCF706FE4FF4C87001F0DCFC3EBD000014
:1046700070B504460025207860B1264601E0681C2C
:10468000C5B214F8011B0029F9D12946304600F0C3
:104690002FF803E0022104A000F02AF84FF47A700A
:1046A00001F0C0FC70BD00000A00000010B5044617
:1046B0002046FFF7DDFF022101A000F019F810BD30
:1046C0000A0000007CB505460C4603208DF8040066
:1046D00001208DF805008DF8064000204FF4F0739E
:1046E000032201A900901046FCF734FF7CBD0000B6
:1046F00070B504460D462A4621460348FDF7DFF90A
:10470000642001F08FFC70BD9C0800207CB504463D
:104710000D46E0B28DF80400E0B28DF80500E8B275
:104720008DF80600E8B28DF80700FCF7DBFD78B1E4
:104730000020034620220421009001A8FCF798FDE8
:1047400000202023024601A90090FCF703FF06E0A9
:1047500000202023042201A90090FCF7FBFE7CBD71
:1047600070B504460D462A4621460348FDF7A7F9D1
:10477000642001F057FC70BDDC08002010B5044631
:104780000A48008800BF0948008800F0800001281E
:10479000F9D02146054801F0A0F800BF40210348A8
:1047A00000F0CFFF0128F9D110BD0000001001403A
:1047B00070B505460C4600262846FFF716FE06464D
:1047C00046EA0401284601F0C1FA002070BD00004D
:1047D0000CB50020019000903448006840F480300F
:1047E0003249086000BF3148006800F40030009092
:1047F0000198401C0190009818B90198B0F5A04F9D
:10480000F1D12A48006800F4003010B10120009076
:1048100001E0002000900098012846D12348403054
:10482000006840F08050214940310860204800680D
:1048300040F440401E4908601C48083000681B498D
:10484000083108600846006840F4004008600846E7
:10485000006840F4A05008601648091F0860081F4F
:10486000006840F08070091F086000BF0F480068B2
:1048700000F000700028F9D040F205700E49086081
:104880000A480830006820F0030008490831086031
:104890000846006840F00200086000BF0348083086
:1048A000006800F00C000828F8D10CBD0038024068
:1048B0000070004019544007003C024010B5044607
:1048C000FBF7FEFF4620FBF7CFFF2046FBF7CCFFB0
:1048D000FCF712F810BD000070B504462046FEF744
:1048E00001FA0B2848D00CDC082879D004DC012818
:1048F00010D0032871D12BE009286FD00A28F9D1F4
:104900002AE00C2848D00D2856D0B02867D0FE28C1
:10491000F0D18BE04F480078012802D0022814D152
:1049200009E000204B49087000F000FB4AA0FFF7A7
:10493000BDFE01F05FFD00204649087000F0F6FA68
:1049400048A0FFF7B3FE01F0FDFD00BF00BF7EE011
:1049500043A0FEF779F97AE02046FEF7C6F944490C
:1049600008702046FEF7C4F9414948702046FEF71A
:10497000C2F93F4988706AE02046FEF7B6F93C4923
:10498000C8702046FEF7B4F9394908712046FEF791
:10499000B2F9374948715AE02046FEF7A6F9354981
:1049A00008702046FEF7A4F9324948702046FEF709
:1049B000A2F9304988704AE02046FEF796F92D4961
:1049C000C8702046FEF794F92A4908712046FEF780
:1049D00092F9284948713AE002E037E010E01FE020
:1049E0002046FEF782F9244908702046FEF780F938
:1049F000214948702046FEF77EF91F49887026E05D
:104A00002046FEF772F91C49C8702046FEF770F97F
:104A1000194908712046FEF76EF91749487116E0EA
:104A20002046FEF762F91549087000BF2046FEF7E0
:104A30005CF9B0F5807F08DA2046FEF759F90546A3
:104A40002046FEF752F90E490D5400E000BF00BFAA
:104A500070BD000038060020736C6176652E2E2E26
:104A600000000000736C617665322E2E2E0000006F
:104A7000B7050020B0050020A9050020A8050020EA
:104A8000C30C002010B5024600230B48828200218F
:104A90000BE0094C481C34F8100024F811002046A3
:104AA00030F81100184483B2491C0A29F1DB0A20AE
:104AB00093FBF0F080B210BD34080020042808D128
:104AC0004FF0E021096941F004014FF0E02211614B
:104AD00007E04FF0E021096921F004014FF0E022E6
:104AE0001161704710B51548006840F47000134913
:104AF00008601348006840F0010011490860002078
:104B00000F49083108600E4800680E4908400C49FA
:104B100008600D48091D0860081F006820F4802007
:104B2000091F0860002006490C310860FFF750FE9D
:104B30004FF0006001498039086010BD88ED00E049
:104B400000380240FFFFF6FE1030002410B50121AE
:104B5000054800F02CF9012801D1FFF78BFC012159
:104B6000014800F015F910BD0040014010B50121C9
:104B7000074800F01CF9012804D106480068401CD1
:104B8000044908600121024800F002F910BD00004C
:104B900000440140E000002010B50121880700F02A
:104BA00006F901282DD11948007868B11848017814
:104BB000002000F0A5F9012001F00EFA1548017857
:104BC000012000F09DF907E06321002000F098F932
:104BD0006321012000F094F90F48006860B10F488C
:104BE0000068B0F5FA7F07DB00200C4908600A482E
:104BF0000068401E0849086008480068401C0749D2
:104C000008600121880700F0C3F810BD00070020EC
:104C10000107002002070020040700200C070020E5
:104C200010B50121074800F0C2F8012804D1064858
:104C30000088401C044908800121024800F0A8F8BF
:104C400010BD000000040040EC03002010B501215D
:104C5000074800F0ACF8012804D10648007808B1F4
:104C6000FEF72EFC0121024800F092F810BD000072
:104C7000000800408102002010B501210C4800F01E
:104C800096F801280FD10B48007860B1FEF78EFA34
:104C900000200849087000BF03E00021064A1154B3
:104CA000401C0A28F9DB0121014800F071F810BD11
:104CB000000C00407F020020D00A002010B5012126
:104CC000074800F074F8012804D106480068401C29
:104CD000044908600121024800F05AF810BD0000A4
:104CE000001000400400002010B50121054800F02C
:104CF0005EF8012801D1FDF717FA0121014800F003
:104D000047F810BD0014004010B501210C4800F018
:104D10004EF801280ED10B480078401C0949087054
:104D200008460078142805DD012007490870002096
:104D3000044908700121024800F02AF810BD000063
:104D4000002000407A0000207900002010B50121E9
:104D50000D4800F02CF8012810D10C4800780128EB
:104D600002D0022808D103E01E20FEF723FF04E052
:104D70001E20FDF7EEFA00E000BF00BF012102484F
:104D800000F006F810BD000000040140C506002038
:104D9000CA430282704721B1028842F001020280B8
:104DA00004E002884FF6FE731A400280704730B567
:104DB0000246002000230024158A05EA0103958994
:104DC00005EA010413B10CB1012000E0002030BD60
:104DD0001AB183890B43838102E083898B438381EA
:104DE0007047000000220288184B98420ED0184BE2
:104DF00098420BD0B0F1804F08D0164B984205D0A6
:104E0000154B984202D0154B984204D14FF68F7340
:104E10001A404B881A43124B984207D0114B9842C4
:104E200004D04FF6FF431A400B891A4302804B68A7
:104E3000C3620B880385054B984202D0044B98420D
:104E400001D18B7A038601238382704700000140E1
:104E5000000401400004004000080040000C004035
:104E6000001000400014004070B58AB0002507E033
:104E7000FCF7AEFF4DF825000A2001F0ADF86D1CDF
:104E80000A2DF5DB002518E0002411E05DF8241060
:104E9000601C5DF82000814209DD5DF82460601C23
:104EA0005DF820004DF82400601C4DF82060641C63
:104EB000C5F10900A042E9DC6D1C0A2DE4DBDDE947
:104EC0000502811801EBD170C0F34F000AB070BD2C
:104ED00010B500F099FF00F063FF00F0E9FF00F06B
:104EE0007DFF00F0B9FF00F0E1FF00F075FF10BD9D
:104EF00070B504460D4629462046FDF731F970BDD0
:104F00007047000010B504460020054908600549B7
:104F100008600548046001218807FFF73CFF10BDC9
:104F20000C070020080700200407002010B500210E
:104F30004FF08040FFF72FFF10BD000005480068CC
:104F400008B1022070470448006808B10120F9E761
:104F50000020F7E7080700200407002010B500F044
:104F60004DFE10BD7FB505460C4601210846FFF7F2
:104F700069F90295ADF804400020ADF80600ADF8DF
:104F80000C008DF80E0001A94FF08040FFF72AFFBA
:104F90001C208DF8000000208DF801000A208DF8FB
:104FA000020001208DF803006846FDF755FD01223F
:104FB00011469007FFF70CFF00214FF08040FFF7EC
:104FC000EAFE7FBD7FB505460C4601210420FFF7B0
:104FD00039F90020ADF80C00ADF806000295ADF8E7
:104FE000044001A90D48FFF7FDFE012211460B48C0
:104FF000FFF7EEFE1E208DF8000001208DF8030063
:1050000000208DF8010002208DF802006846FDF7AF
:1050100023FD00210148FFF7BEFE7FBD00080040D0
:105020007FB505460C4601210820FFF70BF90295D4
:10503000ADF804400020ADF80600ADF80C008DF886
:105040000E0001A90D48FFF7CDFE32208DF80000BB
:1050500000208DF8010002208DF8020001208DF85B
:1050600003006846FDF7F8FC012211460348FFF7EC
:10507000AFFE00210148FFF78EFE7FBD000C00400F
:105080007FB505460C4601210220FFF7FBF802958B
:10509000ADF804400020ADF80600ADF80C008DF826
:1050A0000E0001A90B48FFF79DFE2C208DF8000093
:1050B00000208DF8010003208DF8020001208DF8FA
:1050C00003006846FDF7C8FC012211460148FFF7BE
:1050D0007FFE7FBD000401407FB505460C460121DF
:1050E0004804FFF7CFF80295ADF804400020ADF872
:1050F0000600ADF80C008DF80E0001A90D48FFF771
:1051000071FE19208DF8000000208DF801000620A6
:105110008DF8020001208DF803006846FDF79CFC25
:10512000012211460348FFF753FE01210148FFF712
:1051300032FE7FBD0044014010B5064800780128CA
:1051400006D10820FCF7C4FEC4B2204600F004F8E3
:1051500010BD0000FD00002010B5044654B9002029
:10516000B34908700120B349087000210846FFF7D1
:10517000CDFA2DE1E72C08D1AF480068AF490860AF
:10518000AD480068AE49086022E1F72C01D0F32C4D
:105190000AD1A94800681430A8490860A6480068E8
:1051A0002838A749086013E1FB2C01D0F92C0AD15B
:1051B000A14800682830A14908609F4800683C3831
:1051C0009F49086004E1FD2C01D0FC2C0AD19A48CB
:1051D00000683C3099490860974800685A389849F7
:1051E0000860F5E0FE2C0AD19348006850309349DE
:1051F000086091480068783891490860E8E0EF2C31
:1052000001D0CF2C0AD18C48006814308C4908603A
:1052100089480068283889490860D9E0DF2C01D026
:105220009F2C0AD18448006828308549086082484C
:1052300000683C3881490860CAE0BF2C01D03F2C8F
:105240000AD17D4800683C307D4908607A48006892
:105250005A387A490860BBE07F2C0AD1764800684A
:10526000503077490860744800687838734908609E
:10527000AEE074480078012815D104F01800182811
:1052800091D104F0800018B104F0010000288AD107
:10529000002067490870012066490870002108460F
:1052A000FFF734FA94E068480078012871D1182C8F
:1052B00008D161480068614908605F48006860493A
:1052C000086085E0082C01D00C2C0AD15A480068EF
:1052D00014305A490860584800682838584908600E
:1052E00076E0042C01D0062C0AD1534800682830FF
:1052F00052490860504800683C385149086067E0EE
:10530000022C01D0032C0AD14B4800683C304B4999
:105310000860494800685A384949086058E0012C3B
:105320000AD1454800685030444908604248006846
:105330007838434908604BE0102C01D0302C0AD15A
:105340003D48006814303E4908603B4800682838F2
:105350003A4908603CE0202C01D0602C0AD1364844
:105360000068283036490860334800683C383349C3
:1053700008602DE0402C01D0C02C0BD12E480068D5
:105380003C302F4908602C4800685A382B49086087
:105390001EE015E0802C0AD12748006850302849CB
:1053A00008602548006878382449086010E02248E1
:1053B000006822490860204800682149086007E029
:1053C0001D4800681D4908601B4800681C490860AA
:1053D000FF2C20D11848006818490860164800685A
:1053E0001749086019480088B0F5966F0DDD002058
:1053F0001649088000210846FFF788F900200C496B
:10540000087004200B49087008E010480088401C10
:105410000E49088002E000200C490880044800780A
:1054200028B10748016805480068FCF768FA10BD14
:10543000FD000020020100200C01002004010020DA
:10544000080100205405002055050020000100201F
:10545000024600215178107840EA01210846704741
:10546000024600211178507840EA01210846704731
:1054700010B5024800F0FEFA10BD00000808002038
:1054800010B51248007800BB40F22551104800F0DA
:1054900065F9012819D10E4800F01AFA0D490E4A93
:1054A000127888540C480078401C0B490870084654
:1054B0000078022804DB00200870012003490870EE
:1054C00040F22551024800F021F910BD0A000020E9
:1054D000001001400C0000200B00002010B540F22D
:1054E0002551184800F03AF901282AD116480078C9
:1054F00090B900F0BDFD0A3014490860002014493D
:105500000870104800F0E4F91249114A12788854E2
:1055100001200D4908700FE00D480078C8280BDA0B
:10552000084800F0D5F9C1B209480078401CC0B263
:10553000074A1070074A115440F22551014800F003
:10554000E5F810BD004400407F02002088020020E2
:105550007E020020D00A002000B587B0012104207F
:10556000FEF760FE01212020FEF78CFE08220621B6
:105570002348FCF778FB082207212148FCF773FB3E
:10558000C020059002208DF8180000208DF81A0028
:1055900003208DF8190001208DF81B0005A918487B
:1055A000FCF719FB4FF4E13001900020ADF810003A
:1055B0000C20ADF80E000020ADF80C00ADF80A008C
:1055C000ADF8080001A90F4800F018F9012240F2D7
:1055D00025510C4800F0ECF847208DF80000002021
:1055E0008DF801008DF8020001208DF80300684657
:1055F000FDF732FA0121034800F097F807B000BD2B
:10560000000802400014014010B540F225512A481C
:1056100000F0A4F8002848D0274800F059F927499D
:1056200008702748007878B90846007855283CD19A
:105630000120234908702148007822490870002081
:1056400048708870C87030E01D48007801280AD181
:1056500002201B490870194800781A494870012037
:105660001949087021E016480078022807D1032064
:1056700013490870114800781249887015E01048E5
:10568000007803280AD100200D4908700B480078E3
:105690000C49C87001200D49087006E00020084937
:1056A00008700A4908700749087040F225510248FD
:1056B00000F02CF810BD000000140140BD000020D7
:1056C000BE000020BF000020DB000020C70000203B
:1056D00010B504462146054800F0FFF800BF8021C0
:1056E000024800F02EF80028F9D010BD0014014047
:1056F00070B505460E46002400BF04E0285DFFF7A4
:10570000E7FF601CC4B2B442F8DB70BD10B50022E4
:10571000002340F66A14A14200D100BF0A120124FE
:105720009440A3B2DC43048010BD21B1828942F4CD
:105730000052828104E082894DF6FF731A40828113
:10574000704702460020B1F5007F00D100BF1388EA
:105750000B400BB1012000E00020704770B50246FD
:10576000002400230025002040F66A16B14200D133
:1057700000BFC1F3421501F01F03012606FA03F32F
:10578000012D02D19689334006E0022D02D1168AFE
:10579000334001E0968A33400C12012606FA04F4E5
:1057A0001688344013B10CB1012000E0002070BD18
:1057B000F0B50346002400260025002040F66A17B5
:1057C000B94200D100BF1846C1F3421401F01F06D0
:1057D000012707FA06F5012C01D10C3004E0022C58
:1057E00001D1103000E014301AB107682F43076070
:1057F00002E00768AF430760F0BD00002DE9FF47F6
:1058000005460E460024A14600BFA046B08900B15F
:1058100000BF2C8A24F44054F08804432C82AC89C5
:1058200041F20C608443B088318908437189084390
:105830000443AC81AC8A24F44074B0890443AC8244
:105840006846FEF73FFD2048854202D01F4885424A
:1058500002D1DDF80C9001E0DDF80890A88900F491
:10586000004040B109EBC90000EB09103168490064
:10587000B0FBF1F707E009EBC90000EB0910316854
:105880008900B0FBF1F76420B7FBF0F004012009B8
:10589000642101FB1078A88900F4004040B1322057
:1058A00000EBC800B0FBF1F000F00700044308E093
:1058B000322000EB08106421B0FBF1F000F00F0083
:1058C00004432C81BDE8FF87001001400014014013
:1058D00001468888C0F308007047C1F3080282803F
:1058E0007047000010B512481249C1F8B0003221CB
:1058F0001048C0F8B4100021C0F8B810C0F8BC10AF
:10590000C0F8C0100C49C0F8C4100221C0F8C8107B
:105910000021C0F8CC10C0F8D010C0F8D410042179
:1059200080F8D81000200549087000F009F810BD73
:10593000240700205807002028000020270000200E
:1059400000B587B0012140F20910FEF76BFC012180
:105950004FF42020FEF776FC082200214048FCF797
:1059600082F9072206213F48FCF77DF900208DF8D7
:105970001A0001208DF81B0002208DF8180001206C
:10598000059002208DF8190005A93548FCF723F988
:1059900002208DF818004020059005A93148FCF739
:1059A0001AF900208DF81A0001208DF81B008DF8DF
:1059B00018000002059002208DF8190005A92A4858
:1059C000FCF709F90020FCF7B3FB4FF4E13001903C
:1059D0000020ADF80800ADF80A00ADF80C00ADF8F5
:1059E00010000820ADF80E0001A92048FFF706FFBF
:1059F00001211E48FFF799FE34208DF80000002099
:105A00008DF8010002208DF8020001208DF80300BE
:105A10006846FDF721F84FF4E13001900420ADF81D
:105A20000E0001A91248FFF7E9FE26208DF80000BC
:105A300000208DF801008DF8020001208DF8030090
:105A40006846FDF709F8012240F225510848FFF7A2
:105A5000AFFE01210648FFF768FE07B000BD000059
:105A600000000240000C024000200240004C0040B8
:105A70000044004010B5044694F82810374A52F804
:105A8000210040F22771FFF769FE18B3E068401C5F
:105A9000E060D4E90210884209D2E1682068405CE5
:105AA00094F828102D4A52F82110888009E094F8C3
:105AB00028102A4A52F82100002240F22771FFF7ED
:105AC00077FE94F82810254A52F8210040F22771F9
:105AD000FFF71CFE94F82810204A52F8210040F2EB
