:020000040800F2
:10000000B81800209D010008A5010008A7010008FC
:10001000A9010008AB010008AD01000800000000C4
:10002000000000000000000000000000AF01000818
:10003000B101000800000000B3010008B50100088C
:10004000B7010008B7010008B7010008B7010008B0
:10005000B7010008B7010008B7010008B7010008A0
:10006000B7010008B701000899190008B701000896
:10007000B7010008B7010008B7010008B701000880
:10008000B7010008B7010008B7010008B701000870
:10009000B7010008B7010008B7010008B701000860
:1000A000C94B0008E94B0008B7010008B701000878
:1000B000154C00089D4C0008C94C0008B701000809
:1000C000B7010008B7010008B7010008B701000830
:1000D000B701000861540008BD540008B7010008CA
:1000E000B7010008B7010008B7010008B701000810
:1000F000B7010008854D0008B7010008B7010008E6
:10010000B7010008B7010008F54C0008B701000866
:1001100051540008B7010008394D0008654D00082A
:10012000B7010008B7010008B7010008B7010008CF
:10013000B7010008B7010008B7010008B7010008BF
:10014000B7010008B7010008B7010008B7010008AF
:10015000B7010008B7010008B7010008E955000819
:10016000B7010008B7010008B7010008B70100088F
:10017000B7010008B7010008B7010008B70100087F
:10018000B7010008B7010008DFF80CD000F09EF9B5
:10019000004800475D610008B81800200648804705
:1001A00006480047FEE7FEE7FEE7FEE7FEE7FEE75C
:1001B000FEE7FEE7FEE7FEE7614B00088901000865
:1001C000202A04DB203A00FA02F100207047914017
:1001D000C2F1200320FA03F3194390407047202A0C
:1001E00004DB203A21FA02F00021704721FA02F3E1
:1001F000D040C2F12002914008431946704740EABE
:1002000001039B0703D009E008C9121F08C0042A94
:10021000FAD203E011F8013B00F8013B521EF9D27B
:100220007047D2B201E000F8012B491EFBD27047A3
:100230000022F6E710B513460A4604461946FFF7B2
:10024000F0FF204610BD2DE9F04D81EA030404F0D3
:10025000004B21F0004514464FF0000A23F0004106
:1002600050EA050220D054EA01021DD0C5F30A5716
:100270000246C5F31303C1F31300C1F30A5640F459
:10028000801543F48013A7EB0608101BD64608F22E
:10029000FD3873EB050002D308F1010801E0921864
:1002A0005B41B8F1000F03DA00200146BDE8F08D94
:1002B00000204FF48011064684460EE0171B73EBB6
:1002C000050705D3121B63EB050306434CEA010C3B
:1002D00049084FEA300092185B4150EA0107EDD11E
:1002E00052EA030012D082EA040083EA05010843BF
:1002F00005D0101BAB4106D20122002306E00022EC
:100300004FF0004302E06FF0010253101AEB0600B9
:100310004CEB085110EB0A0041EB0B01BDE8F04D2E
:1003200000F077B80EB5C10F80EAE0700844CA0744
:10033000002140F233438DE80E000A460B4600F0E0
:1003400077F803B000BD00F0004230F000400AD062
:10035000C10D01F56071C0F3160042EA0151C208F7
:1003600040071143704700200146704701F00043E9
:1003700030B421F0004150EA010206D00A0DA2F586
:100380006072C1F31301002A02DC30BC0020704708
:10039000440F44EAC104C100E01830BC00EBC25075
:1003A000AFF300800029A8BF7047401C490008BF78
:1003B00020F00100704710B4B0FA80FC00FA0CF095
:1003C00050EA010404BF10BC704749B1CCF12004CD
:1003D00021FA04F411FA0CF118BF0121214308435A
:1003E000A3EB0C01CB1D4FEA00614FEA102042BF86
:1003F000002010BC704700EBC35010440029A4BF7C
:1004000010BC7047401C490008BF20F0010010BC20
:10041000704710B5141E73F1000408DA401C41F156
:10042000000192185B411A4301D120F0010010BD78
:100430002DE9F04D92469B4611B1B1FA81F202E0EE
:10044000B0FA80F220329046FFF7BAFE04460F461B
:1004500040EA0A0041EA0B0153465A46084313D0CA
:10046000114653EA010019D0C8F140025046FFF787
:10047000B6FE05460E46504659464246FFF7A0FED8
:10048000084305D0012004E020463946BDE8F08D40
:100490000020054346EAE0762C4337430A9863057B
:1004A000E40AA0EB08000022FD0A44EA47540A309F
:1004B00002D500200146E9E7010510196941DDE98F
:1004C000084500196941BDE8F04DA2E7064C074D0B
:1004D00006E0E06840F0010394E807009847103414
:1004E000AC42F6D3FFF754FE1867000838670008DF
:1004F00070B58D1810F8014B14F0030201D110F8FB
:10050000012B231106D110F8013B03E010F8016B19
:1005100001F8016B521EF9D1ABB110F8012B04F0B8
:100520000C048A1A0C2C03D0A2EB84129B1C08E04A
:1005300010F8014BA2EB0422F8E712F8014B01F886
:10054000014B5B1EF9D5A942D4D3002070BDCA432C
:100550000260704721B1826842F00102826003E0CC
:10056000826822F001028260704700000021084A80
:100570001168084A1140D0E900231A4383681A43DE
:10058000C3681A431143044AC2F8041370470000B9
:1005900004230140E030FCFF0020014000B58DB095
:1005A0000121084603F0E2FD0121080203F00EFEDE
:1005B0004020019003208DF8080000208DF80B00EA
:1005C00001A9174801F025FB002003900490069034
:1005D000059003A8FFF7CAFF0121080203F006FEF9
:1005E00000214FF4807003F001FE00208DF8200000
:1005F00007908DF8210009900B9001208DF83000B4
:1006000007A9084800F01EF80623012219460548EC
:1006100000F042F801210348FFF79CFF0DB000BD38
:1006200000000240002001400146C86C80B27047C3
:100630000246002013680B400BB1012000E00020AF
:100640007047000030B50246002000235068104C6F
:1006500020400D790C6844EA0524204350609068DE
:100660000C4C2040D1E903542C438D682C434D7928
:1006700044EA450420439060D06A20F470000C7D69
:10068000641EE4B2234340EA0350D06230BD000050
:10069000FFFEFFFCFDF7FFC0F0B504460D4600204D
:1006A0000021092D11DDE068A5F10A0606EB4607D9
:1006B000072606FA07F18843A5F10A0606EB460667
:1006C00003FA06F10843E0600CE0206905EB4507FA
:1006D000072606FA07F1884305EB450603FA06F1FB
:1006E00008432061072A0FDA606B561E06EB860767
:1006F0001F2606FA07F18843561E06EB860605FA02
:1007000006F10843606322E00D2A0FDA206BD61F42
:1007100006EB86071F2606FA07F18843D61F06EB6D
:10072000860605FA06F10843206310E0E06AA2F1AC
:100730000D0606EB86071F2606FA07F18843A2F18D
:100740000D0606EB860605FA06F10843E062F0BDE9
:10075000816841F080418160704770B504460D4664
:10076000012C03D10621284604F0DEFB022C03D124
:100770000821284604F062F870BD000010B500F0B2
:1007800009F8012004F00EF900200149086010BDAD
:10079000BC02434210B50121422003F0E7FC10BD2A
:1007A00010B503F01FFF012008490860022005F082
:1007B0001BFC0748D0F81C02C4B2002003490860A3
:1007C000022005F011FC204610BD00009882404236
:1007D0000080404270B5002403F004FF012010495E
:1007E0000860002517E06006040E01200C49091F6F
:1007F0000860022005F0F8FB0A48D0F81C0208B196
:10080000601CC4B200200649091F0860022005F0E0
:10081000EBFB681CC5B2082DE5DB204670BD00006F
:100820009C8240420080404210B5044603F0E8FE3E
:100830001CB101200A49086002E000200849086054
:1008400001200749091F0860022005F0CDFB0020A8
:100850000449C1F89802022005F0C6FB10BD000053
:100860009C8240420080404270B5044603F0C8FEBE
:1008700000251BE004F080061EB101200E4908602F
:1008800002E000200C4908606006040E01200A49BD
:10089000091F0860022005F0A7FB00200749C1F8E6
:1008A0009802022005F0A0FB681CC5B2082DE1DB10
:1008B000FFF776FF70BD00009C82404200804042FE
:1008C00010B503F09DFE0120094908600949C1F8EF
:1008D0009802042005F088FB0020054908600420E8
:1008E00005F082FB00200349C1F8980210BD00000A
:1008F0009C8240420080404210B503F081FE0020FF
:100900000749086001200749C1F89802042005F052
:100910006BFB012002490860042005F065FB10BD57
:100920009C824042008040422DE9F04105460E463F
:100930000024002738E000201D4908701D49087078
:1009400005211D4804F0C4FE1DB9002002F044FA40
:1009500002E0284602F040FA23E01648007870B121
:1009600016480078552807D114484078022803D14A
:1009700012488078BDE8F08100200E49087064209C
:1009800005F00CFB641C3C2C01D900240AE00A2071
:10099000B4FBF0F100FB114018B90521064804F042
:1009A00097FEDAE700BF7F1CB742C4DB0020E1E717
:1009B000DA000020DB000020D5000020BF0000206E
:1009C00010B504F0B9FD10BD10B50648006805F07B
:1009D00037FB30B905F02EFBC8300249086003F040
:1009E000C5FA10BDF803002010B504460B48844238
:1009F00009D10121480603F0D9FB00214FF0007016
:100A000003F0D4FB08E00121880603F0CFFB0021AE
:100A10004FF0806003F0CAFB10BD0000006400408E
:100A200010B50021837A012202FA03F13D4A1268CF
:100A300042F001023B4B1A603A4A1C3212688A4368
:100A4000384B1C331A60027BCAB9364A0C32126822
:100A50008A43344B0C331A604288C38842EA03430A
:100A6000304A4032847A42F834300288838842EA3D
:100A700003432C4A4032847A02EBC4025360027B67
:100A8000012A19D1274A0C3212680A43254B0C332C
:100A90001A604288038842EA0343224A4032847A39
:100AA00042F83430C288838842EA03431D4A403208
:100AB000847A02EBC4025360C27A3AB9194A121D11
:100AC00012688A43174B1B1D1A6006E0154A121D57
:100AD00012680A43134B1B1D1A60028932B9114A6E
:100AE000143212688A430F4B14331A600289012AA8
:100AF00006D10C4A143212680A430A4B14331A60A6
:100B0000427B012A06D1074A1C3212680A43054B70
:100B10001C331A60034A126822F00102014B1A606A
:100B200010BD0000006600401AB143690B434361E9
:100B300002E043698B434361704730B502460020B1
:100B40000023146824F002041460146844F00104C3
:100B5000146000E05B1C546804F001041CB94FF6FB
:100B6000FF74A342F6D1546804F001040CB90020CC
:100B70006CE08C79012C04D1146844F0800414607A
:100B800003E0146824F080041460CC79012C04D1B3
:100B9000146844F04004146003E0146824F0400436
:100BA00014600C7A012C04D1146844F02004146001
:100BB00003E0146824F0200414604C7A012C04D162
:100BC000146844F01004146003E0146824F0100466
:100BD00014608C7A012C04D1146844F00804146069
:100BE00003E0146824F008041460CC7A012C04D1CA
:100BF000146844F00404146003E0146824F004044E
:100C000014608C78A407CD7844EA05640D7944EA31
:100C100005444D7944EA05540D886D1E2C43D4617A
:100C2000146824F001041460002300E05B1C546885
:100C300004F001041CB14FF6FF74A342F6D15468CE
:100C400004F001040CB1002000E0012030BD024698
:100C5000002019B9D36803F0030006E0012903D18D
:100C6000136903F0030000E00020704710B500F5A1
:100C7000D87303EB01131B6803F004031372137A98
:100C800053B900F5D87303EB01131B6840F2FF74EE
:100C900004EA5353136009E000F5D87303EB011322
:100CA0001B686FF0604404EAD303536000F5D87307
:100CB00003EB01131B6803F00203537200F5D873B2
:100CC00003EB01135B6803F00F03937200F5D87315
:100CD00003EB01135B681B0AD37400F5D87303EBB5
:100CE00001139B68D37200F5D87303EB01139B6863
:100CF0001C0A147300F5D87303EB01139B681C0CDA
:100D0000547300F5D87303EB01139B681B0E9373A8
:100D100000F5D87303EB0113DB68D37300F5D873C8
:100D200003EB0113DB681C0A147400F5D87303EBA2
:100D30000113DB681C0C547400F5D87303EB01132A
:100D4000DB681B0E937421B9C36843F02003C360B2
:100D500003E0036943F02003036110BD10B50246B0
:100D60000020936803F08063B3F1806F00D110E03E
:100D7000936803F00063B3F1006F01D1012008E034
:100D8000936803F08053B3F1805F01D1022000E04B
:100D90000420042874D002F5C07303EB00131B6811
:100DA00003F0010402F5C07303EB00131C600B7A1F
:100DB0007BB94B7A0C8843EA445302F5C07404EBC8
:100DC00000142468234302F5C07404EB001423606C
:100DD00010E00B7A4C6843EAC4034C7A234302F5D3
:100DE000C07404EB00142468234302F5C07404EBC0
:100DF000001423608B7A03F00F038B7202F5C0732B
:100E000003EB00135B6823F00F0402F5C07303EBE0
:100E100000135C6002F5C07303EB00135B688C7A0F
:100E2000234302F5C07404EB001463608B7B1C0643
:100E30004B7B44EA03440B7B44EA0323CC7A2343F1
:100E400002F5C07404EB0014A3608B7C1C064B7C81
:100E500044EA03440B7C44EA0323CC7B234302F59E
:100E6000C07404EB0014E36002F5C07303EB0013DD
:100E70001B6843F0010402F5C07303EB00131C6010
:100E800010BD000010B50246002321B1012907D092
:100E900002290FD109E090681D4C00EA04030BE021
:100EA00090681C4C00EA040306E090681A4C00EAC3
:100EB000040301E0002300BF00BF184C181BA3422D
:100EC00016D007DC83B16FF08060184470B102283F
:100ED00018D111E0B0F5007F10D0114C204448B17A
:100EE000B0F5003F0ED10BE002230DE000230BE034
:100EF000002309E0002307E0012305E0012303E0CC
:100F0000012301E0002300BF00BFD8B210BD0000E4
:100F100003000004000300080000031000010008A3
:100F20000001FFF72DE9F0410746884615460421E8
:100F3000052000F0F3FC0021012004F0F7FE8021E1
:100F40000A2003F0A3FC002405E0395D092004F029
:100F5000EDFE601CC4B24445F7DB0321012004F020
:100F6000E5FEFF2400BF052003F06DFA0646601E73
:100F7000C4B21CB106F004000028F4D0222003F013
:100F800062FA2870212003F05EFA68700020BDE844
:100F9000F08100002DE9FF4705460E464FF0000A9C
:100FA00006B10DB94FF0010A9448007800F00F0027
:100FB000032801DD4FF0010A90480078C0F30019C2
:100FC000BAF1000F19D000208DF80A008DF80B003F
:100FD00001208DF80C000020ADF80000ADF80200F3
:100FE000ADF80400ADF80600ADF8080001208DF85A
:100FF0000D006846FFF714FDFEE00020ADF8080084
:1010000001208DF80D004FF000080024F2E07B482D
:10101000007800F00F0030B101283BD002287BD0CF
:10102000032874D19CE000208DF80B008DF80C0093
:1010300035F824004B460022114600F0E1F8ADF8E7
:10104000020005EB840148884B460022114600F05F
:10105000D7F8ADF80600601CC0B20446B04213DAFF
:1010600035F824004B460022114600F0C9F8ADF8CF
:10107000000005EB840148884B460022114600F031
:10108000BFF8ADF8040004E00020ADF80600ADF8AC
:1010900004009CE001208DF80B0000208DF80C006E
:1010A00035F824004B460022114600F0A9F8ADF8AF
:1010B0000200601CC0B20446B04207DA35F82400D2
:1010C0004B460022114600F09BF800E00020ADF8EE
:1010D0000600601CC0B20446B04207DA35F82400AE
:1010E0004B460022114600F08BF800E00020ADF8DE
:1010F0000000601CC0B20446B04209DA35F8240092
:101100004B460022114600F07BF802E004E051E07B
:101110000020ADF804005AE000208DF80B000120FB
:101120008DF80C0035F824004B460022114600F0E3
:1011300081F80746B8B2ADF80200380CADF80000EF
:1011400005EB840148884B460022114600F072F8F6
:101150000746B8B2ADF80600380CADF8040036E02A
:1011600001208DF80B008DF80C0035F824004B465B
:101170000022114600F05EF80746B8B2ADF8020052
:10118000380CADF80000601CC0B20446B04208DA6A
:1011900005EB840148884B460022114600F04AF8CE
:1011A00000E000200746B8B2ADF80600380CADF8F4
:1011B00004000CE00020ADF80200ADF80000ADF82E
:1011C0000600ADF8040034464FF0010A00BF00BF2E
:1011D0008DF80A806846FFF723FCB44202DA601CEF
:1011E000C4B200E007E008F10100C0B280460D285B
:1011F00000DB00E00BE700BFBDE8FF872001002017
:1012000010B50446C4F309040AB1102000E0002020
:1012100002460BB1082000E00020034613B1C1F3E1
:10122000C13000E00020014642EA44101843084360
:1012300080B210BD10B50446C4F309040AB10220FF
:1012400000E0002002460BB1042000E0002003462D
:1012500013B18803C00A00E00020014642EA44308E
:101260001843084310BD000010B500210148FFF7E6
:10127000EEFC10BD0064004070B50446002554B17A
:1012800000210648FFF7E3FC054625B12246002170
:101290000248FFF7EBFC284670BD000000640040E8
:1012A0002DE9F04706460C4617469846DDF8209093
:1012B0004FF0000A15480760C0F804800020134969
:1012C0000872487208468472224631460B30FEF797
:1012D00096FF0E490E48FFF741FD0546042D09D043
:1012E0004FF0010A29460A48FFF7CCFD012801D139
:1012F0004FF0020ABAF1010F04DBB9F1000F01D07F
:1013000089F800505046BDE8F08700003008002002
:10131000006400400448006800F0E05008B101207B
:1013200070470020FCE700000864004000B500BFE3
:10133000FFF7F0FF0028FBD000BD10B501E000F082
:1013400005F8FFF791FF0028F9D110BD10B524482A
:10135000FFF792FF2248C07C20B101280AD0022862
:1013600018D10FE01E48827A00F10B011D4800F0F1
:10137000C4FB24E01A48827A00F10B011A4800F0FD
:10138000BCFB1CE01648827A00F10B01174800F004
:10139000B4FB14E01248C07C03280FDB1048C07C6B
:1013A00006280BDC0E48C07CC01E114901EBC000B2
:1013B0000B490B310A6802604968416000BF00BFF9
:1013C0000748C07C062809DC0548C07C094951F85B
:1013D00020000949096808430749086010BD00005A
:1013E000A409002058080020680800208808002070
:1013F000B8090020086600082401002000B5034A4F
:101400005178107800F0C0FE00BD0000B80900203F
:10141000F8B5FFF77FFF00285FD00026002559E0D0
:101420002E4890F9000030B101280ED002281ED0BD
:10143000032840D12DE000F05DF80746002F03DBC4
:101440000126F8B200F07AF839E00822244925484C
:1014500000F03EFBC4B24CB10126234800234FF4F8
:101460002072214600901E48FFF71AFF27E008224D
:101470001B491E4800F02CFBC4B24CB101261A488F
:1014800000234FF42872214600901548FFF708FF0B
:1014900015E008221249164800F01AFBC4B24CB1FC
:1014A0000126114800234FF47072214600900C4829
:1014B000FFF7F6FE03E0FF200849087000BF00BFF9
:1014C00006480078401C40B20449087006B103E0A9
:1014D000681CC5B2042DA3DD00BFF8BD5801002073
:1014E00028010020780800205901002098080020D9
:1014F000580800204FF0FF30002109E001EB810285
:10150000054B13F822200AB148B203E04A1CD1B2BD
:101510000729F3DB00BF7047D8090020002007E04F
:10152000002100EB8002044B03F82210411CC8B2DA
:101530000728F5DB70470000D8090020F8B50446FD
:10154000002004EB84050E4E06EB850500902B6908
:1015500004EB840506EB8505EA6804EB840516F8C0
:10156000251004EB840506EB8505681CFFF798FE43
:10157000002004EB8401324602F82100F8BD00008F
:10158000D80900202DE9F04104460F4615461E46B5
:10159000DDF81880072C1ADA04EB84000D4901F8F5
:1015A000205004EB84010B4A02EB8101481C2A46BF
:1015B0003946FEF724FE04EB8400064901EB800067
:1015C000C66004EB840001EB8000C0F81080BDE829
:1015D000F0810000D809002010B50D4A32210D48D5
:1015E00000F02AF80C4A32210C4800F025F80C4A89
:1015F00032210C4800F020F80B4A32210B4800F051
:101600001BF80B4A32210B4800F016F810BD000001
:10161000A808002058080020DA08002068080020E8
:101620000C090020780800203E09002088080020CE
:10163000700900209808002070B504460E46154633
:101640002660E5600021204600F091FA70BD0000A0
:1016500038B5FFF772FE68E0FFF76FFE002462E026
:10166000344850F82400344909680840002858D00C
:10167000072C4DD2DFE804F0040C1824273946006B
:1016800000BF69462D4800F084FA0028F9D13FE0F8
:1016900003E09DF8000000F075F86946284800F066
:1016A00078FA0028F5D133E003E09DF8000000F05F
:1016B00093F86946234800F06CFA0028F5D127E03A
:1016C000FFF79CFE24E0204803F0BAFE1F49088083
:1016D00005E01E480088A0F561601C4908801B4891
:1016E0000088B0F5616FF4DA12E017480838007C22
:1016F000022806D11448093003F09AFE00B21449BA
:10170000088005E010480838007E012800D100BF9D
:1017100000BF104850F824000749096808400649EE
:101720000860601CC4B2062C9ADD034800680028DB
:1017300092D138BD08660008240100205808002016
:101740006808002088080020C0090020340100201B
:10175000320100208866000810B5002006490860A4
:101760000649087007210648FFF714FCFFF734FF0D
:10177000FFF7D4FE10BD000024010020200100204E
:101780003601002010B504460F48007870B904F007
:1017900051FC0A300D49086000200D4908700D48C1
:1017A000097844540120084908700BE00848007883
:1017B000C82807DA06480078401CC0B204490870FF
:1017C00004490C5410BD00007F0200208802002054
:1017D0007E0200208C0A002010B504460F480078D5
:1017E00070B904F027FC0A300D49086000200D494B
:1017F00008700D48097844540120084908700BE02E
:1018000008480078C82807DA06480078401CC0B2AB
:101810000449087004490C5410BD000081020020E6
:101820008C02002080020020540B00207FB505466A
:101830000C460121202002F0A9FC0295ADF80440DD
:101840000020ADF80600ADF80C008DF80E0001A9DF
:101850000D4803F0E3FA37208DF8000000208DF8E2
:10186000010004208DF8020001208DF80300684675
:1018700001F0F2F801221146034803F0C5FA0121F4
:10188000014803F0A4FA7FBD0014004010B5FFF733
:10189000DFFEFFF7BDFD10BD1CB501214FF4C07088
:1018A00002F064FCF020009000208DF8040001207C
:1018B0008DF807006946144800F0ABF94FF470400A
:1018C000009001208DF8040000208DF80600012012
:1018D0008DF8070003208DF8050069460B4800F0DD
:1018E00098F92020009001208DF8040000208DF848
:1018F000060001208DF8070003208DF805006946D9
:10190000024800F086F91CBD00200240001C024085
:1019100000200149087070479C05002070B50546FD
:101920000C460026284602F08EFD064626EA0401F3
:10193000284604F0FBF9002070BD70B505460C4642
:10194000002D06DB642D00DD6425052D0BDA052551
:1019500009E015F1640F01DA6FF0630515F1050F69
:1019600001DD6FF00405002C06DB642C00DD64242F
:10197000052C0BDA052409E014F1640F01DA6FF08D
:10198000630414F1050F01DD6FF0040421462846BD
:1019900002F02AFF70BD000010B5102000F03CF8E6
:1019A000012825D11021134800F09EF9E8B9002143
:1019B000114803F00CFA114890ED000AB8EE400A05
:1019C0000F4880ED000AD0ED000A9FED0E1AB3EE2D
:1019D000040A10EE810A80ED000A90ED000ABCEEC8
:1019E000C00A10EE100A08490880102000F00EF816
:1019F00010BD000000040240001000400400002060
:101A000000000020F628DC3F0800002001490860A3
:101A100070470000143C014001460020034A126850
:101A20000A400AB1012000E000207047143C014048
:101A3000002123498279002A3AD00A4612680368B5
:101A40009A430B461A600A1D126803689A430B1DDD
:101A50001A60027911440A6803681A430A60184A36
:101A60000832126803689A43154B08331A601A1D2E
:101A7000126803689A43124B0C331A604279102A99
:101A80000ED11A1F126803681A430D4B08331A60EF
:101A90001A1D126803681A43094B0C331A600DE0D3
:101AA0000749427911440A6803681A430A6005E04D
:101AB000027911440A6803689A430A60704700007B
:101AC000003C014010B502F047F8FEF767FD10BD7D
:101AD000F0B507460C461646002564B106E06119CC
:101AE000384600F056F800B904E06D1C301EA6F12F
:101AF0000106F4D100BF2846F0BDF0B507460D46FB
:101B00001646002406E0295D384600F06CF800B95E
:101B100004E0641C301EA6F10106F4D100BF20468B
:101B2000F0BD30B504460025204600F04AF870B1FB
:101B3000D4E90001401E814203D1A06838B10125DB
:101B400005E0D4E90101401C814200D0012528466E
:101B500030BD30B504460025204600F032F820B1F3
:101B6000D4E90110884200D00125284630BD70B567
:101B700004460D4664B12068012809D90020A06000
:101B80002068401E60602A462168E068FEF749FB35
:101B900070BD70B504460D46002685B12046FFF79E
:101BA000C0FF60B16068401C60602168884201D35A
:101BB000002060606168E068405C28700126304663
:101BC00070BD0146002069B10A68012A0AD9CA68B5
:101BD00042B10B688A689A4204D2D1E900329A4233
:101BE00000D20120704770B504460D4600262046FD
:101BF000FFF7AFFF58B1A168481CA060E0684554EA
:101C00002168A068884201D30020A06001263046E8
:101C100070BDF0B50A4600210023002400BF3DE05E
:101C2000012505FA01F3156805EA03049C4234D145
:101C300005684F000326BE40B543056015794E0088
:101C4000B5400668354305601579012D02D0157938
:101C5000022D16D185684F000326BE40B54385602E
:101C600055794E00B5408668354385604568012644
:101C70008E40B5434560456896798E40B6B235438F
:101C80004560C5684F000326BE40B543C560D579A1
:101C90004E00B540C6683543C560491C1029BFD306
:101CA000F0BDF0B5002300244D07ED0E02FA05F358
:101CB000CE1000F1200555F826504E07F70E0F26DE
:101CC000BE40B543CF1000F1200646F82750CE1095
:101CD00000F1200555F8265045EA0304CE1000F126
:101CE000200545F82640F0BD0246002013690B4050
:101CF0000BB1012000E000207047418370472DE9BF
:101D0000F0470C46DDE90867002100258C4600BF3E
:101D100060E04FF0010808FA01F504EA050CAC4553
:101D200057D1D0F800804FEA410A4FF0030909FA71
:101D30000AF928EA0908C0F80080D0F800804FEAC4
:101D4000410902FA09F948EA0908C0F80080012AA5
:101D500001D0022A27D1D0F808804FEA410A4FF07B
:101D6000030909FA0AF928EA0908C0F80880D0F836
:101D700008804FEA410906FA09F948EA0908C0F85B
:101D80000880D0F804904FF0010808FA01F829EA19
:101D90000809C0F80490D0F8048003FA01F948EA71
:101DA0000908C0F80480D0F80C804FEA410A4FF0CF
:101DB000030909FA0AF928EA0908C0F80C80D0F8E2
:101DC0000C804FEA410907FA09F948EA0908C0F806
:101DD0000C80491C10299CD3BDE8F0870183704713
:101DE00010B502210848FEF7B2FB0748FEF7B0FC29
:101DF00000BF02210448FEF71BFC0028F9D002486E
:101E0000FEF712FC10BD00000020014010B52DEDC2
:101E1000068B00201749087048708870C8701649F2
:101E20000880012002F0BEFD102002F0BBFD00F092
:101E3000F5FD10480478407800EB04242046FEF7B6
:101E400071FA41EC1A0B9FED0D0B53EC102BFEF7C2
:101E5000FAF941EC190BFEF789FA08EE100ABDEE0B
:101E6000C80A10EE100A0449088008460088BDEC34
:101E7000068B10BD0E0000201200002033333333D8
:101E80003333F33F70B504460025002607E0FFF723
:101E9000A7FF0544052004F081F8701CC6B2A642D5
:101EA000F5DBB5FBF4F080B270BD000070B5024602
:101EB00000210020002522B1072A0BD0082A11D1C9
:101EC0000CE0114B5B78104C247803EB042399B29F
:101ED0000F2507E00C4B5978072503E00A4B1978CA
:101EE000082500BF00BF00230AE00C4601EBD476B2
:101EF0007610A1EB46060EB9441CE0B249105B1CFB
:101F0000AB42F2DB70BD0000300100200146002032
:101F100021B107290AD008290ED10AE0074A5278D0
:101F2000064B1B7802EB032290B205E0034A50787F
:101F300002E0024A107800BF00BF70473001002065
:101F400010B515480078012810D102F0CBFA1349DA
:101F5000098888421EDB00200F49087003201049C1
:101F600008700021084602F03FFC13E00D4800789D
:101F700001280FD102F0B6FA08490988884209DB26
:101F80000020084908700320054908700021084610
:101F900002F02AFC10BD0000FB0000201001002010
:101FA00002010020FC00002010B54FF4E06000F0BA
:101FB0008FFD03F046FEA82003F0D2FFFFF76CFC74
:101FC00000F024F8FFF77EFD03F07CFC532107208E
:101FD000FFF72CFCA72140F2E73003F06DF802F088
:101FE00047FAFEF7EDFC40F24731012003F034F8E8
:101FF00042F2CF01142002F0D1FF42F2CF010120C2
:1020000002F0FCFF02F080FF10BD000000B589B0B7
:102010000121212002F0AAF809220B214248FFF7F2
:1020200040FE09220C214048FFF73BFE4FF4C05010
:10203000079002208DF820008DF8210000208DF8F7
:10204000220001208DF8230007A93748FFF7E1FDA2
:102050004FF48060079001208DF8200002208DF859
:10206000210000208DF8220001208DF8230007A90F
:102070002E48FFF7CEFD002000F05EF80121480653
:1020800002F084F82A48FEF7AFFC00208DF8160015
:1020900001208DF8170000208DF8180001208DF820
:1020A000190000208DF81A0001208DF81B00002077
:1020B0008DF812008DF8130001208DF81400022015
:1020C0008DF815000720ADF8100004A91848FEF798
:1020D00034FD00208DF80A008DF80B0001208DF8EA
:1020E0000C000020ADF80000ADF80200ADF80400CF
:1020F000ADF80600ADF8080001208DF80D00684627
:10210000FEF78EFC12200B490860486000204872E0
:10211000087201208872002202210548FEF704FDA2
:10212000FFF71AFB09B000BD000002400014024096
:1021300000640040640A002010B504462CB94FF436
:1021400080610548FFF7D9FD04E04FF48061024843
:10215000FFF744FE10BD00000014024010B5FFF769
:1021600095FB10BD10B504462CB14FF480710548A5
:10217000FFF734FE04E04FF480710248FFF7BDFD25
:1021800010BD000000200240014A107051707047DD
:10219000300100202DE9F0410746884600202849FB
:1021A0000860092003F0FAFE01202649C1F8AC02BC
:1021B000042003F0F3FE4FF40C7003F015FF00242D
:1021C0002EE0002528E0385D284100F0010676B9B0
:1021D00000201B4908604FF4FA7003F005FF01204E
:1021E0001849C1F8AC024FF4FA7003F0FDFE012E5D
:1021F00010D10020124908604FF4FA7003F0F4FE89
:1022000001201049C1F8AC0203F0C8FE4FF4487039
:1022100003F0EAFE681CC5B2082DD4DB601CC4B212
:102220004445CEDB0020064908604FF40C7003F0F3
:10223000DBFE01200349C1F8AC02BDE8F0810000DB
:10224000AC8242420080424210B501F032FE08B139
:10225000FE2010BD01F0BEFC022003F09FFE01F045
:10226000BFFC412000F00AF808B1FE20F1E7012090
:10227000014908700020ECE74800002010B5044632
:10228000412C25D108210846FFF748FB3D211120AC
:1022900003F04CFD8621172003F048FD7F21262006
:1022A00003F044FD1E212D2003F040FD00212C20D1
:1022B00003F03CFD8D212A2003F038FD3E212B2028
:1022C00003F034FD0A2003F069FE01F089FC01E00F
:1022D000FF2010BD0020FCE702468A4201D9501AB7
:1022E0007047881AFCE7000010B504469FED111AEC
:1022F000DFED110AB3EE090A01F010F94FF4617134
:102300000E48006800F070FA4FF461710B480068E5
:1023100000F016F84FF4FA710848006800F064FA0B
:1023200021460648006800F00BF800F093FA01F02F
:102330001DF910BD0000964300000000A00500201C
:1023400070B504460D462E46642003F027FE02F0C9
:10235000EDF802F0C7F80644642C00D96424052C7B
:1023600000D205246142604202F03EFA02E0012000
:1023700003F014FE02F0B6F8B042F8DD0021084682
:1023800002F032FA642003F009FE70BD10B5044675
:10239000642C00D96424052C00D205242146204653
:1023A00002F022FA962003F0F9FD10BD2DE9F0416C
:1023B00006460F464FF00108642003F0EFFD02F0DF
:1023C000B5F802F08FF805463146704202F00CFA7B
:1023D000062F70D2DFE807F00304AC0F4375A8E0C6
:1023E00000BF02F07FF8B0F54D7FFADB0021084610
:1023F00002F0FAF99DE02EE002F074F8054640F292
:10240000A46085421BDD40F29A60854217DA0820FD
:10241000FFF77CFD0446EF2C01D0F72C06D10021FC
:10242000084602F0E1F94FF0000814E0E72C11D162
:102430000021084602F0D8F94FF000080BE040F206
:102440009A60854206DD0021084602F0CDF94FF082
:10245000000800E000BFB8F1000FCDD169E02CE02A
:1024600002F040F80546B5F5C87F1ADDB5F5E67F00
:1024700017DA0820FFF74AFD0446EF2C01D0F72CAD
:1024800006D10021084602F0AFF94FF0000814E031
:10249000E72C11D10021084602F0A6F94FF0000800
:1024A0000BE0B5F5E67F07DD0021084602F09CF958
:1024B0004FF0000801E03BE000BFB8F1000FCFD1C2
:1024C00037E031E002F00EF80546B5F52F7F1FDD4D
:1024D00040F2663085421BDA0820FFF717FD0446FC
:1024E000EF2C01D0F72C0AD10F21304600F02BF849
:1024F0000021084602F078F94FF0000814E0E72CBC
:1025000011D10021084602F06FF94FF000080BE0EE
:1025100040F26630854206DD0021084602F064F98B
:102520004FF0000800E000BFB8F1000FCAD100E092
:1025300000BF00BF0021084602F056F9642003F0F6
:102540002DFDBDE8F08170B504460D4600266420DF
:1025500003F024FD01F0EAFF01F0C4FF0646214626
:10256000604202F041F902E001F0BCFF0646AE42D3
:10257000FAD90021084602F037F9642003F00EFD75
:1025800070BD2DE9F04180460E460127642003F01E
:1025900005FD01F0CBFF01F0A5FF0546C8F10001E4
:1025A000404602F021F9062E6ED2DFE806F0030461
:1025B000A00F3F6C9CE000BF01F094FFB0F5617F7D
:1025C000FADB0021084602F00FF991E02BE001F060
:1025D00089FF054640F2A460854219DD40F23A7059
:1025E000854215DA0820FFF791FC0446EF2C01D054
:1025F000F72C05D10021084602F0F6F8002712E07A
:10260000E72C0FD10021084602F0EEF800270AE07F
:1026100040F23A70854205DD0021084602F0E4F8F8
:10262000002700E000BF002FD1D161E028E001F0D9
:1026300059FF0546B5F5C87F18DDB5F5FA7F15DAFF
:102640000820FFF763FC0446EF2C01D0F72C05D1DE
:102650000021084602F0C8F8002711E0E72C0ED14F
:102660000021084602F0C0F8002709E0B5F5FA7F1E
:1026700005DD0021084602F0B7F8002700E000BFA2
:10268000002FD4D134E02FE031E001F02BFF0546DC
:10269000B5F52F7F1DDD40F2B630854219DA0820EE
:1026A000FFF734FC0446EF2C01D0F72C09D10F21A1
:1026B000404600F027F80021084602F095F8002770
:1026C00012E0E72C0FD10021084602F08DF8002718
:1026D0000AE040F2B630854205DD0021084602F0EE
:1026E00083F8002700E000BF002FCED100E000BF3C
:1026F00000BF0021084602F077F8642003F04EFC8A
:10270000BDE8F08170B504460D460026642003F054
:1027100045FC01F00BFF01F0E5FE06466142204654
:1027200002F062F802E001F0DDFE0646AE42FAD9A0
:102730000021084602F058F8642003F02FFC70BD19
:1027400070B504460B480578046001F0D7F902E043
:10275000012003F023FC204600F028FFDFED060AED
:10276000B4EE600AF1EE10FAF2D10248056000F012
:10277000FDFE70BDA00500200000C6422DE9F0411D
:1027800005460C460026642003F008FC01F0CEFE4E
:1027900001F0A8FE06461348077805602846FFF7B3
:1027A000F5FD01F0ABF90FE001F09CFE064628466E
:1027B00001F01CF8A64204D30021084602F014F8E8
:1027C00004E0012003F0EAFBA642EDD900BF00219E
:1027D000084602F009F803480760642003F0DEFBB6
:1027E000BDE8F081A00500202DE9F04105460C462A
:1027F0000026642003F0D2FB01F098FE01F072FE87
:1028000006461348077805602846FFF7BFFD01F02C
:1028100075F90FE001F066FE0646284601F0AEF8B5
:10282000A64204D30021084601F0DEFF04E00120A7
:1028300003F0B4FBA642EDD900BF0021084601F029
:10284000D3FF03480760642003F0A8FBBDE8F081D4
:10285000A005002010B50021084601F0C5FFFFF7D4
:1028600057F8642003F09AFB10BD000010B526480D
:10287000007860B102F07EFB48B900202249087060
:1028800002F070FB21A001F07FFF03F0CBFD214897
:10289000007848B100F0F2FB012802D01E4800F099
:1028A000C9FC00201B4908701C48007858B31C481C
:1028B00000F0D4FA11281ED2DFE800F01D091D0F28
:1028C0001D0E1C1D1D1D1D1D120D10111B00144879
:1028D00002F076F813E012E011E010E00FE00EE0F5
:1028E0001048007820B100200E49087003F072FCF7
:1028F00005E004E003E00CA001F028FF00BF00BFEA
:1029000000200649087010BDF6050020542D3E67D2
:102910006F0000007F0200208C0A0020810200204E
:10292000540B0020F7050020756E646566696E65BE
:102930000A00000070B514480578FF20124908709D
:10294000012D06D0022D07D0032D08D0042D14D15F
:1029500012E003F0A7FC14E000F07CF911E0002481
:1029600004E00A49085D01F079FE641C062CF8DBDE
:10297000064800F06CFA04E003E0FF20024908700A
:1029800000BF00BFFF2570BD9C050020B5050020DD
:102990002DE9F04705460E4614460027B846B946CD
:1029A00001F0C4FD01F09EFD81460021184802F0AF
:1029B0000EFA01F0A3F89FED171ADFED170AB7EE34
:1029C000000A00F0ABFD18E03146284601F0EEFCAD
:1029D000804601F087FD81461A2000F007FFA145DF
:1029E00001D301270CE0962003F0D8FA0021084615
:1029F00001F0FAFE322003F0D1FAB8F1000FE3D073
:102A000000BF00F0B3FDFFF725FF3846BDE8F087B3
:102A1000000C004000000000CDCCCC3D10B5FDF70F
:102A20004FFF4720FDF720FF00240EE0FDF7D2FE08
:102A300008490855032C03D10120FDF7F5FE02E0FB
:102A40000020FDF7F1FE601CC4B2032CEEDBFDF7A5
:102A500053FF10BD0E00002070B5002100230F228F
:102A6000C4781CB3174C246804F4E064C4F5E06433
:102A7000C4F30721C1F10404E3B20A4144789C4045
:102A8000E1B28478144021430C07210E0E4C0578E6
:102A90006155047804F01F050124AC4005786D11E0
:102AA000AD0005F1E025C5F8004109E0047804F027
:102AB0001F050124AC40054D0678761145F82640E7
:102AC00070BD00000CED00E000E400E080E100E0FB
:102AD00002490143024A1160704700000000FA05F4
:102AE0000CED00E030B50346012902D119484078C9
:102AF00001E01948407804461878164D2D78A84210
:102B000026D15878A04223D1D879124DED79A84228
:102B10001ED1987803281BD1D878012802D10AB990
:102B2000187930BDD878022812D1012A01D118793C
:102B3000F7E7022A01D15879F3E7032A08D1187977
:102B4000012803D15879012800D1EAE70220E8E7FB
:102B50000020E6E75E0600206606002001460878B1
:102B60000B4A1278904211D14878094A5278904223
:102B70000CD1C879064AD279904207D188781028BA
:102B800004D1C878012801D1087970470020FCE7FA
:102B9000760600202DE9FC4104460D4616461F46E8
:102BA000124800788DF80000104840788DF8010038
:102BB0008DF802408DF803508DF804608DF8057093
:102BC0009DF805309DF804209DF803109DF8020043
:102BD00003F0B8F98DF806000448C0798DF80700B5
:102BE00069460220FDF7B9FDBDE8FC8126060020FC
:102BF00010B50446207830B900231A460121084652
:102C0000FFF7C8FF02E0204600F001F810BD10B544
:102C10000446A378627821781020FFF7BBFF4FF4B9
:102C2000C87003F0BBF963792279E1781120FFF7CE
:102C3000B1FF642003F0B2F910BD01468878012885
:102C400006D1C87820B90879052801D1012070473C
:102C50000020FCE70120014908707047F7050020BB
:102C60000146887870470146C87870470146087960
:102C700070470146487970472DE9FC4104460D46EE
:102C800016461F46124800788DF80000104840781C
:102C90008DF801008DF802408DF803508DF8046026
:102CA0008DF805709DF805309DF804209DF80310FF
:102CB0009DF8020003F046F98DF806000448C0793B
:102CC0008DF8070069460220FDF747FDBDE8FC814D
:102CD0001E06002070B504460A20B4FBF0F100FB8C
:102CE0001141B4FBF0F00A22B0FBF2F302FB130037
:102CF00001EB0010C5B2642094FBF0F0C6B22B4685
:102D0000324600210420FFF7B7FF70BD10B504461E
:102D100000231A4621460320FFF7AEFF10BD08B579
:102D200000200346024601460090022000F065F8AC
:102D30004FF4967003F032F9002003460246014634
:102D40000090022000F059F84FF4967003F026F935
:102D500000200346024601460090022000F04DF894
:102D600008BD000010B50446204602F0E7F8012037
:102D70000149087010BD0000F60500202DE9FC4156
:102D800004460D4616461F46124800788DF800008E
:102D9000104840788DF801008DF802408DF80350FE
:102DA0008DF804608DF805709DF805309DF80420BD
:102DB0009DF803109DF8020003F0C4F88DF806009A
:102DC0000448C0798DF8070069460220FDF7C5FC6C
:102DD000BDE8FC813606002010B5044634B9002356
:102DE0001A4601212020FFF7C9FF05E000231A46FB
:102DF00021461020FFF7C2FF10BD2DE9FC4104461B
:102E00000D4616461F46DDF8208055208DF800003F
:102E10008DF801408DF802508DF803608DF8047034
:102E20008DF805809DF805309DF804209DF803106D
:102E30009DF8020003F086F88DF80600BB208DF89F
:102E4000070069460220FDF788FCBDE8FC8110B54B
:102E5000044621460120FDF780FC10BD014608789C
:102E6000552806D1C879BB2803D1487808B14878DD
:102E700070470020FCE700002DE9FF5F06464FF099
:102E800000090024A2464FF01E08002702F008F8AF
:102E900002F006F8C82003F081F8002546E035B9B5
:102EA00001F0FEFF07468146012003F077F84DF858
:102EB000257004214C48FFF76DF94FF4FA7003F0C8
:102EC0006DF84FF4FA7003F069F84FF4FA7003F0FC
:102ED00065F84FF0000B24E001F0E2FF0746012007
:102EE00003F05CF85DF82500A0EB0800B84215DCA3
:102EF0005DF825004044B84210DB04213A48FFF752
:102F000049F94FF4FA7003F049F84FF4FA7003F0FE
:102F100045F84FF4FA7003F041F800E004E00BF1DB
:102F2000010BBBF1060FD7DB00BF6D1C042DB6DB18
:102F30000421684602F0E3FF002006E05DF820105F
:102F4000494501D1441C02E0401C0428F6DB00BFC7
:102F5000B44202D8A6EB040A23E0012E04D0022ECC
:102F600011D0032E1BD117E0042C02D14FF0010A1F
:102F700008E0032C02D14FF0020A03E0022C01D139
:102F80004FF0030A0CE0042C02D14FF0020A02E0D9
:102F9000032C00D1A24603E04FF0030A00E000BF7B
:102FA00000BFBAF1000F09D0BAF1010F07D0BAF192
:102FB000020F09D0BAF1030F10D10AE00FE004218B
:102FC0000948FFF7E7F80AE004210848FFF7E2F8AC
:102FD00005E004210648FFF7DDF800E000BF00BF70
:102FE000204604B0BDE8F09FF8050020FC05002055
:102FF000000600202DE9FC4104460D4616461F46FA
:10300000DDF82080094800788DF800008DF8014037
:103010008DF802508DF803608DF804708DF80580EE
:1030200069460120FDF799FBBDE8FC8110060020F0
:1030300038B504460D46E0780090A3786278217890
:103040002020FFF7D7FF4FF4FA7002F0A7FF68784F
:1030500000902B78627921791020FFF7CBFF642054
:1030600002F09CFF38BD00000020024908700249B0
:1030700008707047F7050020F605002010B50C48D1
:103080000078552811D10A48407801280DD0084809
:103090004078AA2809D00648C079BB2805D1044940
:1030A0000220FDF75AFB012010BD0020FCE70000C4
:1030B0008C0A002010B556480078552877D154481E
:1030C000C079BB28FAD152484078AA2870D150481C
:1030D0008078A22821D00CDC45284AD004DC402886
:1030E00031D0412870D139E046284DD0A1287CD17B
:1030F00008E0A3281CD0A52868D0AE284CD0AF2863
:1031000073D156E00120434908604148C078012846
:1031100002D100204049087068E03D48C0783F492E
:1031200008703B48007948703948407988705DE004
:103130003748C0783949C870354800790871344833
:103140004079487152E03248C078354908703048BB
:10315000007948702E484079887047E02C48C07844
:103160002F49C8702A480079087129484079487168
:103170003CE02748C0782B49087025480079487002
:1031800023484079887031E02148C0782549C870CB
:103190001F480079087129E01D48C078224908704D
:1031A0001B48007948701A48407988701EE02AE070
:1031B0001DE01748C0781C49C8701548007908718F
:1031C00013484079487111E00FE0FFE71048C078DC
:1031D0001649087008460078022805DA0846007883
:1031E000072801DD0220087000E000BF0EE008485B
:1031F00040780E2808D106488078022806D1044875
:10320000C0780B49087001E0FFF730FB10BD0000EB
:103210008C0A0020B8060020AE060020930600208D
:103220009A060020A10600208C060020AD06002092
:10323000B606002010B504462078552861D1607884
:10324000AA285ED1E079BB285BD1A07805282FD0D1
:1032500008DC01280FD0022810D0032816D004283B
:103260004ED11BE006282DD0A0282FD0AA2831D07F
:10327000AB2845D139E0FFF7EDFA41E023796279D7
:1032800003EB0221E078FFF779FA39E023796279DC
:1032900003EB0221E078FFF753F831E0E07830B13A
:1032A0002379627903EB0221E078FFF74CF927E0FC
:1032B000E07830B12379627903EB0221E078FFF7FF
:1032C00021FA1DE0E078FFF73BFA19E0082001F051
:1032D00063FB15E00B48C0780B490870094800797A
:1032E00048700848407988700AE00648C078064966
:1032F000C87004480079087102484079487100BFDD
:1033000000BF10BD8C0A0020A606002000B5204892
:10331000FFF7A4FD062828D006DC012830D00328BA
:1033200007D005282DD112E00D2808D0102828D16B
:1033300015E01748FFF781FC1649087022E00022CB
:1033400001211348FFF7CEFB134908701AE0002251
:1033500011460F48FFF7C6FB0F49087012E00C48F2
:10336000FFF7FCFB0D4908700CE00948C0780C49D8
:10337000087007480079487005484079887001E076
:1033800000E000BF00BF00200649087000BD00003B
:10339000540B0020F0050020F1050020F20500206C
:1033A000F305002081020020184880ED000A18482B
:1033B000D0ED000A70EE800AC0ED000A1548D0ED8D
:1033C000000A70EE600A1448C0ED000A1348D0ED00
:1033D000000A0E4890ED001A60EE810A104890ED48
:1033E000001A0B48D0ED001A41EE210A0D4890ED6D
:1033F000001A0948D0ED001A41EE210A0A48C0ED32
:10340000000A044880ED000A70470000D80500203B
:10341000DC050020E8050020E0050020C0050020B4
:10342000C4050020C8050020E4050020DFED340AB3
:10343000B0EE600AF32852D010DCBF2827D006DC9B
:103440003F2847D07F2827D09F2857D13DE0CF285D
:1034500036D0DF2816D0EF2850D109E0A0F1F701CF
:1034600008294BD2DFE801F0094A404A1D452227CE
:10347000FFEE000AB0EE600A40E0F7EE000AB0EEA0
:10348000600A3BE0F8EE000AB0EE600A36E0F8EEC3
:10349000080AB0EE600A31E0DFED1A0AB0EE600A09
:1034A0002CE0F0EE000AB0EE600A27E0F0EE080A29
:1034B000B0EE600A22E0DFED140AB0EE600A1DE013
:1034C000DFED120AB0EE600A18E0DFED110AB0EE8F
:1034D000600A13E0DFED0B0AB0EE600A0EE0DFEDEC
:1034E0000D0AB0EE600A09E0DFED0B0AB0EE600AEB
:1034F00004E0DFED050AB0EE600A00BF00BF7047D0
:1035000000000000CDCC4CC0CDCC4C40CDCCCCBFCD
:10351000666626C0CDCCCC3F666626400D48D0ED11
:10352000001A0D48C0ED001A0C48D0ED001A0C48E6
:10353000C0ED001A0B48D0ED001A0B48C0ED001A80
:10354000084880ED000A0548C0ED000A014880EDFA
:10355000001A7047C8050020D4050020C4050020CB
:10356000D0050020C0050020CC050020094890EDC2
:10357000000A094880ED000A084890ED000A084852
:1035800080ED000A074890ED000A074880ED000A28
:1035900070470000CC050020C0050020D0050020A9
:1035A000C4050020D4050020C805002070B52DED0D
:1035B000028B04469FED230AB0EE408A0820FEF7F6
:1035C000A5FCC5B22846FFF731FFB0EE408AB5EE44
:1035D000C08AF1EE10FA12D10820FEF767FC03282A
:1035E00004DD9FED190ABDEC028B70BD00F086FA78
:1035F0002146204601F0F8F89FED120AF3E7B0EEFD
:10360000480AFFF7D1FE00EE104AB8EE400A0F4A12
:10361000D2ED000A30EE600ABDEEC00A10EE101ABC
:1036200000EE104AB8EE400AD2ED000A30EE200A51
:10363000BDEEC00A10EE100A01F0D6F8034890ED76
:10364000000AD0E7000000000000C642E4050020A8
:1036500070B52DED028B04469FED5F0AB0EE408AF7
:103660000820FEF753FC05462846F32D63D010DCF6
:10367000BF2838D006DC3F2858D07F2838D09F2874
:1036800068D14EE0CF2847D0DF2827D0EF2861D17E
:103690001AE0F73809285DD2DFE800F01B5C525CC5
:1036A0002F57343905000720FEF730FC7F280AD158
:1036B00000F024FA2146204601F096F89FED470AD3
:1036C000BDEC028B70BD00BFBFEE000AB0EE408AB9
:1036D00045E0B7EE000AB0EE408A40E0B8EE000ADE
:1036E000B0EE408A3BE0B8EE080AB0EE408A36E021
:1036F0009FED3B0AB0EE408A31E0B0EE000AB0EE3A
:10370000408A2CE0B0EE080AB0EE408A27E09FED38
:10371000350AB0EE408A22E0B8EE000AB0EE408AE8
:103720001DE0B8EE080AB0EE408A18E09FED2C0AC2
:10373000B0EE408A13E0B0EE000AB0EE408A0EE030
:10374000B0EE080AB0EE408A09E09FED260AB0EE1E
:10375000408A04E09FED200AB0EE408A00BF00BF1F
:10376000B5EEC08AF1EE10FA08D100F0C7F9214693
:10377000204601F039F89FED180AA1E79FED170ADE
:10378000B4EE408AF1EE10FA22D0B0EE480AFFF70C
:103790000BFE00EE104AB8EE400A134AD2ED000AC2
:1037A00030EE600ABDEEC00A10EE101A00EE104AAC
:1037B000B8EE400AD2ED000A30EE200ABDEEC00A93
:1037C00010EE100A01F010F8074890ED000A77E7B4
:1037D0009FED020A74E70000000000000000C642EE
:1037E000CDCC4CC0CDCC4C40E405002010B52DED27
:1037F000028B04469FED560AB0EE408A0820FEF781
:1038000085FBF32851D010DCBF2826D006DC3F28EA
:1038100046D07F2826D09F2856D13CE0CF2835D0EF
:10382000DF2815D0EF284FD108E0F73808284BD211
:10383000DFE800F0094A404A1D4522279FED450A6E
:10384000B0EE408A45E09FED440AB0EE408A40E089
:10385000B8EE000AB0EE408A3BE0B8EE080AB0EEDF
:10386000408A36E09FED3D0AB0EE408A31E0B0EE8E
:10387000000AB0EE408A2CE0B0EE080AB0EE408AB2
:1038800027E09FED370AB0EE408A22E09FED350A2F
:10389000B0EE408A1DE09FED340AB0EE408A18E099
:1038A0009FED2E0AB0EE408A13E09FED300AB0EE95
:1038B000408A0EE09FED2E0AB0EE408A09E09FEDAF
:1038C000280AB0EE408A04E09FED210AB0EE408A5B
:1038D00000BF00BFB5EEC08AF1EE10FA0AD100F0C9
:1038E0000DF92146204600F07FFF9FED190ABDEC3F
:1038F000028B10BD9FED1F0AB4EE408AF1EE10FA64
:1039000022D0B0EE480AFFF74FFD00EE104AB8EEA5
:10391000400A194AD2ED000A30EE600ABDEEC00A34
:1039200010EE101A00EE104AB8EE400AD2ED000A6E
:1039300030EE200ABDEEC00A10EE100A00F054FF6F
:103940000D4890ED000AD2E79FED0A0ACFE700008C
:1039500000000000CDCC8CBFCDCC8C3FCDCC4CC07A
:10396000CDCC4C40CDCCCCBF666626C0CDCCCC3FB8
:10397000666626400000C642E405002010B52DED25
:10398000028B04469FED560AB0EE408A0820FEF7EF
:10399000BDFAF32851D010DCBF2826D006DC3F2822
:1039A00046D07F2826D09F2856D13CE0CF2835D05E
:1039B000DF2815D0EF284FD108E0F73808284BD280
:1039C000DFE800F0094A404A1D452227B8EE000A08
:1039D000B0EE408A45E0B0EE000AB0EE408A40E02A
:1039E000B8EE040AB0EE408A3BE0B8EE080AB0EE4A
:1039F000408A36E09FED3B0AB0EE408A31E0B0EEFF
:103A0000040AB0EE408A2CE0B0EE080AB0EE408A1C
:103A100027E09FED350AB0EE408A22E0B8EE000ABA
:103A2000B0EE408A1DE09FED310AB0EE408A18E00A
:103A30009FED2C0AB0EE408A13E0B0EE000AB0EE23
:103A4000408A0EE09FED2A0AB0EE408A09E09FED21
:103A5000260AB0EE408A04E09FED210AB0EE408ACB
:103A600000BF00BFB5EEC08AF1EE10FA0AD100F037
:103A700045F82146204600F0B7FE9FED190ABDEC3F
:103A8000028B10BD9FED1B0AB4EE408AF1EE10FAD6
:103A900022D0B0EE480AFFF787FC00EE104AB8EEDD
:103AA000400A154AD2ED000A30EE600ABDEEC00AA7
:103AB00010EE101A00EE104AB8EE400AD2ED000ADD
:103AC00030EE200ABDEEC00A10EE100A00F08CFEA7
:103AD000094890ED000AD2E79FED060ACFE7000003
:103AE00000000000CDCC4CC0CDCC4C40666626C05A
:103AF000666626400000C642E40500209FED0F0ADE
:103B00000F4880ED000A9FED0D0A0E4880ED000A77
:103B10009FED0A0A0C4880ED000A9FED080A0B4849
:103B200080ED000A9FED050A094880ED000A9FED2F
:103B3000030A084880ED000A7047000000000000FA
:103B4000D8050020DC050020E0050020E405002069
:103B5000E8050020EC05002010B52DED048BB0EE3B
:103B6000080A164880ED000A90ED000ADFED140AFD
:103B700020EE200A80ED000A9FED120A124880ED27
:103B8000000A90ED000ADFED0E0A20EE200A10EE8A
:103B9000101A0846FCF7D7FB41EC190B9FED0B0BF5
:103BA00053EC102BFCF74FFB41EC180BFCF7DEFB42
:103BB00005490860BDEC048B10BD00001C0000200E
:103BC0000000C84200CC0D41180000200000000099
:103BD0000070A74010B503211420FDF79FFE10BD13
:103BE00010B5142000F02FFC044604F0030018B9AF
:103BF0000321142000F04AFE10BDF0B587B0054641
:103C0000002708210846FDF789FE00210D2002F05B
:103C10008DF880210E20FDF781FE93208DF80400A1
:103C200020208DF8050006A801AB022201A9009012
:103C30000C2000F051F8064686B9002407E001A8E0
:103C4000005D285501A8005D4740601CC4B2042CEB
:103C5000F5DB01A8005DB84200D0FE2680210E20D1
:103C600000F014FE304607B0F0BD2DE9F04387B0F8
:103C700006460F46904699468DF804608DF805700B
:103C8000002406E018F8041001AAA01C1154601CBE
:103C9000C4B2062CF6DB002407E019F8041001AAD0
:103CA00004F108001154601CC4B2062CF5DB06A810
:103CB00001AB0C2201A900900E2000F00DF8054682
:103CC0002DB9082000F0BFFB00F0080000B9FE2568
:103CD000284607B0BDE8F0832DE9FE4F064688462A
:103CE00091469A46DDF830B0FE2002900020019007
:103CF00000900C2E06D00E2E09D11220019010201B
:103D0000009005E0772001903020009000E000BF97
:103D100000BF019840F08001022002F007F88021E6
:103D20000420FDF7FBFD0021012001F0FFFF8021B1
:103D30000A2000F0ABFD002505E018F80510092069
:103D400001F0F4FF6D1C4D45F7D33146012001F021
:103D5000EDFF0C2E03D180210D2000F097FD4FF4D4
:103D6000167500BF042000F06EFB04466D1E35B1D1
:103D700004F0010018B9009820400028F2D08021FA
:103D80000D20FDF7CBFD95B3062000F05CFB00F0A5
:103D90001B0068BB002002900198204000F0010049
:103DA00008B1FF2002900C2E24D10A2000F04BFB1A
:103DB00004460C2000F047FB00F007072FB1601EFF
:103DC00007EBC000CBF8000002E0E000CBF80000F9
:103DD00004B90124122C00DD1224002505E009207D
:103DE00000F031FB0AF805006D1CA542F7D301E095
:103DF000FE20029080210C2000F048FD00210120CF
:103E000001F094FF0298BDE8FE8FF0B587B005463B
:103E10000E4630208DF804008DF805500DF1060295
:103E2000022101A8FDF77EF806A801AB042201A932
:103E300000900C20FFF750FF074667B906989028BE
:103E400009D1002404E001A8005D3055601CC4B213
:103E5000102CF8DB00E0FE27384607B0F0BD70B547
:103E600088B005460C4608210846FDF757FD072196
:103E70000D2001F05BFF0321142000F007FD8DF8F9
:103E8000085007A802AB012202A900900C20FFF7FE
:103E900023FF06464EB90798102806D19DF8080062
:103EA00020709DF80900607000E0FE26304608B0E2
:103EB00070BD10B500F0A8FA08B1FE2010BD0F21AA
:103EC000012001F033FF3D21112001F02FFF1E21C1
:103ED0002D2001F02BFF00212C2001F027FF8D2148
:103EE0002A2001F023FF3E212B2001F01FFF40215B
:103EF000152001F01BFF0020E0E770B588B00546F3
:103F000093208DF8080070208DF8090000208DF8AE
:103F10000E0000240BE0295D02AAA01C11549DF89C
:103F20000E00295D48408DF80E00601CC4B2042CC0
:103F3000F1DB0DF10F02072102A8FCF7F3FF0821C6
:103F40000846FDF7EBFC07A802AB092202A9009086
:103F50000C20FFF7C1FE064626B90798182801D1A4
:103F6000002600E0FE26304608B070BD10B50320E4
:103F7000FDF788FF514908800846008800F0C0FD21
:103F80004E4908804E4801884C480088FEF7A4F945
:103F90004C4908704A480088F0BB4B48D0ED000AF5
:103FA0004648008800EE100AB8EE400A20EE800A6B
:103FB000BCEEC00A10EE100A40490880084600888E
:103FC00000EE100AB8EE400A4048D0ED000AB4EE08
:103FD000E00AF1EE10FA03D200203D49087016E025
:103FE0003648008800EE100AB8EE400A3748D0ED97
:103FF000000A30EE600ABCEEC00A10EE100A344926
:10400000087008460078642801DD64200870304894
:1040100000783049087000E004E00846017801208B
:1040200000F0BEFB25480088254908802548007817
:104030000A2842DD2448D0ED000A2048008800EE1E
:10404000100AB8EE400A20EE800ABCEEC00A10EE5C
:10405000100A1A4908800846008800EE100AB8EED7
:10406000400A1A48D0ED000AB4EEE00AF1EE10FA68
:1040700003D200201649087016E01048008800EEB0
:10408000100AB8EE400A1148D0ED000A30EE600A7E
:10409000BCEEC00A10EE100A0D4908700846007800
:1040A000642801DD64200870094800780949087017
:1040B00008460178012000F073FB10BD22000020AB
:1040C0002400002026000020180000201C000020F2
:1040D000200000201400002010B586B00446012105
:1040E000084600F043F80121102000F06FF8072285
:1040F00009211B48FDF7D5FD07220A211848FDF7C5
:10410000D0FD4FF4C060049002208DF81400002010
:104110008DF8160001208DF8170003208DF815008A
:1041200004A90F48FDF775FD00940020ADF80C00C0
:104130000C20ADF80A000020ADF80800ADF806002C
:10414000ADF804006946074801F048FB0121054825
:1041500001F0DBFA00200449087006B010BD000031
:1041600000000240001001404800002029B1064A2A
:1041700012680243044B1A6004E0034A1268824347
:10418000014B1A60704700003038024029B1064ADE
:1041900012680243044B1A6004E0034A1268824327
:1041A000014B1A60704700004038024029B1064AAE
:1041B00012680243044B1A6004E0034A1268824307
:1041C000014B1A60704700002038024029B1064AAE
:1041D00012680243044B1A6004E0034A12688243E7
:1041E000014B1A60704700004438024029B1064A6A
:1041F00012680243044B1A6004E0034A12688243C7
:10420000014B1A607047000024380240F0B50021CD
:1042100000220024022500260223324F3F6807F0C7
:104220000C0121B1042905D0082937D105E02E4F12
:10423000076036E02D4F076033E02A4F3F1F3F688D
:10424000C7F38056274F3F1F3F6807F03F036EB10B
:10425000264FB7FBF3F7DFF88CC0ACF1040CDCF8A9
:1042600000C0CCF3881C07FB0CF40CE01E4FB7FB1E
:10427000F3F7DFF870C0ACF1040CDCF800C0CCF34D
:10428000881C07FB0CF4174F3F1F3F68C7F301471B
:104290007F1C7D00B4FBF5F7076002E0124F07605A
:1042A00000BF00BF0F4F3F6807F0F0010909104F32
:1042B0007A5C0768D74047600A4F3F6807F4E051CF
:1042C000890A0B4F7A5C4768D7408760054F3F6883
:1042D00007F46041490B064F7A5C4768D740C760D6
:1042E000F0BD0000083802400024F40040787D0151
:1042F000E80000202DE9F04704460D4616461F460B
:10430000A5EB04084FF00009CA469FED1F1ADFED28
:104310001F0AB3EE090AFFF701F91D48B0F90000C2
:10432000804428E02420FFF793F9BCEEC00A10EE89
:10433000100A00F0FF0ABAF1630F0FD1B9F1010FB3
:104340000CD0FA2113480068FEF718FA50223946BB
:104350003046FEF71DFB08B94FF001090C48B0F9D3
:104360000000404504DB0021084600F03DFA03E070
:10437000012001F013FED5E700BFFFF7F7F8FEF7C5
:1043800069FA4846BDE8F087000096430000000047
:1043900032010020A0050020024601EB8200401EF1
:1043A000C0B2704700487047980C002070B50446B2
:1043B0000D4612495220FFF752FDE0B91048FFF7B1
:1043C0001CFCC0B90E48FFF798FDA0B9E01704EB3C
:1043D00090708010032202EB8000C1B2084B2A4685
:1043E0006020FFF742FC30B906492046FFF70DFD7B
:1043F00008B9012070BD0020FCE700004900002042
:104400004B000020980C002038B5FE2500200090BD
:10441000002400BF12E0552000F01EFA42F2107195
:10442000684600F031F838B9552000F015FA6420DC
:1044300001F0B4FD002503E0601C84B2642CEADBCB
:1044400000BF68B238BD38B5044604F03F0040F004
:104450008004204600F000FA42F21071684600F035
:1044600013F805460DB1FF2038BD9DF80000FBE7AD
:1044700010B54FF41650FFF72FFE4FF4FA7001F00D
:104480008DFDFDF7E1FE10BD70B504460D4601F04F
:10449000D1FD4FF4FA61B5FBF1F146180AE00A4884
:1044A000008800F0200028B1074801F001FA2070D0
:1044B000002070BD304601F0C3FD0028EFD1034954
:1044C00008700120F5E700000010014048000020BE
:1044D00010B5FDF735FD02F045F802F025F800F0C3
:1044E0001BFE10BD0F48B0F900000F4AB2F90020C2
:1044F000904207DD0B48B0F900000B4AB2F90020EA
:10450000811A06E00848B0F90000064AB2F9002016
:10451000811AB1F5004F02D94FF6FF70411A88B2E7
:104520007047000032010020180100200248B0F955
:104530000000024908807047320100201801002065
:1045400010B52448006801F07BFD002840D101F03F
:1045500071FD32301F4908601F48007848B90020BB
:104560001E49086001201E49C1F8B0021A490870AE
:104570002EE01948007801280BD1002017490C398A
:10458000086001201649C1F8B402022012490870DF
:104590001EE01148007802280BD100200F4908398D
:1045A000086001200E49C1F8B80203200A490870CA
:1045B0000EE00948007803280AD100200749091FA6
:1045C000086001200649C1F8BC02002002490870B9
:1045D00010BD0000FC030020F7030020BC82434212
:1045E000008043421CB50120032100231A46CDE977
:1045F000001080210148FDF782FB1CBD0004024031
:104600001CB50020032103460122CDE900108021C2
:104610000148FDF774FB1CBD0004024030B50022C8
:104620008B071C0F0F2303FA04F20B4B8C1053F86B
:1046300024309343084C8D1044F8253023468C10C9
:1046400053F824308C07240F00FA04F42343024C5F
:104650008D1044F8253030BD083801403EB5044681
:10466000FCF764FE002016E0A4F11001002910D52B
:10467000092801DD373000E03030092C01D937340A
:1046800000E03034C1B28DF80610E1B28DF80710A9
:1046900003E0103C401C1928E6DB00BF30208DF8F9
:1046A000040078208DF8050020208DF808000020F7
:1046B00003464FF470720521009001A8FCF7F0FD4D
:1046C0004FF4C87001F090FC3EBD2DE9F04186B07A
:1046D000054601262F4600E0761C0A2097FBF0F0E5
:1046E000071EF9D1344600BF12E021460A2001F02E
:1046F00067FDB5FBF0F100FB1158611E0A2001F0C7
:104700005FFDB8FBF0F0303002A9C855641E7F1C75
:10471000012CEADA0020F1B203464FF470720090E7
:1047200002A8FCF7BDFD4FF4C87001F05DFC06B0B7
:10473000BDE8F08110B504462046FFF7C6FF02A091
:1047400000F004F810BD00000A00000070B5044637
:104750000025207860B1264601E0681CC5B214F837
:10476000011B0029F9D12946304600F02FF803E05B
:10477000022104A000F02AF84FF47A7001F034FC12
:1047800070BD00000A00000010B504462046FFF787
:10479000DDFF022101A000F019F810BD0A000000A1
:1047A0007CB505460C4603208DF8040001208DF8E9
:1047B00005008DF8064000204FF4F073032201A994
:1047C00000901046FCF7DEFE7CBD000070B504468C
:1047D0000D462A4621460348FDF78FF9642001F073
:1047E00003FC70BD580800207CB504460D46E0B2BD
:1047F0008DF80400E0B28DF80500E8B28DF80600EF
:10480000E8B28DF80700FCF785FD78B1002003467B
:1048100020220421009001A8FCF742FD0020202363
:10482000024601A90090FCF7ADFE06E0002020231F
:10483000042201A90090FCF7A5FE7CBD70B50446DA
:104840000D462A4621460348FDF757F9642001F03A
:10485000CBFB70BD9808002010B504460A480088BC
:1048600000BF0948008800F080000128F9D02146E7
:10487000054801F022F800BF4021034800F051FF35
:104880000128F9D110BD00000010014070B50546A7
:104890000C4600262846FFF7D6FD064646EA0401E8
:1048A000284601F043FA002070BD00000CB500203E
:1048B000019000903448006840F48030324908602C
:1048C00000BF3148006800F4003000900198401C9F
:1048D0000190009818B90198B0F5A04FF1D12A487D
:1048E000006800F4003010B10120009001E00020C9
:1048F00000900098012846D123484030006840F0DD
:1049000080502149403108602048006840F4404010
:104910001E4908601C48083000681B4908310860BF
:104920000846006840F4004008600846006840F40B
:10493000A05008601648091F0860081F006840F072
:104940008070091F086000BF0F48006800F0007009
:104950000028F9D040F205700E4908600A48083076
:10496000006820F003000849083108600846006824
:1049700040F00200086000BF03480830006800F003
:104980000C000828F8D10CBD00380240007000402F
:1049900019544007003C0240014A10707047000063
:1049A0009C05002010B50446FBF78AFF4620FBF764
:1049B0005BFF2046FBF758FFFBF79EFF10BD000092
:1049C00010B504462046FEF74BF90A2824D008DC2F
:1049D00001280FD003281BD008285ED009287DD1DC
:1049E0006BE00B2828D00C2836D00D2844D0B028F6
:1049F00074D151E03B48007848B100203949087033
:104A000000F0B0FA38A0FFF7BFFE01F00BFD66E042
:104A100037A0FEF7EDF862E02046FEF724F93549AD
:104A200008602046FEF722F9324948602046FEF72A
:104A300020F93049886052E02046FEF714F92D49EC
:104A4000C8602046FEF712F92A4908612046FEF7A1
:104A500010F92849486142E02046FEF704F926494A
:104A600008702046FEF702F9234948702046FEF7F9
:104A700000F92149887032E02046FEF7F4F81E491B
:104A8000C8702046FEF7F2F81B4908712046FEF771
:104A9000F0F81949487122E021E02046FEF7E3F8DA
:104AA000164908702046FEF7E1F814494870204680
:104AB000FEF7DFF81149887011E02046FEF7D3F8C1
:104AC0000E49C8702046FEF7D1F80C4908712046FF
:104AD000FEF7CFF80949487101E0FFE700BF00BFCA
:104AE00010BD0000F6050020532D3E676F0000004A
:104AF00000000000800C0020A9050020B505002062
:104B000010B5024600230B48828200210BE0094CBD
:104B1000481C34F8100024F81100204630F8110029
:104B2000184483B2491C0A29F1DB0A2093FBF0F0F8
:104B300080B210BDF0070020042808D14FF0E0211A
:104B4000096941F004014FF0E022116107E04FF0E4
:104B5000E021096921F004014FF0E0221161704762
:104B600010B51548006840F47000134908601348F8
:104B7000006840F001001149086000200F49083129
:104B800008600E4800680E4908400C4908600D484E
:104B9000091D0860081F006820F48020091F0860B4
:104BA000002006490C310860FFF780FE4FF00060DE
:104BB00001498039086010BD88ED00E000380240EE
:104BC000FFFFF6FE1030002410B50121054800F06B
:104BD0000AF9012801D1FFF77BFC0121014800F00F
:104BE000F3F810BD0040014010B50121074800F066
:104BF000FAF8012804D106480068401C04490860FE
:104C00000121024800F0E0F810BD0000004401401E
:104C1000E000002010B50121880700F0E4F8012829
:104C20002DD11948007868B118480178002000F0AB
:104C300083F9012001F0B2F915480178012000F054
:104C40007BF907E06321002000F076F96321012061
:104C500000F072F90F48006860B10F480068B0F5C5
:104C6000FA7F07DB00200C4908600A480068401EF4
:104C70000849086008480068401C0749086001218D
:104C8000880700F0A1F810BDBC060020BD0600207A
:104C9000BE060020C0060020C806002010B5012175
:104CA000074800F0A0F8012804D106480088401CFD
:104CB000044908800121024800F086F810BD000078
:104CC00000040040EC03002010B50121074800F06B
:104CD0008AF8012804D10648007808B1FEF716FBCF
:104CE0000121024800F070F810BD000000080040EB
:104CF0008102002010B501210C4800F074F8012851
:104D00000FD10B48007860B1FEF7D4F900200849B4
:104D1000087000BF03E00021064A1154401C0A2815
:104D2000F9DB0121014800F04FF810BD000C0040F4
:104D30007F0200208C0A002010B50121074800F0F6
:104D400052F8012804D106480068401C0449086054
:104D50000121024800F038F810BD000000100040AA
:104D60000400002010B50121054800F03CF801289E
:104D700001D1FDF7F3F90121014800F025F810BD3C
:104D80000014004010B501210C4800F02CF8012857
:104D90000ED10B480078401C09490870084600787D
:104DA000142805DD01200749087000200449087017
:104DB0000121024800F008F810BD0000002000406A
:104DC0007A00002079000020CA430282704721B196
:104DD000028842F00102028004E002884FF6FE736E
:104DE0001A400280704730B502460020002300249C
:104DF000158A05EA0103958905EA010413B10CB18E
:104E0000012000E0002030BD1AB183890B4383816B
:104E100002E083898B43838170470000002202886F
:104E2000184B98420ED0184B98420BD0B0F1804FDF
:104E300008D0164B984205D0154B984202D0154B1E
:104E4000984204D14FF68F731A404B881A43124B85
:104E5000984207D0114B984204D04FF6FF431A40B6
:104E60000B891A4302804B68C3620B880385054B8C
:104E7000984202D0044B984201D18B7A03860123D9
:104E8000838270470000014000040140000400409C
:104E900000080040000C00400010004000140040DA
:104EA00070B58AB0002507E0FCF7B0FF4DF825008B
:104EB0000A2001F073F86D1C0A2DF5DB002518E0BF
:104EC000002411E05DF82410601C5DF82000814290
:104ED00009DD5DF82460601C5DF820004DF82400B9
:104EE000601C4DF82060641CC5F10900A042E9DC9B
:104EF0006D1C0A2DE4DBDDE90502811801EBD170A0
:104F0000C0F34F000AB070BD10B500F06DFF00F0A7
:104F100037FF00F0BDFF00F051FF00F08DFF00F003
:104F2000B5FF00F049FF10BD70B504460D46294697
:104F30002046FDF72FF970BD7047000010B50446FC
:104F40000020054908600549086005480460012102
:104F50008807FFF73CFF10BDC8060020C4060020EC
:104F6000C006002010B500214FF08040FFF72FFF52
:104F700010BD00000548006808B1022070470448D1
:104F8000006808B10120F9E70020F7E7C406002017
:104F9000C006002010B500F021FE10BD7FB505460B
:104FA0000C4601210846FFF7F1F80295ADF80440E0
:104FB0000020ADF80600ADF80C008DF80E0001A938
:104FC0004FF08040FFF72AFF1C208DF800000020E2
:104FD0008DF801000A208DF8020001208DF80300F1
:104FE0006846FDF739FD012211469007FFF70CFFD7
:104FF00000214FF08040FFF7EAFE7FBD7FB50546F8
:105000000C4601210420FFF7C1F80020ADF80C0088
:10501000ADF806000295ADF8044001A90D48FFF770
:10502000FDFE012211460B48FFF7EEFE1E208DF813
:10503000000001208DF8030000208DF801000220FF
:105040008DF802006846FDF707FD00210148FFF7D3
:10505000BEFE7FBD000800407FB505460C4601211D
:105060000820FFF793F80295ADF804400020ADF852
:105070000600ADF80C008DF80E0001A90D48FFF7F1
:10508000CDFE32208DF8000000208DF801000220B6
:105090008DF8020001208DF803006846FDF7DCFC66
:1050A000012211460348FFF7AFFE00210148FFF738
:1050B0008EFE7FBD000C00407FB505460C460121E9
:1050C0004804FFF783F80295ADF804400020ADF8DE
:1050D0000600ADF80C008DF80E0001A90D48FFF791
:1050E0009DFE19208DF8000000208DF8010006209B
:1050F0008DF8020001208DF803006846FDF7ACFC36
:10510000012211460348FFF77FFE01210148FFF706
:105110005EFE7FBD0044014010B5064800780128BE
:1051200006D10820FCF7F2FEC4B2204600F004F8D5
:1051300010BD0000FD00002010B5044654B9002049
:10514000B34908700120B349087000210846FFF7F1
:105150004BFB2DE1E72C08D1AF480068AF49086050
:10516000AD480068AE49086022E1F72C01D0F32C6D
:105170000AD1A94800681430A8490860A648006808
:105180002838A749086013E1FB2C01D0F92C0AD17B
:10519000A14800682830A14908609F4800683C3851
:1051A0009F49086004E1FD2C01D0FC2C0AD19A48EB
:1051B00000683C3099490860974800685A38984917
:1051C0000860F5E0FE2C0AD19348006850309349FE
:1051D000086091480068783891490860E8E0EF2C51
:1051E00001D0CF2C0AD18C48006814308C4908605B
:1051F00089480068283889490860D9E0DF2C01D047
:105200009F2C0AD18448006828308549086082486C
:1052100000683C3881490860CAE0BF2C01D03F2CAF
:105220000AD17D4800683C307D4908607A480068B2
:105230005A387A490860BBE07F2C0AD1764800686A
:1052400050307749086074480068783873490860BE
:10525000AEE074480078012815D104F01800182831
:1052600091D104F0800018B104F0010000288AD127
:10527000002067490870012066490870002108462F
:10528000FFF7B2FA94E068480078012871D1182C31
:1052900008D161480068614908605F48006860495A
:1052A000086085E0082C01D00C2C0AD15A4800680F
:1052B00014305A490860584800682838584908602E
:1052C00076E0042C01D0062C0AD15348006828301F
:1052D00052490860504800683C385149086067E00E
:1052E000022C01D0032C0AD14B4800683C304B49BA
:1052F0000860494800685A384949086058E0012C5C
:105300000AD1454800685030444908604248006866
:105310007838434908604BE0102C01D0302C0AD17A
:105320003D48006814303E4908603B480068283812
:105330003A4908603CE0202C01D0602C0AD1364864
:105340000068283036490860334800683C383349E3
:1053500008602DE0402C01D0C02C0BD12E480068F5
:105360003C302F4908602C4800685A382B490860A7
:105370001EE015E0802C0AD12748006850302849EB
:1053800008602548006878382449086010E0224801
:10539000006822490860204800682149086007E049
:1053A0001D4800681D4908601B4800681C490860CA
:1053B000FF2C20D11848006818490860164800687A
:1053C0001749086019480088B0F5966F0DDD002078
:1053D0001649088000210846FFF706FA00200C490C
:1053E000087004200B49087008E010480088401C31
:1053F0000E49088002E000200C490880044800782B
:1054000028B10748016805480068FCF796FA10BD06
:10541000FD000020020100200C01002004010020FA
:10542000080100205405002055050020000100203F
:10543000024600215178107840EA01210846704761
:10544000024600211178507840EA01210846704751
:1054500010B5024800F0FEFA10BD0000C40700209D
:1054600010B51248007800BB40F22551104800F0FA
:1054700065F9012819D10E4800F01AFA0D490E4AB3
:10548000127888540C480078401C0B490870084674
:105490000078022804DB002008700120034908700E
:1054A00040F22551024800F021F910BD0A00002009
:1054B000001001400C0000200B00002010B540F24D
:1054C0002551184800F03AF901282AD116480078E9
:1054D00090B900F0AFFD0A3014490860002014496B
:1054E0000870104800F0E4F91249114A1278885403
:1054F00001200D4908700FE00D480078C8280BDA2C
:10550000084800F0D5F9C1B209480078401CC0B283
:10551000074A1070074A115440F22551014800F023
:10552000E5F810BD004400407F0200208802002002
:105530007E0200208C0A002000B587B001210420E3
:10554000FEF714FE01212020FEF740FE082206216E
:105550002348FCF7A6FB082207212148FCF7A1FB02
:10556000C020059002208DF8180000208DF81A0048
:1055700003208DF8190001208DF81B0005A918489B
:10558000FCF747FB4FF4E13001900020ADF810002C
:105590000C20ADF80E000020ADF80C00ADF80A00AC
:1055A000ADF8080001A90F4800F018F9012240F2F7
:1055B00025510C4800F0ECF847208DF80000002041
:1055C0008DF801008DF8020001208DF80300684677
:1055D000FDF742FA0121034800F097F807B000BD3B
:1055E000000802400014014010B540F225512A483D
:1055F00000F0A4F8002848D0274800F059F92749BE
:1056000008702748007878B90846007855283CD1BA
:1056100001202349087021480078224908700020A1
:1056200048708870C87030E01D48007801280AD1A1
:1056300002201B490870194800781A494870012057
:105640001949087021E016480078022807D1032084
:1056500013490870114800781249887015E0104805
:10566000007803280AD100200D4908700B48007803
:105670000C49C87001200D49087006E00020084957
:1056800008700A4908700749087040F2255102481D
:1056900000F02CF810BD000000140140BD000020F7
:1056A000BE000020BF000020DB000020C70000205B
:1056B00010B504462146054800F0FFF800BF8021E0
:1056C000024800F02EF80028F9D010BD0014014067
:1056D00070B505460E46002400BF04E0285DFFF7C4
:1056E000E7FF601CC4B2B442F8DB70BD10B5002205
:1056F000002340F66A14A14200D100BF0A1201241F
:105700009440A3B2DC43048010BD21B1828942F4ED
:105710000052828104E082894DF6FF731A40828133
:10572000704702460020B1F5007F00D100BF13880A
:105730000B400BB1012000E00020704770B502461D
:10574000002400230025002040F66A16B14200D153
:1057500000BFC1F3421501F01F03012606FA03F34F
:10576000012D02D19689334006E0022D02D1168A1E
:10577000334001E0968A33400C12012606FA04F405
:105780001688344013B10CB1012000E0002070BD38
:10579000F0B50346002400260025002040F66A17D5
:1057A000B94200D100BF1846C1F3421401F01F06F0
:1057B000012707FA06F5012C01D10C3004E0022C78
:1057C00001D1103000E014301AB107682F43076090
:1057D00002E00768AF430760F0BD00002DE9FF4716
:1057E00005460E460024A14600BFA046B08900B180
:1057F00000BF2C8A24F44054F08804432C82AC89E6
:1058000041F20C608443B0883189084371890843B0
:105810000443AC81AC8A24F44074B0890443AC8264
:105820006846FEF7F3FC2048854202D01F488542B7
:1058300002D1DDF80C9001E0DDF80890A88900F4B1
:10584000004040B109EBC90000EB09103168490084
:10585000B0FBF1F707E009EBC90000EB0910316874
:105860008900B0FBF1F76420B7FBF0F004012009D8
:10587000642101FB1078A88900F4004040B1322077
:1058800000EBC800B0FBF1F000F00700044308E0B3
:10589000322000EB08106421B0FBF1F000F00F00A3
:1058A00004432C81BDE8FF87001001400014014033
:1058B00001468888C0F308007047C1F3080282805F
:1058C0007047000010B512481249C1F8B0003221EB
:1058D0001048C0F8B4100021C0F8B810C0F8BC10CF
:1058E000C0F8C0100C49C0F8C4100221C0F8C8109C
:1058F0000021C0F8CC10C0F8D010C0F8D41004219A
:1059000080F8D81000200549087000F009F810BD93
:10591000E0060020140700202800002027000020B7
:1059200000B587B0012140F20910FEF71FFC0121EC
:105930004FF42020FEF72AFC082200214048FCF703
:10594000B0F9072206213F48FCF7ABF900208DF89B
:105950001A0001208DF81B0002208DF8180001208C
:10596000059002208DF8190005A93548FCF751F97A
:1059700002208DF818004020059005A93148FCF759
:1059800048F900208DF81A0001208DF81B008DF8D1
:1059900018000002059002208DF8190005A92A4878
:1059A000FCF737F90020FCF7DDFB4FF4E130019004
:1059B0000020ADF80800ADF80A00ADF80C00ADF815
:1059C00010000820ADF80E0001A92048FFF706FFDF
:1059D00001211E48FFF799FE34208DF800000020B9
:1059E0008DF8010002208DF8020001208DF80300DF
:1059F0006846FDF731F84FF4E13001900420ADF82E
:105A00000E0001A91248FFF7E9FE26208DF80000DC
:105A100000208DF801008DF8020001208DF80300B0
:105A20006846FDF719F8012240F225510848FFF7B2
:105A3000AFFE01210648FFF768FE07B000BD000079
:105A400000000240000C024000200240004C0040D8
:105A50000044004010B5044694F82810374A52F824
:105A6000210040F22771FFF769FE18B3E068401C7F
:105A7000E060D4E90210884209D2E1682068405C05
:105A800094F828102D4A52F82110888009E094F8E3
:105A900028102A4A52F82100002240F22771FFF70D
:105AA00077FE94F82810254A52F8210040F2277119
:105AB000FFF71CFE94F82810204A52F8210040F20B
:105AC0002551FFF73BFE30B300F0B4FA606294F862
:105AD00028001A4951F8200080881949087094F864
