:020000040800F2
:10000000601F00209D010008A5010008A70100084D
:10001000A9010008AB010008AD01000800000000C4
:10002000000000000000000000000000AF01000818
:10003000B101000800000000B3010008B50100088C
:10004000B7010008B7010008B7010008B7010008B0
:10005000B7010008B7010008B7010008B7010008A0
:10006000B7010008B7010008091A0008B701000825
:10007000B7010008B7010008B7010008B701000880
:10008000B7010008B7010008B7010008B701000870
:10009000B7010008B7010008B7010008B701000860
:1000A0004552000865520008B7010008B701000872
:1000B000915200081953000845530008B701000881
:1000C000B7010008B7010008B7010008B701000830
:1000D000B7010008A15B0008FD5B0008B70100083C
:1000E000B7010008B7010008B7010008B701000810
:1000F0004554000801540008B7010008B701000882
:10010000B7010008B701000871530008B7010008E3
:10011000915B0008B7010008B5530008E1530008DF
:10012000B7010008B7010008B7010008B7010008CF
:10013000B7010008B7010008B7010008B7010008BF
:10014000B7010008B7010008B7010008B7010008AF
:10015000B7010008B7010008B7010008295D0008D1
:10016000B7010008B7010008B7010008B70100088F
:10017000B7010008B7010008B7010008B70100087F
:10018000B7010008B7010008DFF80CD000F0BCF997
:10019000004800477D6B0008601F0020064880472C
:1001A00006480047FEE7FEE7FEE7FEE7FEE7FEE75C
:1001B000FEE7FEE7FEE7FEE7DD51000889010008E3
:1001C000202A04DB203A00FA02F100207047914017
:1001D000C2F1200320FA03F3194390407047202A0C
:1001E00004DB203A21FA02F00021704721FA02F3E1
:1001F000D040C2F12002914008431946704740EABE
:1002000001039B0703D009E008C9121F08C0042A94
:10021000FAD203E011F8013B00F8013B521EF9D27B
:100220007047D2B201E000F8012B491EFBD27047A3
:100230000022F6E710B513460A4604461946FFF7B2
:10024000F0FF204610BD421C10F8011B0029FBD115
:10025000801A70472DE9F04D81EA030404F0004B49
:1002600021F0004514464FF0000A23F0004150EA07
:10027000050220D054EA01021DD0C5F30A570246F8
:10028000C5F31303C1F31300C1F30A5640F48015FC
:1002900043F48013A7EB0608101BD64608F2FD387E
:1002A00073EB050002D308F1010801E092185B41ED
:1002B000B8F1000F03DA00200146BDE8F08D002000
:1002C0004FF48011064684460EE0171B73EB0507BA
:1002D00005D3121B63EB050306434CEA010C4908E6
:1002E0004FEA300092185B4150EA0107EDD152EA23
:1002F000030012D082EA040083EA0501084305D016
:10030000101BAB4106D20122002306E000224FF071
:10031000004302E06FF0010253101AEB06004CEBB1
:10032000085110EB0A0041EB0B01BDE8F04D00F065
:100330008DB80EB5C10F80EAE0700844CA070021ED
:1003400040F233438DE80E000A460B4600F08DF86C
:1003500003B000BD00F0004230F000400AD0C10DF3
:1003600001F56071C0F3160042EA0151C20840076E
:100370001143704700200146704701F0004330B43C
:1003800021F0004150EA010206D00A0DA2F5607288
:10039000C1F31301002A02DC30BC00207047440F77
:1003A00044EAC104C100E01830BC00EBC25000F0C8
:1003B00016B830B50B46014600202022012409E082
:1003C00021FA02F59D4205D303FA02F5491B04FA0E
:1003D00002F52844151EA2F10102F1DC30BD00290E
:1003E000A8BF7047401C490008BF20F001007047BB
:1003F00010B4B0FA80FC00FA0CF050EA010404BF1B
:1004000010BC704749B1CCF1200421FA04F411FA70
:100410000CF118BF012121430843A3EB0C01CB1DB4
:100420004FEA00614FEA102042BF002010BC704725
:1004300000EBC35010440029A4BF10BC7047401CFF
:10044000490008BF20F0010010BC704710B5141E11
:1004500073F1000408DA401C41F1000192185B417D
:100460001A4301D120F0010010BD2DE9F04D924654
:100470009B4611B1B1FA81F202E0B0FA80F220326B
:100480009046FFF79DFE04460F4640EA0A0041EA07
:100490000B0153465A46084313D0114653EA010054
:1004A00019D0C8F140025046FFF799FE05460E46A6
:1004B000504659464246FFF783FE084305D00120C7
:1004C00004E020463946BDE8F08D0020054346EAA9
:1004D000E0762C4337430A986305E40AA0EB080052
:1004E0000022FD0A44EA47540A3002D500200146A2
:1004F000E9E7010510196941DDE90845001969417D
:10050000BDE8F04DA2E70000064C074D06E0E068AC
:1005100040F0010394E8070098471034AC42F6D34A
:10052000FFF736FE047400082474000870B58D18B7
:1005300010F8014B14F0030201D110F8012B231124
:1005400006D110F8013B03E010F8016B01F8016BD4
:10055000521EF9D1ABB110F8012B04F00C048A1A29
:100560000C2C03D0A2EB84129B1C08E010F8014B6A
:10057000A2EB0422F8E712F8014B01F8014B5B1ED5
:10058000F9D5A942D4D3002070BDCA430260704798
:1005900021B1826842F00102826003E0826822F0A9
:1005A00001028260704700000021084A1168084A71
:1005B0001140D0E900231A4383681A43C3681A43E1
:1005C0001143044AC2F80413704700000423014099
:1005D000E030FCFF0020014000B58DB0012108464D
:1005E00004F09CF80121080204F0C8F840200190B2
:1005F00003208DF8080000208DF80B0001A9174892
:1006000001F03FFB0020039004900690059003A8A2
:10061000FFF7CAFF0121080204F0C0F800214FF4DF
:10062000807004F0BBF800208DF8200007908DF852
:10063000210009900B9001208DF8300007A908488F
:1006400000F01EF8062301221946054800F042F882
:1006500001210348FFF79CFF0DB000BD00000240E0
:10066000002001400146C86C80B27047024600205D
:1006700013680B400BB1012000E000207047000020
:1006800030B50246002000235068104C20400D7900
:100690000C6844EA05242043506090680C4C2040CC
:1006A000D1E903542C438D682C434D7944EA450429
:1006B00020439060D06A20F470000C7D641EE4B288
:1006C000234340EA0350D06230BD0000FFFEFFFC30
:1006D000FDF7FFC0F0B504460D4600200021092DAE
:1006E00011DDE068A5F10A0606EB4607072606FAC3
:1006F00007F18843A5F10A0606EB460603FA06F160
:100700000843E0600CE0206905EB4507072606FA80
:1007100007F1884305EB450603FA06F1084320611B
:10072000072A0FDA606B561E06EB86071F2606FAAD
:1007300007F18843561E06EB860605FA06F10843C4
:10074000606322E00D2A0FDA206BD61F06EB8607C6
:100750001F2606FA07F18843D61F06EB860605FA20
:1007600006F10843206310E0E06AA2F10D0606EBF3
:1007700086071F2606FA07F18843A2F10D0606EB4D
:10078000860605FA06F10843E062F0BD816841F093
:1007900080418160704770B504460D46012C03D13D
:1007A0000621284604F034FF022C03D108212846F4
:1007B00004F052FB70BD000010B500F009F80120F4
:1007C00004F0F8FB00200149086010BDBC02434260
:1007D00010B50121422003F0A1FF10BD10B504F0B7
:1007E0000FFA012008490860022006F0A1F8074826
:1007F000D0F81C02C4B2002003490860022006F0B1
:1008000097F8204610BD0000988240420080404288
:1008100070B5002404F0F4F90120104908600025A7
:1008200017E06006040E01200C49091F0860022031
:1008300006F07EF80A48D0F81C0208B1601CC4B269
:1008400000200649091F0860022006F071F8681CA4
:10085000C5B2082DE5DB204670BD00009C824042F9
:100860000080404210B5044604F0D8F91CB10120C4
:100870000A49086002E00020084908600120074991
:10088000091F0860022006F053F800200449C1F84F
:100890009802022006F04CF810BD00009C824042F5
:1008A0000080404270B5044604F0B8F900251BE012
:1008B00004F080061EB101200E49086002E000200D
:1008C0000C4908606006040E01200A49091F0860EF
:1008D000022006F02DF800200749C1F898020220F6
:1008E00006F026F8681CC5B2082DE1DBFFF776FF9D
:1008F00070BD00009C8240420080404210B504F070
:100900008DF90120094908600949C1F898020420BD
:1009100006F00EF8002005490860042006F008F8EB
:1009200000200349C1F8980210BD00009C8240429B
:100930000080404210B504F071F9002007490860BA
:1009400001200749C1F89802042005F0F1FF0120B9
:1009500002490860042005F0EBFF10BD9C82404274
:10096000008040422DE9F04104460D460027002654
:1009700057E000202D4908702D49087005212D48A9
:1009800005F046FA4FF4FA7005F0ACFF28480078FD
:1009900070B129480078552807D1274840780228A7
:1009A00003D125488078BDE8F081002020490870F7
:1009B0004FF4FA7005F096FF4FF4FA7005F092FFCD
:1009C0004FF4FA7005F08EFF34B9002002F0AAFB54
:1009D000002002F0A7FB05E0204602F0A3FB204622
:1009E00002F0A0FB1AE01248007868B112480078C3
:1009F000552806D110484078022802D10E48807848
:100A0000D1E700200A490870012005F06BFF7F1C28
:100A100041F27070874201D9002700E0E3E700BF90
:100A2000761CAE42A5DB0020BDE70000DA00002006
:100A3000DB000020D5000020BF00002010B505F02D
:100A40001BF910BD10B50648006806F009F830B96A
:100A500006F000F8C8300249086003F05FFD10BDE1
:100A6000F803002010B504460B48844209D1012147
:100A7000480603F073FE00214FF0007003F06EFE95
:100A800008E00121880603F069FE00214FF0806034
:100A900003F064FE10BD00000064004010B50021AA
:100AA000837A012202FA03F13D4A126842F0010200
:100AB0003B4B1A603A4A1C3212688A43384B1C334B
:100AC0001A60027BCAB9364A0C3212688A43344B28
:100AD0000C331A604288C38842EA0343304A4032EA
:100AE000847A42F834300288838842EA03432C4AED
:100AF0004032847A02EBC4025360027B012A19D18E
:100B0000274A0C3212680A43254B0C331A6042887C
:100B1000038842EA0343224A4032847A42F834305E
:100B2000C288838842EA03431D4A4032847A02EB3A
:100B3000C4025360C27A3AB9194A121D12688A4334
:100B4000174B1B1D1A6006E0154A121D12680A4356
:100B5000134B1B1D1A60028932B9114A14321268F4
:100B60008A430F4B14331A600289012A06D10C4ABA
:100B7000143212680A430A4B14331A60427B012A6A
:100B800006D1074A1C3212680A43054B1C331A600F
:100B9000034A126822F00102014B1A6010BD0000E6
:100BA000006600401AB143690B43436102E04369A8
:100BB0008B434361704730B5024600200023146820
:100BC00024F002041460146844F00104146000E08E
:100BD0005B1C546804F001041CB94FF6FF74A34277
:100BE000F6D1546804F001040CB900206CE08C7953
:100BF000012C04D1146844F08004146003E01468EC
:100C000024F080041460CC79012C04D1146844F0E1
:100C10004004146003E0146824F0400414600C7A6B
:100C2000012C04D1146844F02004146003E014681B
:100C300024F0200414604C7A012C04D1146844F090
:100C40001004146003E0146824F0100414608C7A1B
:100C5000012C04D1146844F00804146003E0146803
:100C600024F008041460CC7A012C04D1146844F0F8
:100C70000404146003E0146824F0040414608C7805
:100C8000A407CD7844EA05640D7944EA05444D791A
:100C900044EA05540D886D1E2C43D461146824F079
:100CA00001041460002300E05B1C546804F001049C
:100CB0001CB14FF6FF74A342F6D1546804F001044E
:100CC0000CB1002000E0012030BD0246002019B91F
:100CD000D36803F0030006E0012903D1136903F090
:100CE000030000E00020704710B500F5D87303EB57
:100CF00001131B6803F004031372137A53B900F550
:100D0000D87303EB01131B6840F2FF7404EA5353DA
:100D1000136009E000F5D87303EB01131B686FF053
:100D2000604404EAD303536000F5D87303EB011366
:100D30001B6803F00203537200F5D87303EB011331
:100D40005B6803F00F03937200F5D87303EB011394
:100D50005B681B0AD37400F5D87303EB01139B681F
:100D6000D37200F5D87303EB01139B681C0A14734C
:100D700000F5D87303EB01139B681C0C547300F54A
:100D8000D87303EB01139B681B0E937300F5D873A4
:100D900003EB0113DB68D37300F5D87303EB011386
:100DA000DB681C0A147400F5D87303EB0113DB68CD
:100DB0001C0C547400F5D87303EB0113DB681B0E95
:100DC000937421B9C36843F02003C36003E003694F
:100DD00043F02003036110BD10B502460020936864
:100DE00003F08063B3F1806F00D110E0936803F0EB
:100DF0000063B3F1006F01D1012008E0936803F0B4
:100E00008053B3F1805F01D1022000E00420042868
:100E100074D002F5C07303EB00131B6803F00104E8
:100E200002F5C07303EB00131C600B7A7BB94B7A9D
:100E30000C8843EA445302F5C07404EB00142468A0
:100E4000234302F5C07404EB0014236010E00B7A16
:100E50004C6843EAC4034C7A234302F5C07404EBA4
:100E600000142468234302F5C07404EB00142360CB
:100E70008B7A03F00F038B7202F5C07303EB001340
:100E80005B6823F00F0402F5C07303EB00135C6092
:100E900002F5C07303EB00135B688C7A234302F501
:100EA000C07404EB001463608B7B1C064B7B44EA2C
:100EB00003440B7B44EA0323CC7A234302F5C0743A
:100EC00004EB0014A3608B7C1C064B7C44EA0344B7
:100ED0000B7C44EA0323CC7B234302F5C07404EB70
:100EE0000014E36002F5C07303EB00131B6843F0CA
:100EF000010402F5C07303EB00131C6010BD000079
:100F000010B50246002321B1012907D002290FD1D3
:100F100009E090681D4C00EA04030BE090681C4C4B
:100F200000EA040306E090681A4C00EA040301E0BA
:100F3000002300BF00BF184C181BA34216D007DCCB
:100F400083B16FF08060184470B1022818D111E0AD
:100F5000B0F5007F10D0114C204448B1B0F5003FEF
:100F60000ED10BE002230DE000230BE0002309E08B
:100F7000002307E0012305E0012303E0012301E052
:100F8000002300BF00BFD8B210BD00000300000462
:100F90000003000800000310000100080001FFF733
:100FA0002DE9F0410746884615460421052000F04A
:100FB000EDFC0021012005F059FA80210A2003F000
:100FC00073FF002405E0395D092005F04FFA601C2D
:100FD000C4B24445F7DB0321012005F047FAFF24A2
:100FE00000BF052003F03DFD0646601EC4B21CB1E3
:100FF00006F004000028F4D0222003F032FD28700F
:10100000212003F02EFD68700020BDE8F081000073
:101010002DE9FF4705460E464FF0000A06B10DB90F
:101020004FF0010A9448007800F00F00032801DD1A
:101030004FF0010A90480078C0F30019BAF1000F90
:1010400019D000208DF80A008DF80B0001208DF8D2
:101050000C000020ADF80000ADF80200ADF804006F
:10106000ADF80600ADF8080001208DF80D006846C7
:10107000FFF714FDFEE00020ADF8080001208DF818
:101080000D004FF000080024F2E07B48007800F0EB
:101090000F0030B101283BD002287BD0032874D147
:1010A0009CE000208DF80B008DF80C0035F8240032
:1010B0004B460022114600F0E1F8ADF8020005EBC6
:1010C000840148884B460022114600F0D7F8ADF85D
:1010D0000600601CC0B20446B04213DA35F82400A2
:1010E0004B460022114600F0C9F8ADF8000005EBB0
:1010F000840148884B460022114600F0BFF8ADF845
:10110000040004E00020ADF80600ADF804009CE007
:1011100001208DF80B0000208DF80C0035F824001C
:101120004B460022114600F0A9F8ADF80200601C01
:10113000C0B20446B04207DA35F824004B4600221C
:10114000114600F09BF800E00020ADF80600601C9E
:10115000C0B20446B04207DA35F824004B460022FC
:10116000114600F08BF800E00020ADF80000601C94
:10117000C0B20446B04209DA35F824004B460022DA
:10118000114600F07BF802E004E051E00020ADF8E9
:1011900004005AE000208DF80B0001208DF80C00AF
:1011A00035F824004B460022114600F081F807462E
:1011B000B8B2ADF80200380CADF8000005EB8401C0
:1011C00048884B460022114600F072F80746B8B234
:1011D000ADF80600380CADF8040036E001208DF8BB
:1011E0000B008DF80C0035F824004B460022114608
:1011F00000F05EF80746B8B2ADF80200380CADF862
:101200000000601CC0B20446B04208DA05EB84015D
:1012100048884B460022114600F04AF800E00020C2
:101220000746B8B2ADF80600380CADF804000CE083
:101230000020ADF80200ADF80000ADF80600ADF8F2
:10124000040034464FF0010A00BF00BF8DF80A8049
:101250006846FFF723FCB44202DA601CC4B200E027
:1012600007E008F10100C0B280460D2800DB00E075
:101270000BE700BFBDE8FF872001002010B5044642
:10128000C4F309040AB1102000E0002002460BB1AB
:10129000082000E00020034613B1C1F3C13000E094
:1012A0000020014642EA44101843084380B210BDB2
:1012B00010B50446C4F309040AB1022000E000207E
:1012C00002460BB1042000E00020034613B188035E
:1012D000C00A00E00020014642EA443018430843B7
:1012E00010BD000010B500210148FFF7EEFC10BD55
:1012F0000064004070B50446002554B10021064842
:10130000FFF7E3FC054625B1224600210248FFF71E
:10131000EBFC284670BD0000006400402DE9F0475A
:1013200006460C4617469846DDF820904FF0000A16
:1013300015480760C0F804800020134908724872FD
:1013400008468472224631460B30FEF758FF0E499C
:101350000E48FFF741FD0546042D09D04FF0010A64
:1013600029460A48FFF7CCFD012801D14FF0020AB7
:10137000BAF1010F04DBB9F1000F01D089F8005078
:101380005046BDE8F087000090080020006400404F
:101390000448006800F0E05008B1012070470020C8
:1013A000FCE700000864004000B500BFFFF7F0FF55
:1013B0000028FBD000BD10B501E000F005F8FFF7F4
:1013C00091FF0028F9D110BD10B52448FFF792FF16
:1013D0002248C07C20B101280AD0022818D10FE091
:1013E0001E48827A00F10B011D4800F0BEFB24E08C
:1013F0001A48827A00F10B011A4800F0B6FB1CE093
:101400001648827A00F10B01174800F0AEFB14E099
:101410001248C07C03280FDB1048C07C06280BDC78
:101420000E48C07CC01E114901EBC0000B490B31B6
:101430000A6802604968416000BF00BF0748C07C7D
:10144000062809DC0548C07C094951F820000949F3
:10145000096808430749086010BD0000040A00201D
:10146000B8080020C8080020E8080020180A00205A
:10147000F47200082401002000B5034A5178107866
:1014800000F0BEFE00BD0000180A0020F8B5FFF70E
:101490007FFF00285FD00026002559E02E4890F9F4
:1014A000000030B101280ED002281ED0032840D100
:1014B0002DE000F05DF80746002F03DB0126F8B2AF
:1014C00000F07AF839E008222449254800F038FB7A
:1014D000C4B24CB10126234800234FF420722146A8
:1014E00000901E48FFF71AFF27E008221B491E48FC
:1014F00000F026FBC4B24CB101261A4800234FF479
:101500002872214600901548FFF708FF15E00822D1
:101510001249164800F014FBC4B24CB10126114820
:1015200000234FF47072214600900C48FFF7F6FE3E
:1015300003E0FF200849087000BF00BF064800789C
:10154000401C40B20449087006B103E0681CC5B2F3
:10155000042DA3DD00BFF8BD5801002028010020A4
:10156000D808002059010020F8080020B808002001
:101570004FF0FF30002109E001EB8102054B13F829
:1015800022200AB148B203E04A1CD1B20729F3DB9A
:1015900000BF7047380A0020002007E0002100EB60
:1015A0008002044B03F82210411CC8B20728F5DB67
:1015B00070470000380A0020F8B50446002004EB0C
:1015C00084050E4E06EB850500902B6904EB84051F
:1015D00006EB8505EA6804EB840516F8251004EB94
:1015E000840506EB8505681CFFF798FE002004EBD8
:1015F0008401324602F82100F8BD0000380A0020BC
:101600002DE9F04104460F4615461E46DDF81880C8
:10161000072C1ADA04EB84000D4901F8205004EB82
:1016200084010B4A02EB8101481C2A463946FEF729
:10163000E6FD04EB8400064901EB8000C66004EB84
:10164000840001EB8000C0F81080BDE8F08100004C
:10165000380A002010B50D4A32210D4800F02AF852
:101660000C4A32210C4800F025F80C4A32210C4873
:1016700000F020F80B4A32210B4800F01BF80B4A0F
:1016800032210B4800F016F810BD000008090020B8
:10169000B80800203A090020C80800206C09002082
:1016A000D80800209E090020E8080020D00900206A
:1016B000F808002070B504460E4615462660E56021
:1016C0000021204600F08BFA70BD000038B5FFF70E
:1016D00072FE68E0FFF76FFE002462E0344850F8C5
:1016E0002400344909680840002858D0072C4DD2FE
:1016F000DFE804F0040C18242739460000BF6946CF
:101700002D4800F07EFA0028F9D13FE003E09DF873
:10171000000000F075F86946284800F072FA0028C9
:10172000F5D133E003E09DF8000000F093F869463E
:10173000234800F066FA0028F5D127E0FFF79CFE69
:1017400024E0204804F01CFA1F49088005E01E48E8
:101750000088A0F561601C4908801B480088B0F52E
:10176000616FF4DA12E017480838007C022806D1CD
:101770001448093004F0FCF900B21449088005E06F
:1017800010480838007E012800D100BF00BF104873
:1017900050F8240007490968084006490860601CA1
:1017A000C4B2062C9ADD03480068002892D138BDE7
:1017B000F472000824010020B8080020C8080020A6
:1017C000E8080020200A0020340100203201002017
:1017D0007473000810B500200649086006490870B7
:1017E00007210648FFF714FCFFF734FFFFF7D4FE8C
:1017F00010BD00002401002020010020360100203F
:1018000010B504460F48007870B905F023F90A3086
:101810000D49086000200D4908700D4809784454AE
:101820000120084908700BE008480078C82807DA4A
:1018300006480078401CC0B20449087004490C54A2
:1018400010BD00007F020020880200207E020020E0
:10185000EC0A002010B504460F48007870B905F076
:10186000F9F80A300D49086000200D4908700D484C
:10187000097844540120084908700BE008480078B2
:10188000C82807DA06480078401CC0B2044908702E
:1018900004490C5410BD0000810200208C0200207D
:1018A00080020020B40B00207FB505460C460121C4
:1018B000202002F043FF0295ADF804400020ADF86F
:1018C0000600ADF80C008DF80E0001A90D4803F0DC
:1018D00019FE37208DF8000000208DF8010004204B
:1018E0008DF8020001208DF80300684601F048F9E8
:1018F00001221146034803F0E7FD0121014803F0EE
:10190000C6FD7FBD0014004010B5FFF7DFFEFFF7F6
:10191000BDFD10BD1CB501214FF4C07002F0FEFEEC
:10192000F020009000208DF8040001208DF80700C1
:101930006946144800F0A5F94FF47040009001206A
:101940008DF8040000208DF8060001208DF80700B6
:1019500003208DF8050069460B4800F092F920201D
:10196000009001208DF8040000208DF80600012071
:101970008DF8070003208DF805006946024800F045
:1019800080F91CBD00200240001C024070B50546D5
:101990000C460026284603F064F8064626EA0401B1
:1019A000284604F063FD002070BD70B505460C4666
:1019B000002D06DB642D00DD6425052D0BDA0525E1
:1019C00009E015F1640F01DA6FF0630515F1050FF9
:1019D00001DD6FF00405002C06DB642C00DD6424BF
:1019E000052C0BDA052409E014F1640F01DA6FF01D
:1019F000630414F1050F01DD6FF00404214628464D
:101A000003F000FA70BD000010B5102000F03CF8A3
:101A1000012825D11021134800F09EF9E8B90021D2
:101A2000114803F034FD114890ED000AB8EE400A69
:101A30000F4880ED000AD0ED000A9FED0E1AB3EEBC
:101A4000040A10EE810A80ED000A90ED000ABCEE57
:101A5000C00A10EE100A08490880102000F00EF8A5
:101A600010BD0000000402400010004004000020EF
:101A700000000020F628DC3F080000200149086033
:101A800070470000143C014001460020034A1268E0
:101A90000A400AB1012000E000207047143C0140D8
:101AA000002123498279002A3AD00A461268036845
:101AB0009A430B461A600A1D126803689A430B1D6D
:101AC0001A60027911440A6803681A430A60184AC6
:101AD0000832126803689A43154B08331A601A1DBE
:101AE000126803689A43124B0C331A604279102A29
:101AF0000ED11A1F126803681A430D4B08331A607F
:101B00001A1D126803681A43094B0C331A600DE062
:101B10000749427911440A6803681A430A6005E0DC
:101B2000027911440A6803689A430A60704700000A
:101B3000003C014010B502F0E7FAFEF74DFD10BD84
:101B4000F0B507460C461646002564B106E061195B
:101B5000384600F056F800B904E06D1C301EA6F1BE
:101B60000106F4D100BF2846F0BDF0B507460D468A
:101B70001646002406E0295D384600F06CF800B9EE
:101B800004E0641C301EA6F10106F4D100BF20461B
:101B9000F0BD30B504460025204600F04AF870B18B
:101BA000D4E90001401E814203D1A06838B101256B
:101BB00005E0D4E90101401C814200D001252846FE
:101BC00030BD30B504460025204600F032F820B183
:101BD000D4E90110884200D00125284630BD70B5F7
:101BE00004460D4664B12068012809D90020A06090
:101BF0002068401E60602A462168E068FEF711FBFD
:101C000070BD70B504460D46002685B12046FFF72D
:101C1000C0FF60B16068401C60602168884201D3E9
:101C2000002060606168E068405C287001263046F2
:101C300070BD0146002069B10A68012A0AD9CA6844
:101C400042B10B688A689A4204D2D1E900329A42C2
:101C500000D20120704770B504460D46002620468C
:101C6000FFF7AFFF58B1A168481CA060E068455479
:101C70002168A068884201D30020A0600126304678
:101C800070BDF0B50A4600210023002400BF3DE0EE
:101C9000012505FA01F3156805EA03049C4234D1D5
:101CA00005684F000326BE40B543056015794E0018
:101CB000B5400668354305601579012D02D01579C8
:101CC000022D16D185684F000326BE40B5438560BE
:101CD00055794E00B54086683543856045680126D4
:101CE0008E40B5434560456896798E40B6B235431F
:101CF0004560C5684F000326BE40B543C560D57931
:101D00004E00B540C6683543C560491C1029BFD395
:101D1000F0BDF0B5002300244D07ED0E02FA05F3E7
:101D2000CE1000F1200555F826504E07F70E0F266D
:101D3000BE40B543CF1000F1200646F82750CE1024
:101D400000F1200555F8265045EA0304CE1000F1B5
:101D5000200545F82640F0BD0246002013690B40DF
:101D60000BB1012000E000207047418370472DE94E
:101D7000F0470C46DDE90867002100258C4600BFCE
:101D800060E04FF0010808FA01F504EA050CAC45E3
:101D900057D1D0F800804FEA410A4FF0030909FA01
:101DA0000AF928EA0908C0F80080D0F800804FEA54
:101DB000410902FA09F948EA0908C0F80080012A35
:101DC00001D0022A27D1D0F808804FEA410A4FF00B
:101DD000030909FA0AF928EA0908C0F80880D0F8C6
:101DE00008804FEA410906FA09F948EA0908C0F8EB
:101DF0000880D0F804904FF0010808FA01F829EAA9
:101E00000809C0F80490D0F8048003FA01F948EA00
:101E10000908C0F80480D0F80C804FEA410A4FF05E
:101E2000030909FA0AF928EA0908C0F80C80D0F871
:101E30000C804FEA410907FA09F948EA0908C0F895
:101E40000C80491C10299CD3BDE8F08701837047A2
:101E500010B502210848FEF798FB0748FEF796FCEC
:101E600000BF02210448FEF701FC0028F9D0024817
:101E7000FEF7F8FB10BD00000020014010B52DED6D
:101E8000068B00201749087048708870C870164982
:101E90000880012003F08EF8102003F08BF800F08A
:101EA00051FE10480478407800EB04242046FEF7E9
:101EB00040FA41EC1A0B9FED0D0B53EC102BFEF783
:101EC000C9F941EC190BFEF758FA08EE100ABDEEFD
:101ED000C80A10EE100A0449088008460088BDECC4
:101EE000068B10BD0E000020120000203333333368
:101EF0003333F33F70B504460025002607E0FFF7B3
:101F0000A7FF0544052004F0EDFC701CC6B2A642F4
:101F1000F5DBB5FBF4F080B270BD000070B5024691
:101F200000210020002522B1072A0BD0082A11D158
:101F30000CE0114B5B78104C247803EB042399B22E
:101F40000F2507E00C4B5978072503E00A4B197859
:101F5000082500BF00BF00230AE00C4601EBD47641
:101F60007610A1EB46060EB9441CE0B249105B1C8A
:101F7000AB42F2DB70BD00003001002001460020C2
:101F800021B107290AD008290ED10AE0074A527860
:101F9000064B1B7802EB032290B205E0034A50780F
:101FA00002E0024A107800BF00BF704730010020F5
:101FB00010B515480078012810D102F0A1FD134991
:101FC000098888421EDB00200F4908700320104951
:101FD00008700021084602F015FF13E00D48007854
:101FE00001280FD102F08CFD08490988884209DBDD
:101FF00000200849087003200549087000210846A0
:1020000002F000FF10BD0000FB00002010010020C6
:1020100002010020FC00002010B54FF4E06000F049
:10202000EBFD04F0AEF9A82004F03EFCFFF772FCD3
:1020300000F028F8FFF77EFD03F0E4FF53210720AE
:10204000FFF732FCA72140F2E73003F0D5FB02F0A6
:102050001DFDFEF7F3FC40F24731012003F070FB59
:1020600042F2CF01142003F00DFB42F2CF01012018
:1020700003F038FB42F2CF010A2003F091FB03F09A
:10208000B7FA10BD00B589B00121212002F046FB4E
:1020900009220B214248FFF73CFE09220C2140484F
:1020A000FFF737FE4FF4C050079002208DF8200054
:1020B0008DF8210000208DF8220001208DF82300EA
:1020C00007A93748FFF7DDFD4FF480600790012036
:1020D0008DF8200002208DF8210000208DF82200CC
:1020E00001208DF8230007A92E48FFF7CAFD002024
:1020F00000F05EF80121480602F020FB2A48FEF7B6
:10210000B1FC00208DF8160001208DF8170000208A
:102110008DF8180001208DF8190000208DF81A00A4
:1021200001208DF81B0000208DF812008DF813009F
:1021300001208DF8140002208DF815000720ADF85D
:10214000100004A91848FEF736FD00208DF80A009B
:102150008DF80B0001208DF80C000020ADF8000078
:10216000ADF80200ADF80400ADF80600ADF80800C7
:1021700001208DF80D006846FEF790FC12200B49F7
:1021800008604860002048720872012088720022AE
:1021900002210548FEF706FDFFF71CFB09B000BD54
:1021A000000002400014024000640040C40A002005
:1021B00010B504462CB94FF480610548FFF7D5FDF2
:1021C00004E04FF480610248FFF740FE10BD0000BC
:1021D0000014024010B5FFF797FB10BD10B5044680
:1021E0002CB14FF480710548FFF730FE04E04FF446
:1021F00080710248FFF7B9FD10BD000000200240C9
:10220000014A107051707047300100202DE9F041F3
:1022100007468846002028490860092004F062FB30
:1022200001202649C1F8AC02042004F05BFB4FF406
:102230000C7004F07DFB00242EE0002528E0385DC2
:10224000284100F0010676B900201B4908604FF4D0
:10225000FA7004F06DFB01201849C1F8AC024FF48C
:10226000FA7004F065FB012E10D1002012490860BD
:102270004FF4FA7004F05CFB01201049C1F8AC0285
:1022800004F030FB4FF4487004F052FB681CC5B2F8
:10229000082DD4DB601CC4B24445CEDB00200649C7
:1022A00008604FF40C7004F043FB01200349C1F8AF
:1022B000AC02BDE8F0810000AC82424200804242A4
:1022C00010B502F0CEF808B1FE2010BD01F05AFFA3
:1022D000022004F007FB01F05BFF412000F00AF848
:1022E00008B1FE20F1E70120014908700020ECE769
:1022F0004800002010B50446412C25D1082108468D
:10230000FFF744FB3D21112004F0B0F8862117208F
:1023100004F0ACF87F21262004F0A8F81E212D201F
:1023200004F0A4F800212C2004F0A0F88D212A202C
:1023300004F09CF83E212B2004F098F80A2004F0C9
:10234000D1FA01F025FF01E0FF2010BD0020FCE7DD
:1023500002468A4201D9501A7047881AFCE70000E9
:1023600010B504469FED111ADFED110AB3EE090A0C
:1023700001F034FA4FF461710E48006800F0AAFAD7
:102380004FF461710B48006800F016F84FF4FA71D1
:102390000848006800F09EFA21460648006800F0F0
:1023A0000BF800F0CDFA01F041FA10BD00009643A1
:1023B00000000000A005002070B504460D462E4622
:1023C000642004F08FFA02F0BFFB642C00D964246F
:1023D000052C00D205246142604202F013FD02E0A8
:1023E000012004F07FFA02F08BFBB042F8DD0021FF
:1023F000084602F007FD642004F074FA70BD10B5C1
:102400000446642C00D96424052C00D205242146FE
:10241000204602F0F7FC10BD70B504460D462E466E
:10242000642004F05FFA02F08FFB642C00D964246E
:10243000052C00D205242146204602F0E3FC02E0F0
:10244000012004F04FFA02F05BFBB042F8DB002100
:10245000084602F0D7FC642004F044FA70BD2DE970
:10246000F04106460F464FF00108642004F03AFAA6
:1024700002F06AFB02F044FB05463146704202F06E
:10248000C1FC062F71D2DFE807F00304AB104476DD
:10249000A7E000BF02F034FB40F22E318842F9DBA6
:1024A0000021084602F0AEFC9BE02EE002F028FB83
:1024B000054640F2A46085421BDD40F28E608542F5
:1024C00017DA0820FFF75AFD0446EF2C01D0F72C4D
:1024D00006D10021084602F095FC4FF0000814E0F8
:1024E000E72C11D10021084602F08CFC4FF00008C7
:1024F0000BE040F28E60854206DD0021084602F0C6
:1025000081FC4FF0000800E000BFB8F1000FCDD112
:1025100067E02CE002F0F4FA0546B5F5C87F1ADD55
:10252000B5F5E47F17DC0820FFF728FD0446EF2C03
:1025300001D0F72C06D10021084602F063FC4FF0D1
:10254000000814E0E72C11D10021084602F05AFCE3
:102550004FF000080BE0B5F5E57F07DB00210846EA
:1025600002F050FC4FF0000801E039E000BFB8F184
:10257000000FCFD135E02FE002F0C2FA0546B5F5E5
:102580002F7F1EDDB5F5587F1BDA0820FFF7F6FC1C
:102590000446EF2C01D0F72C0AD10F21304600F071
:1025A0002AF80021084602F02DFC4FF0000813E045
:1025B000E72C10D10021084602F024FC4FF000085F
:1025C0000AE0B5F5587F06DD0021084602F01AFC46
:1025D0004FF0000800E000BFB8F1000FCCD100E0E0
:1025E00000BF00BF0021084602F00CFC642004F08C
:1025F00079F9BDE8F08170B504460D4600266420E7
:1026000004F070F902F0A0FA02F07AFA06462146C8
:10261000604202F0F7FB02E002F072FA0646AE42B8
:10262000FAD90021084602F0EDFB642004F05AF9C3
:1026300070BD2DE9F04180460E460127642004F06C
:1026400051F902F081FA02F05BFA0546C8F1000187
:10265000404602F0D7FB062E6ED2DFE806F00304F8
:10266000A00F3F6C9CE000BF02F04AFAB0F5667F15
:10267000FADB0021084602F0C5FB91E02BE002F0F6
:102680003FFA054640F2A460854219DD40F26270CF
:10269000854215DA0820FFF771FC0446EF2C01D0C3
:1026A000F72C05D10021084602F0ACFB002712E010
:1026B000E72C0FD10021084602F0A4FB00270AE016
:1026C00040F26270854205DD0021084602F09AFB67
:1026D000002700E000BF002FD1D161E028E002F028
:1026E0000FFA0546B5F5C87F18DDB5F5FF7F15DA99
:1026F0000820FFF743FC0446EF2C01D0F72C05D14E
:102700000021084602F07EFB002711E0E72C0ED1E5
:102710000021084602F076FB002709E0B5F5FF7FAF
:1027200005DD0021084602F06DFB002700E000BF38
:10273000002FD4D134E02FE031E002F0E1F905467A
:10274000B5F52F7F1DDD40F2CA30854219DA082029
:10275000FFF714FC0446EF2C01D0F72C09D10F2110
:10276000404600F027F80021084602F04BFB002706
:1027700012E0E72C0FD10021084602F043FB0027AE
:102780000AE040F2CA30854205DD0021084602F029
:1027900039FB002700E000BF002FCED100E000BFD2
:1027A00000BF0021084602F02DFB642004F09AF8D7
:1027B000BDE8F08170B504460D460026642004F0A3
:1027C00091F802F0C1F902F09BF9064661422046F9
:1027D00002F018FB02E002F093F90646AE42FAD985
:1027E0000021084602F00EFB642004F07BF870BD67
:1027F00070B504460B480578046001F057FC02E010
:10280000012004F06FF8204601F030F8DFED060AF1
:10281000B4EE600AF1EE10FAF2D10248056001F060
:1028200005F870BDA00500200000C64270B5044642
:102830000B480578046001F039FC02E0012004F047
:1028400051F8204601F0A8F9DFED060AB4EE600A5F
:10285000F1EE10FAF2D10248056000F0E7FF70BD1A
:10286000A00500200000C6422DE9F04105460C46B7
:102870000026642004F036F802F066F902F040F910
:1028800006461348077805602846FFF7B8FD01F0B3
:102890000DFC0FE002F034F90646284601F072FA0A
:1028A000A64204D30021084602F0ACFA04E001205D
:1028B00004F018F8A642EDD900BF0021084602F046
:1028C000A1FA03480760642004F00CF8BDE8F08129
:1028D000A00500202DE9F04105460C4600266420A5
:1028E00004F000F802F030F902F00AF90646134845
:1028F000077805602846FFF782FD01F0D7FB0FE05F
:1029000002F0FEF80646284601F010FBA64204D36A
:102910000021084602F076FA04E0012003F0E2FF0D
:10292000A642EDD900BF0021084602F06BFA034829
:102930000760642003F0D6FFBDE8F081A005002009
:1029400010B50021084602F05DFA642003F0CAFFCA
:1029500010BD000010B532480078E0B102F07EFEF4
:10296000C8B930A002F01EFA2D480078304908603E
:1029700000202B49087002F069FE2D4800680128EC
:1029800002D0022805D102E004F09AFB02E004F034
:10299000BFFB00BF00BF2748007848B100F0DAFC59
:1029A000012802D0244800F02DFE002021490870A3
:1029B0002248007890B32248008800F0010068BBEC
:1029C000204800F0F1FB112820D2DFE800F0090ACE
:1029D0001F101F0F1E1F1F1F1F1F130E11121D0080
:1029E00018E0184802F0F4FA14E013E012E011E0E5
:1029F00010E00FE014480078F12804D100201249BB
:102A0000087004F0F5F805E004E003E00FA002F020
:102A1000ABF900BF00BF00200849087010BD0000DE
:102A20003306002074696D65206F75740000000026
:102A3000C00500207F020020EC0A00208102002057
:102A400000080040B40B002034060020756E646559
:102A500066696E650A00000010B504460A2C25D28E
:102A6000DFE804F02405080F161D1E1F202304F0C4
:102A70001BFA1CE001200F4908700FA000F011FBA9
:102A800015E001200B4908700CA000F001FB0EE0DE
:102A900001200849087009A000F003FB07E006E0E8
:102AA00005E004E004F0B2FB01E000E000BF00BF7D
:102AB00010BD00009C0500200000000031353900E9
:102AC0002DE9F04706460F4692464FF000080024D5
:102AD0000025A146FFF734FF0021184802F0D7FC7B
:102AE00023E0681CC5B23946304601F075FF044644
:102AF00044B901F065FF30B11149304601F06CFF77
:102B0000044600E013E01E20FFF779FC052D02DBF0
:102B10004FF002080BE0962003F0E4FE0021084687
:102B200002F070F9C82003F0DDFE002CD9D000BF00
:102B3000FFF706FF4046BDE8F0870000000C0040AC
:102B4000B406002010B5FDF7D9FE4720FDF7AAFE18
:102B500000240EE0FDF75CFE08490855032C03D164
:102B60000120FDF77FFE02E00020FDF77BFE601CE8
:102B7000C4B2032CEEDBFDF7DDFE10BD0E0000201D
:102B800070B5002100230F22C4781CB3174C2468B1
:102B900004F4E064C4F5E064C4F30721C1F1040463
:102BA000E3B20A4144789C40E1B284781440214366
:102BB0000C07210E0E4C05786155047804F01F05B2
:102BC0000124AC4005786D11AD0005F1E025C5F894
:102BD000004109E0047804F01F050124AC40054DD4
:102BE0000678761145F8264070BD00000CED00E037
:102BF00000E400E080E100E002490143024A116084
:102C0000704700000000FA050CED00E030B5034607
:102C1000012902D11948407801E01948407804465A
:102C20001878164D2D78A84226D15878A04223D185
:102C3000D879124DED79A8421ED1987803281BD17E
:102C4000D878012802D10AB9187930BDD87802287D
:102C500012D1012A01D11879F7E7022A01D1587956
:102C6000F3E7032A08D11879012803D158790128FC
:102C700000D1EAE70220E8E70020E6E78C06002022
:102C80009406002070B504460D469FED101ADFED46
:102C9000100AB3EE090A00F0A1FD02E0012003F0E2
:102CA00021FE204600F0B2FEDFED0A0AB4EE600A13
:102CB000F1EE10FAF2D1FFF743FE2946064800680C
:102CC000FFF7AAFB00F0B2FD70BD000000009643C4
:102CD000000000000000C642A00500200146087860
:102CE0000B4A1278904211D14878094A52789042A2
:102CF0000CD1C879064AD279904207D18878102839
:102D000004D1C878012801D1087970470020FCE778
:102D1000A40600202DE9FC4104460D4616461F4638
:102D2000124800788DF80000104840788DF80100B6
:102D30008DF802408DF803508DF804608DF8057011
:102D40009DF805309DF804209DF803109DF80200C1
:102D500003F08EFD8DF806000448C0798DF8070059
:102D600069460220FDF717FDBDE8FC8164060020DE
:102D700010B50446207830B900231A4601210846D0
:102D8000FFF7C8FF02E0204600F001F810BD10B5C3
:102D90000446A378627821781020FFF7BBFF4FF438
:102DA000C87003F09FFD63792279E1781120FFF765
:102DB000B1FF642003F096FD10BD0146887801281C
:102DC00006D1C87820B90879052801D101207047BB
:102DD0000020FCE710B508A001F0E4FF09480078E6
:102DE00010B1002007490870F120074908704FF41E
:102DF000967003F077FD10BD7761697420455443E8
:102E0000000000008102002034060020014688787E
:102E100070470146C87870470146087970470146F7
:102E2000487970472DE9FC4104460D4616461F4679
:102E3000124800788DF80000104840788DF80100A5
:102E40008DF802408DF803508DF804608DF8057000
:102E50009DF805309DF804209DF803109DF80200B0
:102E600003F006FD8DF806000448C0798DF80700D0
:102E700069460220FDF78FFCBDE8FC815C0600205E
:102E800010B5044600231A4621460320FFF7CAFF67
:102E900010BD08B5002003460246014600900220FE
:102EA00000F051F94FF4967003F01CFD002003462A
:102EB000024601460090022000F045F94FF496705A
:102EC00003F010FD00200346024601460090022058
:102ED00000F039F908BD000010B5044609A001F062
:102EE00061FF0B48007810B10020094908700120EB
:102EF000084908704FF4967003F0F4FC204602F085
:102F000091FB10BD7761697420736C617665000078
:102F1000810200203306002070B505460C4609A04A
:102F200001F040FF0A48007810B1002008490870FD
:102F3000084804704FF4967003F0D4FC284602F061
:102F400071FB70BD7761697420736C6176650000F8
:102F50008102002033060020F8B504460D461646CF
:102F60001F4633462A4621460220009700F0EBF820
:102F7000F8BD00002DE9FC4104460D4616461F46EB
:102F8000DDF820801B4800788DF800008DF8025095
:102F90008DF803608DF804708DF805809DF805307C
:102FA0009DF804209DF803109DF8020003F060FCDA
:102FB0008DF806000F48C0798DF80700412C04D029
:102FC000422C06D0432C0CD107E00B208DF80100D9
:102FD00008E008208DF8010004E012208DF80100BF
:102FE00000E000BF00BF69460220FDF7D4FBBDE84A
:102FF000FC8100007C060020F8B505460C460A203E
:10300000B4FBF0F100FB1141B4FBF0F00A22B0FB7D
:10301000F2F302FB130001EB0010C6B26420B4FB14
:10302000F0F0C7B23B460022502128460096FFF739
:10303000A1FFF8BD2DE9FC4104460D4616461F468A
:10304000124800788DF80000104840788DF8010093
:103050008DF802408DF803508DF804608DF80570EE
:103060009DF805309DF804209DF803109DF802009E
:1030700003F0FEFB8DF806000448C0798DF80700C8
:1030800069460220FDF787FBBDE8FC816C06002045
:1030900010B50446A378627821780320FFF7CAFFB1
:1030A00010BD10B50446207830B1A378627821783D
:1030B0000120FFF7BFFF05E0B4232322A121012057
:1030C000FFF7B8FF10BD00002DE9FC4104460D4696
:1030D00016461F46124800788DF8000010484078C8
:1030E0008DF801008DF802408DF803508DF80460D2
:1030F0008DF805709DF805309DF804209DF80310AB
:103100009DF8020003F0B4FB8DF806000448C07976
:103110008DF8070069460220FDF73DFBBDE8FC8104
:103120007406002010B5044634B900231A46012164
:103130002020FFF7C9FF05E000231A462146102092
:10314000FFF7C2FF10BD2DE9FC4104460D461646AF
:103150001F46DDF8208055208DF800008DF80140D5
:103160008DF802508DF803608DF804708DF805809D
:103170009DF805309DF804209DF803109DF802008D
:1031800003F076FB8DF80600BB208DF8070069463A
:103190000220FDF700FBBDE8FC8110B50446214686
:1031A0000120FDF7F8FA10BD30B504462078552807
:1031B0000FD1E079BB280CD163792279E178A0782E
:1031C00003F056FBA179884203D1607808B160789A
:1031D00030BD0020FCE700002DE9FF5F06464FF000
:1031E00000090024A2464FF01E08002702F0CCF987
:1031F00002F0CAF9C82003F075FB002546E035B996
:1032000002F0C2F907468146012003F06BFB4DF83E
:10321000257004214C48FEF7F9FF4FF4FA7003F0D3
:1032200061FB4FF4FA7003F05DFB4FF4FA7003F0AA
:1032300059FB4FF0000B24E002F0A6F907460120ED
:1032400003F050FB5DF82500A0EB0800B84215DC48
:103250005DF825004044B84210DB04213A48FEF7EF
:10326000D5FF4FF4FA7003F03DFB4FF4FA7003F012
:1032700039FB4FF4FA7003F035FB00E004E00BF18A
:10328000010BBBF1060FD7DB00BF6D1C042DB6DBB5
:103290000421684603F0C9FA002006E05DF820101A
:1032A000494501D1441C02E0401C0428F6DB00BF64
:1032B000B44202D8A6EB040A23E0012E04D0022E69
:1032C00011D0032E1BD117E0042C02D14FF0010ABC
:1032D00008E0032C02D14FF0020A03E0022C01D1D6
:1032E0004FF0030A0CE0042C02D14FF0020A02E076
:1032F000032C00D1A24603E04FF0030A00E000BF18
:1033000000BFBAF1000F09D0BAF1010F07D0BAF12E
:10331000020F09D0BAF1030F10D10AE00FE0042127
:103320000948FEF773FF0AE004210848FEF76EFF24
:1033300005E004210648FEF769FF00E000BF00BF7A
:10334000204604B0BDE8F09F360600203A06002073
:103350003E06002010B50C480078552811D10A48C7
:10336000407801280DD008484078AA2809D006489E
:10337000C079BB2805D104490220FDF70CFA0120D1
:1033800010BD0020FCE70000EC0A002010B58E48BC
:103390000078552876D18C48C079BB28FAD18A4864
:1033A0004078AA286FD188488078A9286CD012DC90
:1033B000A12821D008DC40284ED0412857D04528EC
:1033C00063D0462877D16BE0A2282FD0A32838D02D
:1033D000A528F7D18BE0AD286ED006DCAA286CD0EA
:1033E000AB286BD0AC28EDD1A5E0AE2868D0AF28D3
:1033F00072D0CC28E6D184E001207449086072487C
:10340000C078012810D17048007901280CD16E488D
:103410004079012808D16EA001F0A6FC00206D497A
:1034200008706D49087000E000BFC8E06648C078C9
:103430006A49087064480079487063484079887028
:10344000BDE06148C0786549C8705F48007908717F
:103450005D4840794871B2E05B48C07860490870C7
:10346000594800794870584840798870A7E0564814
:10347000C0785B49C8705448007908715248407957
:1034800048719CE09EE09BE036E04F48C07855498B
:1034900008704D48007948704B48407988708EE03C
:1034A0004948C0784F49C870474800790871464874
:1034B0004079487183E081E05EE069E073E0FFE716
:1034C0004148C078484908703F48007948703E48F4
:1034D0004079887073E0FFE73B48C0784249C87084
:1034E00039480079087138484079487167E03648B2
:1034F000C0783E49087062E03348C0783C490870A3
:1035000000BF3148C078401C0A2813DA2E49C97818
:10351000384A117000200AE00021364A127802EB86
:10352000421202EB4202344B1A441154401C6328ED
:10353000F2DB00BF43E02448C078401C63281ADA5D
:10354000214800792B49097801EB411101EB410138
:10355000294A11441C4AD27888541B48417925488D
:10356000007800EB401000EB4000234A024416486C
:10357000C078401C115422E01348C078B0F5807F19
:1035800005DA114800791049C9781C4A505416E0F0
:103590000D48C0781A4908700B48007948700A48ED
:1035A000407988700BE00848C0781549C870064813
:1035B0000079087104484079487100E000BF01E0DB
:1035C000FFF7C8F910BD0000EC0A0020F406002047
:1035D0002A0000007F020020E8060020CC06002020
:1035E000D3060020DA060020C5060020E7060020EA
:1035F000F2060020C4060020821700208216002058
:10360000E006002010B504462078552847D16078A0
:10361000AA2844D1E079BB2841D1A078042821D040
:1036200006DC01280BD002280CD0032836D111E08B
:10363000052821D0062829D0A0282FD12AE0FFF77D
:103640007FF92BE02379627903EB0221E078FFF721
:103650000BF923E02379627903EB0221E078FEF78E
:10366000ABFE1BE0E07830B12379627903EB0221F5
:10367000E078FEF7C0FF11E0E07830B1237962799D
:1036800003EB0221E078FFF795F807E0E078FFF719
:10369000AFF803E00820FFF7DFF900BF00BF10BD5F
:1036A00000B52548FFF780FD06282AD006DC012852
:1036B0003AD0032809D0052837D114E007282ED0A6
:1036C0000D2808D0102830D115E01B48FFF775FBF6
:1036D0001A4908702AE0002201211748FFF796FADC
:1036E0001749087022E0002211461348FFF78EFAAE
:1036F000134908701AE01048FFF7F0FA11490870F2
:1037000014E00D48C078104908700B4800794870E3
:1037100009484079887001200C49087006E0064885
:10372000C0780B49087001E000E000BF00BF002036
:103730000849087000BD0000B40B00202D060020D1
:103740002E0600202F060020300600202C06002028
:103750003506002081020020184880ED000A184834
:10376000D0ED000A70EE800AC0ED000A1548D0EDD9
:10377000000A70EE600A1448C0ED000A1348D0ED4C
:10378000000A0E4890ED001A60EE810A104890ED94
:10379000001A0B48D0ED001A41EE210A0D4890EDB9
:1037A000001A0948D0ED001A41EE210A0A48C0ED7E
:1037B000000A044880ED000A70470000140600204B
:1037C00018060020240600201C060020FC0500200E
:1037D0000006002004060020200600200D48D0ED41
:1037E000001A0D48C0ED001A0C48D0ED001A0C4824
:1037F000C0ED001A0B48D0ED001A0B48C0ED001ABE
:10380000084880ED000A0548C0ED000A014880ED37
:10381000001A704704060020100600200006002051
:103820000C060020FC05002008060020094890ED49
:10383000000A094880ED000A084890ED000A08488F
:1038400080ED000A074890ED000A074880ED000A65
:103850007047000008060020FC0500200C06002030
:1038600000060020100600200406002010B52DEDF3
:10387000028B04469FED600AB0EE408A0820FEF7F6
:103880007DFBEF2824D00FDC9F284ED005DCB0B1A3
:103890003F284FD07F2861D12EE0BF2827D0CF28E6
:1038A0003ED0DF285AD11DE0F3380C2856D2DFE88D
:1038B00000F04655555514554B5528502D329FED67
:1038C0004F0AB0EE408A9FED4D0ABDEC028B10BD51
:1038D000BFEE000AB0EE408A51E0B7EE000AB0EE4B
:1038E000408A4CE0B8EE000AB0EE408A47E0B8EEFD
:1038F000080AB0EE408A42E09FED410AB0EE408AED
:103900003DE0B0EE000AB0EE408A38E0B0EE080AC2
:10391000B0EE408A33E09FED3B0AB0EE408A2EE0E5
:10392000B8EE000AB0EE408A29E0B8EE080AB0EE20
:10393000408A24E09FED320AB0EE408A1FE0B0EEEC
:10394000000AB0EE408A1AE0B0EE080AB0EE408AF3
:1039500015E09FED2C0AB0EE408A10E00820FEF73B
:10396000DDFA052806DD9FED250AB0EE408A9FEDC1
:10397000230AAAE79FED200AB0EE408A00BF00BFED
:10398000B5EEC08AF1EE10FA08D100F08FFB2146A7
:10399000204601F037FA9FED180A96E79FED170AC7
:1039A000B4EE408AF1EE10FA22D0B0EE480AFFF7EA
:1039B000D3FE00EE104AB8EE400A134AD2ED000AD8
:1039C00030EE600ABDEEC00A10EE101A00EE104A8A
:1039D000B8EE400AD2ED000A30EE200ABDEEC00A71
:1039E00010EE100A01F00EFA074890ED000A6CE79D
:1039F0009FED020A69E70000000000000000C642D7
:103A0000CDCC4CC0CDCC4C402006002010B52DEDC7
:103A1000028B04469FED5B0AB0EE408A0820FEF759
:103A2000ADFAF3285DD010DCBF2832D006DC3F2889
:103A300052D07F2832D09F2862D148E0CF2841D091
:103A4000DF2821D0EF285BD114E0F738092857D2BE
:103A5000DFE800F015564C5629512E33050000F0D2
:103A600025FB2146204601F0CDF99FED470ABDEC2C
:103A7000028B10BDBFEE000AB0EE408A45E0B7EE03
:103A8000000AB0EE408A40E0B8EE000AB0EE408A8C
:103A90003BE0B8EE080AB0EE408A36E09FED3B0A04
:103AA000B0EE408A31E0B0EE000AB0EE408A2CE081
:103AB000B0EE080AB0EE408A27E09FED350AB0EE7E
:103AC000408A22E0B8EE000AB0EE408A1DE0B8EE6F
:103AD000080AB0EE408A18E09FED2C0AB0EE408A4A
:103AE00013E0B0EE000AB0EE408A0EE0B0EE080A35
:103AF000B0EE408A09E09FED260AB0EE408A04E06D
:103B00009FED200AB0EE408A00BF00BFB5EEC08A2C
:103B1000F1EE10FA08D100F0C9FA2146204601F072
:103B200071F99FED180AA2E79FED170AB4EE408ADB
:103B3000F1EE10FA22D0B0EE480AFFF70DFE00EECB
:103B4000104AB8EE400A134AD2ED000A30EE600A7D
:103B5000BDEEC00A10EE101A00EE104AB8EE400A90
:103B6000D2ED000A30EE200ABDEEC00A10EE100AB7
:103B700001F048F9074890ED000A78E79FED020A46
:103B800075E70000000000000000C642CDCC4CC02C
:103B9000CDCC4C402006002070B52DED028B0446A4
:103BA0009FED6F0AB0EE408A0820FEF7E7F906465F
:103BB0000720FEF7E3F90546DF2E3FD012DC7F2E0B
:103BC00046D008DC3E2E25D03F2E5FD07C2E26D05E
:103BD0007E2E70D119E09F2E53D0BF2E33D0CF2E22
:103BE00069D149E0FB2E38D008DCEF2E1CD0F32E33
:103BF00051D0F72E1DD0F92E5DD151E0FC2E54D0BE
:103C0000FD2E2FD0FE2E56D131E09FED560AB0EE9C
:103C1000408A66E09FED530AB0EE408A61E09FED76
:103C2000510AB0EE408A5CE09FED4F0AB0EE408A48
:103C300057E09FED4E0AB0EE408A52E09FED4C0AED
:103C4000B0EE408A4DE0B8EE080AB0EE408A48E097
:103C50009FED480AB0EE408A43E09FED470AB0EE80
:103C6000408A3EE0B0EE080AB0EE408A39E09FEDAF
:103C7000430AB0EE408A34E09FED3D0AB0EE408A40
:103C80002FE0B8EE080AB0EE408A2AE09FED390A2C
:103C9000B0EE408A25E09FED380AB0EE408A20E081
:103CA000B0EE080AB0EE408A1BE09FED340AB0EE99
:103CB000408A16E0FFE70820FEF730F9032804DD0C
:103CC0009FED280AB0EE408A0AE03E2D04D19FED18
:103CD000250AB0EE408A03E09FED210AB0EE408A4B
:103CE00000BF00BFB5EEC08AF1EE10FA0AD100F0B5
:103CF000DDF92146204601F085F89FED190ABDEC5B
:103D0000028B70BD9FED170AB4EE408AF1EE10FAF7
:103D100022D0B0EE480AFFF71FFD00EE104AB8EEC1
:103D2000400A174AD2ED000A30EE600ABDEEC00A22
:103D300010EE101A00EE104AB8EE400AD2ED000A5A
:103D400030EE200ABDEEC00A10EE100A01F05AF85B
:103D50000B4890ED000AD2E79FED020ACFE7000082
:103D6000000000000000C6429A9999BF9A99993FB5
:103D70009A9919C0CDCC4CC09A991940CDCC4C40E1
:103D80002006002010B52DED028B04469FED5C0A45
:103D9000B0EE408A0820FEF7F1F8F32853D012DC89
:103DA000BF2828D008DC1F2861D03F2846D07F28B4
:103DB00026D09F2860D13CE0CF2835D0DF2815D011
:103DC000EF2859D108E0F738082855D2DFE800F08D
:103DD000094A40541D4522279FED4A0AB0EE408A09
:103DE0004FE09FED490AB0EE408A4AE0B8EE000A83
:103DF000B0EE408A45E0B8EE080AB0EE408A40E0F6
:103E00009FED420AB0EE408A3BE0B0EE000AB0EE11
:103E1000408A36E0B0EE080AB0EE408A31E09FED0D
:103E20003C0AB0EE408A2CE09FED3A0AB0EE408AA0
:103E300027E09FED390AB0EE408A22E09FED330A79
:103E4000B0EE408A1DE09FED350AB0EE408A18E0E2
:103E50009FED330AB0EE408A13E09FED2D0AB0EEDD
:103E6000408A0EE09FED2A0AB0EE408A09E09FEDFD
:103E7000270AB0EE408A04E09FED210AB0EE408AA6
:103E800000BF00BFB5EEC08AF1EE10FA0AD100F013
:103E90000DF92146204600F0B5FF9FED190ABDEC53
:103EA000028B10BD9FED1F0AB4EE408AF1EE10FAAE
:103EB00022D0B0EE480AFFF74FFC00EE104AB8EEF1
:103EC000400A194AD2ED000A30EE600ABDEEC00A7F
:103ED00010EE101A00EE104AB8EE400AD2ED000AB9
:103EE00030EE200ABDEEC00A10EE100A00F08AFF84
:103EF0000D4890ED000AD2E79FED0A0ACFE70000D7
:103F000000000000CDCC8CBFCDCC8C3FCDCC4CC0C4
:103F1000CDCC4C40CDCCCCBF666626C0CDCCCC3F02
:103F2000666626400000C6422006002010B52DED32
:103F3000028B04469FED560AB0EE408A0820FEF739
:103F40001DF8F32851D010DCBF2826D006DC3F280E
:103F500046D07F2826D09F2856D13CE0CF2835D0A8
:103F6000DF2815D0EF284FD108E0F73808284BD2CA
:103F7000DFE800F0094A404A1D452227B8EE000A52
:103F8000B0EE408A45E0B0EE000AB0EE408A40E074
:103F9000B8EE040AB0EE408A3BE0B8EE080AB0EE94
:103FA000408A36E09FED3B0AB0EE408A31E0B0EE49
:103FB000040AB0EE408A2CE0B0EE080AB0EE408A67
:103FC00027E09FED350AB0EE408A22E0B8EE000A05
:103FD000B0EE408A1DE09FED310AB0EE408A18E055
:103FE0009FED2C0AB0EE408A13E0B0EE000AB0EE6E
:103FF000408A0EE09FED2A0AB0EE408A09E09FED6C
:10400000260AB0EE408A04E09FED210AB0EE408A15
:1040100000BF00BFB5EEC08AF1EE10FA0AD100F081
:1040200045F82146204600F0EDFE9FED190ABDEC53
:10403000028B10BD9FED1B0AB4EE408AF1EE10FA20
:1040400022D0B0EE480AFFF787FB00EE104AB8EE28
:10405000400A154AD2ED000A30EE600ABDEEC00AF1
:1040600010EE101A00EE104AB8EE400AD2ED000A27
:1040700030EE200ABDEEC00A10EE100A00F0C2FEBB
:10408000094890ED000AD2E79FED060ACFE700004D
:1040900000000000CDCC4CC0CDCC4C40666626C0A4
:1040A000666626400000C642200600209FED0F0AEB
:1040B0000F4880ED000A9FED0D0A0E4880ED000AC2
:1040C0009FED0A0A0C4880ED000A9FED080A0B4894
:1040D00080ED000A9FED050A094880ED000A9FED7A
:1040E000030A084880ED000A704700000000000045
:1040F00014060020180600201C06002020060020C0
:10410000240600202806002010B52DED048BB0EE0B
:10411000080A164880ED000A90ED000ADFED140A47
:1041200020EE200A80ED000A9FED120A124880ED71
:10413000000A90ED000ADFED0E0A20EE200A10EED4
:10414000101A0846FCF706F941EC190B9FED0B0B12
:1041500053EC102BFCF77EF841EC180BFCF70DF933
:1041600005490860BDEC048B10BD00001C00002058
:104170000000C84200CC0D411800002000000000E3
:104180000070A74010B503211420FDF7FFFB10BD00
:1041900010B5142000F065FC044604F0030018B9C3
:1041A0000321142000F080FE10BDF0B587B0054655
:1041B000002708210846FDF7E9FB00210D2002F049
:1041C00055F980210E20FDF7E1FB93208DF80400C6
:1041D00020208DF8050006A801AB022201A900905D
:1041E0000C2000F051F8064686B9002407E001A82B
:1041F000005D285501A8005D4740601CC4B2042C36
:10420000F5DB01A8005DB84200D0FE2680210E201B
:1042100000F04AFE304607B0F0BD2DE9F04387B00C
:1042200006460F46904699468DF804608DF8057055
:10423000002406E018F8041001AAA01C1154601C08
:10424000C4B2062CF6DB002407E019F8041001AA1A
:1042500004F108001154601CC4B2062CF5DB06A85A
:1042600001AB0C2201A900900E2000F00DF80546CC
:104270002DB9082000F0F5FB00F0080000B9FE257C
:10428000284607B0BDE8F0832DE9FE4F0646884674
:1042900091469A46DDF830B0FE2002900020019051
:1042A00000900C2E06D00E2E09D112200190102065
:1042B000009005E0772001903020009000E000BFE2
:1042C00000BF019840F08001022002F0CFF8802169
:1042D0000420FDF75BFB0021012002F0C7F88021DC
:1042E0000A2000F0E1FD002505E018F8051009207E
:1042F00002F0BCF86D1C4D45F7D33146012002F0A9
:10430000B5F80C2E03D180210D2000F0CDFD4FF427
:10431000167500BF042000F0A4FB04466D1E35B1E5
:1043200004F0010018B9009820400028F2D0802144
:104330000D20FDF72BFB95B3062000F092FB00F05B
:104340001B0068BB002002900198204000F0010093
:1043500008B1FF2002900C2E24D10A2000F081FB2E
:1043600004460C2000F07DFB00F007072FB1601E13
:1043700007EBC000CBF8000002E0E000CBF8000043
:1043800004B90124122C00DD1224002505E00920C7
:1043900000F067FB0AF805006D1CA542F7D301E0A9
:1043A000FE20029080210C2000F07EFD00210120E3
:1043B00002F05CF80298BDE8FE8FF0B587B00546C4
:1043C0000E4630208DF804008DF805500DF10602E0
:1043D000022101A8FCF7E4FD06A801AB042201A913
:1043E00000900C20FFF750FF074667B90698902809
:1043F00009D1002404E001A8005D3055601CC4B25E
:10440000102CF8DB00E0FE27384607B0F0BD70B591
:1044100088B005460C4608210846FDF7B7FA072183
:104420000D2002F023F80321142000F03DFD8DF84B
:10443000085007A802AB012202A900900C20FFF748
:1044400023FF06464EB90798102806D19DF80800AC
:1044500020709DF80900607000E0FE26304608B02C
:1044600070BD10B500F0DEFA08B1FE2010BD0F21BE
:10447000012001F0FBFF3D21112001F0F7FF1E217B
:104480002D2001F0F3FF00212C2001F0EFFF8D2102
:104490002A2001F0EBFF3E212B2001F0E7FF402115
:1044A000152001F0E3FF0020E0E770B588B0054675
:1044B00093208DF8080070208DF8090000208DF8F9
:1044C0000E0000240BE0295D02AAA01C11549DF8E7
:1044D0000E00295D48408DF80E00601CC4B2042C0B
:1044E000F1DB0DF10F02072102A8FCF759FD0821AD
:1044F0000846FDF74BFA07A802AB092202A9009073
:104500000C20FFF7C1FE064626B90798182801D1EE
:10451000002600E0FE26304608B070BD10B503202E
:10452000FDF7E8FC514908800846008800F026FEA7
:104530004E4908804E4801884C480088FDF708FF26
:104540004C4908704A480088F0BB4B48D0ED000A3F
:104550004648008800EE100AB8EE400A20EE800AB5
:10456000BCEEC00A10EE100A4049088008460088D8
:1045700000EE100AB8EE400A4048D0ED000AB4EE52
:10458000E00AF1EE10FA03D200203D49087016E06F
:104590003648008800EE100AB8EE400A3748D0EDE1
:1045A000000A30EE600ABCEEC00A10EE100A344970
:1045B000087008460078642801DD642008703048DF
:1045C00000783049087000E004E0084601780120D6
:1045D00000F0F4FB2548008825490880254800782C
:1045E0000A2842DD2448D0ED000A2048008800EE69
:1045F000100AB8EE400A20EE800ABCEEC00A10EEA7
:10460000100A1A4908800846008800EE100AB8EE21
:10461000400A1A48D0ED000AB4EEE00AF1EE10FAB2
:1046200003D200201649087016E01048008800EEFA
:10463000100AB8EE400A1148D0ED000A30EE600AC8
:10464000BCEEC00A10EE100A0D490870084600784A
:10465000642801DD64200870094800780949087061
:1046600008460178012000F0A9FB10BD22000020BF
:104670002400002026000020180000201C0000203C
:10468000200000201400002010B586B0044601214F
:10469000084600F043F80121102000F06FF80722CF
:1046A00009211B48FDF735FB07220A211848FDF7B1
:1046B00030FB4FF4C060049002208DF814000020FD
:1046C0008DF8160001208DF8170003208DF81500D5
:1046D00004A90F48FDF7D5FA00940020ADF80C00AE
:1046E0000C20ADF80A000020ADF80800ADF8060077
:1046F000ADF804006946074801F010FC01210548A7
:1047000001F0A3FB00200449087006B010BD0000B2
:1047100000000240001001404800002029B1064A74
:1047200012680243044B1A6004E0034A1268824391
:10473000014B1A60704700003038024029B1064A28
:1047400012680243044B1A6004E0034A1268824371
:10475000014B1A60704700004038024029B1064AF8
:1047600012680243044B1A6004E0034A1268824351
:10477000014B1A60704700002038024029B1064AF8
:1047800012680243044B1A6004E0034A1268824331
:10479000014B1A60704700004438024029B1064AB4
:1047A00012680243044B1A6004E0034A1268824311
:1047B000014B1A607047000024380240F0B5002118
:1047C00000220024022500260223324F3F6807F012
:1047D0000C0121B1042905D0082937D105E02E4F5D
:1047E000076036E02D4F076033E02A4F3F1F3F68D8
:1047F000C7F38056274F3F1F3F6807F03F036EB156
:10480000264FB7FBF3F7DFF88CC0ACF1040CDCF8F3
:1048100000C0CCF3881C07FB0CF40CE01E4FB7FB68
:10482000F3F7DFF870C0ACF1040CDCF800C0CCF397
:10483000881C07FB0CF4174F3F1F3F68C7F3014765
:104840007F1C7D00B4FBF5F7076002E0124F0760A4
:1048500000BF00BF0F4F3F6807F0F0010909104F7C
:104860007A5C0768D74047600A4F3F6807F4E05119
:10487000890A0B4F7A5C4768D7408760054F3F68CD
:1048800007F46041490B064F7A5C4768D740C76020
:10489000F0BD0000083802400024F40040787D019B
:1048A000E80000202DE9FC5F06460F469046994639
:1048B000DDE90CABBC1B0025CDF804B03248B0F9E3
:1048C00000000444012000F009FE38E0554502DBF9
:1048D000BAF1000F2DD100F073F850B3FEF730F8A5
:1048E000002000F0FBFD64211E20FDF765FD642023
:1048F00001F0F8FF502249464046FEF7E1F888B93A
:1049000000F050F8009001994A1C01EB411101EBB5
:10491000410101921D4A88181DA1009A01F080FEF4
:10492000681CC5B2C8211E20FDF776FD012000F0ED
:10493000D5FD1548B0F90000A04200DB00E0C5E756
:1049400000BF002000F0CAFD0F48B0F90000A042EF
:1049500008DD0D48B0F90000011B0E480068FDF7A6
:104960002BFD0CE00848B0F90000A04207DA064829
:10497000B0F90000211A07480068FDF74DFDFDF76A
:10498000DFFF2846BDE8FC9F32010020B60E002064
:1049900025730000A0050020024601EB8200C0B292
:1049A0007047000000487047530E0020014601EB9D
:1049B000411000EB4000014A10447047B60E002041
:1049C00010B504495220FFF722FD08B9012010BD9F
:1049D0000020FCE74900002070B504460D460F4852
:1049E000FFF7E3FBC0B90D48FFF75FFDA0B9E01783
:1049F00004EB90708010032202EB8000C1B2074BE1
:104A00002A466020FFF709FC30B905492046FFF728
:104A1000D4FC08B9012070BD0020FCE74B00002049
:104A2000530E002038B5FE2500200090002400BF62
:104A300012E0552000F01EFA42F21071684600F0B4
:104A400031F838B9552000F015FA642001F04AFF1A
:104A5000002503E0601C84B2642CEADB00BF68B26E
:104A600038BD38B5044604F03F0040F080042046CD
:104A700000F000FA42F21071684600F013F80546A3
:104A80000DB1FF2038BD9DF80000FBE710B54FF4D5
:104A90001650FFF7F9FD4FF4FA7001F023FFFDF710
:104AA0000FFC10BD70B504460D4601F0D3FF4FF466
:104AB000FA61B5FBF1F146180AE00A48008800F0F7
:104AC000200028B1074801F093FA2070002070BD43
:104AD000304601F0C5FF0028EFD1034908700120DE
:104AE000F5E70000001001404800002010B5FDF778
:104AF0005FFA02F0ADFB02F08DFB00F0ADFE10BDE1
:104B00000F48B0F900000F4AB2F90020904207DDCB
:104B10000B48B0F900000B4AB2F90020811A06E0F8
:104B20000848B0F90000064AB2F90020811AB1F530
:104B3000004F02D94FF6FF70411A88B2704700004B
:104B400032010020180100200248B0F9000002499B
:104B500008807047320100201801002010B5244859
:104B6000006801F07DFF002840D101F073FF323072
:104B70001F4908601F48007848B900201E49086096
:104B800001201E49C1F8B0021A4908702EE01948E8
:104B9000007801280BD1002017490C39086001204A
:104BA0001649C1F8B4020220124908701EE01148EB
:104BB000007802280BD100200F4908390860012035
:104BC0000E49C1F8B80203200A4908700EE00948EE
:104BD000007803280AD100200749091F0860012036
:104BE0000649C1F8BC0200200249087010BD00004F
:104BF000FC030020F7030020BC82434200804342B4
:104C00001CB50120032100231A46CDE900108021A4
:104C10000148FDF7ACF81CBD000402401CB50020A3
:104C2000032103460122CDE9001080210148FDF750
:104C30009EF81CBD0004024030B500228B071C0FFB
:104C40000F2303FA04F20B4B8C1053F824309343D8
:104C5000084C8D1044F8253023468C1053F824302E
:104C60008C07240F00FA04F42343024C8D1044F8FF
:104C7000253030BD083801403EB50446FCF794FBB2
:104C8000002016E0A4F11001002910D5092801DD4B
:104C9000373000E03030092C01D9373400E03034AF
:104CA000C1B28DF80610E1B28DF8071003E0103C98
:104CB000401C1928E6DB00BF30208DF80400782066
:104CC0008DF8050020208DF80800002003464FF4E1
:104CD00070720521009001A8FCF720FB4FF4C8700A
:104CE00001F026FE3EBD2DE9F04186B005460126C5
:104CF0002F4600E0761C0A2097FBF0F0071EF9D142
:104D0000344600BF12E021460A2001F067FFB5FBE0
:104D1000F0F100FB1158611E0A2001F05FFFB8FBA3
:104D2000F0F0303002A9C855641E7F1C012CEADA6D
:104D30000020F1B203464FF47072009002A8FCF715
:104D4000EDFA4FF4C87001F0F3FD06B0BDE8F08154
:104D500010B504462046FFF7C6FF02A000F004F895
:104D600010BD00000A00000070B504460025207840
:104D700060B1264601E0681CC5B214F8011B002989
:104D8000F9D12946304600F02FF803E0022104A0B3
:104D900000F02AF84FF47A7001F0CAFD70BD0000EF
:104DA0000A00000010B504462046FFF7DDFF02218F
:104DB00001A000F019F810BD0A0000007CB50546FE
:104DC0000C4603208DF8040001208DF805008DF8B5
:104DD000064000204FF4F073032201A90090104612
:104DE000FCF70EFC7CBD000070B504460D462A465B
:104DF00021460348FCF7B9FE642001F099FD70BD1F
:104E0000B80800207CB504460D46E0B28DF80400D9
:104E1000E0B28DF80500E8B28DF80600E8B28DF832
:104E20000700FCF7B5FA78B10020034620220421E0
:104E3000009001A8FCF772FA00202023024601A985
:104E40000090FCF7DDFB06E000202023042201A9EE
:104E50000090FCF7D5FB7CBD70B504460D462A4694
:104E600021460348FCF781FE642001F061FD70BD1E
:104E7000F808002010B504460A48008800BF094819
:104E8000008800F080000128F9D02146054801F093
:104E9000B4F800BF4021034800F0E3FF0128F9D136
:104EA00010BD00000010014070B505460C460026FC
:104EB0002846FFF7D6FD064646EA0401284601F0DB
:104EC000D5FA002070BD00000CB5002001900090C4
:104ED0003448006840F480303249086000BF3148EF
:104EE000006800F4003000900198401C0190009888
:104EF00018B90198B0F5A04FF1D12A48006800F424
:104F0000003010B10120009001E0002000900098D6
:104F1000012846D123484030006840F080502149A4
:104F2000403108602048006840F440401E49086055
:104F30001C48083000681B490831086008460068B2
:104F400040F4004008600846006840F4A050086043
:104F50001648091F0860081F006840F08070091F8C
:104F6000086000BF0F48006800F000700028F9D00A
:104F700040F205700E4908600A480830006820F0C9
:104F800003000849083108600846006840F0020044
:104F9000086000BF03480830006800F00C000828D3
:104FA000F8D10CBD00380240007000401954400791
:104FB000003C024010B50446FBF7A0FC4620FBF77E
:104FC00071FC2046FBF76EFCFBF7B4FC10BD000043
:104FD00070B504462046FDF719FF0B2849D00CDCBC
:104FE00008287AD004DC012810D0032872D12CE0E4
:104FF000092870D00A28F9D12BE00C2849D00D28B7
:1050000057D0B02868D0FE28F0D18CE04F48007807
:10501000012802D0022815D10AE000204B4908706F
:1050200000F014FB4AA0FFF7BDFE02F049F80AE0C9
:1050300000204649087000F009FB48A0FFF7B2FEC7
:1050400002F066F800BF00BF7EE043A0FDF790FECF
:105050007AE02046FDF7DDFE434908702046FDF763
:10506000DBFE414948702046FDF7D9FE3E49887075
:105070006AE02046FDF7CDFE3B49C8702046FDF7AB
:10508000CBFE394908712046FDF7C9FE3649487103
:105090005AE02046FDF7BDFE344908702046FDF772
:1050A000BBFE324948702046FDF7B9FE2F49887093
:1050B0004AE02046FDF7ADFE2C49C8702046FDF7BA
:1050C000ABFE2A4908712046FDF7A9FE2749487121
:1050D0003AE002E037E010E01FE02046FDF799FEDD
:1050E000234908702046FDF797FE21494870204665
:1050F000FDF795FE1E49887026E02046FDF789FEE3
:105100001B49C8702046FDF787FE194908712046E3
:10511000FDF785FE1649487116E02046FDF779FE39
:105120001449087000BF2046FDF773FEB0F5807F7C
:1051300008DA2046FDF770FE05462046FDF769FEB9
:105140000D490D5400E000BF00BF70BD33060020C4
:10515000736C6176652E2E2E00000000736C6176F4
:1051600065322E2E2E000000B7050020B00500206D
:10517000A9050020A8050020DF0C002010B502467C
:1051800000230B48828200210BE0094C481C34F8B4
:10519000100024F81100204630F81100184483B2A2
:1051A000491C0A29F1DB0A2093FBF0F080B210BD04
:1051B00050080020042808D14FF0E021096941F08F
:1051C00004014FF0E022116107E04FF0E02109698E
:1051D00021F004014FF0E0221161704710B515482D
:1051E000006840F47000134908601348006840F0FC
:1051F00001001149086000200F49083108600E487D
:1052000000680E4908400C4908600D48091D0860F7
:10521000081F006820F48020091F0860002006494C
:105220000C310860FFF750FE4FF0006001498039F3
:10523000086010BD88ED00E000380240FFFFF6FE78
:105240001030002410B50121054800F02CF9012888
:1052500001D1FFF74BFC0121014800F015F910BD09
:105260000040014010B50121074800F01CF9012859
:1052700004D106480068401C044908600121024826
:1052800000F002F910BD000000440140E0000020E1
:1052900010B50121880700F006F901282DD1194821
:1052A000007868B118480178002000F0B9F90120B1
:1052B00001F018FB15480178012000F0B1F907E072
:1052C0006321002000F0ACF96321012000F0A8F96F
:1052D0000F48006860B10F480068B0F5FA7F07DB3F
:1052E00000200C4908600A480068401E0849086010
:1052F00008480068401C074908600121880700F041
:10530000C3F810BD1C0700201D0700201E07002049
:10531000200700202807002010B50121074800F0D1
:10532000C2F8012804D106480088401C04490880BE
:105330000121024800F0A8F810BD00000004004060
:10534000EC03002010B50121074800F0ACF801285B
:1053500004D10648007808B1FEF7A2F901210248FD
:1053600000F092F810BD000000080040810200200B
:1053700010B501210C4800F096F801280FD10B4818
:10538000007860B1FEF702F800200849087000BFFD
:1053900003E00021064A1154401C0A28F9DB0121D0
:1053A000014800F071F810BD000C00407F020020A1
:1053B000EC0A002010B50121074800F074F801281C
:1053C00004D106480068401C0449086001210248D5
:1053D00000F05AF810BD000000100040040000204A
:1053E00010B50121054800F05EF8012801D1FCF755
:1053F000F1FE0121014800F047F810BD0014004003
:1054000010B501210C4800F04EF801280ED10B48D0
:105410000078401C0949087008460078142805DD0A
:105420000120074908700020044908700121024842
:1054300000F02AF810BD0000002000407A00002093
:105440007900002010B501210D4800F02CF801284A
:1054500010D10C480078012802D0022808D103E0BE
:105460001E20FEF78FFC04E01E20FCF7C8FF00E0C2
:1054700000BF00BF0121024800F006F810BD000087
:1054800000040140C0060020CA430282704721B1D7
:10549000028842F00102028004E002884FF6FE73A7
:1054A0001A400280704730B50246002000230024D5
:1054B000158A05EA0103958905EA010413B10CB1C7
:1054C000012000E0002030BD1AB183890B438381A5
:1054D00002E083898B4383817047000010B5044646
:1054E00006480470002C01DD012000E00020014688
:1054F0000348FFF7CCFFFDF723FA10BDC0060020DC
:105500000004014000220288184B98420ED0184B2C
:1055100098420BD0B0F1804F08D0164B984205D07E
:10552000154B984202D0154B984204D14FF68F7319
:105530001A404B881A43124B984207D0114B98429D
:1055400004D04FF6FF431A400B891A4302804B6880
:10555000C3620B880385054B984202D0044B9842E6
:1055600001D18B7A038601238382704700000140BA
:10557000000401400004004000080040000C00400E
:10558000001000400014004070B58AB0002507E00C
:10559000FCF774FC4DF825000A2001F0A3F96D1CFE
:1055A0000A2DF5DB002518E0002411E05DF8241039
:1055B000601C5DF82000814209DD5DF82460601CFC
:1055C0005DF820004DF82400601C4DF82060641C3C
:1055D000C5F10900A042E9DC6D1C0A2DE4DBDDE920
:1055E0000502811801EBD170C0F34F000AB070BD05
:1055F00010B500F099FF00F063FF00F0E9FF00F044
:105600007DFF00F0B9FF00F0E1FF00F075FF10BD75
:1056100070B504460D4629462046FCF7F7FD70BDDF
:105620007047000010B50446002005490860054990
:1056300008600548046001218807FFF728FF10BDB6
:1056400028070020240700202007002010B5002193
:105650004FF08040FFF71BFF10BD000005480068B9
:1056600008B1022070470448006808B10120F9E73A
:105670000020F7E7240700202007002010B500F0E5
:105680004DFE10BD7FB505460C4601210846FFF7CB
:1056900055F80295ADF804400020ADF80600ADF8CD
:1056A0000C008DF80E0001A94FF08040FFF72AFF93
:1056B0001C208DF8000000208DF801000A208DF8D4
:1056C000020001208DF803006846FDF759FA012217
:1056D00011469007FFF7F8FE00214FF08040FFF7DA
:1056E000D6FE7FBD7FB505460C4601210420FFF79D
:1056F00025F80020ADF80C00ADF806000295ADF8D5
:10570000044001A90D48FFF7FDFE012211460B4898
:10571000FFF7DAFE1E208DF8000001208DF803004F
:1057200000208DF8010002208DF802006846FDF788
:1057300027FA00210148FFF7AAFE7FBD00080040BC
:105740007FB505460C4601210820FEF7F7FF0295BC
:10575000ADF804400020ADF80600ADF80C008DF85F
:105760000E0001A90D48FFF7CDFE32208DF8000094
:1057700000208DF8010002208DF8020001208DF834
:1057800003006846FDF7FCF9012211460348FFF7C4
:105790009BFE00210148FFF77AFE7FBD000C004010
:1057A0007FB505460C4601210220FEF7E7FF029572
:1057B000ADF804400020ADF80600ADF80C008DF8FF
:1057C0000E0001A90B48FFF79DFE2C208DF800006C
:1057D00000208DF8010003208DF8020001208DF8D3
:1057E00003006846FDF7CCF9012211460148FFF796
:1057F0006BFE7FBD000401407FB505460C460121CC
:105800004804FEF7BBFF0295ADF804400020ADF858
:105810000600ADF80C008DF80E0001A90D48FFF749
:1058200071FE19208DF8000000208DF8010006207F
:105830008DF8020001208DF803006846FDF7A0F9FD
:10584000012211460348FFF73FFE01210148FFF7FF
:105850001EFE7FBD0044014010B5064800780128B7
:1058600006D10820FCF78AFBC4B2204600F004F8F9
:1058700010BD0000FD00002010B5044654B9002002
:10588000B34908700120B349087000210846FFF7AA
:10589000B9FA2DE1E72C08D1AF480068AF4908609C
:1058A000AD480068AE49086022E1F72C01D0F32C26
:1058B0000AD1A94800681430A8490860A6480068C1
:1058C0002838A749086013E1FB2C01D0F92C0AD134
:1058D000A14800682830A14908609F4800683C380A
:1058E0009F49086004E1FD2C01D0FC2C0AD19A48A4
:1058F00000683C3099490860974800685A389849D0
:105900000860F5E0FE2C0AD19348006850309349B6
:10591000086091480068783891490860E8E0EF2C09
:1059200001D0CF2C0AD18C48006814308C49086013
:1059300089480068283889490860D9E0DF2C01D0FF
:105940009F2C0AD184480068283085490860824825
:1059500000683C3881490860CAE0BF2C01D03F2C68
:105960000AD17D4800683C307D4908607A4800686B
:105970005A387A490860BBE07F2C0AD17648006823
:105980005030774908607448006878387349086077
:10599000AEE074480078012815D104F018001828EA
:1059A00091D104F0800018B104F0010000288AD1E0
:1059B00000206749087001206649087000210846E8
:1059C000FFF720FA94E068480078012871D1182C7C
:1059D00008D161480068614908605F480068604913
:1059E000086085E0082C01D00C2C0AD15A480068C8
:1059F00014305A49086058480068283858490860E7
:105A000076E0042C01D0062C0AD1534800682830D7
:105A100052490860504800683C385149086067E0C6
:105A2000022C01D0032C0AD14B4800683C304B4972
:105A30000860494800685A384949086058E0012C14
:105A40000AD145480068503044490860424800681F
:105A50007838434908604BE0102C01D0302C0AD133
:105A60003D48006814303E4908603B4800682838CB
:105A70003A4908603CE0202C01D0602C0AD136481D
:105A80000068283036490860334800683C3833499C
:105A900008602DE0402C01D0C02C0BD12E480068AE
:105AA0003C302F4908602C4800685A382B49086060
:105AB0001EE015E0802C0AD12748006850302849A4
:105AC00008602548006878382449086010E02248BA
:105AD000006822490860204800682149086007E002
