:020000040800F2
:10000000881000209D010008A5010008A701000834
:10001000A9010008AB010008AD01000800000000C4
:10002000000000000000000000000000AF01000818
:10003000B101000800000000B3010008B50100088C
:10004000B7010008B7010008B7010008B7010008B0
:10005000B7010008B7010008B7010008B7010008A0
:10006000B7010008B7010008D1170008B701000860
:10007000B7010008B7010008B7010008B701000880
:10008000B7010008B7010008B7010008B701000870
:10009000B7010008B7010008B7010008B701000860
:1000A0008D3D0008AD3D0008B7010008B70100080C
:1000B000D93D0008613E00088D3E0008B7010008E8
:1000C000B7010008B7010008B7010008B701000830
:1000D000B7010008B545000811460008B70100083F
:1000E000B7010008B7010008B7010008B701000810
:1000F000B7010008493F0008B7010008B701000830
:10010000B7010008B7010008B93E0008B7010008B0
:10011000A5450008B7010008FD3E0008293F00087A
:10012000B7010008B7010008B7010008B7010008CF
:10013000B7010008B7010008B7010008B7010008BF
:10014000B7010008B7010008B7010008B7010008AF
:10015000B7010008B7010008B70100083D470008D3
:10016000B7010008B7010008B7010008B70100088F
:10017000B7010008B7010008B7010008B70100087F
:10018000B7010008B7010008DFF80CD000F08EF9C5
:100190000048004739510008881000200648804771
:1001A00006480047FEE7FEE7FEE7FEE7FEE7FEE75C
:1001B000FEE7FEE7FEE7FEE7253D000889010008AF
:1001C000202A04DB203A00FA02F100207047914017
:1001D000C2F1200320FA03F3194390407047202A0C
:1001E00004DB203A21FA02F00021704721FA02F3E1
:1001F000D040C2F12002914008431946704740EABE
:1002000001039B0703D009E008C9121F08C0042A94
:10021000FAD203E011F8013B00F8013B521EF9D27B
:100220007047D2B201E000F8012B491EFBD27047A3
:100230000022F6E710B513460A4604461946FFF7B2
:10024000F0FF204610BD2DE9F04D81EA030404F0D3
:10025000004B21F0004514464FF0000A23F0004106
:1002600050EA050220D054EA01021DD0C5F30A5716
:100270000246C5F31303C1F31300C1F30A5640F459
:10028000801543F48013A7EB0608101BD64608F22E
:10029000FD3873EB050002D308F1010801E0921864
:1002A0005B41B8F1000F03DA00200146BDE8F08D94
:1002B00000204FF48011064684460EE0171B73EBB6
:1002C000050705D3121B63EB050306434CEA010C3B
:1002D00049084FEA300092185B4150EA0107EDD11E
:1002E00052EA030012D082EA040083EA05010843BF
:1002F00005D0101BAB4106D20122002306E00022EC
:100300004FF0004302E06FF0010253101AEB0600B9
:100310004CEB085110EB0A0041EB0B01BDE8F04D2E
:1003200000F066B800F0004230F000400AD0C10D85
:1003300001F56071C0F3160042EA0151C20840079E
:100340001143704700200146704701F0004330B46C
:1003500021F0004150EA010206D00A0DA2F56072B8
:10036000C1F31301002A02DC30BC00207047440FA7
:1003700044EAC104C100E01830BC00EBC250AFF346
:1003800000800029A8BF7047401C490008BF20F02A
:100390000100704710B4B0FA80FC00FA0CF050EA8B
:1003A000010404BF10BC704749B1CCF1200421FA0C
:1003B00004F411FA0CF118BF012121430843A3EB07
:1003C0000C01CB1D4FEA00614FEA102042BF002014
:1003D00010BC704700EBC35010440029A4BF10BCF0
:1003E0007047401C490008BF20F0010010BC704756
:1003F00010B5141E73F1000408DA401C41F100012D
:1004000092185B411A4301D120F0010010BD2DE983
:10041000F04D92469B4611B1B1FA81F202E0B0FA7A
:1004200080F220329046FFF7CBFE04460F4640EAAA
:100430000A0041EA0B0153465A46084313D01146BD
:1004400053EA010019D0C8F140025046FFF7C7FE39
:1004500005460E46504659464246FFF7B1FE084350
:1004600005D0012004E020463946BDE8F08D00208B
:10047000054346EAE0762C4337430A986305E40ACD
:10048000A0EB08000022FD0A44EA47540A3002D5D6
:1004900000200146E9E7010510196941DDE9084539
:1004A00000196941BDE8F04DA2E70000064C074D78
:1004B00006E0E06840F0010394E807009847103434
:1004C000AC42F6D3FFF764FE90540008B054000825
:1004D00070B58D1810F8014B14F0030201D110F81B
:1004E000012B231106D110F8013B03E010F8016B3A
:1004F00001F8016B521EF9D1ABB110F8012B04F0D9
:100500000C048A1A0C2C03D0A2EB84129B1C08E06A
:1005100010F8014BA2EB0422F8E712F8014B01F8A6
:10052000014B5B1EF9D5A942D4D3002070BDCA434C
:100530000260704721B1826842F00102826003E0EC
:10054000826822F001028260704700000021084AA0
:100550001168084A1140D0E900231A4383681A43FE
:10056000C3681A431143044AC2F8041370470000D9
:1005700004230140E030FCFF0020014000B58DB0B5
:100580000121084602F0D6FF0121080203F002F81B
:100590004020019003208DF8080000208DF80B000A
:1005A00001A9174801F051FA002003900490069029
:1005B000059003A8FFF7CAFF0121080202F0FAFF25
:1005C00000214FF4807002F0F5FF00208DF820002C
:1005D00007908DF8210009900B9001208DF83000D4
:1005E00007A9084800F01EF806230122194605480D
:1005F00000F042F801210348FFF79CFF0DB000BD59
:1006000000000240002001400146C86C80B27047E3
:100610000246002013680B400BB1012000E00020CF
:100620007047000030B50246002000235068104C8F
:1006300020400D790C6844EA0524204350609068FE
:100640000C4C2040D1E903542C438D682C434D7948
:1006500044EA450420439060D06A20F470000C7D89
:10066000641EE4B2234340EA0350D06230BD000070
:10067000FFFEFFFCFDF7FFC0F0B504460D4600206D
:100680000021092D11DDE068A5F10A0606EB4607F9
:10069000072606FA07F18843A5F10A0606EB460687
:1006A00003FA06F10843E0600CE0206905EB45071A
:1006B000072606FA07F1884305EB450603FA06F11B
:1006C00008432061072A0FDA606B561E06EB860787
:1006D0001F2606FA07F18843561E06EB860605FA22
:1006E00006F10843606322E00D2A0FDA206BD61F63
:1006F00006EB86071F2606FA07F18843D61F06EB8E
:10070000860605FA06F10843206310E0E06AA2F1CC
:100710000D0606EB86071F2606FA07F18843A2F1AD
:100720000D0606EB860605FA06F10843E062F0BD09
:10073000816841F080418160704770B504460D4684
:10074000012C03D10621284603F09CFC022C03D186
:100750000821284603F054F970BD000010B500F0E0
:1007600009F8012003F000FA00200149086010BDDB
:10077000BC02434210B50121422002F0DBFE10BD55
:1007800010B503F089F8012008490860022004F040
:1007900019FC0748D0F81C02C4B2002003490860C5
:1007A000022004F00FFC204610BD00009882404259
:1007B0000080404270B5044603F07CF800251BE041
:1007C00004F080061EB101200E49086002E00020FE
:1007D0000C4908606006040E01200A49091F0860E0
:1007E000022004F0EFFB00200749C1F89802022024
:1007F00004F0E8FB681CC5B2082DE1DBFFF7C0FF81
:1008000070BD00009C8240420080404210B503F061
:1008100051F80120094908600949C1F898020420EB
:1008200004F0D0FB002005490860042004F0CAFB56
:1008300000200349C1F8980210BD00009C8240428C
:100840000080404210B503F035F8002007490860E9
:1008500001200749C1F89802042004F0B3FB0120ED
:1008600002490860042004F0ADFB10BD9C824042A8
:100870000080404210B503F009FF10BD10B50648D6
:10088000006804F0CBFB30B904F0C2FBC830024969
:10089000086002F04FFD10BDF403002010B50446BF
:1008A0000B48844209D10121480602F063FE002171
:1008B0004FF0007002F05EFE08E00121880602F0B1
:1008C00059FE00214FF0806002F054FE10BD000080
:1008D0000064004010B50021837A012202FA03F17E
:1008E0003D4A126842F001023B4B1A603A4A1C3200
:1008F00012688A43384B1C331A60027BCAB9364AE5
:100900000C3212688A43344B0C331A604288C38815
:1009100042EA0343304A4032847A42F83430028853
:10092000838842EA03432C4A4032847A02EBC402B1
:100930005360027B012A19D1274A0C3212680A43FC
:10094000254B0C331A604288038842EA0343224A4B
:100950004032847A42F83430C288838842EA0343C2
:100960001D4A4032847A02EBC4025360C27A3AB91B
:10097000194A121D12688A43174B1B1D1A6006E0A4
:10098000154A121D12680A43134B1B1D1A60028977
:1009900032B9114A143212688A430F4B14331A6069
:1009A0000289012A06D10C4A143212680A430A4B02
:1009B00014331A60427B012A06D1074A1C3212689E
:1009C0000A43054B1C331A60034A126822F00102E5
:1009D000014B1A6010BD0000006600401AB1436967
:1009E0000B43436102E043698B434361704730B579
:1009F000024600200023146824F0020414601468E6
:100A000044F00104146000E05B1C546804F001042D
:100A10001CB94FF6FF74A342F6D1546804F00104E8
:100A20000CB900206CE08C79012C04D1146844F0DE
:100A30008004146003E0146824F080041460CC790E
:100A4000012C04D1146844F04004146003E01468DD
:100A500024F0400414600C7A012C04D1146844F092
:100A60002004146003E0146824F0200414604C7A1D
:100A7000012C04D1146844F01004146003E01468DD
:100A800024F0100414608C7A012C04D1146844F012
:100A90000804146003E0146824F008041460CC7A9D
:100AA000012C04D1146844F00404146003E01468B9
:100AB00024F0040414608C78A407CD7844EA05641B
:100AC0000D7944EA05444D7944EA05540D886D1EBC
:100AD0002C43D461146824F001041460002300E066
:100AE0005B1C546804F001041CB14FF6FF74A34270
:100AF000F6D1546804F001040CB1002000E001209C
:100B000030BD0246002019B9D36803F0030006E0A7
:100B1000012903D1136903F0030000E000207047AE
:100B200010B500F5D87303EB01131B6803F0040341
:100B30001372137A53B900F5D87303EB01131B68D2
:100B400040F2FF7404EA5353136009E000F5D873D0
:100B500003EB01131B686FF0604404EAD303536096
:100B600000F5D87303EB01131B6803F00203537203
:100B700000F5D87303EB01135B6803F00F03937266
:100B800000F5D87303EB01135B681B0AD37400F5FF
:100B9000D87303EB01139B68D37200F5D87303EB92
:100BA00001139B681C0A147300F5D87303EB01133F
:100BB0009B681C0C547300F5D87303EB01139B68FE
:100BC0001B0E937300F5D87303EB0113DB68D3732B
:100BD00000F5D87303EB0113DB681C0A147400F5ED
:100BE000D87303EB0113DB681C0C547400F5D87345
:100BF00003EB0113DB681B0E937421B9C36843F048
:100C00002003C36003E0036943F02003036110BDC8
:100C100010B502460020936803F08063B3F1806F43
:100C200000D110E0936803F00063B3F1006F01D1CD
:100C3000012008E0936803F08053B3F1805F01D195
:100C4000022000E00420042874D002F5C07303EBF6
:100C500000131B6803F0010402F5C07303EB0013DB
:100C60001C600B7A7BB94B7A0C8843EA445302F53B
:100C7000C07404EB00142468234302F5C07404EB31
:100C80000014236010E00B7A4C6843EAC4034C7AEA
:100C9000234302F5C07404EB00142468234302F5D7
:100CA000C07404EB001423608B7A03F00F038B7283
:100CB00002F5C07303EB00135B6823F00F0402F529
:100CC000C07303EB00135C6002F5C07303EB001309
:100CD0005B688C7A234302F5C07404EB00146360F4
:100CE0008B7B1C064B7B44EA03440B7B44EA0323C7
:100CF000CC7A234302F5C07404EB0014A3608B7C10
:100D00001C064B7C44EA03440B7C44EA0323CC7B63
:100D1000234302F5C07404EB0014E36002F5C073D2
:100D200003EB00131B6843F0010402F5C07303EBEF
:100D300000131C6010BD000010B50246002321B155
:100D4000012907D002290FD109E090681D4C00EA63
:100D500004030BE090681C4C00EA040306E0906872
:100D60001A4C00EA040301E0002300BF00BF184C46
:100D7000181BA34216D007DC83B16FF080601844C3
:100D800070B1022818D111E0B0F5007F10D0114CDD
:100D9000204448B1B0F5003F0ED10BE002230DE036
:100DA00000230BE0002309E0002307E0012305E016
:100DB000012303E0012301E0002300BF00BFD8B2FC
:100DC00010BD000003000004000300080000031031
:100DD000000100080001FFF72DE9FF4705460E4618
:100DE0004FF0000A06B10DB94FF0010A944800789F
:100DF00000F00F00032801DD4FF0010A9048007851
:100E0000C0F30019BAF1000F19D000208DF80A00C4
:100E10008DF80B0001208DF80C000020ADF80000CB
:100E2000ADF80200ADF80400ADF80600ADF808001A
:100E300001208DF80D006846FFF74CFDFEE0002014
:100E4000ADF8080001208DF80D004FF000080024D7
:100E5000F2E07B48007800F00F0030B101283BD071
:100E600002287BD0032874D19CE000208DF80B0071
:100E70008DF80C0035F824004B460022114600F096
:100E8000E1F8ADF8020005EB840148884B460022EA
:100E9000114600F0D7F8ADF80600601CC0B2044659
:100EA000B04213DA35F824004B460022114600F018
:100EB000C9F8ADF8000005EB840148884B460022D4
:100EC000114600F0BFF8ADF8040004E00020ADF8D2
:100ED0000600ADF804009CE001208DF80B00002016
:100EE0008DF80C0035F824004B460022114600F026
:100EF000A9F8ADF80200601CC0B20446B04207DA9F
:100F000035F824004B460022114600F09BF800E023
:100F10000020ADF80600601CC0B20446B04207DAFB
:100F200035F824004B460022114600F08BF800E013
:100F30000020ADF80000601CC0B20446B04209DADF
:100F400035F824004B460022114600F07BF802E001
:100F500004E051E00020ADF804005AE000208DF8D4
:100F60000B0001208DF80C0035F824004B460022C0
:100F7000114600F081F80746B8B2ADF80200380C0F
:100F8000ADF8000005EB840148884B46002211466D
:100F900000F072F80746B8B2ADF80600380CADF8AC
:100FA000040036E001208DF80B008DF80C0035F8B8
:100FB00024004B460022114600F05EF80746B8B206
:100FC000ADF80200380CADF80000601CC0B2044659
:100FD000B04208DA05EB840148884B4600221146EE
:100FE00000F04AF800E000200746B8B2ADF806006D
:100FF000380CADF804000CE00020ADF80200ADF8AC
:101000000000ADF80600ADF8040034464FF0010AC8
:1010100000BF00BF8DF80A806846FFF75BFCB44252
:1010200002DA601CC4B200E007E008F10100C0B2BF
:1010300080460D2800DB00E00BE700BFBDE8FF871E
:101040001C01002010B50446C4F309040AB11020A5
:1010500000E0002002460BB1082000E0002003461B
:1010600013B1C1F3C13000E00020014642EA441050
:101070001843084380B210BD10B50446C4F30904F8
:101080000AB1022000E0002002460BB1042000E07B
:101090000020034613B18803C00A00E00020014687
:1010A00042EA44301843084310BD000010B5002147
:1010B0000148FFF726FD10BD0064004070B50446EE
:1010C000002554B100210648FFF71BFD054625B158
:1010D000224600210248FFF723FD284670BD00008C
:1010E000006400402DE9F04706460C461746984636
:1010F000DDF820904FF0000A15480760C0F8048022
:10110000002013490872487208468472224631460C
:101110000B30FFF774F80E490E48FFF779FD0546CE
:10112000042D09D04FF0010A29460A48FFF704FEB2
:10113000012801D14FF0020ABAF1010F04DBB9F125
:10114000000F01D089F800505046BDE8F08700003C
:1011500020080020006400400448006800F0E050CF
:1011600008B1012070470020FCE70000086400403F
:1011700010B501E000F006F8FFF798FF0028F9D15C
:1011800010BD000010B52448FFF798FF2248C07C2E
:1011900020B101280AD0022818D10FE01E48827A17
:1011A00000F10B011D4800F0C4FB24E01A48827ACC
:1011B00000F10B011A4800F0BCFB1CE01648827AD3
:1011C00000F10B01174800F0B4FB14E01248C07C9A
:1011D00003280FDB1048C07C06280BDC0E48C07CBF
:1011E000C01E114901EBC0000B490B310A680260B7
:1011F0004968416000BF00BF0748C07C062809DC81
:101200000548C07C094951F820000949096808438C
:101210000749086010BD000094090020480800201C
:101220005808002078080020A809002080530008F2
:101230002001002000B5034A5178107800F054FED8
:1012400000BD0000A8090020F8B5FFF785FF0028C1
:101250005FD00026002559E02E4890F9000030B1FB
:1012600001280ED002281ED0032840D12DE000F026
:101270005DF80746002F03DB0126F8B200F07AF88C
:1012800039E008222449254800F03EFBC4B24CB1A5
:101290000126234800234FF42072214600901E4867
:1012A000FFF720FF27E008221B491E4800F02CFB17
:1012B000C4B24CB101261A4800234FF428722146CB
:1012C00000901548FFF70EFF15E008221249164856
:1012D00000F01AFBC4B24CB10126114800234FF4B0
:1012E0007072214600900C48FFF7FCFE03E0FF20DF
:1012F0000849087000BF00BF06480078401C40B293
:101300000449087006B103E0681CC5B2042DA3DDD2
:1013100000BFF8BD5401002024010020680800200F
:101320005501002088080020480800204FF0FF30B9
:10133000002109E001EB8102054B13F822200AB1DC
:1013400048B203E04A1CD1B20729F3DB00BF704763
:10135000C8090020002007E0002100EB8002044BB8
:1013600003F82210411CC8B20728F5DB70470000C3
:10137000C8090020F8B50446002004EB84050E4E91
:1013800006EB850500902B6904EB840506EB8505CB
:10139000EA6804EB840516F8251004EB840506EBD7
:1013A0008505681CFFF79EFE002004EB8401324691
:1013B00002F82100F8BD0000C80900202DE9F04125
:1013C00004460F4615461E46DDF81880072C1ADA2B
:1013D00004EB84000D4901F8205004EB84010B4A12
:1013E00002EB8101481C2A463946FEF708FF04EB50
:1013F0008400064901EB8000C66004EB840001EB29
:101400008000C0F81080BDE8F0810000C80900200D
:1014100010B50D4A32210D4800F02AF80C4A32214D
:101420000C4800F025F80C4A32210C4800F020F856
:101430000B4A32210B4800F01BF80B4A32210B48B3
:1014400000F016F810BD00009808002048080020A1
:10145000CA08002058080020FC0800206808002066
:101460002E0900207808002060090020880800204C
:1014700070B504460E4615462660E56000212046FC
:1014800000F091FA70BD000038B5FFF771FE68E01A
:10149000FFF76EFE002462E0344850F8240034491F
:1014A00009680840002858D0072C4DD2DFE804F026
:1014B000040C18242739460000BF69462D4800F067
:1014C00084FA0028F9D13FE003E09DF8000000F025
:1014D00075F86946284800F078FA0028F5D133E01D
:1014E00003E09DF8000000F093F86946234800F0FF
:1014F0006CFA0028F5D127E0FFF79CFE24E0204895
:1015000003F048F81F49088005E01E480088A0F550
:1015100061601C4908801B480088B0F5616FF4DAEF
:1015200012E017480838007C022806D11448093018
:1015300003F028F800B21449088005E01048083884
:10154000007E012800D100BF00BF104850F82400E1
:1015500007490968084006490860601CC4B2062CA7
:101560009ADD03480068002892D138BD80530008F6
:10157000200100204808002058080020780800209A
:10158000B0090020300100202E0100200054000886
:1015900010B5002006490860064908700721064872
:1015A000FFF71AFCFFF734FFFFF7D4FE10BD000071
:1015B000200100201C0100203201002010B504464B
:1015C0000F48007870B903F023FD0A300D49086018
:1015D00000200D4908700D4809784454012008493D
:1015E00008700BE008480078C82807DA0648007839
:1015F000401CC0B20449087004490C5410BD0000DE
:101600007B020020840200207A0200207C0A002055
:1016100010B504460F48007870B903F0F9FC0A30A1
:101620000D49086000200D4908700D4809784454A0
:101630000120084908700BE008480078C82807DA3C
:1016400006480078401CC0B20449087004490C5494
:1016500010BD00007D020020880200207C020020D6
:10166000440B00207FB505460C460121202001F0E7
:1016700071FF0295ADF804400020ADF80600ADF80A
:101680000C008DF80E0001A90D4802F0A9FC3720CE
:101690008DF8000000208DF8010004208DF8020074
:1016A00001208DF80300684600F06EFF012211460C
:1016B000034802F08BFC0121014802F06AFC7FBD67
:1016C0000014004010B5FFF7DFFEFFF7BDFD10BDB1
:1016D0001CB501214FF4C07001F02CFFF0200090E8
:1016E00000208DF8040001208DF807006946144899
:1016F00000F0ABF94FF47040009001208DF8040029
:1017000000208DF8060001208DF8070003208DF8D9
:10171000050069460B4800F098F920200090012050
:101720008DF8040000208DF8060001208DF80700D8
:1017300003208DF805006946024800F086F91CBDBB
:1017400000200240001C0240002001490870704740
:101750009805002070B505460C460026284601F085
:10176000CCFF064626EA0401284603F0EFFA0020E3
:1017700070BD70B505460C46002D06DB642D00DDFE
:101780006425052D0BDA052509E015F1640F01DA52
:101790006FF0630515F1050F01DD6FF00405002CF6
:1017A00006DB642C00DD6424052C0BDA052409E03B
:1017B00014F1640F01DA6FF0630414F1050F01DD19
:1017C0006FF004042146284602F0F0F870BD0000D6
:1017D00010B5102000F03CF8012825D11021134845
:1017E00000F09EF9E8B90021114802F0D2FB11483F
:1017F00090ED000AB8EE400A0F4880ED000AD0EDE7
:10180000000A9FED0E1AB3EE040A10EE810A80ED75
:10181000000A90ED000ABCEEC00A10EE100A08495A
:101820000880102000F00EF810BD000000040240F7
:10183000001000400400002000000020F628DC3FDB
:10184000080000200149086070470000143C014076
:1018500001460020034A12680A400AB1012000E054
:1018600000207047143C0140002123498279002A5E
:101870003AD00A46126803689A430B461A600A1D5A
:10188000126803689A430B1D1A60027911440A68B2
:1018900003681A430A60184A0832126803689A43B8
:1018A000154B08331A601A1D126803689A43124BCD
:1018B0000C331A604279102A0ED11A1F126803687D
:1018C0001A430D4B08331A601A1D126803681A4335
:1018D000094B0C331A600DE00749427911440A683C
:1018E00003681A430A6005E0027911440A68036834
:1018F0009A430A6070470000003C014010B501F0B7
:10190000A3FCFEF73BFE10BDF0B507460C4616469D
:10191000002564B106E06119384600F056F800B9B8
:1019200004E06D1C301EA6F10106F4D100BF28466C
:10193000F0BDF0B507460D461646002406E0295DC9
:10194000384600F06CF800B904E0641C301EA6F1C3
:101950000106F4D100BF2046F0BD30B50446002595
:10196000204600F04AF870B1D4E90001401E8142DF
:1019700003D1A06838B1012505E0D4E90101401C7C
:10198000814200D00125284630BD30B504460025EF
:10199000204600F032F820B1D4E90110884200D08E
:1019A0000125284630BD70B504460D4664B1206857
:1019B000012809D90020A0602068401E60602A46E6
:1019C0002168E068FEF72DFC70BD70B504460D4639
:1019D000002685B12046FFF7C0FF60B16068401C5B
:1019E00060602168884201D3002060606168E0681F
:1019F000405C28700126304670BD0146002069B168
:101A00000A68012A0AD9CA6842B10B688A689A42F0
:101A100004D2D1E900329A4200D20120704770B559
:101A200004460D4600262046FFF7AFFF58B1A168D7
:101A3000481CA060E06845542168A068884201D332
:101A40000020A0600126304670BDF0B50A46002196
:101A50000023002400BF3DE0012505FA01F31568CD
:101A600005EA03049C4234D105684F000326BE40BA
:101A7000B543056015794E00B540066835430560ED
:101A80001579012D02D01579022D16D185684F00E8
:101A90000326BE40B543856055794E00B540866843
:101AA00035438560456801268E40B54345604568ED
:101AB00096798E40B6B235434560C5684F0003261F
:101AC000BE40B543C560D5794E00B540C6683543C4
:101AD000C560491C1029BFD3F0BDF0B50023002418
:101AE0004D07ED0E02FA05F3CE1000F1200555F872
:101AF00026504E07F70E0F26BE40B543CF1000F11B
:101B0000200646F82750CE1000F1200555F8265043
:101B100045EA0304CE1000F1200545F82640F0BD4B
:101B20000246002013690B400BB1012000E00020A9
:101B30007047418370472DE9F0470C46DDE908679F
:101B4000002100258C4600BF60E04FF0010808FA34
:101B500001F504EA050CAC4557D1D0F800804FEAF6
:101B6000410A4FF0030909FA0AF928EA0908C0F8FE
:101B70000080D0F800804FEA410902FA09F948EAEA
:101B80000908C0F80080012A01D0022A27D1D0F824
:101B900008804FEA410A4FF0030909FA0AF928EAD6
:101BA0000908C0F80880D0F808804FEA410906FA11
:101BB00009F948EA0908C0F80880D0F804904FF005
:101BC000010808FA01F829EA0809C0F80490D0F8D9
:101BD000048003FA01F948EA0908C0F80480D0F843
:101BE0000C804FEA410A4FF0030909FA0AF928EA82
:101BF0000908C0F80C80D0F80C804FEA410907FAB8
:101C000009F948EA0908C0F80C80491C10299CD33E
:101C1000BDE8F0870183704710B502210848FEF740
:101C200086FC0748FEF784FD00BF02210448FEF74A
:101C3000EFFC0028F9D00248FEF7E6FC10BD0000DA
:101C40000020014070B504460025002607E0FFF79C
:101C5000E3FF0544052003F08FF9701CC6B2A642CD
:101C6000F5DBB5FBF4F080B270BD0000014600204A
:101C700021B107290AD008290ED10AE0074A527873
:101C8000064B1B7802EB032290B205E0034A507822
:101C900002E0024A107800BF00BF70472C0100200C
:101CA00010B515480078012810D101F075FD1349D1
:101CB000098888421EDB00200F4908700320104964
:101CC00008700021084601F071FE13E00D4800780D
:101CD00001280FD101F060FD08490988884209DB1D
:101CE00000200849087003200549087000210846B3
:101CF00001F05CFE10BD0000F70000200C01002088
:101D0000FE000020F800002010B54FF4E06000F065
:101D100077FC02F0D2FFA82003F010F9FFF7D8FCFF
:101D200000F024F8FFF7EAFD02F058FE53210720E7
:101D3000FFF798FCA72140F2E73002F067FA01F0C4
:101D4000F1FCFEF797FD40F24731012002F02EFA38
:101D500042F2CF01142002F0CBF942F2CF01012070
:101D600002F0F6F902F07EF910BD000000B589B06E
:101D70000121212001F0DEFB09220B214248FFF75F
:101D8000ACFE09220C214048FFF7A7FE4FF4C050DB
:101D9000079002208DF820008DF8210000208DF89A
:101DA000220001208DF8230007A93748FFF74DFED8
:101DB0004FF48060079001208DF8200002208DF8FC
:101DC000210000208DF8220001208DF8230007A9B2
:101DD0002E48FFF73AFE002000F05EF80121480689
:101DE00001F0B8FB2A48FEF759FD00208DF81600D7
:101DF00001208DF8170000208DF8180001208DF8C3
:101E0000190000208DF81A0001208DF81B00002019
:101E10008DF812008DF8130001208DF814000220B7
:101E20008DF815000720ADF8100004A91848FEF73A
:101E3000DEFD00208DF80A008DF80B0001208DF8E2
:101E40000C000020ADF80000ADF80200ADF8040071
:101E5000ADF80600ADF8080001208DF80D006846C9
:101E6000FEF738FD12200B490860486000204872D8
:101E7000087201208872002202210548FEF7AEFD9B
:101E8000FFF786FB09B000BD0000024000140240CD
:101E900000640040540A002010B504462CB94FF4E9
:101EA00080610548FFF745FE04E04FF48061024879
:101EB000FFF7B0FE10BD00000014024010B5FFF7A0
:101EC00001FC10BD10B504462CB14FF480710548DB
:101ED000FFF7A0FE04E04FF480710248FFF729FEEF
:101EE00010BD000000200240014A10705170704780
:101EF0002C0100202DE9F0410746884600202849A2
:101F00000860092003F038F801202649C1F8AC0226
:101F1000042003F031F84FF40C7003F053F8002460
:101F20002EE0002528E0385D284100F0010676B952
:101F300000201B4908604FF4FA7003F043F80120B9
:101F40001849C1F8AC024FF4FA7003F03BF8012EC7
:101F500010D10020124908604FF4FA7003F032F8F3
:101F600001201049C1F8AC0203F006F84FF44870A4
:101F700003F028F8681CC5B2082DD4DB601CC4B27D
:101F80004445CEDB0020064908604FF40C7003F096
:101F900019F801200349C1F8AC02BDE8F081000046
:101FA000AC8242420080424210B501F09EF908B175
:101FB000FE2010BD01F086F9022002F0DDFF01F0E5
:101FC00087F9412000F00AF808B1FE20F1E701206E
:101FD000014908700020ECE74400002010B50446D9
:101FE000412C25D108210846FFF7B4FB3D211120E3
:101FF00002F0ACFE8621172002F0A8FE7F212620E9
:1020000002F0A4FE1E212D2002F0A0FE00212C20B3
:1020100002F09CFE8D212A2002F098FE3E212B200A
:1020200002F094FE0A2002F0A7FF01F051F901E04E
:10203000FF2010BD0020FCE702468A4201D9501A59
:102040007047881AFCE7000010B504469FED111A8E
:10205000DFED110AB3EE090A00F02AFE4FF46171B8
:102060000E48006800F0A4F94FF461710B48006855
:1020700000F016F84FF4FA710848006800F098F97B
:1020800021460648006800F00BF800F0C7F900F0A0
:1020900037FE10BD00009643000000009C050020A4
:1020A00070B504460D462E46642002F065FF01F02F
:1020B00097FB01F071FB0644642C00D96424052CC5
:1020C00000D205246142604201F070FC02E0012070
:1020D00002F052FF01F060FBB042F8DD002108463B
:1020E00001F064FC642002F047FF70BD10B50446A7
:1020F000642C00D96424052C00D2052421462046F6
:1021000001F054FC962002F037FF10BD70B5044674
:102110000D460026642002F02FFF01F061FB01F064
:102120003BFB06462146604201F040FC02E001F024
:1021300033FB0646AE42FAD90021084601F036FCD0
:10214000642002F019FF70BD2DE9F04180460E4673
:102150000127642002F010FF01F042FB01F01CFB9C
:102160000546C8F10001404601F020FC062E6ED263
:10217000DFE806F00304A00F3F6C9CE000BF01F015
:102180000BFBB0F5617FFADB0021084601F00EFC85
:1021900091E02BE001F000FB054640F2A46085428F
:1021A00019DD40F23A70854215DA0820FFF75EFD2E
:1021B0000446EF2C01D0F72C05D10021084601F090
:1021C000F5FB002712E0E72C0FD10021084601F0B3
:1021D000EDFB00270AE040F23A70854205DD002160
:1021E000084601F0E3FB002700E000BF002FD1D13B
:1021F00061E028E001F0D0FA0546B5F5C87F18DDAA
:10220000B5F5FA7F15DA0820FFF730FD0446EF2C0C
:1022100001D0F72C05D10021084601F0C7FB0027AB
:1022200011E0E72C0ED10021084601F0BFFB00278A
:1022300009E0B5F5FA7F05DD0021084601F0B6FB9F
:10224000002700E000BF002FD4D134E02FE031E0C0
:1022500001F0A2FA0546B5F52F7F1DDD40F2B6303C
:10226000854219DA0820FFF701FD0446EF2C01D062
:10227000F72C09D10F21404600F027F8002108462D
:1022800001F094FB002712E0E72C0FD10021084653
:1022900001F08CFB00270AE040F2B630854205DDF4
:1022A0000021084601F082FB002700E000BF002F5C
:1022B000CED100E000BF00BF0021084601F076FB50
:1022C000642002F059FEBDE8F08170B504460D4669
:1022D0000026642002F050FE01F082FA01F05CFA60
:1022E00006466142204601F061FB02E001F054FA2B
:1022F0000646AE42FAD90021084601F057FB642099
:1023000002F03AFE70BD000070B504460B48057837
:10231000046000F06BFF02E0012002F02DFE204679
:1023200000F00EFDDFED060AB4EE600AF1EE10FAE1
:10233000F2D10248056000F0E3FC70BD9C0500206E
:102340000000C6422DE9F04105460C4600266420F7
:1023500002F012FE01F044FA01F01EFA064613489C
:10236000077805602846FFF7C1FE00F03FFF0FE049
:1023700001F012FA0646284600F0B0FDA64204D34A
:102380000021084601F012FB04E0012002F0F4FDF8
:10239000A642EDD900BF0021084601F007FB034823
:1023A0000760642002F0E8FDBDE8F0819C05002094
:1023B0002DE9F04105460C460026642002F0DCFDC4
:1023C00001F00EFA01F0E8F90646134807780560B7
:1023D0002846FFF78BFE00F009FF0FE001F0DCF963
:1023E0000646284600F042FEA64204D300210846D5
:1023F00001F0DCFA04E0012002F0BEFDA642EDD9B6
:1024000000BF0021084601F0D1FA034807606420AC
:1024100002F0B2FDBDE8F0819C05002010B500215E
:10242000084601F0C3FAFFF78FF9642002F0A4FD1B
:1024300010BD000010B52648007860B101F048FEDC
:1024400048B900202249087001F03AFE21A001F0AD
:102450007DFA02F0C7FE2148007848B100F050FA3A
:10246000012802D01E4800F027FB00201B490870FD
:102470001C48007858B31C4800F034FA11281ED2CA
:10248000DFE800F01D091D0F1D0E1C1D1D1D1D1D6B
:10249000120D10111B00144801F074FB13E012E040
:1024A00011E010E00FE00EE01048007820B10020AD
:1024B0000E49087002F072FE05E004E003E00CA093
:1024C00001F026FA00BF00BF00200649087010BDC9
:1024D000F2050020542D3E676F0000007B020020B3
:1024E0007C0A00207D020020440B0020F305002020
:1024F000756E646566696E650A00000010B51E4859
:102500000478FF201C490870012C06D0022C14D03E
:10251000032C22D0042C28D123E033233222312172
:102520000E2000F0A1F9642002F026FD36233522AA
:1025300034210F2000F098F91BE000231A460221F5
:10254000052000F091F9642002F016FD00231A46E0
:102550000221052000F088F90BE0084800F0BBF9E3
:1025600007E007A000F0B7F903E0FF200249087078
:1025700000BF00BFFF2410BD98050020B10500205A
:10258000313233343536000070B5002100230F227C
:10259000C4781CB3174C246804F4E064C4F5E06408
:1025A000C4F30721C1F10404E3B20A4144789C401A
:1025B000E1B28478144021430C07210E0E4C0578BB
:1025C0006155047804F01F050124AC4005786D11B5
:1025D000AD0005F1E025C5F8004109E0047804F0FC
:1025E0001F050124AC40054D0678761145F82640BC
:1025F00070BD00000CED00E000E400E080E100E0D0
:1026000002490143024A1160704700000000FA05C8
:102610000CED00E030B50346012902D1194840789D
:1026200001E01948407804461878164D2D78A842E4
:1026300026D15878A04223D1D879124DED79A842FD
:102640001ED1987803281BD1D878012802D10AB965
:10265000187930BDD878022812D1012A01D1187911
:10266000F7E7022A01D15879F3E7032A08D118794C
:10267000012803D15879012800D1EAE70220E8E7D0
:102680000020E6E75A06002062060020014608788E
:102690000B4A1278904211D14878094A52789042F8
:1026A0000CD1C879064AD279904207D1887810288F
:1026B00004D1C878012801D1087970470020FCE7CF
:1026C000720600202DE9FC4104460D4616461F46C1
:1026D000124800788DF80000104840788DF801000D
:1026E0008DF802408DF803508DF804608DF8057068
:1026F0009DF805309DF804209DF803109DF8020018
:1027000002F00DFC8DF806000448C0798DF8070032
:1027100069460220FEF711F8BDE8FC812206002080
:1027200010B50446207830B900231A460121084626
:10273000FFF7C8FF02E0204600F001F810BD10B519
:102740000446A378627821781020FFF7BBFF4FF48E
:10275000C87002F011FC63792279E1781120FFF74B
:10276000B1FF642002F008FC10BD01468878012802
:1027700006D1C87820B90879052801D10120704711
:102780000020FCE70146887870470146C87870470A
:102790000146087970470146487970472DE9FC41A8
:1027A00004460D4616461F46124800788DF8000074
:1027B000104840788DF801008DF802408DF80350E4
:1027C0008DF804608DF805709DF805309DF80420A3
:1027D0009DF803109DF8020002F0A1FB8DF80600A1
:1027E0000448C0798DF8070069460220FDF7A5FF6F
:1027F000BDE8FC811A06002010B5044600231A46E5
:1028000021460320FFF7CAFF10BD08B5002003468C
:10281000024601460090022000F033F84FF4967013
:1028200002F0AAFB00200346024601460090022067
:1028300000F027F84FF4967002F09EFB002003464C
:10284000024601460090022000F01BF808BD00007F
:1028500010B50446204601F01FFC01200149087014
:1028600010BD0000F2050020F8B504460D461646DE
:102870001F4633462A4621460220009700F001F801
:10288000F8BD2DE9FC4104460D4616461F46DDF80D
:10289000208055208DF800008DF801408DF8025001
:1028A0008DF803608DF804708DF805809DF8053073
:1028B0009DF804209DF803109DF8020002F02FFB04
:1028C0008DF80600BB208DF8070069460220FDF751
:1028D00034FFBDE8FC8110B5044621460120FDF718
:1028E0002CFF10BD01460878552806D1C879BB28B1
:1028F00003D1487808B1487870470020FCE7000011
:1029000010B50C480078552811D10A4840780128A4
:102910000DD008484078AA2809D00648C079BB28BD
:1029200005D104490220FDF708FF012010BD002059
:10293000FCE700007C0A002010B5564800785528B6
:1029400077D15448C079BB28FAD152484078AA2898
:1029500070D150488078A22821D00CDC45284AD07C
:1029600004DC402831D0412870D139E046284DD0D0
:10297000A1287CD108E0A3281CD0A52868D0AE28C7
:102980004CD0AF2873D156E001204349086041483C
:10299000C078012802D100204049087068E03D4815
:1029A000C0783F4908703B48007948703948407901
:1029B00088705DE03748C0783949C870354800797B
:1029C000087134484079487152E03248C07835493E
:1029D00008703048007948702E484079887047E088
:1029E0002C48C0782F49C8702A48007908712948B6
:1029F000407948713CE02748C0782B490870254849
:102A00000079487023484079887031E02148C078C7
:102A10002549C8701F480079087129E01D48C07811
:102A2000224908701B48007948701A48407988701C
:102A30001EE02AE01DE01748C0781C49C870154800
:102A40000079087113484079487111E00FE0FFE701
:102A50001048C0781649087008460078022805DA40
:102A600008460078072801DD0220087000E000BF5A
:102A70000EE0084840780E2808D1064880780228E1
:102A800006D10448C0780B49087001E0FFF7D2FC7A
:102A900010BD00007C0A0020A80600209E06002031
:102AA000830600208A060020910600207C06002074
:102AB0009D060020A606002010B504462078552863
:102AC00061D16078AA285ED1E079BB285BD1A0787B
:102AD00005282FD008DC01280FD0022810D00328A9
:102AE00016D004284ED11BE006282DD0A0282FD0C8
:102AF000AA2831D0AB2845D139E0FFF78FFC41E05F
:102B00002379627903EB0221E078FFF71BFC39E0BF
:102B10002379627903EB0221E078FFF7C1FA31E013
:102B2000E07830B12379627903EB0221E078FFF796
:102B3000EDFA27E0E07830B12379627903EB0221E6
:102B4000E078FFF7C2FB1DE0E078FFF7DDFB19E05E
:102B5000082001F003F815E00B48C0780B49087015
:102B60000948007948700848407988700AE00648AA
:102B7000C0780649C8700448007908710248407955
:102B8000487100BF00BF10BD7C0A002096060020DF
:102B900000B52048FFF7A6FE062828D006DC01284D
:102BA00030D0032807D005282DD112E00D2808D0F9
:102BB000102828D115E01748FFF7D7FD16490870EF
:102BC00022E0002201211348FFF724FD1349087079
:102BD0001AE0002211460F48FFF71CFD0F4908704C
:102BE00012E00C48FFF752FD0D4908700CE009484F
:102BF000C0780C490870074800794870054840794A
:102C0000887001E000E000BF00BF002006490870A6
:102C100000BD0000440B0020EC050020ED05002065
:102C2000EE050020EF0500207D020020184880ED11
:102C3000000A1848D0ED000A70EE800AC0ED000AC4
:102C40001548D0ED000A70EE600A1448C0ED000A85
:102C50001348D0ED000A0E4890ED001A60EE810A8C
:102C6000104890ED001A0B48D0ED001A41EE210AF1
:102C70000D4890ED001A0948D0ED001A41EE210AE6
:102C80000A48C0ED000A044880ED000A70470000C1
:102C9000D4050020D8050020E4050020DC05002034
:102CA000BC050020C0050020C4050020E005002070
:102CB0000D48D0ED001A0D48C0ED001A0C48D0EDBB
:102CC000001A0C48C0ED001A0B48D0ED001A0B4852
:102CD000C0ED001A084880ED000A0548C0ED000A62
:102CE000014880ED001A7047C4050020D00500207F
:102CF000C0050020CC050020BC050020C805002030
:102D0000094890ED000A094880ED000A084890ED56
:102D1000000A084880ED000A074890ED000A0748BD
:102D200080ED000A70470000C8050020BC050020A7
:102D3000CC050020C0050020D0050020C4050020DF
:102D400010B52DED028B04469FED5F0AB0EE408A70
:102D50000820FEF78BFFEF282ED00FDC9F2858D0DD
:102D600005DCB0B13F2859D07F286BD138E0BF28AF
:102D700031D0CF2848D0DF2864D127E0F3380C28A1
:102D800060D2DFE800F0505F5F5F1E5F555F325A30
:102D9000373C0720FEF76AFF7F280AD100F026FAA9
:102DA0002146204600F002FE9FED480ABDEC028B52
:102DB00010BD9FED460AF9E7BFEE000AB0EE408A6B
:102DC00045E0B7EE000AB0EE408A40E0B8EE000AF7
:102DD000B0EE408A3BE0B8EE080AB0EE408A36E03A
:102DE0009FED3B0AB0EE408A31E0B0EE000AB0EE53
:102DF000408A2CE0B0EE080AB0EE408A27E09FED52
:102E0000350AB0EE408A22E0B8EE000AB0EE408A01
:102E10001DE0B8EE080AB0EE408A18E09FED2C0ADB
:102E2000B0EE408A13E0B0EE000AB0EE408A0EE049
:102E3000B0EE080AB0EE408A09E09FED260AB0EE37
:102E4000408A04E09FED200AB0EE408A00BF00BF38
:102E5000B5EEC08AF1EE10FA08D100F0C7F92146AC
:102E6000204600F0A3FD9FED180A9FE79FED170A8B
:102E7000B4EE408AF1EE10FA22D0B0EE480AFFF725
:102E8000D5FE00EE104AB8EE400A134AD2ED000A11
:102E900030EE600ABDEEC00A10EE101A00EE104AC5
:102EA000B8EE400AD2ED000A30EE200ABDEEC00AAC
:102EB00010EE100A00F07AFD074890ED000A75E761
:102EC0009FED020A72E70000000000000000C64209
:102ED000CDCC4CC0CDCC4C40E005002010B52DED44
:102EE000028B04469FED560AB0EE408A0820FEF79A
:102EF000BDFEF32851D010DCBF2826D006DC3F28C9
:102F000046D07F2826D09F2856D13CE0CF2835D008
:102F1000DF2815D0EF284FD108E0F73808284BD22A
:102F2000DFE800F0094A404A1D4522279FED450A87
:102F3000B0EE408A45E09FED440AB0EE408A40E0A2
:102F4000B8EE000AB0EE408A3BE0B8EE080AB0EEF8
:102F5000408A36E09FED3D0AB0EE408A31E0B0EEA7
:102F6000000AB0EE408A2CE0B0EE080AB0EE408ACB
:102F700027E09FED370AB0EE408A22E09FED350A48
:102F8000B0EE408A1DE09FED340AB0EE408A18E0B2
:102F90009FED2E0AB0EE408A13E09FED300AB0EEAE
:102FA000408A0EE09FED2E0AB0EE408A09E09FEDC8
:102FB000280AB0EE408A04E09FED210AB0EE408A74
:102FC00000BF00BFB5EEC08AF1EE10FA0AD100F0E2
:102FD0000DF92146204600F0E9FC9FED190ABDECF1
:102FE000028B10BD9FED1F0AB4EE408AF1EE10FA7D
:102FF00022D0B0EE480AFFF719FE00EE104AB8EEF4
:10300000400A194AD2ED000A30EE600ABDEEC00A4D
:1030100010EE101A00EE104AB8EE400AD2ED000A87
:1030200030EE200ABDEEC00A10EE100A00F0BEFC21
:103030000D4890ED000AD2E79FED0A0ACFE70000A5
:1030400000000000CDCC8CBFCDCC8C3FCDCC4CC093
:10305000CDCC4C40CDCCCCBF666626C0CDCCCC3FD1
:10306000666626400000C642E005002010B52DED42
:10307000028B04469FED560AB0EE408A0820FEF708
:10308000F5FDF32851D010DCBF2826D006DC3F2800
:1030900046D07F2826D09F2856D13CE0CF2835D077
:1030A000DF2815D0EF284FD108E0F73808284BD299
:1030B000DFE800F0094A404A1D452227B8EE000A21
:1030C000B0EE408A45E0B0EE000AB0EE408A40E043
:1030D000B8EE040AB0EE408A3BE0B8EE080AB0EE63
:1030E000408A36E09FED3B0AB0EE408A31E0B0EE18
:1030F000040AB0EE408A2CE0B0EE080AB0EE408A36
:1031000027E09FED350AB0EE408A22E0B8EE000AD3
:10311000B0EE408A1DE09FED310AB0EE408A18E023
:103120009FED2C0AB0EE408A13E0B0EE000AB0EE3C
:10313000408A0EE09FED2A0AB0EE408A09E09FED3A
:10314000260AB0EE408A04E09FED210AB0EE408AE4
:1031500000BF00BFB5EEC08AF1EE10FA0AD100F050
:1031600045F82146204600F021FC9FED190ABDECF0
:10317000028B10BD9FED1B0AB4EE408AF1EE10FAEF
:1031800022D0B0EE480AFFF751FD00EE104AB8EE2B
:10319000400A154AD2ED000A30EE600ABDEEC00AC0
:1031A00010EE101A00EE104AB8EE400AD2ED000AF6
:1031B00030EE200ABDEEC00A10EE100A00F0F6FB59
:1031C000094890ED000AD2E79FED060ACFE700001C
:1031D00000000000CDCC4CC0CDCC4C40666626C073
:1031E000666626400000C642E00500209FED0F0AFB
:1031F0000F4880ED000A9FED0D0A0E4880ED000A91
:103200009FED0A0A0C4880ED000A9FED080A0B4862
:1032100080ED000A9FED050A094880ED000A9FED48
:10322000030A084880ED000A704700000000000013
:10323000D4050020D8050020DC050020E005002092
:10324000E4050020E805002010B52DED048BB0EE5C
:10325000080A164880ED000A90ED000ADFED140A16
:1032600020EE200A80ED000A9FED120A124880ED40
:10327000000A90ED000ADFED0E0A20EE200A10EEA3
:10328000101A0846FDF74EF841EC190B9FED0B0B99
:1032900053EC102BFCF7D7FF41EC180BFDF755F85A
:1032A00005490860BDEC048B10BD0000180000202B
:1032B0000000C84200CC0D411400002000000000B6
:1032C0000070A74010B503211420FEF743FA10BD8B
:1032D00010B5142000F011FA044604F0030018B9E8
:1032E0000321142000F0B4FB10BD10B500F0E6F986
:1032F00008B1FE2010BD0F21012001F027FD3D2166
:10330000112001F023FD1E212D2001F01FFD0021C1
:103310002C2001F01BFD8D212A2001F017FD3E21FC
:103320002B2001F013FD4021152001F00FFD00209E
:10333000E0E7000010B50320FEF784FC5149088047
:103340000846008800F0BEFC4E4908804E480188BF
:103350004C480088FEF770FE4C4908704A480088C7
:10336000F0BB4B48D0ED000A4648008800EE100A3A
:10337000B8EE400A20EE800ABCEEC00A10EE100A39
:10338000404908800846008800EE100AB8EE400A5E
:103390004048D0ED000AB4EEE00AF1EE10FA03D294
:1033A00000203D49087016E03648008800EE100AFB
:1033B000B8EE400A3748D0ED000A30EE600ABCEEA5
:1033C000C00A10EE100A34490870084600786428D4
:1033D00001DD64200870304800783049087000E052
:1033E00004E008460178012000F0BCFA2548008876
:1033F00025490880254800780A2842DD2448D0ED78
:10340000000A2048008800EE100AB8EE400A20EEBC
:10341000800ABCEEC00A10EE100A1A49088008465D
:10342000008800EE100AB8EE400A1A48D0ED000AF3
:10343000B4EEE00AF1EE10FA03D20020164908704B
:1034400016E01048008800EE100AB8EE400A114855
:10345000D0ED000A30EE600ABCEEC00A10EE100A91
:103460000D49087008460078642801DD6420087062
:10347000094800780949087008460178012000F0E1
:1034800071FA10BD1E000020200000202200002044
:1034900014000020180000201C0000201000002054
:1034A00010B586B004460121084600F043F801211A
:1034B000102000F06FF8072209211B48FEF70DFBD2
:1034C00007220A211848FEF708FB4FF4C060049059
:1034D00002208DF8140000208DF8160001208DF8D0
:1034E000170003208DF8150004A90F48FEF7ADFA68
:1034F00000940020ADF80C000C20ADF80A0000206C
:10350000ADF80800ADF80600ADF8040069460748BC
:1035100001F0F0F90121054801F083F90020044988
:10352000087006B010BD000000000240001001400D
:103530004400002029B1064A12680243044B1A6075
:1035400004E0034A12688243014B1A60704700008E
:103550003038024029B1064A12680243044B1A600F
:1035600004E0034A12688243014B1A60704700006E
:103570004038024029B1064A12680243044B1A60DF
:1035800004E0034A12688243014B1A60704700004E
:103590002038024029B1064A12680243044B1A60DF
:1035A00004E0034A12688243014B1A60704700002E
:1035B0004438024029B1064A12680243044B1A609B
:1035C00004E0034A12688243014B1A60704700000E
:1035D00024380240F0B500210022002402250026F4
:1035E0000223324F3F6807F00C0121B1042905D0B6
:1035F000082937D105E02E4F076036E02D4F0760D0
:1036000033E02A4F3F1F3F68C7F38056274F3F1FC5
:103610003F6807F03F036EB1264FB7FBF3F7DFF8C3
:103620008CC0ACF1040CDCF800C0CCF3881C07FBA8
:103630000CF40CE01E4FB7FBF3F7DFF870C0ACF1F1
:10364000040CDCF800C0CCF3881C07FB0CF4174F0B
:103650003F1F3F68C7F301477F1C7D00B4FBF5F7B0
:10366000076002E0124F076000BF00BF0F4F3F68C6
:1036700007F0F0010909104F7A5C0768D7404760EE
:103680000A4F3F6807F4E051890A0B4F7A5C47689C
:10369000D7408760054F3F6807F46041490B064FEC
:1036A0007A5C4768D740C760F0BD00000838024028
:1036B0000024F40040787D01E400002038B5FE25A8
:1036C00000200090002400BF12E0552000F0A6F971
:1036D00042F21071684600F031F838B9552000F018
:1036E0009DF9642001F048FC002503E0601C84B2D1
:1036F000642CEADB00BF68B238BD38B5044604F07C
:103700003F0040F08004204600F088F942F210713A
:10371000684600F013F805460DB1FF2038BD9DF84E
:103720000000FBE710B54FF41650FFF7B9FE4FF459
:10373000FA7001F021FCFEF737FC10BD70B50446AD
:103740000D4601F065FC4FF4FA61B5FBF1F1461846
:103750000AE00A48008800F0200028B1074801F07C
:1037600033F92070002070BD304601F057FC00286E
:10377000EFD1034908700120F5E700000010014077
:103780004400002010B5FEF78BFA01F0A7FD01F010
:1037900087FD00F06BFD10BD0F48B0F900000F4A27
:1037A000B2F90020904207DD0B48B0F900000B4A47
:1037B000B2F90020811A06E00848B0F90000064A74
:1037C000B2F90020811AB1F5004F02D94FF6FF700F
:1037D000411A88B2704700002E0100201401002019
:1037E0000248B0F900000249088070472E0100200D
:1037F0001401002010B52448006801F00FFC0028D7
:1038000040D101F005FC32301F4908601F480078A4
:1038100048B900201E49086001201E49C1F8B002C5
:103820001A4908702EE01948007801280BD10020B1
:1038300017490C39086001201649C1F8B40202206A
:10384000124908701EE01148007802280BD10020B0
:103850000F490839086001200E49C1F8B802032059
:103860000A4908700EE00948007803280AD10020B0
:103870000749091F086001200649C1F8BC02002061
:103880000249087010BD0000F8030020F303002077
:10389000BC824342008043421CB501200321002327
:1038A0001A46CDE9001080210148FEF744F91CBDFD
:1038B000000402401CB50020032103460122CDE98B
:1038C000001080210148FEF736F91CBD00040240BB
:1038D00030B500228B071C0F0F2303FA04F20B4BA9
:1038E0008C1053F824309343084C8D1044F8253045
:1038F00023468C1053F824308C07240F00FA04F46C
:103900002343024C8D1044F8253030BD0838014067
:1039100070B504460025207860B1264601E0681C99
:10392000C5B214F8011B0029F9D12946304600F030
:103930002FF803E0022104A000F02AF84FF47A7077
:1039400001F040FB70BD00000A00000010B5044605
:103950002046FFF7DDFF022101A000F019F810BD9D
:103960000A0000007CB505460C4603208DF80400D3
:1039700001208DF805008DF8064000204FF4F0730B
:10398000032201A900901046FDF718FD7CBD000040
:1039900070B504460D462A4621460348FDF7C9FF87
:1039A000642001F00FFB70BD480800207CB5044680
:1039B0000D46E0B28DF80400E0B28DF80500E8B2E3
:1039C0008DF80600E8B28DF80700FDF7C5FB78B169
:1039D0000020034620220421009001A8FDF782FB6D
:1039E00000202023024601A90090FDF7E7FC06E035
:1039F00000202023042201A90090FDF7DFFC7CBDFC
:103A000070B504460D462A4621460348FDF791FF4E
:103A1000642001F0D7FA70BD8808002010B5044674
:103A20000A48008800BF0948008800F0800001288B
:103A3000F9D02146054800F0CCFF00BF40210348E3
:103A400000F0FBFE0128F9D110BD0000001001407C
:103A500070B505460C4600262846FFF74EFE064682
:103A600046EA0401284601F071F9002070BD00000B
:103A70000CB50020019000903448006840F480307C
:103A80003249086000BF3148006800F400300090FF
:103A90000198401C0190009818B90198B0F5A04F0A
:103AA000F1D12A48006800F4003010B101200090E4
:103AB00001E0002000900098012846D123484030C2
:103AC000006840F08050214940310860204800687B
:103AD00040F440401E4908601C48083000681B49FB
:103AE000083108600846006840F400400860084655
:103AF000006840F4A05008601648091F0860081FBD
:103B0000006840F08070091F086000BF0F4800681F
:103B100000F000700028F9D040F205700E490860EE
:103B20000A480830006820F003000849083108609E
:103B30000846006840F00200086000BF03480830F3
:103B4000006800F00C000828F8D10CBD00380240D5
:103B50000070004019544007003C0240014A1070B8
:103B6000704700009805002010B50446FCF74EFE93
:103B70004620FCF71FFE2046FCF71CFEFCF762FE09
:103B800010BD000010B504462046FEF7FBFD0A28D4
:103B900024D008DC01280FD003281BD008285ED0D1
:103BA00009287DD16BE00B2828D00C2836D00D28B1
:103BB00044D0B02874D151E03B48007848B100208F
:103BC0003949087000F07CFA38A0FFF7BFFE01F019
:103BD00009FB66E037A0FEF7A3FD62E02046FEF792
:103BE000D4FD354908602046FEF7D2FD32494860D1
:103BF0002046FEF7D0FD3049886052E02046FEF7AF
:103C0000C4FD2D49C8602046FEF7C2FD2A4908615F
:103C10002046FEF7C0FD2849486142E02046FEF7F5
:103C2000B4FD264908702046FEF7B2FD23494870CE
:103C30002046FEF7B0FD2149887032E02046FEF7AD
:103C4000A4FD1E49C8702046FEF7A2FD1B4908715D
:103C50002046FEF7A0FD1949487122E021E02046E8
:103C6000FEF793FD164908702046FEF791FD1449B2
:103C700048702046FEF78FFD1149887011E02046FC
:103C8000FEF783FD0E4908712046FEF781FD0C49C1
:103C900048712046FEF77FFD0949887101E0FFE782
:103CA00000BF00BF10BD0000F2050020532D3E678D
:103CB0006F00000000000000700C0020A50500202F
:103CC000B105002010B5024600230B488282002176
:103CD0000BE0094C481C34F8100024F81100204671
:103CE00030F81100184483B2491C0A29F1DB0A207C
:103CF00093FBF0F080B210BDE0070020042808D14B
:103D00004FF0E021096941F004014FF0E022116118
:103D100007E04FF0E021096921F004014FF0E022B3
:103D20001161704710B51548006840F470001349E0
:103D300008601348006840F0010011490860002045
:103D40000F49083108600E4800680E4908400C49C8
:103D500008600D48091D0860081F006820F48020D5
:103D6000091F0860002006490C310860FFF780FE3B
:103D70004FF0006001498039086010BD88ED00E017
:103D800000380240FFFFF6FE1030002410B501217C
:103D9000054800F00AF9012801D1FFF7F3FC0121E1
:103DA000014800F0F3F810BD0040014010B50121BA
:103DB000074800F0FAF8012804D106480068401CC2
:103DC000044908600121024800F0E0F810BD00003D
:103DD00000440140DC00002010B50121880700F0FC
:103DE000E4F801282DD11948007868B11848017805
:103DF000002000F04FF9012001F0BEF815480178CD
:103E0000012000F047F907E06321002000F042F9AB
:103E10006321012000F03EF90F48006860B10F48AF
:103E20000068B0F5FA7F07DB00200C4908600A48FB
:103E30000068401E0849086008480068401C07499F
:103E400008600121880700F0A1F810BDAC06002031
:103E5000AD060020AE060020B0060020B806002007
:103E600010B50121074800F0A0F8012804D1064848
:103E70000088401C044908800121024800F086F8AF
:103E800010BD000000040040E803002010B501212F
:103E9000074800F08AF8012804D10648007808B1E4
:103EA000FEF776FE0121024800F070F810BD000018
:103EB000000800407D02002010B501210C4800F0F0
:103EC00074F801280FD10B48007860B1FEF734FD7B
:103ED00000200849087000BF03E00021064A115481
:103EE000401C0A28F9DB0121014800F04FF810BD01
:103EF000000C00407B0200207C0A002010B501214C
:103F0000074800F052F8012804D106480068401C18
:103F1000044908600121024800F038F810BD000093
:103F2000001000400400002010B50121054800F0F9
:103F30003CF8012801D1FDF7C1FF0121014800F043
:103F400025F810BD0014004010B501210C4800F008
:103F50002CF801280ED10B480078401C0949087044
:103F600008460078142805DD012007490870002064
:103F7000044908700121024800F008F810BD000053
:103F8000002000407600002075000020CA43028215
:103F9000704721B1028842F00102028004E00288E9
:103FA0004FF6FE731A400280704730B5024600207B
:103FB00000230024158A05EA0103958905EA010416
:103FC00013B10CB1012000E0002030BD1AB183898B
:103FD0000B43838102E083898B4383817047000018
:103FE00000220288184B98420ED0184B98420BD0F2
:103FF000B0F1804F08D0164B984205D0154B98422F
:1040000002D0154B984204D14FF68F731A404B885B
:104010001A43124B984207D0114B984204D04FF6E6
:10402000FF431A400B891A4302804B68C3620B8816
:104030000385054B984202D0044B984201D18B7AFC
:104040000386012383827047000001400004014081
:104050000004004000080040000C00400010004038
:104060000014004010B500F0CFFE00F099FE00F003
:104070001FFF00F0B3FE00F0EFFE00F017FF00F0AE
:10408000ABFE10BD70B504460D4629462046FDF72F
:1040900031FF70BD7047000010B50446002005498F
:1040A0000860054908600548046001218807FFF79A
:1040B00070FF10BDB8060020B4060020B006002036
:1040C00010B500214FF08040FFF763FF10BD0000E6
:1040D0000548006808B1022070470448006808B12C
:1040E0000120F9E70020F7E7B4060020B006002021
:1040F0007FB505460C4601210846FFF72BFA0295CD
:10410000ADF804400020ADF80600ADF80C008DF8C5
:104110000E0001A94FF08040FFF762FF1C208DF8D0
:10412000000000208DF801000A208DF80200012017
:104130008DF803006846FEF727FA01221146900722
:10414000FFF744FF00214FF08040FFF722FF7FBDC3
:104150007FB505460C4601210420FFF7FBF900203E
:10416000ADF80C00ADF806000295ADF8044001A9C9
:104170000D48FFF735FF012211460B48FFF726FFD8
:104180001E208DF8000001208DF8030000208DF81E
:10419000010002208DF802006846FEF7F5F90021C3
:1041A0000148FFF7F6FE7FBD000800407FB50546D9
:1041B0000C4601210820FFF7CDF90295ADF8044027
:1041C0000020ADF80600ADF80C008DF80E0001A936
:1041D0000D48FFF705FF32208DF8000000208DF814
:1041E000010002208DF8020001208DF803006846CE
:1041F000FEF7CAF9012211460348FFF7E7FE002146
:104200000148FFF7C6FE7FBD000C00407FB50546A4
:104210000C4601214804FFF7BDF90295ADF80440B2
:104220000020ADF80600ADF80C008DF80E0001A9D5
:104230000D48FFF7D5FE19208DF8000000208DF8FD
:10424000010006208DF8020001208DF80300684669
:10425000FEF79AF9012211460348FFF7B7FE012144
:104260000148FFF796FE7FBD0044014010B50648A7
:104270000078012806D10820FDF7F8FCC4B22046DA
:1042800000F004F810BD0000F900002010B504464D
:1042900054B90020B34908700120B34908700021C7
:1042A0000846FFF783FB2DE1E72C08D1AF480068F3
:1042B000AF490860AD480068AE49086022E1F72CBC
:1042C00001D0F32C0AD1A94800681430A84908602D
:1042D000A64800682838A749086013E1FB2C01D0E4
:1042E000F92C0AD1A14800682830A14908609F48EC
:1042F00000683C389F49086004E1FD2C01D0FC2C8B
:104300000AD19A4800683C3099490860974800688B
:104310005A3898490860F5E0FE2C0AD193480068A5
:104320005030934908609148006878389149086096
:10433000E8E0EF2C01D0CF2C0AD18C480068143073
:104340008C49086089480068283889490860D9E0A4
:10435000DF2C01D09F2C0AD1844800682830854981
:104360000860824800683C3881490860CAE0BF2C78
:1043700001D03F2C0AD17D4800683C307D4908605F
:104380007A4800685A387A490860BBE07F2C0AD125
:10439000764800685030774908607448006878387B
:1043A00073490860AEE074480078012815D104F024
:1043B0001800182891D104F0800018B104F0010011
:1043C00000288AD1002067490870012066490870DA
:1043D00000210846FFF7EAFA94E0684800780128CF
:1043E00071D1182C08D161480068614908605F48A4
:1043F00000686049086085E0082C01D00C2C0AD1C7
:104400005A48006814305A490860584800682838EB
:104410005849086076E0042C01D0062C0AD1534894
:104420000068283052490860504800683C385149BB
:10443000086067E0022C01D0032C0AD14B480068C9
:104440003C304B490860494800685A38494908607F
:1044500058E0012C0AD145480068503044490860B2
:10446000424800687838434908604BE0102C01D07E
:10447000302C0AD13D48006814303E4908603B4862
:10448000006828383A4908603CE0202C01D0602CB4
:104490000AD1364800682830364908603348006839
:1044A0003C38334908602DE0402C01D0C02C0BD1A2
:1044B0002E4800683C302F4908602C4800685A3864
:1044C0002B4908601EE015E0802C0AD127480068BF
:1044D0005030284908602548006878382449086029
:1044E00010E02248006822490860204800682149FD
:1044F000086007E01D4800681D4908601B48006807
:104500001C490860FF2C20D1184800681849086031
:10451000164800681749086019480088B0F5966F7A
:104520000DDD00201649088000210846FFF73EFAFD
:1045300000200C49087004200B49087008E010485E
:104540000088401C0E49088002E000200C490880C9
:104550000448007828B10748016805480068FDF75D
:1045600008F910BDF9000020FE000020080100201D
:10457000000100200401002050050020510500200A
:10458000FC000020024600215178107840EA012109
:1045900008467047024600211178507840EA012110
:1045A0000846704710B5024800F0E0FA10BD000060
:1045B000B407002010B51248007800BB40F2255126
:1045C000104800F047F9012819D10E4800F0FCF915
:1045D0000D490E4A127888540C480078401C0B494B
:1045E000087008460078022804DB002008700120CB
:1045F0000349087040F22551024800F003F910BD4C
:104600000A000020001001400C0000200B000020D8
:1046100010B540F22551184800F01CF901282AD1A4
:104620001648007890B900F0F3FC0A30144908608D
:10463000002014490870104800F0C6F91249114AC8
:104640001278885401200D4908700FE00D48007859
:10465000C8280BDA084800F0B7F9C1B20948007859
:10466000401CC0B2074A1070074A115440F225514D
:10467000014800F0C7F810BD004400407B02002054
:10468000840200207A0200207C0A002000B587B056
:1046900001210420FEF74EFF01212020FEF77AFFC2
:1046A000082206212348FDF718FA0822072121488D
:1046B000FDF713FAC020059002208DF818000020A5
:1046C0008DF81A0003208DF8190001208DF81B00C9
:1046D00005A91848FDF7B9F94FF4E1300190002021
:1046E000ADF810000C20ADF80E000020ADF80C0065
:1046F000ADF80A00ADF8080001A90F4800F0FAF87B
:10470000012240F225510C4800F0CEF847208DF8E8
:10471000000000208DF801008DF8020001208DF8C6
:1047200003006846FDF730FF0121034800F079F8E7
:1047300007B000BD000802400014014010B540F26F
:1047400025512A4800F086F8002848D0274800F074
:104750003BF9274908702748007878B9084600785F
:1047600055283CD10120234908702148007822496E
:104770000870002048708870C87030E01D480078CC
:1047800001280AD102201B490870194800781A49EB
:10479000487001201949087021E016480078022865
:1047A00007D1032013490870114800781249887016
:1047B00015E01048007803280AD100200D49087040
:1047C0000B4800780C49C87001200D49087006E0BC
:1047D0000020084908700A4908700749087040F22B
:1047E0002551024800F00EF810BD000000140140F1
:1047F000B9000020BA000020BB000020D700002034
:10480000C300002010B50022002340F66A14A14224
:1048100000D100BF0A1201249440A3B2DC430480FB
:1048200010BD21B1828942F40052828104E0828964
:104830004DF6FF731A408281704702460020B1F5A1
:10484000007F00D100BF13880B400BB1012000E0B6
:104850000020704770B50246002400230025002088
:1048600040F66A16B14200D100BFC1F3421501F013
:104870001F03012606FA03F3012D02D19689334066
:1048800006E0022D02D1168A334001E0968A3340B9
:104890000C12012606FA04F41688344013B10CB148
:1048A000012000E0002070BDF0B503460024002682
:1048B0000025002040F66A17B94200D100BF184613
:1048C000C1F3421401F01F06012707FA06F5012C77
:1048D00001D10C3004E0022C01D1103000E0143082
:1048E0001AB107682F43076002E00768AF4307600B
:1048F000F0BD00002DE9FF4705460E460024A14605
:1049000000BFA046B08900B100BF2C8A24F44054F7
:10491000F08804432C82AC8941F20C608443B08857
:1049200031890843718908430443AC81AC8A24F47B
:104930004074B0890443AC826846FEF74BFE2048C1
:10494000854202D01F48854202D1DDF80C9001E07B
:10495000DDF80890A88900F4004040B109EBC900D7
:1049600000EB091031684900B0FBF1F707E009EBF3
:10497000C90000EB091031688900B0FBF1F7642031
:10498000B7FBF0F004012009642101FB1078A8892D
:1049900000F4004040B1322000EBC800B0FBF1F061
:1049A00000F00700044308E0322000EB0810642107
:1049B000B0FBF1F000F00F0004432C81BDE8FF874D
:1049C000001001400014014001468888C0F308002F
:1049D0007047C1F3080282807047000010B512488A
:1049E0001249C1F8B00032211048C0F8B4100021BB
:1049F000C0F8B810C0F8BC10C0F8C0100C49C0F81E
:104A0000C4100221C0F8C8100021C0F8CC10C0F8B2
:104A1000D010C0F8D410042180F8D8100020054927
:104A2000087000F009F810BDD0060020040700202F
:104A3000240000202300002000B587B0012140F2AF
:104A40000910FEF777FD01214FF42020FEF782FDCB
:104A5000082200214048FDF740F8072206213F4880
:104A6000FDF73BF800208DF81A0001208DF81B009F
:104A700002208DF818000120059002208DF8190001
:104A800005A93548FCF7E1FF02208DF81800402009
:104A9000059005A93148FCF7D8FF00208DF81A00D1
:104AA00001208DF81B008DF81800000205900220EF
:104AB0008DF8190005A92A48FCF7C7FF0020FDF76B
:104AC00001FA4FF4E13001900020ADF80800ADF894
:104AD0000A00ADF80C00ADF810000820ADF80E008B
:104AE00001A92048FFF706FF01211E48FFF799FEA4
:104AF00034208DF8000000208DF8010002208DF890
:104B0000020001208DF803006846FDF73DFD4FF4DB
:104B1000E13001900420ADF80E0001A91248FFF722
:104B2000E9FE26208DF8000000208DF801008DF8A8
:104B3000020001208DF803006846FDF725FD0122E3
:104B400040F225510848FFF7AFFE01210648FFF764
:104B500068FE07B000BD000000000240000C0240EB
:104B600000200240004C00400044004010B50446C4
:104B700094F82810374A52F8210040F22771FFF7C5
:104B800069FE18B3E068401CE060D4E90210884276
:104B900009D2E1682068405C94F828102D4A52F848
:104BA0002110888009E094F828102A4A52F8210040
:104BB000002240F22771FFF777FE94F82810254A6B
:104BC00052F8210040F22771FFF71CFE94F82810DC
:104BD000204A52F8210040F22551FFF73BFE30B346
:104BE00000F016FA606294F828001A4951F8200083
:104BF00080881949087094F82810164A52F8210044
:104C000040F22551FFF7FEFDD4E90610884207D295
:104C100011480178E269501CE0616069815406E046
:104C20000E49206A884202D2206A401C206294F811
:104C30002810084A52F821000821FFF7FEFD38B17C
:104C400094F82800034951F820008088044908702E
:104C500010BD00002C00002028000020F0FFFF7F86
:104C6000290000200EB54FF4C060FDF7C9FC0121FA
:104C70008803FEF78FFC04210120FEF729FE102097
:104C8000019000208DF808000C208DF8090001200B
:104C90008DF80A0001A8FCF7E7FD0A208DF8000056
:104CA00000208DF8010007208DF8020001208DF80A
:104CB00003006846FDF768FC0EBD10B500F008F86B
:104CC0005321092000F016F8FFF7CCFF10BD0000BB
:104CD00010B501210320FEF72DFC00220E2104480F
:104CE000FCF7FBFE00220D210148FCF7F6FE10BD8B
:104CF000000002407FB505460C4601211020FEF75A
:104D000029FC0295ADF804400020ADF8060001A989
:104D10000D48FFF765F936208DF8000000208DF86A
:104D200001008DF8020001208DF803006846FDF7B0
:104D30002BFC012211460448FFF748F900210248E4
:104D4000FFF727F97FBD00000010004070B5044652
:104D50000D462946204600F001F870BDF8B504461E
:104D60000D46032704F03F04002714E02046FEF719
:104D700055FE42F210716846FEF7E0FC064646B961
:104D80009DF80000844203D12846FEF747FE04E068
:104D90000226781CC7B2032FE8DB00BF3046F8BDFF
:104DA0001CB50A48006840F004000849086001206A
:104DB000032100230246CDE9001041030448FCF71B
:104DC000BAFE0120034908601CBD000030380240D3
:104DD00000080240B4024142704700001CB5084878
:104DE000006840F0200006490860012003210023EC
:104DF0000246CDE90010C1020248FCF79CFE1CBD32
:104E000030380240001402401CB50F48006840F0E2
:104E100080000D49086001200090002302468102B5
:104E200001900A48FCF787FE01200090002302460B
:104E3000C10201900548FCF77EFE0120044908608C
:104E40000449C1F8AC021CBD30380240001C0240CD
:104E5000A8824342008043421CB51148006840F0DC
:104E600040000F4908600846006840F002000860F2
:104E70000120032100230246CDE90010C1030948A7
:104E8000FCF759FE0120032100230246CDE9001062
:104E900040210548FCF74FFEFBF760FC1CBD0000FD
:104EA0003038024000180240000402407047000001
:104EB0001CB51048006840F002000E490860084622
:104EC000006840F0010008600120032100231A4619
:104ED000CDE9001010210848FCF72DFE0120032128
:104EE00000230246CDE90010C1030448FCF723FE6D
:104EF0001CBD0000303802400004024000000240A7
:104F000002E008C8121F08C1002AFAD17047704792
:104F1000002001E001C1121F002AFBD1704730B50B
:104F200004460D4660191044C118C81701EB106003
:104F30000012A1EB0020C0B230BD000010B5044645
:104F40006FF00400FEF7DAFEE11704EB5171C1F3D4
:104F5000C701074A11701046007800EB4001C1EB11
:104F6000C0104FF6FF7101EAC0000249088010BD71
:104F7000D8000020DA0000200146114A12884A4376
:104F80004FF0E0235A6100229A611A46126942F0FA
:104F900001021A6100BF4FF0E022106900F0010227
:104FA0001AB100F48032002AF5D04FF0E0221269E5
:104FB00022F001024FF0E0231A6100229A6170474B
:104FC000DA0000200146114A12784A434FF0E023EC
:104FD0005A6100229A611A46126942F001021A616E
:104FE00000BF4FF0E022106900F001021AB100F496
:104FF0008032002AF5D04FF0E022126922F001023F
:105000004FF0E0231A6100229A617047D800002017
:105010000148006870470000DC000020044909686E
:10502000884203D902490968401A00E0002070470D
:10503000DC00002010B53E480068C0B91420FFF71E
:105040009BFF3B48006890B901203A49086000BFC7
:10505000374800680028FBD04FF4FA70FFF78CFF48
:105060004FF4FA70FFF788FF0120FEF777FD304814
:10507000001D0068D8B91420FFF77EFF2C48001DE2
:105080000068A0B901202B49091D086000BF28480D
:10509000001D00680028FAD04FF4FA70FFF76CFF8B
:1050A0004FF4FA70FFF768FF0220FEF757FD204823
:1050B00008300068D8B91420FFF75EFF1C4808309C
:1050C0000068A0B901201B490831086000BF1848DA
:1050D000083000680028FAD04FF4FA70FFF74CFF50
:1050E0004FF4FA70FFF748FF0320FEF737FD104832
:1050F0000C300068D8B91420FFF73EFF0C480C3084
:105100000068A0B901200B490C31086000BF0848B5
:105110000C3000680028FAD04FF4FA70FFF72CFF2B
:105120004FF4FA70FFF728FF0420FEF717FD10BDBB
:1051300010024442B0824342FCF7E6FDFDF76EF9EF
:10514000012012490860C820FFF716FF002010490F
:10515000C1F89402C820FFF70FFF01200B49086037
:10516000C820FFF709FF00200949C1F8940209A0EF
:10517000FEF7CEFB09E0FFF75DFFFEF73BFBFDF717
:10518000BDF9FDF757F9FBF779FBF4E79482434249
:105190000080434246697273740A000010B500F043
:1051A00001F810BD10B54FF48C710C480068FDF784
:1051B000C9F80A480068FDF7A7F84FF48C71074852
:1051C0000068FDF7BFF8012105480068FCF7BCFF47
:1051D000FDF71BFB1E20FDF73BFB10BD9C050020CF
:1051E000A00500209FED271ADFED270AB3EE090A7C
:1051F000FDF75EFD25A0FDF793FA4FF4FA70FFF777
:10520000BBFE4FF4FA70FFF7B7FE22480068FDF7C7
:105210007BF84FF48C711F480068FDF793F801216B
:105220001D480068FCF790FF1A480068FDF76CF80D
:105230004FF48C7117480068FDF784F84FF4E17162
:1052400015480068FDF741F81448FDF744FBC820F5
:10525000FFF792FE1148FDF73EFB4FF4E1710E4857
:105260000068FDF732F840F2F460FCF7EDFE002034
:10527000FDF7C2FAC820FFF77FFE0020FDF7BCFA59
:1052800000BFFEE7000096430000000042393837B7
:10529000363500009C050020A0050020B105002047
:1052A00010B500240A48007880B1FEF775FA04466C
:1052B00008480088844209DB002005490870022064
:1052C0000549087000210846FEF770FB10BD00007C
:1052D000F60000200E010020FE00002010B5002482
:1052E0002348007801281FD10820FCF7BFFC0446A2
:1052F00004F0100080B91F480068322837D9002018
:105300001B4908701B49086002201B4908700021D6
:105310000846FEF74BFB2AE0FF2C28D11548006811
:10532000401C1449086022E01448007801281ED16E
:105330000820FCF79BFC044604F0080080B90D48E7
:105340000068322813D900200C4908700949086008
:1053500002200949087000210846FEF727FB06E0F5
:10536000FF2C04D103480068401C0249086010BDAE
:10537000F400002010010020FE000020F5000020B5
:10538000010000000200000004000000080000000E
:10539000100000002000000040000000800000001D
:1053A00000010000000200000004000000080000EE
:1053B00000100000002000000040000000800000FD
:1053C00000000100000002000000040000000800CE
:1053D00000001000000020000000400000008000DD
:1053E00000000001000000020000000400000008AE
:1053F00000000010000000200000004000000080BD
:10540000FEFFFFFFFDFFFFFFFBFFFFFFF7FFFFFFBB
:10541000EFFFFFFFDFFFFFFFBFFFFFFF7FFFFFFF8C
:10542000FFFEFFFFFFFDFFFFFFFBFFFFFFF7FFFF9B
:10543000FFEFFFFFFFDFFFFFFFBFFFFFFF7FFFFF6C
:10544000FFFFFEFFFFFFFEFFFFFFFBFFFFFFF7FF7A
:10545000FFFFEFFFFFFFDFFFFFFFBFFFFFFF7FFF4C
:10546000FFFFFFFEFFFFFFFDFFFFFFFBFFFFFFF75B
:10547000FFFFFFEFFFFFFFDFFFFFFFBFFFFFFF7F2C
:105480000008040C020A060E0109050D030B070FA4
:10549000B054000800000020D0060000D00400082E
:1054A000AC560008D0060020B8090000104F0008D4
:1054B000022E0001100A1001400044004000480480
:1054C000124C0412500C411A9012303132333435E0
:1054D00036373839414243444546FF01F00E5246C3
:1054E00049445F414444523A30310A54100AFD00A5
:1054F00002511FFD0001520913100409C02311FDC0
:10550000001E0101C6F4B6AFD3EFD2F4BFD8D6C6A1
:10551000BCDDCABBA3ACC7EBB7A2B3F6D6B8C1EE2D
:105520003F60040001010D12FA010210A1B720052D
:10553000010203040400063B060708090001100AE3
:10554000C003E0078002E007A0041007E000E007C6
:105550000001081104A124201D300000FF0CF300FD
:10556000FF18E700FF5EA103051445DE926734785B
:10557000A2FD27FF14AA2004FF14020622155023BF
:105580005503BD1302BB081115120308422008136E
:105590000403182204085200101118200505BB55F9
:1055A0000E421201083302011830040E02022830A4
:1055B000040E020320520F20520F20520F20520FD0
:1055C00020520D70520D7030040D01034040040D47
:1055D0000104205158520D585205305205305205E1
:1055E00030520530520530520588130B10B8221185
:1055F0000811B0500512BB550AE01702A0982241CD
:1056000008040621A2000042BB6B05FF44051E44AE
:105610003B551193110842CC0849A3156CC10806EB
:10562000FF2462055F6244055AA401006E0C041851
:1056300000FF113E040526B22D4604122809265A01
:105640007D23413901B148321A270C0B2BA0418F21
:10565000C2753D00009841C3040516F641A24DCA2B
:105660000415D251085203B24DB8055004BB55067B
:10567000C2520B185208D2520EDA520F10520D308D
:10568000520510520CFA8210E20D2D7B05CF636398
:105690008A05001400F9A4B0999282F8809088835A
:0C56A000C6A1868EFF7F8C000000000079
:040000050800018965
:00000001FF
